{
  "_format": "hh-sol-artifact-1",
  "contractName": "TokenFacet",
  "sourceName": "contracts/facets/TokenFacet.sol",
  "abi": [
    {
      "anonymous": false,
      "inputs": [
        {
          "indexed": true,
          "internalType": "address",
          "name": "user",
          "type": "address"
        },
        {
          "indexed": false,
          "internalType": "bool",
          "name": "frozen",
          "type": "bool"
        }
      ],
      "name": "AccountFrozen",
      "type": "event"
    },
    {
      "anonymous": false,
      "inputs": [
        {
          "indexed": true,
          "internalType": "address",
          "name": "owner",
          "type": "address"
        },
        {
          "indexed": true,
          "internalType": "address",
          "name": "spender",
          "type": "address"
        },
        {
          "indexed": false,
          "internalType": "uint256",
          "name": "value",
          "type": "uint256"
        }
      ],
      "name": "Approval",
      "type": "event"
    },
    {
      "anonymous": false,
      "inputs": [
        {
          "indexed": true,
          "internalType": "address",
          "name": "from",
          "type": "address"
        },
        {
          "indexed": true,
          "internalType": "address",
          "name": "to",
          "type": "address"
        },
        {
          "indexed": false,
          "internalType": "uint256",
          "name": "value",
          "type": "uint256"
        }
      ],
      "name": "Transfer",
      "type": "event"
    },
    {
      "inputs": [
        {
          "internalType": "address",
          "name": "owner_",
          "type": "address"
        },
        {
          "internalType": "address",
          "name": "spender",
          "type": "address"
        }
      ],
      "name": "allowance",
      "outputs": [
        {
          "internalType": "uint256",
          "name": "",
          "type": "uint256"
        }
      ],
      "stateMutability": "view",
      "type": "function"
    },
    {
      "inputs": [
        {
          "internalType": "address",
          "name": "spender",
          "type": "address"
        },
        {
          "internalType": "uint256",
          "name": "amount",
          "type": "uint256"
        }
      ],
      "name": "approve",
      "outputs": [
        {
          "internalType": "bool",
          "name": "",
          "type": "bool"
        }
      ],
      "stateMutability": "nonpayable",
      "type": "function"
    },
    {
      "inputs": [
        {
          "internalType": "address",
          "name": "account",
          "type": "address"
        }
      ],
      "name": "balanceOf",
      "outputs": [
        {
          "internalType": "uint256",
          "name": "",
          "type": "uint256"
        }
      ],
      "stateMutability": "view",
      "type": "function"
    },
    {
      "inputs": [
        {
          "internalType": "address",
          "name": "from",
          "type": "address"
        },
        {
          "internalType": "uint256",
          "name": "amount",
          "type": "uint256"
        }
      ],
      "name": "burn",
      "outputs": [],
      "stateMutability": "nonpayable",
      "type": "function"
    },
    {
      "inputs": [],
      "name": "decimals",
      "outputs": [
        {
          "internalType": "uint8",
          "name": "",
          "type": "uint8"
        }
      ],
      "stateMutability": "pure",
      "type": "function"
    },
    {
      "inputs": [
        {
          "internalType": "address",
          "name": "from",
          "type": "address"
        },
        {
          "internalType": "address",
          "name": "to",
          "type": "address"
        },
        {
          "internalType": "uint256",
          "name": "amount",
          "type": "uint256"
        }
      ],
      "name": "forceTransfer",
      "outputs": [],
      "stateMutability": "nonpayable",
      "type": "function"
    },
    {
      "inputs": [
        {
          "internalType": "address",
          "name": "user",
          "type": "address"
        }
      ],
      "name": "freezeAccount",
      "outputs": [],
      "stateMutability": "nonpayable",
      "type": "function"
    },
    {
      "inputs": [
        {
          "internalType": "address",
          "name": "to",
          "type": "address"
        },
        {
          "internalType": "uint256",
          "name": "amount",
          "type": "uint256"
        }
      ],
      "name": "mint",
      "outputs": [],
      "stateMutability": "nonpayable",
      "type": "function"
    },
    {
      "inputs": [],
      "name": "name",
      "outputs": [
        {
          "internalType": "string",
          "name": "",
          "type": "string"
        }
      ],
      "stateMutability": "view",
      "type": "function"
    },
    {
      "inputs": [],
      "name": "symbol",
      "outputs": [
        {
          "internalType": "string",
          "name": "",
          "type": "string"
        }
      ],
      "stateMutability": "view",
      "type": "function"
    },
    {
      "inputs": [],
      "name": "totalSupply",
      "outputs": [
        {
          "internalType": "uint256",
          "name": "",
          "type": "uint256"
        }
      ],
      "stateMutability": "view",
      "type": "function"
    },
    {
      "inputs": [
        {
          "internalType": "address",
          "name": "to",
          "type": "address"
        },
        {
          "internalType": "uint256",
          "name": "amount",
          "type": "uint256"
        }
      ],
      "name": "transfer",
      "outputs": [
        {
          "internalType": "bool",
          "name": "",
          "type": "bool"
        }
      ],
      "stateMutability": "nonpayable",
      "type": "function"
    },
    {
      "inputs": [
        {
          "internalType": "address",
          "name": "from",
          "type": "address"
        },
        {
          "internalType": "address",
          "name": "to",
          "type": "address"
        },
        {
          "internalType": "uint256",
          "name": "amount",
          "type": "uint256"
        }
      ],
      "name": "transferFrom",
      "outputs": [
        {
          "internalType": "bool",
          "name": "",
          "type": "bool"
        }
      ],
      "stateMutability": "nonpayable",
      "type": "function"
    },
    {
      "inputs": [
        {
          "internalType": "address",
          "name": "user",
          "type": "address"
        }
      ],
      "name": "unfreezeAccount",
      "outputs": [],
      "stateMutability": "nonpayable",
      "type": "function"
    }
  ],
  "bytecode": "0x608060405234801561001057600080fd5b50610df1806100206000396000f3fe608060405234801561001057600080fd5b50600436106100ea5760003560e01c806370a082311161008c5780639dc29fac116100665780639dc29fac1461020e578063a9059cbb14610221578063dd62ed3e14610234578063f26c159f1461028c57600080fd5b806370a08231146101ab578063788649ea146101f357806395d89b411461020657600080fd5b806323b872dd116100c857806323b872dd14610161578063313ce5671461017457806333bebb771461018357806340c10f191461019857600080fd5b806306fdde03146100ef578063095ea7b31461010d57806318160ddd14610130575b600080fd5b6100f761029f565b6040516101049190610ba9565b60405180910390f35b61012061011b366004610c13565b610341565b6040519015158152602001610104565b7fc2b69da5e7be41c6eaba0bfa82e0e1fef8d4512d663aa63c99ede9dd1d17b012545b604051908152602001610104565b61012061016f366004610c3d565b6103be565b60405160128152602001610104565b610196610191366004610c3d565b6104b8565b005b6101966101a6366004610c13565b61052c565b6101536101b9366004610c79565b6001600160a01b031660009081527fc2b69da5e7be41c6eaba0bfa82e0e1fef8d4512d663aa63c99ede9dd1d17b010602052604090205490565b610196610201366004610c79565b61064e565b6100f7610718565b61019661021c366004610c13565b610737565b61012061022f366004610c13565b6108c9565b610153610242366004610c9b565b6001600160a01b0391821660009081527fc2b69da5e7be41c6eaba0bfa82e0e1fef8d4512d663aa63c99ede9dd1d17b0116020908152604080832093909416825291909152205490565b61019661029a366004610c79565b6108df565b6060600080516020610d7c83398151915260040180546102be90610cce565b80601f01602080910402602001604051908101604052809291908181526020018280546102ea90610cce565b80156103375780601f1061030c57610100808354040283529160200191610337565b820191906000526020600020905b81548152906001019060200180831161031a57829003601f168201915b5050505050905090565b600080600080516020610d7c83398151915233600081815260028301602090815260408083206001600160a01b038a16808552908352928190208890555187815293945090927f8c5be1e5ebec7d5bd14f71427d1e84f3dd0314c0f7b2291e5b200ac8c7c3b925910160405180910390a360019150505b92915050565b6001600160a01b03831660009081527fc2b69da5e7be41c6eaba0bfa82e0e1fef8d4512d663aa63c99ede9dd1d17b01160209081526040808320338452909152812054600080516020610d7c83398151915290838110156104665760405162461bcd60e51b815260206004820152601e60248201527f546f6b656e46616365743a20616c6c6f77616e6365206578636565646564000060448201526064015b60405180910390fd5b6001600160a01b038616600090815260028301602090815260408083203384529091528120805486929061049b908490610d1e565b909155506104ac90508686866109aa565b50600195945050505050565b600080516020610d9c83398151915254600080516020610d7c833981519152906001600160a01b03163314806104ff5750336000908152600b8201602052604090205460ff165b61051b5760405162461bcd60e51b815260040161045d90610d31565b6105268484846109aa565b50505050565b600080516020610d9c83398151915254600080516020610d7c833981519152906001600160a01b03163314806105735750336000908152600b8201602052604090205460ff165b61058f5760405162461bcd60e51b815260040161045d90610d31565b7fc2b69da5e7be41c6eaba0bfa82e0e1fef8d4512d663aa63c99ede9dd1d17b0128054600080516020610d7c8339815191529184916000906105d2908490610d68565b90915550506001600160a01b038416600090815260018201602052604081208054859290610601908490610d68565b90915550506040518381526001600160a01b038516906000907fddf252ad1be2c89b69c2b068fc378daa952ba7f163c4a11628f55a4df523b3ef906020015b60405180910390a350505050565b600080516020610d9c83398151915254600080516020610d7c833981519152906001600160a01b03163314806106955750336000908152600b8201602052604090205460ff165b6106b15760405162461bcd60e51b815260040161045d90610d31565b6001600160a01b0382166000818152600080516020610d7c83398151915260209081526040808320805460ff60b01b19169055519182527fa33e6b076d391e96626483b30e365719f79f1d6594aff6587649ffd6c82ed7fa91015b60405180910390a25050565b6060600080516020610d7c83398151915260050180546102be90610cce565b600080516020610d9c83398151915254600080516020610d7c833981519152906001600160a01b031633148061077e5750336000908152600b8201602052604090205460ff165b61079a5760405162461bcd60e51b815260040161045d90610d31565b6001600160a01b03831660009081527fc2b69da5e7be41c6eaba0bfa82e0e1fef8d4512d663aa63c99ede9dd1d17b0106020526040902054600080516020610d7c833981519152908311156108415760405162461bcd60e51b815260206004820152602760248201527f546f6b656e46616365743a206275726e20616d6f756e7420657863656564732060448201526662616c616e636560c81b606482015260840161045d565b6001600160a01b03841660009081526001820160205260408120805485929061086b908490610d1e565b92505081905550828160030160008282546108869190610d1e565b90915550506040518381526000906001600160a01b038616907fddf252ad1be2c89b69c2b068fc378daa952ba7f163c4a11628f55a4df523b3ef90602001610640565b60006108d63384846109aa565b50600192915050565b600080516020610d9c83398151915254600080516020610d7c833981519152906001600160a01b03163314806109265750336000908152600b8201602052604090205460ff165b6109425760405162461bcd60e51b815260040161045d90610d31565b6001600160a01b0382166000818152600080516020610d7c8339815191526020908152604091829020805460ff60b01b1916600160b01b1790559051600181527fa33e6b076d391e96626483b30e365719f79f1d6594aff6587649ffd6c82ed7fa910161070c565b6001600160a01b0383166000908152600080516020610d7c8339815191526020819052604090912054600160b01b900460ff1615610a2a5760405162461bcd60e51b815260206004820152601960248201527f546f6b656e46616365743a2073656e6465722066726f7a656e00000000000000604482015260640161045d565b6001600160a01b038316600090815260208290526040902054600160b01b900460ff1615610a9a5760405162461bcd60e51b815260206004820152601b60248201527f546f6b656e46616365743a2072656365697665722066726f7a656e0000000000604482015260640161045d565b6001600160a01b0384166000908152600182016020526040902054821115610b045760405162461bcd60e51b815260206004820181905260248201527f546f6b656e46616365743a20696e73756666696369656e742062616c616e6365604482015260640161045d565b6001600160a01b038416600090815260018201602052604081208054849290610b2e908490610d1e565b90915550506001600160a01b038316600090815260018201602052604081208054849290610b5d908490610d68565b92505081905550826001600160a01b0316846001600160a01b03167fddf252ad1be2c89b69c2b068fc378daa952ba7f163c4a11628f55a4df523b3ef8460405161064091815260200190565b600060208083528351808285015260005b81811015610bd657858101830151858201604001528201610bba565b506000604082860101526040601f19601f8301168501019250505092915050565b80356001600160a01b0381168114610c0e57600080fd5b919050565b60008060408385031215610c2657600080fd5b610c2f83610bf7565b946020939093013593505050565b600080600060608486031215610c5257600080fd5b610c5b84610bf7565b9250610c6960208501610bf7565b9150604084013590509250925092565b600060208284031215610c8b57600080fd5b610c9482610bf7565b9392505050565b60008060408385031215610cae57600080fd5b610cb783610bf7565b9150610cc560208401610bf7565b90509250929050565b600181811c90821680610ce257607f821691505b602082108103610d0257634e487b7160e01b600052602260045260246000fd5b50919050565b634e487b7160e01b600052601160045260246000fd5b818103818111156103b8576103b8610d08565b6020808252601a908201527f546f6b656e46616365743a204e6f7420617574686f72697a6564000000000000604082015260600190565b808201808211156103b8576103b8610d0856fec2b69da5e7be41c6eaba0bfa82e0e1fef8d4512d663aa63c99ede9dd1d17b00fc2b69da5e7be41c6eaba0bfa82e0e1fef8d4512d663aa63c99ede9dd1d17b019a26469706673582212209c66c995b8bcc06f46ad1d0a2d961c60ae48a5cdbd076670a8b3c1596b55f2c964736f6c63430008110033",
  "linkReferences": {},
  "deployedLinkReferences": {}
}