{
  "_format": "hh-sol-artifact-1",
  "contractName": "TokenFacet",
  "sourceName": "contracts/facets/TokenFacet.sol",
  "abi": [
    {
      "anonymous": false,
      "inputs": [
        {
          "indexed": true,
          "internalType": "address",
          "name": "user",
          "type": "address"
        },
        {
          "indexed": false,
          "internalType": "bool",
          "name": "frozen",
          "type": "bool"
        }
      ],
      "name": "AccountFrozen",
      "type": "event"
    },
    {
      "anonymous": false,
      "inputs": [
        {
          "indexed": true,
          "internalType": "address",
          "name": "owner",
          "type": "address"
        },
        {
          "indexed": true,
          "internalType": "address",
          "name": "spender",
          "type": "address"
        },
        {
          "indexed": false,
          "internalType": "uint256",
          "name": "value",
          "type": "uint256"
        }
      ],
      "name": "Approval",
      "type": "event"
    },
    {
      "anonymous": false,
      "inputs": [
        {
          "indexed": true,
          "internalType": "address",
          "name": "from",
          "type": "address"
        },
        {
          "indexed": true,
          "internalType": "address",
          "name": "to",
          "type": "address"
        },
        {
          "indexed": false,
          "internalType": "uint256",
          "name": "value",
          "type": "uint256"
        }
      ],
      "name": "Transfer",
      "type": "event"
    },
    {
      "inputs": [
        {
          "internalType": "address",
          "name": "owner_",
          "type": "address"
        },
        {
          "internalType": "address",
          "name": "spender",
          "type": "address"
        }
      ],
      "name": "allowance",
      "outputs": [
        {
          "internalType": "uint256",
          "name": "",
          "type": "uint256"
        }
      ],
      "stateMutability": "view",
      "type": "function"
    },
    {
      "inputs": [
        {
          "internalType": "address",
          "name": "spender",
          "type": "address"
        },
        {
          "internalType": "uint256",
          "name": "amount",
          "type": "uint256"
        }
      ],
      "name": "approve",
      "outputs": [
        {
          "internalType": "bool",
          "name": "",
          "type": "bool"
        }
      ],
      "stateMutability": "nonpayable",
      "type": "function"
    },
    {
      "inputs": [
        {
          "internalType": "address",
          "name": "account",
          "type": "address"
        }
      ],
      "name": "balanceOf",
      "outputs": [
        {
          "internalType": "uint256",
          "name": "",
          "type": "uint256"
        }
      ],
      "stateMutability": "view",
      "type": "function"
    },
    {
      "inputs": [
        {
          "internalType": "address",
          "name": "from",
          "type": "address"
        },
        {
          "internalType": "uint256",
          "name": "amount",
          "type": "uint256"
        }
      ],
      "name": "burn",
      "outputs": [],
      "stateMutability": "nonpayable",
      "type": "function"
    },
    {
      "inputs": [],
      "name": "decimals",
      "outputs": [
        {
          "internalType": "uint8",
          "name": "",
          "type": "uint8"
        }
      ],
      "stateMutability": "pure",
      "type": "function"
    },
    {
      "inputs": [
        {
          "internalType": "address",
          "name": "from",
          "type": "address"
        },
        {
          "internalType": "address",
          "name": "to",
          "type": "address"
        },
        {
          "internalType": "uint256",
          "name": "amount",
          "type": "uint256"
        }
      ],
      "name": "forceTransfer",
      "outputs": [],
      "stateMutability": "nonpayable",
      "type": "function"
    },
    {
      "inputs": [
        {
          "internalType": "address",
          "name": "user",
          "type": "address"
        }
      ],
      "name": "freezeAccount",
      "outputs": [],
      "stateMutability": "nonpayable",
      "type": "function"
    },
    {
      "inputs": [
        {
          "internalType": "address",
          "name": "account",
          "type": "address"
        }
      ],
      "name": "isFrozen",
      "outputs": [
        {
          "internalType": "bool",
          "name": "",
          "type": "bool"
        }
      ],
      "stateMutability": "view",
      "type": "function"
    },
    {
      "inputs": [
        {
          "internalType": "address",
          "name": "to",
          "type": "address"
        },
        {
          "internalType": "uint256",
          "name": "amount",
          "type": "uint256"
        }
      ],
      "name": "mint",
      "outputs": [],
      "stateMutability": "nonpayable",
      "type": "function"
    },
    {
      "inputs": [],
      "name": "name",
      "outputs": [
        {
          "internalType": "string",
          "name": "",
          "type": "string"
        }
      ],
      "stateMutability": "view",
      "type": "function"
    },
    {
      "inputs": [],
      "name": "selectorsIntrospection",
      "outputs": [
        {
          "internalType": "bytes4[]",
          "name": "selectors_",
          "type": "bytes4[]"
        }
      ],
      "stateMutability": "pure",
      "type": "function"
    },
    {
      "inputs": [],
      "name": "symbol",
      "outputs": [
        {
          "internalType": "string",
          "name": "",
          "type": "string"
        }
      ],
      "stateMutability": "view",
      "type": "function"
    },
    {
      "inputs": [],
      "name": "totalSupply",
      "outputs": [
        {
          "internalType": "uint256",
          "name": "",
          "type": "uint256"
        }
      ],
      "stateMutability": "view",
      "type": "function"
    },
    {
      "inputs": [
        {
          "internalType": "address",
          "name": "to",
          "type": "address"
        },
        {
          "internalType": "uint256",
          "name": "amount",
          "type": "uint256"
        }
      ],
      "name": "transfer",
      "outputs": [
        {
          "internalType": "bool",
          "name": "",
          "type": "bool"
        }
      ],
      "stateMutability": "nonpayable",
      "type": "function"
    },
    {
      "inputs": [
        {
          "internalType": "address",
          "name": "from",
          "type": "address"
        },
        {
          "internalType": "address",
          "name": "to",
          "type": "address"
        },
        {
          "internalType": "uint256",
          "name": "amount",
          "type": "uint256"
        }
      ],
      "name": "transferFrom",
      "outputs": [
        {
          "internalType": "bool",
          "name": "",
          "type": "bool"
        }
      ],
      "stateMutability": "nonpayable",
      "type": "function"
    },
    {
      "inputs": [
        {
          "internalType": "address",
          "name": "user",
          "type": "address"
        }
      ],
      "name": "unfreezeAccount",
      "outputs": [],
      "stateMutability": "nonpayable",
      "type": "function"
    }
  ],
  "bytecode": "0x608060405234801561001057600080fd5b5061132c806100206000396000f3fe608060405234801561001057600080fd5b50600436106101005760003560e01c8063788649ea11610097578063dd62ed3e11610066578063dd62ed3e146101fa578063e3b807a01461020d578063e583983614610222578063f26c159f1461023557600080fd5b8063788649ea146101b957806395d89b41146101cc5780639dc29fac146101d4578063a9059cbb146101e757600080fd5b8063313ce567116100d3578063313ce5671461016f57806333bebb771461017e57806340c10f191461019357806370a08231146101a657600080fd5b806306fdde0314610105578063095ea7b31461012357806318160ddd1461014657806323b872dd1461015c575b600080fd5b61010d610248565b60405161011a9190611098565b60405180910390f35b610136610131366004611102565b610257565b604051901515815260200161011a565b61014e61026e565b60405190815260200161011a565b61013661016a36600461112c565b610298565b6040516012815260200161011a565b61019161018c36600461112c565b610326565b005b6101916101a1366004611102565b61033f565b61014e6101b4366004611168565b610356565b6101916101c7366004611168565b610381565b61010d610398565b6101916101e2366004611102565b6103a2565b6101366101f5366004611102565b6103b5565b61014e610208366004611183565b6103c2565b6102156103d5565b60405161011a91906111b6565b610136610230366004611168565b6107a2565b610191610243366004611168565b6107e2565b60606102526107f6565b905090565b6000610264338484610898565b5060015b92915050565b60006102527f736ce0c14097c43f46534906dfa4c53dc3d50ced9d4ca89fafa7ec003cfb44365490565b6000806102a5853361092c565b9050828110156102fc5760405162461bcd60e51b815260206004820152601e60248201527f546f6b656e46616365743a20616c6c6f77616e6365206578636565646564000060448201526064015b60405180910390fd5b610310853361030b868561121a565b610898565b61031b858585610976565b506001949350505050565b61032f33610b97565b61033a838383610976565b505050565b61034833610b97565b6103528282610c39565b5050565b6001600160a01b03811660009081526000805160206112d78339815191526020526040812054610268565b61038a33610b97565b610395816000610d01565b50565b6060610252610d91565b6103ab33610b97565b6103528282610db0565b6000610264338484610976565b60006103ce838361092c565b9392505050565b60408051600f80825261020082019092526060919081602082016101e0803683370190505091506306fdde0360e01b8261040e8361122d565b9250828151811061042157610421611244565b6001600160e01b0319909216602092830291909101909101526395d89b4160e01b8261044c8361122d565b9250828151811061045f5761045f611244565b6001600160e01b03199092166020928302919091019091015263313ce56760e01b8261048a8361122d565b9250828151811061049d5761049d611244565b6001600160e01b0319909216602092830291909101909101526318160ddd60e01b826104c88361122d565b925082815181106104db576104db611244565b6001600160e01b0319909216602092830291909101909101526370a0823160e01b826105068361122d565b9250828151811061051957610519611244565b6001600160e01b03199092166020928302919091019091015263a9059cbb60e01b826105448361122d565b9250828151811061055757610557611244565b6001600160e01b03199092166020928302919091019091015263095ea7b360e01b826105828361122d565b9250828151811061059557610595611244565b6001600160e01b0319909216602092830291909101909101526323b872dd60e01b826105c08361122d565b925082815181106105d3576105d3611244565b6001600160e01b031990921660209283029190910190910152636eb1769f60e11b826105fe8361122d565b9250828151811061061157610611611244565b6001600160e01b0319909216602092830291909101909101526340c10f1960e01b8261063c8361122d565b9250828151811061064f5761064f611244565b6001600160e01b031990921660209283029190910190910152632770a7eb60e21b8261067a8361122d565b9250828151811061068d5761068d611244565b6001600160e01b0319909216602092830291909101909101526333bebb7760e01b826106b88361122d565b925082815181106106cb576106cb611244565b6001600160e01b03199092166020928302919091019091015263f26c159f60e01b826106f68361122d565b9250828151811061070957610709611244565b6001600160e01b031990921660209283029190910190910152633c4324f560e11b826107348361122d565b9250828151811061074757610747611244565b6001600160e01b0319909216602092830291909101909101526372c1cc1b60e11b826107728361122d565b9250828151811061078557610785611244565b6001600160e01b0319909216602092830291909101909101525090565b6001600160a01b03811660009081527f736ce0c14097c43f46534906dfa4c53dc3d50ced9d4ca89fafa7ec003cfb443a602052604081205460ff16610268565b6107eb33610b97565b610395816001610d01565b60606000805160206112d783398151915260030180546108159061125a565b80601f01602080910402602001604051908101604052809291908181526020018280546108419061125a565b801561088e5780601f106108635761010080835404028352916020019161088e565b820191906000526020600020905b81548152906001019060200180831161087157829003601f168201915b5050505050905090565b6001600160a01b0383811660008181527f736ce0c14097c43f46534906dfa4c53dc3d50ced9d4ca89fafa7ec003cfb4435602090815260408083209487168084529482529182902085905590518481526000805160206112d78339815191529392917f8c5be1e5ebec7d5bd14f71427d1e84f3dd0314c0f7b2291e5b200ac8c7c3b92591015b60405180910390a350505050565b6001600160a01b0391821660009081527f736ce0c14097c43f46534906dfa4c53dc3d50ced9d4ca89fafa7ec003cfb44356020908152604080832093909416825291909152205490565b6001600160a01b03831660009081527f736ce0c14097c43f46534906dfa4c53dc3d50ced9d4ca89fafa7ec003cfb443a60205260409020546000805160206112d78339815191529060ff1615610a0e5760405162461bcd60e51b815260206004820152601c60248201527f546f6b656e496e7465726e616c3a2073656e6465722066726f7a656e0000000060448201526064016102f3565b6001600160a01b038316600090815260068201602052604090205460ff1615610a795760405162461bcd60e51b815260206004820152601e60248201527f546f6b656e496e7465726e616c3a2072656365697665722066726f7a656e000060448201526064016102f3565b6001600160a01b038416600090815260208290526040902054821115610aed5760405162461bcd60e51b815260206004820152602360248201527f546f6b656e496e7465726e616c3a20696e73756666696369656e742062616c616044820152626e636560e81b60648201526084016102f3565b6001600160a01b03841660009081526020829052604081208054849290610b1590849061121a565b90915550506001600160a01b03831660009081526020829052604081208054849290610b42908490611294565b90915550610b5290508484610ecd565b826001600160a01b0316846001600160a01b03167fddf252ad1be2c89b69c2b068fc378daa952ba7f163c4a11628f55a4df523b3ef8460405161091e91815260200190565b7f0fcb11fff5651caf53eaf1124d25315389f7b0ceffd704a5e999a2ffc7764fd580546001600160a01b0383811691161480610bed57506001600160a01b038216600090815260018201602052604090205460ff165b6103525760405162461bcd60e51b815260206004820152601d60248201527f546f6b656e496e7465726e616c3a204e6f7420617574686f72697a656400000060448201526064016102f3565b7f736ce0c14097c43f46534906dfa4c53dc3d50ced9d4ca89fafa7ec003cfb443680546000805160206112d7833981519152918391600090610c7c908490611294565b90915550506001600160a01b03831660009081526020829052604081208054849290610ca9908490611294565b90915550610cba9050600084610ecd565b6040518281526001600160a01b038416906000907fddf252ad1be2c89b69c2b068fc378daa952ba7f163c4a11628f55a4df523b3ef906020015b60405180910390a3505050565b6001600160a01b03821660008181527f736ce0c14097c43f46534906dfa4c53dc3d50ced9d4ca89fafa7ec003cfb443a6020908152604091829020805460ff191685151590811790915591519182526000805160206112d783398151915292917fa33e6b076d391e96626483b30e365719f79f1d6594aff6587649ffd6c82ed7fa910160405180910390a2505050565b60606000805160206112d783398151915260040180546108159061125a565b6001600160a01b03821660009081526000805160206112d78339815191526020819052604090912054821115610e3b5760405162461bcd60e51b815260206004820152602a60248201527f546f6b656e496e7465726e616c3a206275726e20616d6f756e7420657863656560448201526964732062616c616e636560b01b60648201526084016102f3565b6001600160a01b03831660009081526020829052604081208054849290610e6390849061121a565b9250508190555081816002016000828254610e7e919061121a565b90915550610e8f9050836000610ecd565b6040518281526000906001600160a01b038516907fddf252ad1be2c89b69c2b068fc378daa952ba7f163c4a11628f55a4df523b3ef90602001610cf4565b6000805160206112d78339815191526001600160a01b03821615801590610f0a57506001600160a01b038216600090815260208290526040902054155b15610f4057600781018054600181018255600091825260209091200180546001600160a01b0319166001600160a01b0384161790555b6001600160a01b03831615801590610f6e57506001600160a01b038316600090815260208290526040902054155b1561033a5761033a836000805160206112d783398151915260005b600782015481101561033a57826001600160a01b0316826007018281548110610fb457610fb4611244565b6000918252602090912001546001600160a01b03160361108657600782018054610fe09060019061121a565b81548110610ff057610ff0611244565b6000918252602090912001546007830180546001600160a01b03909216918390811061101e5761101e611244565b9060005260206000200160006101000a8154816001600160a01b0302191690836001600160a01b031602179055508160070180548061105f5761105f6112a7565b600082815260209020810160001990810180546001600160a01b0319169055019055505050565b80611090816112bd565b915050610f89565b600060208083528351808285015260005b818110156110c5578581018301518582016040015282016110a9565b506000604082860101526040601f19601f8301168501019250505092915050565b80356001600160a01b03811681146110fd57600080fd5b919050565b6000806040838503121561111557600080fd5b61111e836110e6565b946020939093013593505050565b60008060006060848603121561114157600080fd5b61114a846110e6565b9250611158602085016110e6565b9150604084013590509250925092565b60006020828403121561117a57600080fd5b6103ce826110e6565b6000806040838503121561119657600080fd5b61119f836110e6565b91506111ad602084016110e6565b90509250929050565b6020808252825182820181905260009190848201906040850190845b818110156111f85783516001600160e01b031916835292840192918401916001016111d2565b50909695505050505050565b634e487b7160e01b600052601160045260246000fd5b8181038181111561026857610268611204565b60008161123c5761123c611204565b506000190190565b634e487b7160e01b600052603260045260246000fd5b600181811c9082168061126e57607f821691505b60208210810361128e57634e487b7160e01b600052602260045260246000fd5b50919050565b8082018082111561026857610268611204565b634e487b7160e01b600052603160045260246000fd5b6000600182016112cf576112cf611204565b506001019056fe736ce0c14097c43f46534906dfa4c53dc3d50ced9d4ca89fafa7ec003cfb4434a2646970667358221220b7cad150ecdf77fce46dbf435c805ef491bbc7117b91925e00c34773279a216c64736f6c63430008110033",
  "linkReferences": {},
  "deployedLinkReferences": {}
}