{"contracts/facets/RolesFacet_DEPRECATED.sol":{"RolesFacet":{"abi":[{"anonymous":false,"inputs":[{"indexed":true,"internalType":"address","name":"agent","type":"address"},{"indexed":false,"internalType":"bool","name":"status","type":"bool"}],"name":"AgentSet","type":"event"},{"anonymous":false,"inputs":[{"indexed":false,"internalType":"uint8","name":"version","type":"uint8"}],"name":"Initialized","type":"event"},{"anonymous":false,"inputs":[{"indexed":true,"internalType":"address","name":"previousOwner","type":"address"},{"indexed":true,"internalType":"address","name":"newOwner","type":"address"}],"name":"OwnershipTransferred","type":"event"},{"inputs":[{"internalType":"address","name":"_owner","type":"address"}],"name":"initializeRoles","outputs":[],"stateMutability":"nonpayable","type":"function"},{"inputs":[{"internalType":"address","name":"_addr","type":"address"}],"name":"isAgent","outputs":[{"internalType":"bool","name":"","type":"bool"}],"stateMutability":"view","type":"function"},{"inputs":[],"name":"owner","outputs":[{"internalType":"address","name":"","type":"address"}],"stateMutability":"view","type":"function"},{"inputs":[],"name":"selectorsIntrospection","outputs":[{"internalType":"bytes4[]","name":"selectors_","type":"bytes4[]"}],"stateMutability":"pure","type":"function"},{"inputs":[{"internalType":"address","name":"_agent","type":"address"},{"internalType":"bool","name":"_status","type":"bool"}],"name":"setAgent","outputs":[],"stateMutability":"nonpayable","type":"function"},{"inputs":[{"internalType":"address","name":"_newOwner","type":"address"}],"name":"transferOwnership","outputs":[],"stateMutability":"nonpayable","type":"function"}],"evm":{"bytecode":{"linkReferences":{},"object":"608060405234801561001057600080fd5b506107f8806100206000396000f3fe608060405234801561001057600080fd5b50600436106100625760003560e01c80631ffbb0641461006757806354208a2f146100c75780638da5cb5b146100dc57806397d8c67614610124578063e3b807a014610137578063f2fde38b1461014c575b600080fd5b6100b26100753660046106db565b6001600160a01b031660009081527fc2b69da5e7be41c6eaba0bfa82e0e1fef8d4512d663aa63c99ede9dd1d17b018602052604090205460ff1690565b60405190151581526020015b60405180910390f35b6100da6100d53660046106db565b61015f565b005b7fc2b69da5e7be41c6eaba0bfa82e0e1fef8d4512d663aa63c99ede9dd1d17b0175461010090046001600160a01b03166040516001600160a01b0390911681526020016100be565b6100da6101323660046106fd565b6102de565b61013f6103d5565b6040516100be9190610739565b6100da61015a3660046106db565b610534565b600054610100900460ff161580801561017f5750600054600160ff909116105b806101995750303b158015610199575060005460ff166001145b6102015760405162461bcd60e51b815260206004820152602e60248201527f496e697469616c697a61626c653a20636f6e747261637420697320616c72656160448201526d191e481a5b9a5d1a585b1a5e995960921b60648201526084015b60405180910390fd5b6000805460ff191660011790558015610224576000805461ff0019166101001790555b7fc2b69da5e7be41c6eaba0bfa82e0e1fef8d4512d663aa63c99ede9dd1d17b0178054610100600160a81b0319166101006001600160a01b038516908102919091179091556040516000907f8be0079c531659141344cd1fd0a4f28419497f9722a3daafe3b4186f6b6457e0908290a380156102da576000805461ff0019169055604051600181527f7f26b83ff96e1f2b6a682f133852f6798a09c465da95921460cefb38474024989060200160405180910390a15b5050565b7fc2b69da5e7be41c6eaba0bfa82e0e1fef8d4512d663aa63c99ede9dd1d17b00f6008015461010090046001600160a01b031633146103575760405162461bcd60e51b81526020600482015260156024820152742937b632b9a330b1b2ba1d102737ba1037bbb732b960591b60448201526064016101f8565b6001600160a01b03821660008181527fc2b69da5e7be41c6eaba0bfa82e0e1fef8d4512d663aa63c99ede9dd1d17b0186020908152604091829020805460ff191685151590811790915591519182527fdfbbd189290ad6ccafc74f11e514df22fe2c990b1f70c48e80c0c152ccf16415910160405180910390a25050565b60408051600580825260c0820190925260609190816020820160a0803683370190505091506354208a2f60e01b8261040c83610787565b9250828151811061041f5761041f6107ac565b6001600160e01b03199092166020928302919091019091015263f2fde38b60e01b8261044a83610787565b9250828151811061045d5761045d6107ac565b6001600160e01b031990921660209283029190910190910152638da5cb5b60e01b8261048883610787565b9250828151811061049b5761049b6107ac565b6001600160e01b031990921660209283029190910190910152634bec633b60e11b826104c683610787565b925082815181106104d9576104d96107ac565b6001600160e01b0319909216602092830291909101909101526307feec1960e21b8261050483610787565b92508281518110610517576105176107ac565b6001600160e01b0319909216602092830291909101909101525090565b7fc2b69da5e7be41c6eaba0bfa82e0e1fef8d4512d663aa63c99ede9dd1d17b00f6008015461010090046001600160a01b031633146105ad5760405162461bcd60e51b81526020600482015260156024820152742937b632b9a330b1b2ba1d102737ba1037bbb732b960591b60448201526064016101f8565b6001600160a01b0381166106155760405162461bcd60e51b815260206004820152602960248201527f526f6c657346616365743a206e6577206f776e657220697320746865207a65726044820152686f206164647265737360b81b60648201526084016101f8565b7fc2b69da5e7be41c6eaba0bfa82e0e1fef8d4512d663aa63c99ede9dd1d17b017546040517fc2b69da5e7be41c6eaba0bfa82e0e1fef8d4512d663aa63c99ede9dd1d17b00f916001600160a01b038481169261010090920416907f8be0079c531659141344cd1fd0a4f28419497f9722a3daafe3b4186f6b6457e090600090a360080180546001600160a01b0390921661010002610100600160a81b0319909216919091179055565b80356001600160a01b03811681146106d657600080fd5b919050565b6000602082840312156106ed57600080fd5b6106f6826106bf565b9392505050565b6000806040838503121561071057600080fd5b610719836106bf565b91506020830135801515811461072e57600080fd5b809150509250929050565b6020808252825182820181905260009190848201906040850190845b8181101561077b5783516001600160e01b03191683529284019291840191600101610755565b50909695505050505050565b6000816107a457634e487b7160e01b600052601160045260246000fd5b506000190190565b634e487b7160e01b600052603260045260246000fdfea264697066735822122041b0b5e50195ccb63dad65d90a5d20358ddc100b2dbb3a13e7edafe28ed40e5864736f6c63430008110033","opcodes":"PUSH1 0x80 PUSH1 0x40 MSTORE CALLVALUE DUP1 ISZERO PUSH2 0x10 JUMPI PUSH1 0x0 DUP1 REVERT JUMPDEST POP PUSH2 0x7F8 DUP1 PUSH2 0x20 PUSH1 0x0 CODECOPY PUSH1 0x0 RETURN INVALID PUSH1 0x80 PUSH1 0x40 MSTORE CALLVALUE DUP1 ISZERO PUSH2 0x10 JUMPI PUSH1 0x0 DUP1 REVERT JUMPDEST POP PUSH1 0x4 CALLDATASIZE LT PUSH2 0x62 JUMPI PUSH1 0x0 CALLDATALOAD PUSH1 0xE0 SHR DUP1 PUSH4 0x1FFBB064 EQ PUSH2 0x67 JUMPI DUP1 PUSH4 0x54208A2F EQ PUSH2 0xC7 JUMPI DUP1 PUSH4 0x8DA5CB5B EQ PUSH2 0xDC JUMPI DUP1 PUSH4 0x97D8C676 EQ PUSH2 0x124 JUMPI DUP1 PUSH4 0xE3B807A0 EQ PUSH2 0x137 JUMPI DUP1 PUSH4 0xF2FDE38B EQ PUSH2 0x14C JUMPI JUMPDEST PUSH1 0x0 DUP1 REVERT JUMPDEST PUSH2 0xB2 PUSH2 0x75 CALLDATASIZE PUSH1 0x4 PUSH2 0x6DB JUMP JUMPDEST PUSH1 0x1 PUSH1 0x1 PUSH1 0xA0 SHL SUB AND PUSH1 0x0 SWAP1 DUP2 MSTORE PUSH32 0xC2B69DA5E7BE41C6EABA0BFA82E0E1FEF8D4512D663AA63C99EDE9DD1D17B018 PUSH1 0x20 MSTORE PUSH1 0x40 SWAP1 KECCAK256 SLOAD PUSH1 0xFF AND SWAP1 JUMP JUMPDEST PUSH1 0x40 MLOAD SWAP1 ISZERO ISZERO DUP2 MSTORE PUSH1 0x20 ADD JUMPDEST PUSH1 0x40 MLOAD DUP1 SWAP2 SUB SWAP1 RETURN JUMPDEST PUSH2 0xDA PUSH2 0xD5 CALLDATASIZE PUSH1 0x4 PUSH2 0x6DB JUMP JUMPDEST PUSH2 0x15F JUMP JUMPDEST STOP JUMPDEST PUSH32 0xC2B69DA5E7BE41C6EABA0BFA82E0E1FEF8D4512D663AA63C99EDE9DD1D17B017 SLOAD PUSH2 0x100 SWAP1 DIV PUSH1 0x1 PUSH1 0x1 PUSH1 0xA0 SHL SUB AND PUSH1 0x40 MLOAD PUSH1 0x1 PUSH1 0x1 PUSH1 0xA0 SHL SUB SWAP1 SWAP2 AND DUP2 MSTORE PUSH1 0x20 ADD PUSH2 0xBE JUMP JUMPDEST PUSH2 0xDA PUSH2 0x132 CALLDATASIZE PUSH1 0x4 PUSH2 0x6FD JUMP JUMPDEST PUSH2 0x2DE JUMP JUMPDEST PUSH2 0x13F PUSH2 0x3D5 JUMP JUMPDEST PUSH1 0x40 MLOAD PUSH2 0xBE SWAP2 SWAP1 PUSH2 0x739 JUMP JUMPDEST PUSH2 0xDA PUSH2 0x15A CALLDATASIZE PUSH1 0x4 PUSH2 0x6DB JUMP JUMPDEST PUSH2 0x534 JUMP JUMPDEST PUSH1 0x0 SLOAD PUSH2 0x100 SWAP1 DIV PUSH1 0xFF AND ISZERO DUP1 DUP1 ISZERO PUSH2 0x17F JUMPI POP PUSH1 0x0 SLOAD PUSH1 0x1 PUSH1 0xFF SWAP1 SWAP2 AND LT JUMPDEST DUP1 PUSH2 0x199 JUMPI POP ADDRESS EXTCODESIZE ISZERO DUP1 ISZERO PUSH2 0x199 JUMPI POP PUSH1 0x0 SLOAD PUSH1 0xFF AND PUSH1 0x1 EQ JUMPDEST PUSH2 0x201 JUMPI PUSH1 0x40 MLOAD PUSH3 0x461BCD PUSH1 0xE5 SHL DUP2 MSTORE PUSH1 0x20 PUSH1 0x4 DUP3 ADD MSTORE PUSH1 0x2E PUSH1 0x24 DUP3 ADD MSTORE PUSH32 0x496E697469616C697A61626C653A20636F6E747261637420697320616C726561 PUSH1 0x44 DUP3 ADD MSTORE PUSH14 0x191E481A5B9A5D1A585B1A5E9959 PUSH1 0x92 SHL PUSH1 0x64 DUP3 ADD MSTORE PUSH1 0x84 ADD JUMPDEST PUSH1 0x40 MLOAD DUP1 SWAP2 SUB SWAP1 REVERT JUMPDEST PUSH1 0x0 DUP1 SLOAD PUSH1 0xFF NOT AND PUSH1 0x1 OR SWAP1 SSTORE DUP1 ISZERO PUSH2 0x224 JUMPI PUSH1 0x0 DUP1 SLOAD PUSH2 0xFF00 NOT AND PUSH2 0x100 OR SWAP1 SSTORE JUMPDEST PUSH32 0xC2B69DA5E7BE41C6EABA0BFA82E0E1FEF8D4512D663AA63C99EDE9DD1D17B017 DUP1 SLOAD PUSH2 0x100 PUSH1 0x1 PUSH1 0xA8 SHL SUB NOT AND PUSH2 0x100 PUSH1 0x1 PUSH1 0x1 PUSH1 0xA0 SHL SUB DUP6 AND SWAP1 DUP2 MUL SWAP2 SWAP1 SWAP2 OR SWAP1 SWAP2 SSTORE PUSH1 0x40 MLOAD PUSH1 0x0 SWAP1 PUSH32 0x8BE0079C531659141344CD1FD0A4F28419497F9722A3DAAFE3B4186F6B6457E0 SWAP1 DUP3 SWAP1 LOG3 DUP1 ISZERO PUSH2 0x2DA JUMPI PUSH1 0x0 DUP1 SLOAD PUSH2 0xFF00 NOT AND SWAP1 SSTORE PUSH1 0x40 MLOAD PUSH1 0x1 DUP2 MSTORE PUSH32 0x7F26B83FF96E1F2B6A682F133852F6798A09C465DA95921460CEFB3847402498 SWAP1 PUSH1 0x20 ADD PUSH1 0x40 MLOAD DUP1 SWAP2 SUB SWAP1 LOG1 JUMPDEST POP POP JUMP JUMPDEST PUSH32 0xC2B69DA5E7BE41C6EABA0BFA82E0E1FEF8D4512D663AA63C99EDE9DD1D17B00F PUSH1 0x8 ADD SLOAD PUSH2 0x100 SWAP1 DIV PUSH1 0x1 PUSH1 0x1 PUSH1 0xA0 SHL SUB AND CALLER EQ PUSH2 0x357 JUMPI PUSH1 0x40 MLOAD PUSH3 0x461BCD PUSH1 0xE5 SHL DUP2 MSTORE PUSH1 0x20 PUSH1 0x4 DUP3 ADD MSTORE PUSH1 0x15 PUSH1 0x24 DUP3 ADD MSTORE PUSH21 0x2937B632B9A330B1B2BA1D102737BA1037BBB732B9 PUSH1 0x59 SHL PUSH1 0x44 DUP3 ADD MSTORE PUSH1 0x64 ADD PUSH2 0x1F8 JUMP JUMPDEST PUSH1 0x1 PUSH1 0x1 PUSH1 0xA0 SHL SUB DUP3 AND PUSH1 0x0 DUP2 DUP2 MSTORE PUSH32 0xC2B69DA5E7BE41C6EABA0BFA82E0E1FEF8D4512D663AA63C99EDE9DD1D17B018 PUSH1 0x20 SWAP1 DUP2 MSTORE PUSH1 0x40 SWAP2 DUP3 SWAP1 KECCAK256 DUP1 SLOAD PUSH1 0xFF NOT AND DUP6 ISZERO ISZERO SWAP1 DUP2 OR SWAP1 SWAP2 SSTORE SWAP2 MLOAD SWAP2 DUP3 MSTORE PUSH32 0xDFBBD189290AD6CCAFC74F11E514DF22FE2C990B1F70C48E80C0C152CCF16415 SWAP2 ADD PUSH1 0x40 MLOAD DUP1 SWAP2 SUB SWAP1 LOG2 POP POP JUMP JUMPDEST PUSH1 0x40 DUP1 MLOAD PUSH1 0x5 DUP1 DUP3 MSTORE PUSH1 0xC0 DUP3 ADD SWAP1 SWAP3 MSTORE PUSH1 0x60 SWAP2 SWAP1 DUP2 PUSH1 0x20 DUP3 ADD PUSH1 0xA0 DUP1 CALLDATASIZE DUP4 CALLDATACOPY ADD SWAP1 POP POP SWAP2 POP PUSH4 0x54208A2F PUSH1 0xE0 SHL DUP3 PUSH2 0x40C DUP4 PUSH2 0x787 JUMP JUMPDEST SWAP3 POP DUP3 DUP2 MLOAD DUP2 LT PUSH2 0x41F JUMPI PUSH2 0x41F PUSH2 0x7AC JUMP JUMPDEST PUSH1 0x1 PUSH1 0x1 PUSH1 0xE0 SHL SUB NOT SWAP1 SWAP3 AND PUSH1 0x20 SWAP3 DUP4 MUL SWAP2 SWAP1 SWAP2 ADD SWAP1 SWAP2 ADD MSTORE PUSH4 0xF2FDE38B PUSH1 0xE0 SHL DUP3 PUSH2 0x44A DUP4 PUSH2 0x787 JUMP JUMPDEST SWAP3 POP DUP3 DUP2 MLOAD DUP2 LT PUSH2 0x45D JUMPI PUSH2 0x45D PUSH2 0x7AC JUMP JUMPDEST PUSH1 0x1 PUSH1 0x1 PUSH1 0xE0 SHL SUB NOT SWAP1 SWAP3 AND PUSH1 0x20 SWAP3 DUP4 MUL SWAP2 SWAP1 SWAP2 ADD SWAP1 SWAP2 ADD MSTORE PUSH4 0x8DA5CB5B PUSH1 0xE0 SHL DUP3 PUSH2 0x488 DUP4 PUSH2 0x787 JUMP JUMPDEST SWAP3 POP DUP3 DUP2 MLOAD DUP2 LT PUSH2 0x49B JUMPI PUSH2 0x49B PUSH2 0x7AC JUMP JUMPDEST PUSH1 0x1 PUSH1 0x1 PUSH1 0xE0 SHL SUB NOT SWAP1 SWAP3 AND PUSH1 0x20 SWAP3 DUP4 MUL SWAP2 SWAP1 SWAP2 ADD SWAP1 SWAP2 ADD MSTORE PUSH4 0x4BEC633B PUSH1 0xE1 SHL DUP3 PUSH2 0x4C6 DUP4 PUSH2 0x787 JUMP JUMPDEST SWAP3 POP DUP3 DUP2 MLOAD DUP2 LT PUSH2 0x4D9 JUMPI PUSH2 0x4D9 PUSH2 0x7AC JUMP JUMPDEST PUSH1 0x1 PUSH1 0x1 PUSH1 0xE0 SHL SUB NOT SWAP1 SWAP3 AND PUSH1 0x20 SWAP3 DUP4 MUL SWAP2 SWAP1 SWAP2 ADD SWAP1 SWAP2 ADD MSTORE PUSH4 0x7FEEC19 PUSH1 0xE2 SHL DUP3 PUSH2 0x504 DUP4 PUSH2 0x787 JUMP JUMPDEST SWAP3 POP DUP3 DUP2 MLOAD DUP2 LT PUSH2 0x517 JUMPI PUSH2 0x517 PUSH2 0x7AC JUMP JUMPDEST PUSH1 0x1 PUSH1 0x1 PUSH1 0xE0 SHL SUB NOT SWAP1 SWAP3 AND PUSH1 0x20 SWAP3 DUP4 MUL SWAP2 SWAP1 SWAP2 ADD SWAP1 SWAP2 ADD MSTORE POP SWAP1 JUMP JUMPDEST PUSH32 0xC2B69DA5E7BE41C6EABA0BFA82E0E1FEF8D4512D663AA63C99EDE9DD1D17B00F PUSH1 0x8 ADD SLOAD PUSH2 0x100 SWAP1 DIV PUSH1 0x1 PUSH1 0x1 PUSH1 0xA0 SHL SUB AND CALLER EQ PUSH2 0x5AD JUMPI PUSH1 0x40 MLOAD PUSH3 0x461BCD PUSH1 0xE5 SHL DUP2 MSTORE PUSH1 0x20 PUSH1 0x4 DUP3 ADD MSTORE PUSH1 0x15 PUSH1 0x24 DUP3 ADD MSTORE PUSH21 0x2937B632B9A330B1B2BA1D102737BA1037BBB732B9 PUSH1 0x59 SHL PUSH1 0x44 DUP3 ADD MSTORE PUSH1 0x64 ADD PUSH2 0x1F8 JUMP JUMPDEST PUSH1 0x1 PUSH1 0x1 PUSH1 0xA0 SHL SUB DUP2 AND PUSH2 0x615 JUMPI PUSH1 0x40 MLOAD PUSH3 0x461BCD PUSH1 0xE5 SHL DUP2 MSTORE PUSH1 0x20 PUSH1 0x4 DUP3 ADD MSTORE PUSH1 0x29 PUSH1 0x24 DUP3 ADD MSTORE PUSH32 0x526F6C657346616365743A206E6577206F776E657220697320746865207A6572 PUSH1 0x44 DUP3 ADD MSTORE PUSH9 0x6F2061646472657373 PUSH1 0xB8 SHL PUSH1 0x64 DUP3 ADD MSTORE PUSH1 0x84 ADD PUSH2 0x1F8 JUMP JUMPDEST PUSH32 0xC2B69DA5E7BE41C6EABA0BFA82E0E1FEF8D4512D663AA63C99EDE9DD1D17B017 SLOAD PUSH1 0x40 MLOAD PUSH32 0xC2B69DA5E7BE41C6EABA0BFA82E0E1FEF8D4512D663AA63C99EDE9DD1D17B00F SWAP2 PUSH1 0x1 PUSH1 0x1 PUSH1 0xA0 SHL SUB DUP5 DUP2 AND SWAP3 PUSH2 0x100 SWAP1 SWAP3 DIV AND SWAP1 PUSH32 0x8BE0079C531659141344CD1FD0A4F28419497F9722A3DAAFE3B4186F6B6457E0 SWAP1 PUSH1 0x0 SWAP1 LOG3 PUSH1 0x8 ADD DUP1 SLOAD PUSH1 0x1 PUSH1 0x1 PUSH1 0xA0 SHL SUB SWAP1 SWAP3 AND PUSH2 0x100 MUL PUSH2 0x100 PUSH1 0x1 PUSH1 0xA8 SHL SUB NOT SWAP1 SWAP3 AND SWAP2 SWAP1 SWAP2 OR SWAP1 SSTORE JUMP JUMPDEST DUP1 CALLDATALOAD PUSH1 0x1 PUSH1 0x1 PUSH1 0xA0 SHL SUB DUP2 AND DUP2 EQ PUSH2 0x6D6 JUMPI PUSH1 0x0 DUP1 REVERT JUMPDEST SWAP2 SWAP1 POP JUMP JUMPDEST PUSH1 0x0 PUSH1 0x20 DUP3 DUP5 SUB SLT ISZERO PUSH2 0x6ED JUMPI PUSH1 0x0 DUP1 REVERT JUMPDEST PUSH2 0x6F6 DUP3 PUSH2 0x6BF JUMP JUMPDEST SWAP4 SWAP3 POP POP POP JUMP JUMPDEST PUSH1 0x0 DUP1 PUSH1 0x40 DUP4 DUP6 SUB SLT ISZERO PUSH2 0x710 JUMPI PUSH1 0x0 DUP1 REVERT JUMPDEST PUSH2 0x719 DUP4 PUSH2 0x6BF JUMP JUMPDEST SWAP2 POP PUSH1 0x20 DUP4 ADD CALLDATALOAD DUP1 ISZERO ISZERO DUP2 EQ PUSH2 0x72E JUMPI PUSH1 0x0 DUP1 REVERT JUMPDEST DUP1 SWAP2 POP POP SWAP3 POP SWAP3 SWAP1 POP JUMP JUMPDEST PUSH1 0x20 DUP1 DUP3 MSTORE DUP3 MLOAD DUP3 DUP3 ADD DUP2 SWAP1 MSTORE PUSH1 0x0 SWAP2 SWAP1 DUP5 DUP3 ADD SWAP1 PUSH1 0x40 DUP6 ADD SWAP1 DUP5 JUMPDEST DUP2 DUP2 LT ISZERO PUSH2 0x77B JUMPI DUP4 MLOAD PUSH1 0x1 PUSH1 0x1 PUSH1 0xE0 SHL SUB NOT AND DUP4 MSTORE SWAP3 DUP5 ADD SWAP3 SWAP2 DUP5 ADD SWAP2 PUSH1 0x1 ADD PUSH2 0x755 JUMP JUMPDEST POP SWAP1 SWAP7 SWAP6 POP POP POP POP POP POP JUMP JUMPDEST PUSH1 0x0 DUP2 PUSH2 0x7A4 JUMPI PUSH4 0x4E487B71 PUSH1 0xE0 SHL PUSH1 0x0 MSTORE PUSH1 0x11 PUSH1 0x4 MSTORE PUSH1 0x24 PUSH1 0x0 REVERT JUMPDEST POP PUSH1 0x0 NOT ADD SWAP1 JUMP JUMPDEST PUSH4 0x4E487B71 PUSH1 0xE0 SHL PUSH1 0x0 MSTORE PUSH1 0x32 PUSH1 0x4 MSTORE PUSH1 0x24 PUSH1 0x0 REVERT INVALID LOG2 PUSH5 0x6970667358 0x22 SLT KECCAK256 COINBASE 0xB0 0xB5 0xE5 ADD SWAP6 0xCC 0xB6 RETURNDATASIZE 0xAD PUSH6 0xD90A5D20358D 0xDC LT SIGNEXTEND 0x2D 0xBB GASPRICE SGT 0xE7 0xED 0xAF 0xE2 DUP15 0xD4 0xE PC PUSH5 0x736F6C6343 STOP ADDMOD GT STOP CALLER "},"methodIdentifiers":{"initializeRoles(address)":"54208a2f","isAgent(address)":"1ffbb064","owner()":"8da5cb5b","selectorsIntrospection()":"e3b807a0","setAgent(address,bool)":"97d8c676","transferOwnership(address)":"f2fde38b"}},"storageLayout":{"storage":[{"astId":335,"contract":"contracts/facets/RolesFacet_DEPRECATED.sol:RolesFacet","label":"_initialized","offset":0,"slot":"0","type":"t_uint8"},{"astId":338,"contract":"contracts/facets/RolesFacet_DEPRECATED.sol:RolesFacet","label":"_initializing","offset":1,"slot":"0","type":"t_bool"}],"types":{"t_bool":{"encoding":"inplace","label":"bool","numberOfBytes":"1"},"t_uint8":{"encoding":"inplace","label":"uint8","numberOfBytes":"1"}}}}}}