{"contracts/facets/ComplianceFacet_DEPRECATED.sol":{"ComplianceFacet":{"abi":[{"anonymous":false,"inputs":[{"indexed":false,"internalType":"uint256","name":"max","type":"uint256"}],"name":"MaxBalanceSet","type":"event"},{"anonymous":false,"inputs":[{"indexed":false,"internalType":"uint256","name":"max","type":"uint256"}],"name":"MaxInvestorsSet","type":"event"},{"anonymous":false,"inputs":[{"indexed":false,"internalType":"uint256","name":"min","type":"uint256"}],"name":"MinBalanceSet","type":"event"},{"inputs":[{"internalType":"address","name":"from","type":"address"},{"internalType":"address","name":"to","type":"address"},{"internalType":"uint256","name":"amount","type":"uint256"}],"name":"canTransfer","outputs":[{"internalType":"bool","name":"","type":"bool"}],"stateMutability":"view","type":"function"},{"inputs":[],"name":"complianceRules","outputs":[{"internalType":"uint256","name":"maxBalance","type":"uint256"},{"internalType":"uint256","name":"minBalance","type":"uint256"},{"internalType":"uint256","name":"maxInvestors","type":"uint256"}],"stateMutability":"view","type":"function"},{"inputs":[],"name":"selectorsIntrospection","outputs":[{"internalType":"bytes4[]","name":"selectors_","type":"bytes4[]"}],"stateMutability":"pure","type":"function"},{"inputs":[{"internalType":"uint256","name":"max","type":"uint256"}],"name":"setMaxBalance","outputs":[],"stateMutability":"nonpayable","type":"function"},{"inputs":[{"internalType":"uint256","name":"max","type":"uint256"}],"name":"setMaxInvestors","outputs":[],"stateMutability":"nonpayable","type":"function"},{"inputs":[{"internalType":"uint256","name":"min","type":"uint256"}],"name":"setMinBalance","outputs":[],"stateMutability":"nonpayable","type":"function"}],"evm":{"bytecode":{"linkReferences":{},"object":"608060405234801561001057600080fd5b50610824806100206000396000f3fe608060405234801561001057600080fd5b50600436106100625760003560e01c806335e896c1146100675780636ec58d131461007c5780639d51d9b714610102578063c91d956c14610115578063e3b807a014610128578063e46638e61461013d575b600080fd5b61007a610075366004610677565b610160565b005b7fc2b69da5e7be41c6eaba0bfa82e0e1fef8d4512d663aa63c99ede9dd1d17b019547fc2b69da5e7be41c6eaba0bfa82e0e1fef8d4512d663aa63c99ede9dd1d17b01a547fc2b69da5e7be41c6eaba0bfa82e0e1fef8d4512d663aa63c99ede9dd1d17b01b54604080519384526020840192909252908201526060015b60405180910390f35b61007a610110366004610677565b610203565b61007a610123366004610677565b610296565b610130610329565b6040516100f99190610690565b61015061014b3660046106fa565b610488565b60405190151581526020016100f9565b6000805160206107cf8339815191526008015461010090046001600160a01b031633146101a85760405162461bcd60e51b815260040161019f90610736565b60405180910390fd5b7fc2b69da5e7be41c6eaba0bfa82e0e1fef8d4512d663aa63c99ede9dd1d17b01b8190556040518181527f0de3b656191db95f0ae3b33d959531021110a9da5b819655d9d13a57496144ad906020015b60405180910390a150565b6000805160206107cf8339815191526008015461010090046001600160a01b031633146102425760405162461bcd60e51b815260040161019f90610736565b7fc2b69da5e7be41c6eaba0bfa82e0e1fef8d4512d663aa63c99ede9dd1d17b0198190556040518181527f82f9980487703d8db41f1ba63b2665566f7fb449fbc840a9e0c6ca932bed582c906020016101f8565b6000805160206107cf8339815191526008015461010090046001600160a01b031633146102d55760405162461bcd60e51b815260040161019f90610736565b7fc2b69da5e7be41c6eaba0bfa82e0e1fef8d4512d663aa63c99ede9dd1d17b01a8190556040518181527fc9ac0b9c6116d44b14ac8198e0802802d07cf6956054e7542f0460a4d3423b3a906020016101f8565b60408051600580825260c0820190925260609190816020820160a080368337019050509150639d51d9b760e01b826103608361076f565b9250828151811061037357610373610786565b6001600160e01b031990921660209283029190910190910152633247655b60e21b8261039e8361076f565b925082815181106103b1576103b1610786565b6001600160e01b0319909216602092830291909101909101526335e896c160e01b826103dc8361076f565b925082815181106103ef576103ef610786565b6001600160e01b0319909216602092830291909101909101526372331c7360e11b8261041a8361076f565b9250828151811061042d5761042d610786565b6001600160e01b031990921660209283029190910190910152636ec58d1360e01b826104588361076f565b9250828151811061046b5761046b610786565b6001600160e01b0319909216602092830291909101909101525090565b6001600160a01b03831660009081527fc2b69da5e7be41c6eaba0bfa82e0e1fef8d4512d663aa63c99ede9dd1d17b01160205260408120546000805160206107cf8339815191529060ff16806104f857506001600160a01b038416600090815260028201602052604090205460ff165b15610507576000915050610670565b6001600160a01b0384811660009081526020839052604090205416610530576000915050610670565b6001600160a01b038416600090815260038201602052604081205461055690859061079c565b9050600082600a015411801561056f575081600a015481115b1561057f57600092505050610670565b600082600b0154118015610596575081600b015481105b156105a657600092505050610670565b600082600c01541180156105d257506001600160a01b0385166000908152600383016020526040902054155b15610669576000805b601084015481101561064f57600084600301600086601001848154811061060457610604610786565b60009182526020808320909101546001600160a01b03168352820192909252604001902054111561063d5781610639816107b5565b9250505b80610647816107b5565b9150506105db565b5082600c015481106106675760009350505050610670565b505b6001925050505b9392505050565b60006020828403121561068957600080fd5b5035919050565b6020808252825182820181905260009190848201906040850190845b818110156106d25783516001600160e01b031916835292840192918401916001016106ac565b50909695505050505050565b80356001600160a01b03811681146106f557600080fd5b919050565b60008060006060848603121561070f57600080fd5b610718846106de565b9250610726602085016106de565b9150604084013590509250925092565b6020808252600990820152682737ba1037bbb732b960b91b604082015260600190565b634e487b7160e01b600052601160045260246000fd5b60008161077e5761077e610759565b506000190190565b634e487b7160e01b600052603260045260246000fd5b808201808211156107af576107af610759565b92915050565b6000600182016107c7576107c7610759565b506001019056fec2b69da5e7be41c6eaba0bfa82e0e1fef8d4512d663aa63c99ede9dd1d17b00fa26469706673582212209c9bedbaf028163704d28b4617a144b00a4b572767f942feb16f632acbe3119264736f6c63430008110033","opcodes":"PUSH1 0x80 PUSH1 0x40 MSTORE CALLVALUE DUP1 ISZERO PUSH2 0x10 JUMPI PUSH1 0x0 DUP1 REVERT JUMPDEST POP PUSH2 0x824 DUP1 PUSH2 0x20 PUSH1 0x0 CODECOPY PUSH1 0x0 RETURN INVALID PUSH1 0x80 PUSH1 0x40 MSTORE CALLVALUE DUP1 ISZERO PUSH2 0x10 JUMPI PUSH1 0x0 DUP1 REVERT JUMPDEST POP PUSH1 0x4 CALLDATASIZE LT PUSH2 0x62 JUMPI PUSH1 0x0 CALLDATALOAD PUSH1 0xE0 SHR DUP1 PUSH4 0x35E896C1 EQ PUSH2 0x67 JUMPI DUP1 PUSH4 0x6EC58D13 EQ PUSH2 0x7C JUMPI DUP1 PUSH4 0x9D51D9B7 EQ PUSH2 0x102 JUMPI DUP1 PUSH4 0xC91D956C EQ PUSH2 0x115 JUMPI DUP1 PUSH4 0xE3B807A0 EQ PUSH2 0x128 JUMPI DUP1 PUSH4 0xE46638E6 EQ PUSH2 0x13D JUMPI JUMPDEST PUSH1 0x0 DUP1 REVERT JUMPDEST PUSH2 0x7A PUSH2 0x75 CALLDATASIZE PUSH1 0x4 PUSH2 0x677 JUMP JUMPDEST PUSH2 0x160 JUMP JUMPDEST STOP JUMPDEST PUSH32 0xC2B69DA5E7BE41C6EABA0BFA82E0E1FEF8D4512D663AA63C99EDE9DD1D17B019 SLOAD PUSH32 0xC2B69DA5E7BE41C6EABA0BFA82E0E1FEF8D4512D663AA63C99EDE9DD1D17B01A SLOAD PUSH32 0xC2B69DA5E7BE41C6EABA0BFA82E0E1FEF8D4512D663AA63C99EDE9DD1D17B01B SLOAD PUSH1 0x40 DUP1 MLOAD SWAP4 DUP5 MSTORE PUSH1 0x20 DUP5 ADD SWAP3 SWAP1 SWAP3 MSTORE SWAP1 DUP3 ADD MSTORE PUSH1 0x60 ADD JUMPDEST PUSH1 0x40 MLOAD DUP1 SWAP2 SUB SWAP1 RETURN JUMPDEST PUSH2 0x7A PUSH2 0x110 CALLDATASIZE PUSH1 0x4 PUSH2 0x677 JUMP JUMPDEST PUSH2 0x203 JUMP JUMPDEST PUSH2 0x7A PUSH2 0x123 CALLDATASIZE PUSH1 0x4 PUSH2 0x677 JUMP JUMPDEST PUSH2 0x296 JUMP JUMPDEST PUSH2 0x130 PUSH2 0x329 JUMP JUMPDEST PUSH1 0x40 MLOAD PUSH2 0xF9 SWAP2 SWAP1 PUSH2 0x690 JUMP JUMPDEST PUSH2 0x150 PUSH2 0x14B CALLDATASIZE PUSH1 0x4 PUSH2 0x6FA JUMP JUMPDEST PUSH2 0x488 JUMP JUMPDEST PUSH1 0x40 MLOAD SWAP1 ISZERO ISZERO DUP2 MSTORE PUSH1 0x20 ADD PUSH2 0xF9 JUMP JUMPDEST PUSH1 0x0 DUP1 MLOAD PUSH1 0x20 PUSH2 0x7CF DUP4 CODECOPY DUP2 MLOAD SWAP2 MSTORE PUSH1 0x8 ADD SLOAD PUSH2 0x100 SWAP1 DIV PUSH1 0x1 PUSH1 0x1 PUSH1 0xA0 SHL SUB AND CALLER EQ PUSH2 0x1A8 JUMPI PUSH1 0x40 MLOAD PUSH3 0x461BCD PUSH1 0xE5 SHL DUP2 MSTORE PUSH1 0x4 ADD PUSH2 0x19F SWAP1 PUSH2 0x736 JUMP JUMPDEST PUSH1 0x40 MLOAD DUP1 SWAP2 SUB SWAP1 REVERT JUMPDEST PUSH32 0xC2B69DA5E7BE41C6EABA0BFA82E0E1FEF8D4512D663AA63C99EDE9DD1D17B01B DUP2 SWAP1 SSTORE PUSH1 0x40 MLOAD DUP2 DUP2 MSTORE PUSH32 0xDE3B656191DB95F0AE3B33D959531021110A9DA5B819655D9D13A57496144AD SWAP1 PUSH1 0x20 ADD JUMPDEST PUSH1 0x40 MLOAD DUP1 SWAP2 SUB SWAP1 LOG1 POP JUMP JUMPDEST PUSH1 0x0 DUP1 MLOAD PUSH1 0x20 PUSH2 0x7CF DUP4 CODECOPY DUP2 MLOAD SWAP2 MSTORE PUSH1 0x8 ADD SLOAD PUSH2 0x100 SWAP1 DIV PUSH1 0x1 PUSH1 0x1 PUSH1 0xA0 SHL SUB AND CALLER EQ PUSH2 0x242 JUMPI PUSH1 0x40 MLOAD PUSH3 0x461BCD PUSH1 0xE5 SHL DUP2 MSTORE PUSH1 0x4 ADD PUSH2 0x19F SWAP1 PUSH2 0x736 JUMP JUMPDEST PUSH32 0xC2B69DA5E7BE41C6EABA0BFA82E0E1FEF8D4512D663AA63C99EDE9DD1D17B019 DUP2 SWAP1 SSTORE PUSH1 0x40 MLOAD DUP2 DUP2 MSTORE PUSH32 0x82F9980487703D8DB41F1BA63B2665566F7FB449FBC840A9E0C6CA932BED582C SWAP1 PUSH1 0x20 ADD PUSH2 0x1F8 JUMP JUMPDEST PUSH1 0x0 DUP1 MLOAD PUSH1 0x20 PUSH2 0x7CF DUP4 CODECOPY DUP2 MLOAD SWAP2 MSTORE PUSH1 0x8 ADD SLOAD PUSH2 0x100 SWAP1 DIV PUSH1 0x1 PUSH1 0x1 PUSH1 0xA0 SHL SUB AND CALLER EQ PUSH2 0x2D5 JUMPI PUSH1 0x40 MLOAD PUSH3 0x461BCD PUSH1 0xE5 SHL DUP2 MSTORE PUSH1 0x4 ADD PUSH2 0x19F SWAP1 PUSH2 0x736 JUMP JUMPDEST PUSH32 0xC2B69DA5E7BE41C6EABA0BFA82E0E1FEF8D4512D663AA63C99EDE9DD1D17B01A DUP2 SWAP1 SSTORE PUSH1 0x40 MLOAD DUP2 DUP2 MSTORE PUSH32 0xC9AC0B9C6116D44B14AC8198E0802802D07CF6956054E7542F0460A4D3423B3A SWAP1 PUSH1 0x20 ADD PUSH2 0x1F8 JUMP JUMPDEST PUSH1 0x40 DUP1 MLOAD PUSH1 0x5 DUP1 DUP3 MSTORE PUSH1 0xC0 DUP3 ADD SWAP1 SWAP3 MSTORE PUSH1 0x60 SWAP2 SWAP1 DUP2 PUSH1 0x20 DUP3 ADD PUSH1 0xA0 DUP1 CALLDATASIZE DUP4 CALLDATACOPY ADD SWAP1 POP POP SWAP2 POP PUSH4 0x9D51D9B7 PUSH1 0xE0 SHL DUP3 PUSH2 0x360 DUP4 PUSH2 0x76F JUMP JUMPDEST SWAP3 POP DUP3 DUP2 MLOAD DUP2 LT PUSH2 0x373 JUMPI PUSH2 0x373 PUSH2 0x786 JUMP JUMPDEST PUSH1 0x1 PUSH1 0x1 PUSH1 0xE0 SHL SUB NOT SWAP1 SWAP3 AND PUSH1 0x20 SWAP3 DUP4 MUL SWAP2 SWAP1 SWAP2 ADD SWAP1 SWAP2 ADD MSTORE PUSH4 0x3247655B PUSH1 0xE2 SHL DUP3 PUSH2 0x39E DUP4 PUSH2 0x76F JUMP JUMPDEST SWAP3 POP DUP3 DUP2 MLOAD DUP2 LT PUSH2 0x3B1 JUMPI PUSH2 0x3B1 PUSH2 0x786 JUMP JUMPDEST PUSH1 0x1 PUSH1 0x1 PUSH1 0xE0 SHL SUB NOT SWAP1 SWAP3 AND PUSH1 0x20 SWAP3 DUP4 MUL SWAP2 SWAP1 SWAP2 ADD SWAP1 SWAP2 ADD MSTORE PUSH4 0x35E896C1 PUSH1 0xE0 SHL DUP3 PUSH2 0x3DC DUP4 PUSH2 0x76F JUMP JUMPDEST SWAP3 POP DUP3 DUP2 MLOAD DUP2 LT PUSH2 0x3EF JUMPI PUSH2 0x3EF PUSH2 0x786 JUMP JUMPDEST PUSH1 0x1 PUSH1 0x1 PUSH1 0xE0 SHL SUB NOT SWAP1 SWAP3 AND PUSH1 0x20 SWAP3 DUP4 MUL SWAP2 SWAP1 SWAP2 ADD SWAP1 SWAP2 ADD MSTORE PUSH4 0x72331C73 PUSH1 0xE1 SHL DUP3 PUSH2 0x41A DUP4 PUSH2 0x76F JUMP JUMPDEST SWAP3 POP DUP3 DUP2 MLOAD DUP2 LT PUSH2 0x42D JUMPI PUSH2 0x42D PUSH2 0x786 JUMP JUMPDEST PUSH1 0x1 PUSH1 0x1 PUSH1 0xE0 SHL SUB NOT SWAP1 SWAP3 AND PUSH1 0x20 SWAP3 DUP4 MUL SWAP2 SWAP1 SWAP2 ADD SWAP1 SWAP2 ADD MSTORE PUSH4 0x6EC58D13 PUSH1 0xE0 SHL DUP3 PUSH2 0x458 DUP4 PUSH2 0x76F JUMP JUMPDEST SWAP3 POP DUP3 DUP2 MLOAD DUP2 LT PUSH2 0x46B JUMPI PUSH2 0x46B PUSH2 0x786 JUMP JUMPDEST PUSH1 0x1 PUSH1 0x1 PUSH1 0xE0 SHL SUB NOT SWAP1 SWAP3 AND PUSH1 0x20 SWAP3 DUP4 MUL SWAP2 SWAP1 SWAP2 ADD SWAP1 SWAP2 ADD MSTORE POP SWAP1 JUMP JUMPDEST PUSH1 0x1 PUSH1 0x1 PUSH1 0xA0 SHL SUB DUP4 AND PUSH1 0x0 SWAP1 DUP2 MSTORE PUSH32 0xC2B69DA5E7BE41C6EABA0BFA82E0E1FEF8D4512D663AA63C99EDE9DD1D17B011 PUSH1 0x20 MSTORE PUSH1 0x40 DUP2 KECCAK256 SLOAD PUSH1 0x0 DUP1 MLOAD PUSH1 0x20 PUSH2 0x7CF DUP4 CODECOPY DUP2 MLOAD SWAP2 MSTORE SWAP1 PUSH1 0xFF AND DUP1 PUSH2 0x4F8 JUMPI POP PUSH1 0x1 PUSH1 0x1 PUSH1 0xA0 SHL SUB DUP5 AND PUSH1 0x0 SWAP1 DUP2 MSTORE PUSH1 0x2 DUP3 ADD PUSH1 0x20 MSTORE PUSH1 0x40 SWAP1 KECCAK256 SLOAD PUSH1 0xFF AND JUMPDEST ISZERO PUSH2 0x507 JUMPI PUSH1 0x0 SWAP2 POP POP PUSH2 0x670 JUMP JUMPDEST PUSH1 0x1 PUSH1 0x1 PUSH1 0xA0 SHL SUB DUP5 DUP2 AND PUSH1 0x0 SWAP1 DUP2 MSTORE PUSH1 0x20 DUP4 SWAP1 MSTORE PUSH1 0x40 SWAP1 KECCAK256 SLOAD AND PUSH2 0x530 JUMPI PUSH1 0x0 SWAP2 POP POP PUSH2 0x670 JUMP JUMPDEST PUSH1 0x1 PUSH1 0x1 PUSH1 0xA0 SHL SUB DUP5 AND PUSH1 0x0 SWAP1 DUP2 MSTORE PUSH1 0x3 DUP3 ADD PUSH1 0x20 MSTORE PUSH1 0x40 DUP2 KECCAK256 SLOAD PUSH2 0x556 SWAP1 DUP6 SWAP1 PUSH2 0x79C JUMP JUMPDEST SWAP1 POP PUSH1 0x0 DUP3 PUSH1 0xA ADD SLOAD GT DUP1 ISZERO PUSH2 0x56F JUMPI POP DUP2 PUSH1 0xA ADD SLOAD DUP2 GT JUMPDEST ISZERO PUSH2 0x57F JUMPI PUSH1 0x0 SWAP3 POP POP POP PUSH2 0x670 JUMP JUMPDEST PUSH1 0x0 DUP3 PUSH1 0xB ADD SLOAD GT DUP1 ISZERO PUSH2 0x596 JUMPI POP DUP2 PUSH1 0xB ADD SLOAD DUP2 LT JUMPDEST ISZERO PUSH2 0x5A6 JUMPI PUSH1 0x0 SWAP3 POP POP POP PUSH2 0x670 JUMP JUMPDEST PUSH1 0x0 DUP3 PUSH1 0xC ADD SLOAD GT DUP1 ISZERO PUSH2 0x5D2 JUMPI POP PUSH1 0x1 PUSH1 0x1 PUSH1 0xA0 SHL SUB DUP6 AND PUSH1 0x0 SWAP1 DUP2 MSTORE PUSH1 0x3 DUP4 ADD PUSH1 0x20 MSTORE PUSH1 0x40 SWAP1 KECCAK256 SLOAD ISZERO JUMPDEST ISZERO PUSH2 0x669 JUMPI PUSH1 0x0 DUP1 JUMPDEST PUSH1 0x10 DUP5 ADD SLOAD DUP2 LT ISZERO PUSH2 0x64F JUMPI PUSH1 0x0 DUP5 PUSH1 0x3 ADD PUSH1 0x0 DUP7 PUSH1 0x10 ADD DUP5 DUP2 SLOAD DUP2 LT PUSH2 0x604 JUMPI PUSH2 0x604 PUSH2 0x786 JUMP JUMPDEST PUSH1 0x0 SWAP2 DUP3 MSTORE PUSH1 0x20 DUP1 DUP4 KECCAK256 SWAP1 SWAP2 ADD SLOAD PUSH1 0x1 PUSH1 0x1 PUSH1 0xA0 SHL SUB AND DUP4 MSTORE DUP3 ADD SWAP3 SWAP1 SWAP3 MSTORE PUSH1 0x40 ADD SWAP1 KECCAK256 SLOAD GT ISZERO PUSH2 0x63D JUMPI DUP2 PUSH2 0x639 DUP2 PUSH2 0x7B5 JUMP JUMPDEST SWAP3 POP POP JUMPDEST DUP1 PUSH2 0x647 DUP2 PUSH2 0x7B5 JUMP JUMPDEST SWAP2 POP POP PUSH2 0x5DB JUMP JUMPDEST POP DUP3 PUSH1 0xC ADD SLOAD DUP2 LT PUSH2 0x667 JUMPI PUSH1 0x0 SWAP4 POP POP POP POP PUSH2 0x670 JUMP JUMPDEST POP JUMPDEST PUSH1 0x1 SWAP3 POP POP POP JUMPDEST SWAP4 SWAP3 POP POP POP JUMP JUMPDEST PUSH1 0x0 PUSH1 0x20 DUP3 DUP5 SUB SLT ISZERO PUSH2 0x689 JUMPI PUSH1 0x0 DUP1 REVERT JUMPDEST POP CALLDATALOAD SWAP2 SWAP1 POP JUMP JUMPDEST PUSH1 0x20 DUP1 DUP3 MSTORE DUP3 MLOAD DUP3 DUP3 ADD DUP2 SWAP1 MSTORE PUSH1 0x0 SWAP2 SWAP1 DUP5 DUP3 ADD SWAP1 PUSH1 0x40 DUP6 ADD SWAP1 DUP5 JUMPDEST DUP2 DUP2 LT ISZERO PUSH2 0x6D2 JUMPI DUP4 MLOAD PUSH1 0x1 PUSH1 0x1 PUSH1 0xE0 SHL SUB NOT AND DUP4 MSTORE SWAP3 DUP5 ADD SWAP3 SWAP2 DUP5 ADD SWAP2 PUSH1 0x1 ADD PUSH2 0x6AC JUMP JUMPDEST POP SWAP1 SWAP7 SWAP6 POP POP POP POP POP POP JUMP JUMPDEST DUP1 CALLDATALOAD PUSH1 0x1 PUSH1 0x1 PUSH1 0xA0 SHL SUB DUP2 AND DUP2 EQ PUSH2 0x6F5 JUMPI PUSH1 0x0 DUP1 REVERT JUMPDEST SWAP2 SWAP1 POP JUMP JUMPDEST PUSH1 0x0 DUP1 PUSH1 0x0 PUSH1 0x60 DUP5 DUP7 SUB SLT ISZERO PUSH2 0x70F JUMPI PUSH1 0x0 DUP1 REVERT JUMPDEST PUSH2 0x718 DUP5 PUSH2 0x6DE JUMP JUMPDEST SWAP3 POP PUSH2 0x726 PUSH1 0x20 DUP6 ADD PUSH2 0x6DE JUMP JUMPDEST SWAP2 POP PUSH1 0x40 DUP5 ADD CALLDATALOAD SWAP1 POP SWAP3 POP SWAP3 POP SWAP3 JUMP JUMPDEST PUSH1 0x20 DUP1 DUP3 MSTORE PUSH1 0x9 SWAP1 DUP3 ADD MSTORE PUSH9 0x2737BA1037BBB732B9 PUSH1 0xB9 SHL PUSH1 0x40 DUP3 ADD MSTORE PUSH1 0x60 ADD SWAP1 JUMP JUMPDEST PUSH4 0x4E487B71 PUSH1 0xE0 SHL PUSH1 0x0 MSTORE PUSH1 0x11 PUSH1 0x4 MSTORE PUSH1 0x24 PUSH1 0x0 REVERT JUMPDEST PUSH1 0x0 DUP2 PUSH2 0x77E JUMPI PUSH2 0x77E PUSH2 0x759 JUMP JUMPDEST POP PUSH1 0x0 NOT ADD SWAP1 JUMP JUMPDEST PUSH4 0x4E487B71 PUSH1 0xE0 SHL PUSH1 0x0 MSTORE PUSH1 0x32 PUSH1 0x4 MSTORE PUSH1 0x24 PUSH1 0x0 REVERT JUMPDEST DUP1 DUP3 ADD DUP1 DUP3 GT ISZERO PUSH2 0x7AF JUMPI PUSH2 0x7AF PUSH2 0x759 JUMP JUMPDEST SWAP3 SWAP2 POP POP JUMP JUMPDEST PUSH1 0x0 PUSH1 0x1 DUP3 ADD PUSH2 0x7C7 JUMPI PUSH2 0x7C7 PUSH2 0x759 JUMP JUMPDEST POP PUSH1 0x1 ADD SWAP1 JUMP INVALID 0xC2 0xB6 SWAP14 0xA5 0xE7 0xBE COINBASE 0xC6 0xEA 0xBA SIGNEXTEND STATICCALL DUP3 0xE0 0xE1 INVALID 0xF8 0xD4 MLOAD 0x2D PUSH7 0x3AA63C99EDE9DD SAR OR 0xB0 0xF LOG2 PUSH5 0x6970667358 0x22 SLT KECCAK256 SWAP13 SWAP12 0xED 0xBA CREATE 0x28 AND CALLDATACOPY DIV 0xD2 DUP12 CHAINID OR LOG1 DIFFICULTY 0xB0 EXP 0x4B JUMPI 0x27 PUSH8 0xF942FEB16F632ACB 0xE3 GT SWAP3 PUSH5 0x736F6C6343 STOP ADDMOD GT STOP CALLER "},"methodIdentifiers":{"canTransfer(address,address,uint256)":"e46638e6","complianceRules()":"6ec58d13","selectorsIntrospection()":"e3b807a0","setMaxBalance(uint256)":"9d51d9b7","setMaxInvestors(uint256)":"35e896c1","setMinBalance(uint256)":"c91d956c"}},"storageLayout":{"storage":[],"types":null}}}}