{"contracts/facets/ClaimTopicsFacet.sol":{"ClaimTopicsFacet":{"abi":[{"anonymous":false,"inputs":[{"indexed":true,"internalType":"uint256","name":"topic","type":"uint256"}],"name":"ClaimTopicAdded","type":"event"},{"anonymous":false,"inputs":[{"indexed":true,"internalType":"uint256","name":"topic","type":"uint256"}],"name":"ClaimTopicRemoved","type":"event"},{"inputs":[{"internalType":"uint256","name":"topic","type":"uint256"}],"name":"addClaimTopic","outputs":[],"stateMutability":"nonpayable","type":"function"},{"inputs":[],"name":"getClaimTopics","outputs":[{"internalType":"uint256[]","name":"","type":"uint256[]"}],"stateMutability":"view","type":"function"},{"inputs":[{"internalType":"uint256","name":"topic","type":"uint256"}],"name":"removeClaimTopic","outputs":[],"stateMutability":"nonpayable","type":"function"},{"inputs":[],"name":"selectorsIntrospection","outputs":[{"internalType":"bytes4[]","name":"selectors_","type":"bytes4[]"}],"stateMutability":"pure","type":"function"}],"evm":{"bytecode":{"linkReferences":{},"object":"608060405234801561001057600080fd5b50610624806100206000396000f3fe608060405234801561001057600080fd5b506004361061004c5760003560e01c80630829784614610051578063c7b2255114610066578063df09d60414610079578063e3b807a014610097575b600080fd5b61006461005f3660046104c4565b6100ac565b005b6100646100743660046104c4565b6100c1565b6100816100d3565b60405161008e91906104dd565b60405180910390f35b61009f6100e2565b60405161008e9190610521565b6100b5336101c4565b6100be81610245565b50565b6100ca336101c4565b6100be81610354565b60606100dd610450565b905090565b60408051600380825260808201909252606091908160208201848036833701905050915063c7b2255160e01b8261011883610579565b9250828151811061012b5761012b610590565b6001600160e01b031990921660209283029190910190910152630414bc2360e11b8261015683610579565b9250828151811061016957610169610590565b6001600160e01b0319909216602092830291909101909101526337c2758160e21b8261019483610579565b925082815181106101a7576101a7610590565b6001600160e01b0319909216602092830291909101909101525090565b7f0fcb11fff5651caf53eaf1124d25315389f7b0ceffd704a5e999a2ffc7764fd5546001600160a01b038281169116146100be5760405162461bcd60e51b815260206004820152601e60248201527f436c61696d546f70696373496e7465726e616c3a204e6f74206f776e6572000060448201526064015b60405180910390fd5b7f122b1d6208c9f06f38eea9775d610d6447ef9c6bf9da7e813570b22bcd54b77660005b815481101561034f578282600001828154811061028857610288610590565b90600052602060002001540361033d57815482906102a8906001906105a6565b815481106102b8576102b8610590565b90600052602060002001548260000182815481106102d8576102d8610590565b60009182526020909120015581548290806102f5576102f56105bf565b60019003818190600052602060002001600090559055827f0b1381093c776453c1bbe54fd68be1b235c65db61d099cb50d194b2991e0eec560405160405180910390a2505050565b80610347816105d5565b915050610269565b505050565b7f122b1d6208c9f06f38eea9775d610d6447ef9c6bf9da7e813570b22bcd54b77660005b815481101561040c578282600001828154811061039757610397610590565b9060005260206000200154036103fa5760405162461bcd60e51b815260206004820152602260248201527f436c61696d546f70696373496e7465726e616c3a20416c726561647920616464604482015261195960f21b606482015260840161023c565b80610404816105d5565b915050610378565b50805460018101825560008281526020812090910183905560405183917f01c928b7f7ade2949e92366aa9454dbef3a416b731cf6ec786ba9595bbd814d691a25050565b60607f122b1d6208c9f06f38eea9775d610d6447ef9c6bf9da7e813570b22bcd54b7768054604080516020808402820181019092528281529291908301828280156104ba57602002820191906000526020600020905b8154815260200190600101908083116104a6575b5050505050905090565b6000602082840312156104d657600080fd5b5035919050565b6020808252825182820181905260009190848201906040850190845b81811015610515578351835292840192918401916001016104f9565b50909695505050505050565b6020808252825182820181905260009190848201906040850190845b818110156105155783516001600160e01b0319168352928401929184019160010161053d565b634e487b7160e01b600052601160045260246000fd5b60008161058857610588610563565b506000190190565b634e487b7160e01b600052603260045260246000fd5b818103818111156105b9576105b9610563565b92915050565b634e487b7160e01b600052603160045260246000fd5b6000600182016105e7576105e7610563565b506001019056fea2646970667358221220be58bd7269f54c5d9f920b09d79ad507c660b84e725d976d98aac22b4c8fd3f464736f6c63430008110033","opcodes":"PUSH1 0x80 PUSH1 0x40 MSTORE CALLVALUE DUP1 ISZERO PUSH2 0x10 JUMPI PUSH1 0x0 DUP1 REVERT JUMPDEST POP PUSH2 0x624 DUP1 PUSH2 0x20 PUSH1 0x0 CODECOPY PUSH1 0x0 RETURN INVALID PUSH1 0x80 PUSH1 0x40 MSTORE CALLVALUE DUP1 ISZERO PUSH2 0x10 JUMPI PUSH1 0x0 DUP1 REVERT JUMPDEST POP PUSH1 0x4 CALLDATASIZE LT PUSH2 0x4C JUMPI PUSH1 0x0 CALLDATALOAD PUSH1 0xE0 SHR DUP1 PUSH4 0x8297846 EQ PUSH2 0x51 JUMPI DUP1 PUSH4 0xC7B22551 EQ PUSH2 0x66 JUMPI DUP1 PUSH4 0xDF09D604 EQ PUSH2 0x79 JUMPI DUP1 PUSH4 0xE3B807A0 EQ PUSH2 0x97 JUMPI JUMPDEST PUSH1 0x0 DUP1 REVERT JUMPDEST PUSH2 0x64 PUSH2 0x5F CALLDATASIZE PUSH1 0x4 PUSH2 0x4C4 JUMP JUMPDEST PUSH2 0xAC JUMP JUMPDEST STOP JUMPDEST PUSH2 0x64 PUSH2 0x74 CALLDATASIZE PUSH1 0x4 PUSH2 0x4C4 JUMP JUMPDEST PUSH2 0xC1 JUMP JUMPDEST PUSH2 0x81 PUSH2 0xD3 JUMP JUMPDEST PUSH1 0x40 MLOAD PUSH2 0x8E SWAP2 SWAP1 PUSH2 0x4DD JUMP JUMPDEST PUSH1 0x40 MLOAD DUP1 SWAP2 SUB SWAP1 RETURN JUMPDEST PUSH2 0x9F PUSH2 0xE2 JUMP JUMPDEST PUSH1 0x40 MLOAD PUSH2 0x8E SWAP2 SWAP1 PUSH2 0x521 JUMP JUMPDEST PUSH2 0xB5 CALLER PUSH2 0x1C4 JUMP JUMPDEST PUSH2 0xBE DUP2 PUSH2 0x245 JUMP JUMPDEST POP JUMP JUMPDEST PUSH2 0xCA CALLER PUSH2 0x1C4 JUMP JUMPDEST PUSH2 0xBE DUP2 PUSH2 0x354 JUMP JUMPDEST PUSH1 0x60 PUSH2 0xDD PUSH2 0x450 JUMP JUMPDEST SWAP1 POP SWAP1 JUMP JUMPDEST PUSH1 0x40 DUP1 MLOAD PUSH1 0x3 DUP1 DUP3 MSTORE PUSH1 0x80 DUP3 ADD SWAP1 SWAP3 MSTORE PUSH1 0x60 SWAP2 SWAP1 DUP2 PUSH1 0x20 DUP3 ADD DUP5 DUP1 CALLDATASIZE DUP4 CALLDATACOPY ADD SWAP1 POP POP SWAP2 POP PUSH4 0xC7B22551 PUSH1 0xE0 SHL DUP3 PUSH2 0x118 DUP4 PUSH2 0x579 JUMP JUMPDEST SWAP3 POP DUP3 DUP2 MLOAD DUP2 LT PUSH2 0x12B JUMPI PUSH2 0x12B PUSH2 0x590 JUMP JUMPDEST PUSH1 0x1 PUSH1 0x1 PUSH1 0xE0 SHL SUB NOT SWAP1 SWAP3 AND PUSH1 0x20 SWAP3 DUP4 MUL SWAP2 SWAP1 SWAP2 ADD SWAP1 SWAP2 ADD MSTORE PUSH4 0x414BC23 PUSH1 0xE1 SHL DUP3 PUSH2 0x156 DUP4 PUSH2 0x579 JUMP JUMPDEST SWAP3 POP DUP3 DUP2 MLOAD DUP2 LT PUSH2 0x169 JUMPI PUSH2 0x169 PUSH2 0x590 JUMP JUMPDEST PUSH1 0x1 PUSH1 0x1 PUSH1 0xE0 SHL SUB NOT SWAP1 SWAP3 AND PUSH1 0x20 SWAP3 DUP4 MUL SWAP2 SWAP1 SWAP2 ADD SWAP1 SWAP2 ADD MSTORE PUSH4 0x37C27581 PUSH1 0xE2 SHL DUP3 PUSH2 0x194 DUP4 PUSH2 0x579 JUMP JUMPDEST SWAP3 POP DUP3 DUP2 MLOAD DUP2 LT PUSH2 0x1A7 JUMPI PUSH2 0x1A7 PUSH2 0x590 JUMP JUMPDEST PUSH1 0x1 PUSH1 0x1 PUSH1 0xE0 SHL SUB NOT SWAP1 SWAP3 AND PUSH1 0x20 SWAP3 DUP4 MUL SWAP2 SWAP1 SWAP2 ADD SWAP1 SWAP2 ADD MSTORE POP SWAP1 JUMP JUMPDEST PUSH32 0xFCB11FFF5651CAF53EAF1124D25315389F7B0CEFFD704A5E999A2FFC7764FD5 SLOAD PUSH1 0x1 PUSH1 0x1 PUSH1 0xA0 SHL SUB DUP3 DUP2 AND SWAP2 AND EQ PUSH2 0xBE JUMPI PUSH1 0x40 MLOAD PUSH3 0x461BCD PUSH1 0xE5 SHL DUP2 MSTORE PUSH1 0x20 PUSH1 0x4 DUP3 ADD MSTORE PUSH1 0x1E PUSH1 0x24 DUP3 ADD MSTORE PUSH32 0x436C61696D546F70696373496E7465726E616C3A204E6F74206F776E65720000 PUSH1 0x44 DUP3 ADD MSTORE PUSH1 0x64 ADD JUMPDEST PUSH1 0x40 MLOAD DUP1 SWAP2 SUB SWAP1 REVERT JUMPDEST PUSH32 0x122B1D6208C9F06F38EEA9775D610D6447EF9C6BF9DA7E813570B22BCD54B776 PUSH1 0x0 JUMPDEST DUP2 SLOAD DUP2 LT ISZERO PUSH2 0x34F JUMPI DUP3 DUP3 PUSH1 0x0 ADD DUP3 DUP2 SLOAD DUP2 LT PUSH2 0x288 JUMPI PUSH2 0x288 PUSH2 0x590 JUMP JUMPDEST SWAP1 PUSH1 0x0 MSTORE PUSH1 0x20 PUSH1 0x0 KECCAK256 ADD SLOAD SUB PUSH2 0x33D JUMPI DUP2 SLOAD DUP3 SWAP1 PUSH2 0x2A8 SWAP1 PUSH1 0x1 SWAP1 PUSH2 0x5A6 JUMP JUMPDEST DUP2 SLOAD DUP2 LT PUSH2 0x2B8 JUMPI PUSH2 0x2B8 PUSH2 0x590 JUMP JUMPDEST SWAP1 PUSH1 0x0 MSTORE PUSH1 0x20 PUSH1 0x0 KECCAK256 ADD SLOAD DUP3 PUSH1 0x0 ADD DUP3 DUP2 SLOAD DUP2 LT PUSH2 0x2D8 JUMPI PUSH2 0x2D8 PUSH2 0x590 JUMP JUMPDEST PUSH1 0x0 SWAP2 DUP3 MSTORE PUSH1 0x20 SWAP1 SWAP2 KECCAK256 ADD SSTORE DUP2 SLOAD DUP3 SWAP1 DUP1 PUSH2 0x2F5 JUMPI PUSH2 0x2F5 PUSH2 0x5BF JUMP JUMPDEST PUSH1 0x1 SWAP1 SUB DUP2 DUP2 SWAP1 PUSH1 0x0 MSTORE PUSH1 0x20 PUSH1 0x0 KECCAK256 ADD PUSH1 0x0 SWAP1 SSTORE SWAP1 SSTORE DUP3 PUSH32 0xB1381093C776453C1BBE54FD68BE1B235C65DB61D099CB50D194B2991E0EEC5 PUSH1 0x40 MLOAD PUSH1 0x40 MLOAD DUP1 SWAP2 SUB SWAP1 LOG2 POP POP POP JUMP JUMPDEST DUP1 PUSH2 0x347 DUP2 PUSH2 0x5D5 JUMP JUMPDEST SWAP2 POP POP PUSH2 0x269 JUMP JUMPDEST POP POP POP JUMP JUMPDEST PUSH32 0x122B1D6208C9F06F38EEA9775D610D6447EF9C6BF9DA7E813570B22BCD54B776 PUSH1 0x0 JUMPDEST DUP2 SLOAD DUP2 LT ISZERO PUSH2 0x40C JUMPI DUP3 DUP3 PUSH1 0x0 ADD DUP3 DUP2 SLOAD DUP2 LT PUSH2 0x397 JUMPI PUSH2 0x397 PUSH2 0x590 JUMP JUMPDEST SWAP1 PUSH1 0x0 MSTORE PUSH1 0x20 PUSH1 0x0 KECCAK256 ADD SLOAD SUB PUSH2 0x3FA JUMPI PUSH1 0x40 MLOAD PUSH3 0x461BCD PUSH1 0xE5 SHL DUP2 MSTORE PUSH1 0x20 PUSH1 0x4 DUP3 ADD MSTORE PUSH1 0x22 PUSH1 0x24 DUP3 ADD MSTORE PUSH32 0x436C61696D546F70696373496E7465726E616C3A20416C726561647920616464 PUSH1 0x44 DUP3 ADD MSTORE PUSH2 0x1959 PUSH1 0xF2 SHL PUSH1 0x64 DUP3 ADD MSTORE PUSH1 0x84 ADD PUSH2 0x23C JUMP JUMPDEST DUP1 PUSH2 0x404 DUP2 PUSH2 0x5D5 JUMP JUMPDEST SWAP2 POP POP PUSH2 0x378 JUMP JUMPDEST POP DUP1 SLOAD PUSH1 0x1 DUP2 ADD DUP3 SSTORE PUSH1 0x0 DUP3 DUP2 MSTORE PUSH1 0x20 DUP2 KECCAK256 SWAP1 SWAP2 ADD DUP4 SWAP1 SSTORE PUSH1 0x40 MLOAD DUP4 SWAP2 PUSH32 0x1C928B7F7ADE2949E92366AA9454DBEF3A416B731CF6EC786BA9595BBD814D6 SWAP2 LOG2 POP POP JUMP JUMPDEST PUSH1 0x60 PUSH32 0x122B1D6208C9F06F38EEA9775D610D6447EF9C6BF9DA7E813570B22BCD54B776 DUP1 SLOAD PUSH1 0x40 DUP1 MLOAD PUSH1 0x20 DUP1 DUP5 MUL DUP3 ADD DUP2 ADD SWAP1 SWAP3 MSTORE DUP3 DUP2 MSTORE SWAP3 SWAP2 SWAP1 DUP4 ADD DUP3 DUP3 DUP1 ISZERO PUSH2 0x4BA JUMPI PUSH1 0x20 MUL DUP3 ADD SWAP2 SWAP1 PUSH1 0x0 MSTORE PUSH1 0x20 PUSH1 0x0 KECCAK256 SWAP1 JUMPDEST DUP2 SLOAD DUP2 MSTORE PUSH1 0x20 ADD SWAP1 PUSH1 0x1 ADD SWAP1 DUP1 DUP4 GT PUSH2 0x4A6 JUMPI JUMPDEST POP POP POP POP POP SWAP1 POP SWAP1 JUMP JUMPDEST PUSH1 0x0 PUSH1 0x20 DUP3 DUP5 SUB SLT ISZERO PUSH2 0x4D6 JUMPI PUSH1 0x0 DUP1 REVERT JUMPDEST POP CALLDATALOAD SWAP2 SWAP1 POP JUMP JUMPDEST PUSH1 0x20 DUP1 DUP3 MSTORE DUP3 MLOAD DUP3 DUP3 ADD DUP2 SWAP1 MSTORE PUSH1 0x0 SWAP2 SWAP1 DUP5 DUP3 ADD SWAP1 PUSH1 0x40 DUP6 ADD SWAP1 DUP5 JUMPDEST DUP2 DUP2 LT ISZERO PUSH2 0x515 JUMPI DUP4 MLOAD DUP4 MSTORE SWAP3 DUP5 ADD SWAP3 SWAP2 DUP5 ADD SWAP2 PUSH1 0x1 ADD PUSH2 0x4F9 JUMP JUMPDEST POP SWAP1 SWAP7 SWAP6 POP POP POP POP POP POP JUMP JUMPDEST PUSH1 0x20 DUP1 DUP3 MSTORE DUP3 MLOAD DUP3 DUP3 ADD DUP2 SWAP1 MSTORE PUSH1 0x0 SWAP2 SWAP1 DUP5 DUP3 ADD SWAP1 PUSH1 0x40 DUP6 ADD SWAP1 DUP5 JUMPDEST DUP2 DUP2 LT ISZERO PUSH2 0x515 JUMPI DUP4 MLOAD PUSH1 0x1 PUSH1 0x1 PUSH1 0xE0 SHL SUB NOT AND DUP4 MSTORE SWAP3 DUP5 ADD SWAP3 SWAP2 DUP5 ADD SWAP2 PUSH1 0x1 ADD PUSH2 0x53D JUMP JUMPDEST PUSH4 0x4E487B71 PUSH1 0xE0 SHL PUSH1 0x0 MSTORE PUSH1 0x11 PUSH1 0x4 MSTORE PUSH1 0x24 PUSH1 0x0 REVERT JUMPDEST PUSH1 0x0 DUP2 PUSH2 0x588 JUMPI PUSH2 0x588 PUSH2 0x563 JUMP JUMPDEST POP PUSH1 0x0 NOT ADD SWAP1 JUMP JUMPDEST PUSH4 0x4E487B71 PUSH1 0xE0 SHL PUSH1 0x0 MSTORE PUSH1 0x32 PUSH1 0x4 MSTORE PUSH1 0x24 PUSH1 0x0 REVERT JUMPDEST DUP2 DUP2 SUB DUP2 DUP2 GT ISZERO PUSH2 0x5B9 JUMPI PUSH2 0x5B9 PUSH2 0x563 JUMP JUMPDEST SWAP3 SWAP2 POP POP JUMP JUMPDEST PUSH4 0x4E487B71 PUSH1 0xE0 SHL PUSH1 0x0 MSTORE PUSH1 0x31 PUSH1 0x4 MSTORE PUSH1 0x24 PUSH1 0x0 REVERT JUMPDEST PUSH1 0x0 PUSH1 0x1 DUP3 ADD PUSH2 0x5E7 JUMPI PUSH2 0x5E7 PUSH2 0x563 JUMP JUMPDEST POP PUSH1 0x1 ADD SWAP1 JUMP INVALID LOG2 PUSH5 0x6970667358 0x22 SLT KECCAK256 0xBE PC 0xBD PUSH19 0x69F54C5D9F920B09D79AD507C660B84E725D97 PUSH14 0x98AAC22B4C8FD3F464736F6C6343 STOP ADDMOD GT STOP CALLER "},"methodIdentifiers":{"addClaimTopic(uint256)":"c7b22551","getClaimTopics()":"df09d604","removeClaimTopic(uint256)":"08297846","selectorsIntrospection()":"e3b807a0"}},"storageLayout":{"storage":[],"types":null}}}}