{"contracts/facets/IdentityFacet.sol":{"IdentityFacet":{"abi":[{"anonymous":false,"inputs":[{"indexed":true,"internalType":"address","name":"investor","type":"address"},{"indexed":false,"internalType":"uint16","name":"country","type":"uint16"}],"name":"CountryUpdated","type":"event"},{"anonymous":false,"inputs":[{"indexed":true,"internalType":"address","name":"investor","type":"address"},{"indexed":false,"internalType":"address","name":"identity","type":"address"},{"indexed":false,"internalType":"uint16","name":"country","type":"uint16"}],"name":"IdentityRegistered","type":"event"},{"anonymous":false,"inputs":[{"indexed":true,"internalType":"address","name":"investor","type":"address"}],"name":"IdentityRemoved","type":"event"},{"anonymous":false,"inputs":[{"indexed":true,"internalType":"address","name":"investor","type":"address"},{"indexed":false,"internalType":"address","name":"newIdentity","type":"address"}],"name":"IdentityUpdated","type":"event"},{"inputs":[{"internalType":"address","name":"investor","type":"address"}],"name":"deleteIdentity","outputs":[],"stateMutability":"nonpayable","type":"function"},{"inputs":[{"internalType":"address","name":"investor","type":"address"}],"name":"getIdentity","outputs":[{"internalType":"address","name":"","type":"address"}],"stateMutability":"view","type":"function"},{"inputs":[{"internalType":"address","name":"investor","type":"address"}],"name":"getInvestorCountry","outputs":[{"internalType":"uint16","name":"","type":"uint16"}],"stateMutability":"view","type":"function"},{"inputs":[{"internalType":"address","name":"user","type":"address"}],"name":"isVerified","outputs":[{"internalType":"bool","name":"","type":"bool"}],"stateMutability":"view","type":"function"},{"inputs":[{"internalType":"address","name":"investor","type":"address"},{"internalType":"address","name":"identity","type":"address"},{"internalType":"uint16","name":"country","type":"uint16"}],"name":"registerIdentity","outputs":[],"stateMutability":"nonpayable","type":"function"},{"inputs":[],"name":"selectorsIntrospection","outputs":[{"internalType":"bytes4[]","name":"selectors_","type":"bytes4[]"}],"stateMutability":"pure","type":"function"},{"inputs":[{"internalType":"address","name":"investor","type":"address"},{"internalType":"uint16","name":"newCountry","type":"uint16"}],"name":"updateCountry","outputs":[],"stateMutability":"nonpayable","type":"function"},{"inputs":[{"internalType":"address","name":"investor","type":"address"},{"internalType":"address","name":"newIdentity","type":"address"}],"name":"updateIdentity","outputs":[],"stateMutability":"nonpayable","type":"function"}],"evm":{"bytecode":{"linkReferences":{},"object":"608060405234801561001057600080fd5b5061118a806100206000396000f3fe608060405234801561001057600080fd5b50600436106100885760003560e01c80638e098ca11161005b5780638e098ca11461010b578063a8d29d1d1461011e578063b9209e3314610131578063e3b807a01461015457600080fd5b806313b1d1441461008d5780632fea7b81146100b85780633b239a7f146100e3578063454a03e0146100f8575b600080fd5b6100a061009b366004610c83565b610169565b60405161ffff90911681526020015b60405180910390f35b6100cb6100c6366004610c83565b6101ac565b6040516001600160a01b0390911681526020016100af565b6100f66100f1366004610cb7565b6101db565b005b6100f6610106366004610cec565b6101f2565b6100f6610119366004610d33565b61020b565b6100f661012c366004610c83565b61021e565b61014461013f366004610c83565b610233565b60405190151581526020016100af565b61015c61023e565b6040516100af9190610d6c565b6001600160a01b03811660009081527f8250f062390633740b58dd505171a2b7207c6c4b65557d3f50ba32fe928e9da6602052604081205461ffff165b92915050565b6001600160a01b03808216600090815260008051602061113583398151915260205260408120549091166101a6565b6101e43361041a565b6101ee82826104dd565b5050565b6101fb3361041a565b610206838383610571565b505050565b6102143361041a565b6101ee828261070c565b6102273361041a565b61023081610809565b50565b60006101a68261089a565b604080516007808252610100820190925260609190816020820160e08036833701905050915063022a501f60e51b8261027683610de6565b9250828151811061028957610289610dfd565b6001600160e01b031990921660209283029190910190910152638e098ca160e01b826102b483610de6565b925082815181106102c7576102c7610dfd565b6001600160e01b031990921660209283029190910190910152633b239a7f60e01b826102f283610de6565b9250828151811061030557610305610dfd565b6001600160e01b03199092166020928302919091019091015263a8d29d1d60e01b8261033083610de6565b9250828151811061034357610343610dfd565b6001600160e01b03199092166020928302919091019091015263b9209e3360e01b8261036e83610de6565b9250828151811061038157610381610dfd565b6001600160e01b0319909216602092830291909101909101526304ec745160e21b826103ac83610de6565b925082815181106103bf576103bf610dfd565b6001600160e01b031990921660209283029190910190910152632fea7b8160e01b826103ea83610de6565b925082815181106103fd576103fd610dfd565b6001600160e01b0319909216602092830291909101909101525090565b7f0fcb11fff5651caf53eaf1124d25315389f7b0ceffd704a5e999a2ffc7764fd5546001600160a01b038281169116148061048c57506001600160a01b03811660009081527f0fcb11fff5651caf53eaf1124d25315389f7b0ceffd704a5e999a2ffc7764fd6602052604090205460ff165b6102305760405162461bcd60e51b815260206004820181905260248201527f4964656e74697479496e7465726e616c3a204e6f7420617574686f72697a656460448201526064015b60405180910390fd5b6001600160a01b03821660008181527f8250f062390633740b58dd505171a2b7207c6c4b65557d3f50ba32fe928e9da66020908152604091829020805461ffff191661ffff8616908117909155915191825260008051602061113583398151915292917f04ed3b726495c2dca1ff1215d9ca54e1a4030abb5e82b0f6ce55702416cee85391015b60405180910390a2505050565b6001600160a01b0383166105da5760405162461bcd60e51b815260206004820152602a60248201527f4964656e74697479496e7465726e616c3a20696e766573746f72206973207a65604482015269726f206164647265737360b01b60648201526084016104d4565b6001600160a01b0382166106005760405162461bcd60e51b81526004016104d490610e13565b6001600160a01b0383811660009081526000805160206111358339815191526020819052604090912054909116156106865760405162461bcd60e51b8152602060048201526024808201527f4964656e74697479496e7465726e616c3a20416c726561647920726567697374604482015263195c995960e21b60648201526084016104d4565b6001600160a01b0384811660008181526020848152604080832080546001600160a01b031916958916958617905560018601825291829020805461ffff191661ffff881690811790915582519485529084015290917f74cfd0a46a2905d52ee4947cc1ac80b597bd474e7a0496263f14119e74947286910160405180910390a250505050565b6001600160a01b0381166107325760405162461bcd60e51b81526004016104d490610e13565b6001600160a01b03828116600090815260008051602061113583398151915260208190526040909120549091166107ab5760405162461bcd60e51b815260206004820181905260248201527f4964656e74697479496e7465726e616c3a204e6f74207265676973746572656460448201526064016104d4565b6001600160a01b038381166000818152602084815260409182902080546001600160a01b0319169487169485179055905192835290917fe98082932c8056a0f514da9104e4a66bc2cbaef102ad59d90c4b24220ebf60109101610564565b6001600160a01b03811660008181526000805160206111358339815191526020818152604080842080546001600160a01b03191690557f8250f062390633740b58dd505171a2b7207c6c4b65557d3f50ba32fe928e9da6909152808320805461ffff19169055519092917f374ace31388bb8ee152e1f7ad5e216944c28a32dfedb6c9353ba26bf0cdbb15a91a25050565b6001600160a01b038181166000908152600080516020611135833981519152602081905260408220549192909116806108d7575060009392505050565b8060007f122b1d6208c9f06f38eea9775d610d6447ef9c6bf9da7e813570b22bcd54b77680546040805160208084028201810190925282815292919083018282801561094257602002820191906000526020600020905b81548152602001906001019080831161092e575b5050505050905060005b815181101561099b576109788383838151811061096b5761096b610dfd565b60200260200101516109a8565b610989575060009695505050505050565b8061099381610e5d565b91505061094c565b5060019695505050505050565b60008181527f28d6a9f6581d908cc2f13822881616b1781b3a80e4b3f5e5b577fa5f2f74ddc36020908152604080832080548251818502810185019093528083528493830182828015610a2457602002820191906000526020600020905b81546001600160a01b03168152600190910190602001808311610a06575b5050505050905060005b8151811015610a7d57610a5b8585848481518110610a4e57610a4e610dfd565b6020026020010151610a88565b15610a6b576001925050506101a6565b80610a7581610e5d565b915050610a2e565b506000949350505050565b6040516380e9e9e160e01b8152600481018390526000906001600160a01b038516906380e9e9e190602401600060405180830381865afa925050508015610af157506040513d6000823e601f3d908101601f19168201604052610aee9190810190610ea7565b60015b15610b4c5760005b8151811015610b4957610b2786838381518110610b1857610b18610dfd565b60200260200101518787610b57565b15610b3757600192505050610b50565b80610b4181610e5d565b915050610af9565b50505b5060005b9392505050565b60405163c9100bcb60e01b8152600481018490526000906001600160a01b0386169063c9100bcb90602401600060405180830381865afa925050508015610bc057506040513d6000823e601f3d908101601f19168201604052610bbd9190810190610fe0565b60015b15610a7d57876001600160a01b0316846001600160a01b031603610c5c5760405163604b4d3760e11b81526001600160a01b0385169063c0969a6e90610c10908e908d90889088906004016110ce565b602060405180830381865afa925050508015610c49575060408051601f3d908101601f19168201909252610c4691810190611112565b60015b15610c5c579650610c6695505050505050565b5050505050505060005b949350505050565b6001600160a01b038116811461023057600080fd5b600060208284031215610c9557600080fd5b8135610b5081610c6e565b803561ffff81168114610cb257600080fd5b919050565b60008060408385031215610cca57600080fd5b8235610cd581610c6e565b9150610ce360208401610ca0565b90509250929050565b600080600060608486031215610d0157600080fd5b8335610d0c81610c6e565b92506020840135610d1c81610c6e565b9150610d2a60408501610ca0565b90509250925092565b60008060408385031215610d4657600080fd5b8235610d5181610c6e565b91506020830135610d6181610c6e565b809150509250929050565b6020808252825182820181905260009190848201906040850190845b81811015610dae5783516001600160e01b03191683529284019291840191600101610d88565b50909695505050505050565b634e487b7160e01b600052604160045260246000fd5b634e487b7160e01b600052601160045260246000fd5b600081610df557610df5610dd0565b506000190190565b634e487b7160e01b600052603260045260246000fd5b6020808252602a908201527f4964656e74697479496e7465726e616c3a206964656e74697479206973207a65604082015269726f206164647265737360b01b606082015260800190565b600060018201610e6f57610e6f610dd0565b5060010190565b604051601f8201601f1916810167ffffffffffffffff81118282101715610e9f57610e9f610dba565b604052919050565b60006020808385031215610eba57600080fd5b825167ffffffffffffffff80821115610ed257600080fd5b818501915085601f830112610ee657600080fd5b815181811115610ef857610ef8610dba565b8060051b9150610f09848301610e76565b8181529183018401918481019088841115610f2357600080fd5b938501935b83851015610f4157845182529385019390850190610f28565b98975050505050505050565b60005b83811015610f68578181015183820152602001610f50565b50506000910152565b600067ffffffffffffffff831115610f8b57610f8b610dba565b610f9e601f8401601f1916602001610e76565b9050828152838383011115610fb257600080fd5b610b50836020830184610f4d565b600082601f830112610fd157600080fd5b610b5083835160208501610f71565b60008060008060008060c08789031215610ff957600080fd5b8651955060208701519450604087015161101281610c6e565b606088015190945067ffffffffffffffff8082111561103057600080fd5b61103c8a838b01610fc0565b9450608089015191508082111561105257600080fd5b61105e8a838b01610fc0565b935060a089015191508082111561107457600080fd5b508701601f8101891361108657600080fd5b61109589825160208401610f71565b9150509295509295509295565b600081518084526110ba816020860160208601610f4d565b601f01601f19169290920160200192915050565b60018060a01b03851681528360208201526080604082015260006110f560808301856110a2565b828103606084015261110781856110a2565b979650505050505050565b60006020828403121561112457600080fd5b81518015158114610b5057600080fdfe8250f062390633740b58dd505171a2b7207c6c4b65557d3f50ba32fe928e9da5a2646970667358221220cd573217de6d8e841a0388781472d82d0102c39ef0ca84129498e6aa6c3059da64736f6c63430008110033","opcodes":"PUSH1 0x80 PUSH1 0x40 MSTORE CALLVALUE DUP1 ISZERO PUSH2 0x10 JUMPI PUSH1 0x0 DUP1 REVERT JUMPDEST POP PUSH2 0x118A DUP1 PUSH2 0x20 PUSH1 0x0 CODECOPY PUSH1 0x0 RETURN INVALID PUSH1 0x80 PUSH1 0x40 MSTORE CALLVALUE DUP1 ISZERO PUSH2 0x10 JUMPI PUSH1 0x0 DUP1 REVERT JUMPDEST POP PUSH1 0x4 CALLDATASIZE LT PUSH2 0x88 JUMPI PUSH1 0x0 CALLDATALOAD PUSH1 0xE0 SHR DUP1 PUSH4 0x8E098CA1 GT PUSH2 0x5B JUMPI DUP1 PUSH4 0x8E098CA1 EQ PUSH2 0x10B JUMPI DUP1 PUSH4 0xA8D29D1D EQ PUSH2 0x11E JUMPI DUP1 PUSH4 0xB9209E33 EQ PUSH2 0x131 JUMPI DUP1 PUSH4 0xE3B807A0 EQ PUSH2 0x154 JUMPI PUSH1 0x0 DUP1 REVERT JUMPDEST DUP1 PUSH4 0x13B1D144 EQ PUSH2 0x8D JUMPI DUP1 PUSH4 0x2FEA7B81 EQ PUSH2 0xB8 JUMPI DUP1 PUSH4 0x3B239A7F EQ PUSH2 0xE3 JUMPI DUP1 PUSH4 0x454A03E0 EQ PUSH2 0xF8 JUMPI JUMPDEST PUSH1 0x0 DUP1 REVERT JUMPDEST PUSH2 0xA0 PUSH2 0x9B CALLDATASIZE PUSH1 0x4 PUSH2 0xC83 JUMP JUMPDEST PUSH2 0x169 JUMP JUMPDEST PUSH1 0x40 MLOAD PUSH2 0xFFFF SWAP1 SWAP2 AND DUP2 MSTORE PUSH1 0x20 ADD JUMPDEST PUSH1 0x40 MLOAD DUP1 SWAP2 SUB SWAP1 RETURN JUMPDEST PUSH2 0xCB PUSH2 0xC6 CALLDATASIZE PUSH1 0x4 PUSH2 0xC83 JUMP JUMPDEST PUSH2 0x1AC JUMP JUMPDEST PUSH1 0x40 MLOAD PUSH1 0x1 PUSH1 0x1 PUSH1 0xA0 SHL SUB SWAP1 SWAP2 AND DUP2 MSTORE PUSH1 0x20 ADD PUSH2 0xAF JUMP JUMPDEST PUSH2 0xF6 PUSH2 0xF1 CALLDATASIZE PUSH1 0x4 PUSH2 0xCB7 JUMP JUMPDEST PUSH2 0x1DB JUMP JUMPDEST STOP JUMPDEST PUSH2 0xF6 PUSH2 0x106 CALLDATASIZE PUSH1 0x4 PUSH2 0xCEC JUMP JUMPDEST PUSH2 0x1F2 JUMP JUMPDEST PUSH2 0xF6 PUSH2 0x119 CALLDATASIZE PUSH1 0x4 PUSH2 0xD33 JUMP JUMPDEST PUSH2 0x20B JUMP JUMPDEST PUSH2 0xF6 PUSH2 0x12C CALLDATASIZE PUSH1 0x4 PUSH2 0xC83 JUMP JUMPDEST PUSH2 0x21E JUMP JUMPDEST PUSH2 0x144 PUSH2 0x13F CALLDATASIZE PUSH1 0x4 PUSH2 0xC83 JUMP JUMPDEST PUSH2 0x233 JUMP JUMPDEST PUSH1 0x40 MLOAD SWAP1 ISZERO ISZERO DUP2 MSTORE PUSH1 0x20 ADD PUSH2 0xAF JUMP JUMPDEST PUSH2 0x15C PUSH2 0x23E JUMP JUMPDEST PUSH1 0x40 MLOAD PUSH2 0xAF SWAP2 SWAP1 PUSH2 0xD6C JUMP JUMPDEST PUSH1 0x1 PUSH1 0x1 PUSH1 0xA0 SHL SUB DUP2 AND PUSH1 0x0 SWAP1 DUP2 MSTORE PUSH32 0x8250F062390633740B58DD505171A2B7207C6C4B65557D3F50BA32FE928E9DA6 PUSH1 0x20 MSTORE PUSH1 0x40 DUP2 KECCAK256 SLOAD PUSH2 0xFFFF AND JUMPDEST SWAP3 SWAP2 POP POP JUMP JUMPDEST PUSH1 0x1 PUSH1 0x1 PUSH1 0xA0 SHL SUB DUP1 DUP3 AND PUSH1 0x0 SWAP1 DUP2 MSTORE PUSH1 0x0 DUP1 MLOAD PUSH1 0x20 PUSH2 0x1135 DUP4 CODECOPY DUP2 MLOAD SWAP2 MSTORE PUSH1 0x20 MSTORE PUSH1 0x40 DUP2 KECCAK256 SLOAD SWAP1 SWAP2 AND PUSH2 0x1A6 JUMP JUMPDEST PUSH2 0x1E4 CALLER PUSH2 0x41A JUMP JUMPDEST PUSH2 0x1EE DUP3 DUP3 PUSH2 0x4DD JUMP JUMPDEST POP POP JUMP JUMPDEST PUSH2 0x1FB CALLER PUSH2 0x41A JUMP JUMPDEST PUSH2 0x206 DUP4 DUP4 DUP4 PUSH2 0x571 JUMP JUMPDEST POP POP POP JUMP JUMPDEST PUSH2 0x214 CALLER PUSH2 0x41A JUMP JUMPDEST PUSH2 0x1EE DUP3 DUP3 PUSH2 0x70C JUMP JUMPDEST PUSH2 0x227 CALLER PUSH2 0x41A JUMP JUMPDEST PUSH2 0x230 DUP2 PUSH2 0x809 JUMP JUMPDEST POP JUMP JUMPDEST PUSH1 0x0 PUSH2 0x1A6 DUP3 PUSH2 0x89A JUMP JUMPDEST PUSH1 0x40 DUP1 MLOAD PUSH1 0x7 DUP1 DUP3 MSTORE PUSH2 0x100 DUP3 ADD SWAP1 SWAP3 MSTORE PUSH1 0x60 SWAP2 SWAP1 DUP2 PUSH1 0x20 DUP3 ADD PUSH1 0xE0 DUP1 CALLDATASIZE DUP4 CALLDATACOPY ADD SWAP1 POP POP SWAP2 POP PUSH4 0x22A501F PUSH1 0xE5 SHL DUP3 PUSH2 0x276 DUP4 PUSH2 0xDE6 JUMP JUMPDEST SWAP3 POP DUP3 DUP2 MLOAD DUP2 LT PUSH2 0x289 JUMPI PUSH2 0x289 PUSH2 0xDFD JUMP JUMPDEST PUSH1 0x1 PUSH1 0x1 PUSH1 0xE0 SHL SUB NOT SWAP1 SWAP3 AND PUSH1 0x20 SWAP3 DUP4 MUL SWAP2 SWAP1 SWAP2 ADD SWAP1 SWAP2 ADD MSTORE PUSH4 0x8E098CA1 PUSH1 0xE0 SHL DUP3 PUSH2 0x2B4 DUP4 PUSH2 0xDE6 JUMP JUMPDEST SWAP3 POP DUP3 DUP2 MLOAD DUP2 LT PUSH2 0x2C7 JUMPI PUSH2 0x2C7 PUSH2 0xDFD JUMP JUMPDEST PUSH1 0x1 PUSH1 0x1 PUSH1 0xE0 SHL SUB NOT SWAP1 SWAP3 AND PUSH1 0x20 SWAP3 DUP4 MUL SWAP2 SWAP1 SWAP2 ADD SWAP1 SWAP2 ADD MSTORE PUSH4 0x3B239A7F PUSH1 0xE0 SHL DUP3 PUSH2 0x2F2 DUP4 PUSH2 0xDE6 JUMP JUMPDEST SWAP3 POP DUP3 DUP2 MLOAD DUP2 LT PUSH2 0x305 JUMPI PUSH2 0x305 PUSH2 0xDFD JUMP JUMPDEST PUSH1 0x1 PUSH1 0x1 PUSH1 0xE0 SHL SUB NOT SWAP1 SWAP3 AND PUSH1 0x20 SWAP3 DUP4 MUL SWAP2 SWAP1 SWAP2 ADD SWAP1 SWAP2 ADD MSTORE PUSH4 0xA8D29D1D PUSH1 0xE0 SHL DUP3 PUSH2 0x330 DUP4 PUSH2 0xDE6 JUMP JUMPDEST SWAP3 POP DUP3 DUP2 MLOAD DUP2 LT PUSH2 0x343 JUMPI PUSH2 0x343 PUSH2 0xDFD JUMP JUMPDEST PUSH1 0x1 PUSH1 0x1 PUSH1 0xE0 SHL SUB NOT SWAP1 SWAP3 AND PUSH1 0x20 SWAP3 DUP4 MUL SWAP2 SWAP1 SWAP2 ADD SWAP1 SWAP2 ADD MSTORE PUSH4 0xB9209E33 PUSH1 0xE0 SHL DUP3 PUSH2 0x36E DUP4 PUSH2 0xDE6 JUMP JUMPDEST SWAP3 POP DUP3 DUP2 MLOAD DUP2 LT PUSH2 0x381 JUMPI PUSH2 0x381 PUSH2 0xDFD JUMP JUMPDEST PUSH1 0x1 PUSH1 0x1 PUSH1 0xE0 SHL SUB NOT SWAP1 SWAP3 AND PUSH1 0x20 SWAP3 DUP4 MUL SWAP2 SWAP1 SWAP2 ADD SWAP1 SWAP2 ADD MSTORE PUSH4 0x4EC7451 PUSH1 0xE2 SHL DUP3 PUSH2 0x3AC DUP4 PUSH2 0xDE6 JUMP JUMPDEST SWAP3 POP DUP3 DUP2 MLOAD DUP2 LT PUSH2 0x3BF JUMPI PUSH2 0x3BF PUSH2 0xDFD JUMP JUMPDEST PUSH1 0x1 PUSH1 0x1 PUSH1 0xE0 SHL SUB NOT SWAP1 SWAP3 AND PUSH1 0x20 SWAP3 DUP4 MUL SWAP2 SWAP1 SWAP2 ADD SWAP1 SWAP2 ADD MSTORE PUSH4 0x2FEA7B81 PUSH1 0xE0 SHL DUP3 PUSH2 0x3EA DUP4 PUSH2 0xDE6 JUMP JUMPDEST SWAP3 POP DUP3 DUP2 MLOAD DUP2 LT PUSH2 0x3FD JUMPI PUSH2 0x3FD PUSH2 0xDFD JUMP JUMPDEST PUSH1 0x1 PUSH1 0x1 PUSH1 0xE0 SHL SUB NOT SWAP1 SWAP3 AND PUSH1 0x20 SWAP3 DUP4 MUL SWAP2 SWAP1 SWAP2 ADD SWAP1 SWAP2 ADD MSTORE POP SWAP1 JUMP JUMPDEST PUSH32 0xFCB11FFF5651CAF53EAF1124D25315389F7B0CEFFD704A5E999A2FFC7764FD5 SLOAD PUSH1 0x1 PUSH1 0x1 PUSH1 0xA0 SHL SUB DUP3 DUP2 AND SWAP2 AND EQ DUP1 PUSH2 0x48C JUMPI POP PUSH1 0x1 PUSH1 0x1 PUSH1 0xA0 SHL SUB DUP2 AND PUSH1 0x0 SWAP1 DUP2 MSTORE PUSH32 0xFCB11FFF5651CAF53EAF1124D25315389F7B0CEFFD704A5E999A2FFC7764FD6 PUSH1 0x20 MSTORE PUSH1 0x40 SWAP1 KECCAK256 SLOAD PUSH1 0xFF AND JUMPDEST PUSH2 0x230 JUMPI PUSH1 0x40 MLOAD PUSH3 0x461BCD PUSH1 0xE5 SHL DUP2 MSTORE PUSH1 0x20 PUSH1 0x4 DUP3 ADD DUP2 SWAP1 MSTORE PUSH1 0x24 DUP3 ADD MSTORE PUSH32 0x4964656E74697479496E7465726E616C3A204E6F7420617574686F72697A6564 PUSH1 0x44 DUP3 ADD MSTORE PUSH1 0x64 ADD JUMPDEST PUSH1 0x40 MLOAD DUP1 SWAP2 SUB SWAP1 REVERT JUMPDEST PUSH1 0x1 PUSH1 0x1 PUSH1 0xA0 SHL SUB DUP3 AND PUSH1 0x0 DUP2 DUP2 MSTORE PUSH32 0x8250F062390633740B58DD505171A2B7207C6C4B65557D3F50BA32FE928E9DA6 PUSH1 0x20 SWAP1 DUP2 MSTORE PUSH1 0x40 SWAP2 DUP3 SWAP1 KECCAK256 DUP1 SLOAD PUSH2 0xFFFF NOT AND PUSH2 0xFFFF DUP7 AND SWAP1 DUP2 OR SWAP1 SWAP2 SSTORE SWAP2 MLOAD SWAP2 DUP3 MSTORE PUSH1 0x0 DUP1 MLOAD PUSH1 0x20 PUSH2 0x1135 DUP4 CODECOPY DUP2 MLOAD SWAP2 MSTORE SWAP3 SWAP2 PUSH32 0x4ED3B726495C2DCA1FF1215D9CA54E1A4030ABB5E82B0F6CE55702416CEE853 SWAP2 ADD JUMPDEST PUSH1 0x40 MLOAD DUP1 SWAP2 SUB SWAP1 LOG2 POP POP POP JUMP JUMPDEST PUSH1 0x1 PUSH1 0x1 PUSH1 0xA0 SHL SUB DUP4 AND PUSH2 0x5DA JUMPI PUSH1 0x40 MLOAD PUSH3 0x461BCD PUSH1 0xE5 SHL DUP2 MSTORE PUSH1 0x20 PUSH1 0x4 DUP3 ADD MSTORE PUSH1 0x2A PUSH1 0x24 DUP3 ADD MSTORE PUSH32 0x4964656E74697479496E7465726E616C3A20696E766573746F72206973207A65 PUSH1 0x44 DUP3 ADD MSTORE PUSH10 0x726F2061646472657373 PUSH1 0xB0 SHL PUSH1 0x64 DUP3 ADD MSTORE PUSH1 0x84 ADD PUSH2 0x4D4 JUMP JUMPDEST PUSH1 0x1 PUSH1 0x1 PUSH1 0xA0 SHL SUB DUP3 AND PUSH2 0x600 JUMPI PUSH1 0x40 MLOAD PUSH3 0x461BCD PUSH1 0xE5 SHL DUP2 MSTORE PUSH1 0x4 ADD PUSH2 0x4D4 SWAP1 PUSH2 0xE13 JUMP JUMPDEST PUSH1 0x1 PUSH1 0x1 PUSH1 0xA0 SHL SUB DUP4 DUP2 AND PUSH1 0x0 SWAP1 DUP2 MSTORE PUSH1 0x0 DUP1 MLOAD PUSH1 0x20 PUSH2 0x1135 DUP4 CODECOPY DUP2 MLOAD SWAP2 MSTORE PUSH1 0x20 DUP2 SWAP1 MSTORE PUSH1 0x40 SWAP1 SWAP2 KECCAK256 SLOAD SWAP1 SWAP2 AND ISZERO PUSH2 0x686 JUMPI PUSH1 0x40 MLOAD PUSH3 0x461BCD PUSH1 0xE5 SHL DUP2 MSTORE PUSH1 0x20 PUSH1 0x4 DUP3 ADD MSTORE PUSH1 0x24 DUP1 DUP3 ADD MSTORE PUSH32 0x4964656E74697479496E7465726E616C3A20416C726561647920726567697374 PUSH1 0x44 DUP3 ADD MSTORE PUSH4 0x195C9959 PUSH1 0xE2 SHL PUSH1 0x64 DUP3 ADD MSTORE PUSH1 0x84 ADD PUSH2 0x4D4 JUMP JUMPDEST PUSH1 0x1 PUSH1 0x1 PUSH1 0xA0 SHL SUB DUP5 DUP2 AND PUSH1 0x0 DUP2 DUP2 MSTORE PUSH1 0x20 DUP5 DUP2 MSTORE PUSH1 0x40 DUP1 DUP4 KECCAK256 DUP1 SLOAD PUSH1 0x1 PUSH1 0x1 PUSH1 0xA0 SHL SUB NOT AND SWAP6 DUP10 AND SWAP6 DUP7 OR SWAP1 SSTORE PUSH1 0x1 DUP7 ADD DUP3 MSTORE SWAP2 DUP3 SWAP1 KECCAK256 DUP1 SLOAD PUSH2 0xFFFF NOT AND PUSH2 0xFFFF DUP9 AND SWAP1 DUP2 OR SWAP1 SWAP2 SSTORE DUP3 MLOAD SWAP5 DUP6 MSTORE SWAP1 DUP5 ADD MSTORE SWAP1 SWAP2 PUSH32 0x74CFD0A46A2905D52EE4947CC1AC80B597BD474E7A0496263F14119E74947286 SWAP2 ADD PUSH1 0x40 MLOAD DUP1 SWAP2 SUB SWAP1 LOG2 POP POP POP POP JUMP JUMPDEST PUSH1 0x1 PUSH1 0x1 PUSH1 0xA0 SHL SUB DUP2 AND PUSH2 0x732 JUMPI PUSH1 0x40 MLOAD PUSH3 0x461BCD PUSH1 0xE5 SHL DUP2 MSTORE PUSH1 0x4 ADD PUSH2 0x4D4 SWAP1 PUSH2 0xE13 JUMP JUMPDEST PUSH1 0x1 PUSH1 0x1 PUSH1 0xA0 SHL SUB DUP3 DUP2 AND PUSH1 0x0 SWAP1 DUP2 MSTORE PUSH1 0x0 DUP1 MLOAD PUSH1 0x20 PUSH2 0x1135 DUP4 CODECOPY DUP2 MLOAD SWAP2 MSTORE PUSH1 0x20 DUP2 SWAP1 MSTORE PUSH1 0x40 SWAP1 SWAP2 KECCAK256 SLOAD SWAP1 SWAP2 AND PUSH2 0x7AB JUMPI PUSH1 0x40 MLOAD PUSH3 0x461BCD PUSH1 0xE5 SHL DUP2 MSTORE PUSH1 0x20 PUSH1 0x4 DUP3 ADD DUP2 SWAP1 MSTORE PUSH1 0x24 DUP3 ADD MSTORE PUSH32 0x4964656E74697479496E7465726E616C3A204E6F742072656769737465726564 PUSH1 0x44 DUP3 ADD MSTORE PUSH1 0x64 ADD PUSH2 0x4D4 JUMP JUMPDEST PUSH1 0x1 PUSH1 0x1 PUSH1 0xA0 SHL SUB DUP4 DUP2 AND PUSH1 0x0 DUP2 DUP2 MSTORE PUSH1 0x20 DUP5 DUP2 MSTORE PUSH1 0x40 SWAP2 DUP3 SWAP1 KECCAK256 DUP1 SLOAD PUSH1 0x1 PUSH1 0x1 PUSH1 0xA0 SHL SUB NOT AND SWAP5 DUP8 AND SWAP5 DUP6 OR SWAP1 SSTORE SWAP1 MLOAD SWAP3 DUP4 MSTORE SWAP1 SWAP2 PUSH32 0xE98082932C8056A0F514DA9104E4A66BC2CBAEF102AD59D90C4B24220EBF6010 SWAP2 ADD PUSH2 0x564 JUMP JUMPDEST PUSH1 0x1 PUSH1 0x1 PUSH1 0xA0 SHL SUB DUP2 AND PUSH1 0x0 DUP2 DUP2 MSTORE PUSH1 0x0 DUP1 MLOAD PUSH1 0x20 PUSH2 0x1135 DUP4 CODECOPY DUP2 MLOAD SWAP2 MSTORE PUSH1 0x20 DUP2 DUP2 MSTORE PUSH1 0x40 DUP1 DUP5 KECCAK256 DUP1 SLOAD PUSH1 0x1 PUSH1 0x1 PUSH1 0xA0 SHL SUB NOT AND SWAP1 SSTORE PUSH32 0x8250F062390633740B58DD505171A2B7207C6C4B65557D3F50BA32FE928E9DA6 SWAP1 SWAP2 MSTORE DUP1 DUP4 KECCAK256 DUP1 SLOAD PUSH2 0xFFFF NOT AND SWAP1 SSTORE MLOAD SWAP1 SWAP3 SWAP2 PUSH32 0x374ACE31388BB8EE152E1F7AD5E216944C28A32DFEDB6C9353BA26BF0CDBB15A SWAP2 LOG2 POP POP JUMP JUMPDEST PUSH1 0x1 PUSH1 0x1 PUSH1 0xA0 SHL SUB DUP2 DUP2 AND PUSH1 0x0 SWAP1 DUP2 MSTORE PUSH1 0x0 DUP1 MLOAD PUSH1 0x20 PUSH2 0x1135 DUP4 CODECOPY DUP2 MLOAD SWAP2 MSTORE PUSH1 0x20 DUP2 SWAP1 MSTORE PUSH1 0x40 DUP3 KECCAK256 SLOAD SWAP2 SWAP3 SWAP1 SWAP2 AND DUP1 PUSH2 0x8D7 JUMPI POP PUSH1 0x0 SWAP4 SWAP3 POP POP POP JUMP JUMPDEST DUP1 PUSH1 0x0 PUSH32 0x122B1D6208C9F06F38EEA9775D610D6447EF9C6BF9DA7E813570B22BCD54B776 DUP1 SLOAD PUSH1 0x40 DUP1 MLOAD PUSH1 0x20 DUP1 DUP5 MUL DUP3 ADD DUP2 ADD SWAP1 SWAP3 MSTORE DUP3 DUP2 MSTORE SWAP3 SWAP2 SWAP1 DUP4 ADD DUP3 DUP3 DUP1 ISZERO PUSH2 0x942 JUMPI PUSH1 0x20 MUL DUP3 ADD SWAP2 SWAP1 PUSH1 0x0 MSTORE PUSH1 0x20 PUSH1 0x0 KECCAK256 SWAP1 JUMPDEST DUP2 SLOAD DUP2 MSTORE PUSH1 0x20 ADD SWAP1 PUSH1 0x1 ADD SWAP1 DUP1 DUP4 GT PUSH2 0x92E JUMPI JUMPDEST POP POP POP POP POP SWAP1 POP PUSH1 0x0 JUMPDEST DUP2 MLOAD DUP2 LT ISZERO PUSH2 0x99B JUMPI PUSH2 0x978 DUP4 DUP4 DUP4 DUP2 MLOAD DUP2 LT PUSH2 0x96B JUMPI PUSH2 0x96B PUSH2 0xDFD JUMP JUMPDEST PUSH1 0x20 MUL PUSH1 0x20 ADD ADD MLOAD PUSH2 0x9A8 JUMP JUMPDEST PUSH2 0x989 JUMPI POP PUSH1 0x0 SWAP7 SWAP6 POP POP POP POP POP POP JUMP JUMPDEST DUP1 PUSH2 0x993 DUP2 PUSH2 0xE5D JUMP JUMPDEST SWAP2 POP POP PUSH2 0x94C JUMP JUMPDEST POP PUSH1 0x1 SWAP7 SWAP6 POP POP POP POP POP POP JUMP JUMPDEST PUSH1 0x0 DUP2 DUP2 MSTORE PUSH32 0x28D6A9F6581D908CC2F13822881616B1781B3A80E4B3F5E5B577FA5F2F74DDC3 PUSH1 0x20 SWAP1 DUP2 MSTORE PUSH1 0x40 DUP1 DUP4 KECCAK256 DUP1 SLOAD DUP3 MLOAD DUP2 DUP6 MUL DUP2 ADD DUP6 ADD SWAP1 SWAP4 MSTORE DUP1 DUP4 MSTORE DUP5 SWAP4 DUP4 ADD DUP3 DUP3 DUP1 ISZERO PUSH2 0xA24 JUMPI PUSH1 0x20 MUL DUP3 ADD SWAP2 SWAP1 PUSH1 0x0 MSTORE PUSH1 0x20 PUSH1 0x0 KECCAK256 SWAP1 JUMPDEST DUP2 SLOAD PUSH1 0x1 PUSH1 0x1 PUSH1 0xA0 SHL SUB AND DUP2 MSTORE PUSH1 0x1 SWAP1 SWAP2 ADD SWAP1 PUSH1 0x20 ADD DUP1 DUP4 GT PUSH2 0xA06 JUMPI JUMPDEST POP POP POP POP POP SWAP1 POP PUSH1 0x0 JUMPDEST DUP2 MLOAD DUP2 LT ISZERO PUSH2 0xA7D JUMPI PUSH2 0xA5B DUP6 DUP6 DUP5 DUP5 DUP2 MLOAD DUP2 LT PUSH2 0xA4E JUMPI PUSH2 0xA4E PUSH2 0xDFD JUMP JUMPDEST PUSH1 0x20 MUL PUSH1 0x20 ADD ADD MLOAD PUSH2 0xA88 JUMP JUMPDEST ISZERO PUSH2 0xA6B JUMPI PUSH1 0x1 SWAP3 POP POP POP PUSH2 0x1A6 JUMP JUMPDEST DUP1 PUSH2 0xA75 DUP2 PUSH2 0xE5D JUMP JUMPDEST SWAP2 POP POP PUSH2 0xA2E JUMP JUMPDEST POP PUSH1 0x0 SWAP5 SWAP4 POP POP POP POP JUMP JUMPDEST PUSH1 0x40 MLOAD PUSH4 0x80E9E9E1 PUSH1 0xE0 SHL DUP2 MSTORE PUSH1 0x4 DUP2 ADD DUP4 SWAP1 MSTORE PUSH1 0x0 SWAP1 PUSH1 0x1 PUSH1 0x1 PUSH1 0xA0 SHL SUB DUP6 AND SWAP1 PUSH4 0x80E9E9E1 SWAP1 PUSH1 0x24 ADD PUSH1 0x0 PUSH1 0x40 MLOAD DUP1 DUP4 SUB DUP2 DUP7 GAS STATICCALL SWAP3 POP POP POP DUP1 ISZERO PUSH2 0xAF1 JUMPI POP PUSH1 0x40 MLOAD RETURNDATASIZE PUSH1 0x0 DUP3 RETURNDATACOPY PUSH1 0x1F RETURNDATASIZE SWAP1 DUP2 ADD PUSH1 0x1F NOT AND DUP3 ADD PUSH1 0x40 MSTORE PUSH2 0xAEE SWAP2 SWAP1 DUP2 ADD SWAP1 PUSH2 0xEA7 JUMP JUMPDEST PUSH1 0x1 JUMPDEST ISZERO PUSH2 0xB4C JUMPI PUSH1 0x0 JUMPDEST DUP2 MLOAD DUP2 LT ISZERO PUSH2 0xB49 JUMPI PUSH2 0xB27 DUP7 DUP4 DUP4 DUP2 MLOAD DUP2 LT PUSH2 0xB18 JUMPI PUSH2 0xB18 PUSH2 0xDFD JUMP JUMPDEST PUSH1 0x20 MUL PUSH1 0x20 ADD ADD MLOAD DUP8 DUP8 PUSH2 0xB57 JUMP JUMPDEST ISZERO PUSH2 0xB37 JUMPI PUSH1 0x1 SWAP3 POP POP POP PUSH2 0xB50 JUMP JUMPDEST DUP1 PUSH2 0xB41 DUP2 PUSH2 0xE5D JUMP JUMPDEST SWAP2 POP POP PUSH2 0xAF9 JUMP JUMPDEST POP POP JUMPDEST POP PUSH1 0x0 JUMPDEST SWAP4 SWAP3 POP POP POP JUMP JUMPDEST PUSH1 0x40 MLOAD PUSH4 0xC9100BCB PUSH1 0xE0 SHL DUP2 MSTORE PUSH1 0x4 DUP2 ADD DUP5 SWAP1 MSTORE PUSH1 0x0 SWAP1 PUSH1 0x1 PUSH1 0x1 PUSH1 0xA0 SHL SUB DUP7 AND SWAP1 PUSH4 0xC9100BCB SWAP1 PUSH1 0x24 ADD PUSH1 0x0 PUSH1 0x40 MLOAD DUP1 DUP4 SUB DUP2 DUP7 GAS STATICCALL SWAP3 POP POP POP DUP1 ISZERO PUSH2 0xBC0 JUMPI POP PUSH1 0x40 MLOAD RETURNDATASIZE PUSH1 0x0 DUP3 RETURNDATACOPY PUSH1 0x1F RETURNDATASIZE SWAP1 DUP2 ADD PUSH1 0x1F NOT AND DUP3 ADD PUSH1 0x40 MSTORE PUSH2 0xBBD SWAP2 SWAP1 DUP2 ADD SWAP1 PUSH2 0xFE0 JUMP JUMPDEST PUSH1 0x1 JUMPDEST ISZERO PUSH2 0xA7D JUMPI DUP8 PUSH1 0x1 PUSH1 0x1 PUSH1 0xA0 SHL SUB AND DUP5 PUSH1 0x1 PUSH1 0x1 PUSH1 0xA0 SHL SUB AND SUB PUSH2 0xC5C JUMPI PUSH1 0x40 MLOAD PUSH4 0x604B4D37 PUSH1 0xE1 SHL DUP2 MSTORE PUSH1 0x1 PUSH1 0x1 PUSH1 0xA0 SHL SUB DUP6 AND SWAP1 PUSH4 0xC0969A6E SWAP1 PUSH2 0xC10 SWAP1 DUP15 SWAP1 DUP14 SWAP1 DUP9 SWAP1 DUP9 SWAP1 PUSH1 0x4 ADD PUSH2 0x10CE JUMP JUMPDEST PUSH1 0x20 PUSH1 0x40 MLOAD DUP1 DUP4 SUB DUP2 DUP7 GAS STATICCALL SWAP3 POP POP POP DUP1 ISZERO PUSH2 0xC49 JUMPI POP PUSH1 0x40 DUP1 MLOAD PUSH1 0x1F RETURNDATASIZE SWAP1 DUP2 ADD PUSH1 0x1F NOT AND DUP3 ADD SWAP1 SWAP3 MSTORE PUSH2 0xC46 SWAP2 DUP2 ADD SWAP1 PUSH2 0x1112 JUMP JUMPDEST PUSH1 0x1 JUMPDEST ISZERO PUSH2 0xC5C JUMPI SWAP7 POP PUSH2 0xC66 SWAP6 POP POP POP POP POP POP JUMP JUMPDEST POP POP POP POP POP POP POP PUSH1 0x0 JUMPDEST SWAP5 SWAP4 POP POP POP POP JUMP JUMPDEST PUSH1 0x1 PUSH1 0x1 PUSH1 0xA0 SHL SUB DUP2 AND DUP2 EQ PUSH2 0x230 JUMPI PUSH1 0x0 DUP1 REVERT JUMPDEST PUSH1 0x0 PUSH1 0x20 DUP3 DUP5 SUB SLT ISZERO PUSH2 0xC95 JUMPI PUSH1 0x0 DUP1 REVERT JUMPDEST DUP2 CALLDATALOAD PUSH2 0xB50 DUP2 PUSH2 0xC6E JUMP JUMPDEST DUP1 CALLDATALOAD PUSH2 0xFFFF DUP2 AND DUP2 EQ PUSH2 0xCB2 JUMPI PUSH1 0x0 DUP1 REVERT JUMPDEST SWAP2 SWAP1 POP JUMP JUMPDEST PUSH1 0x0 DUP1 PUSH1 0x40 DUP4 DUP6 SUB SLT ISZERO PUSH2 0xCCA JUMPI PUSH1 0x0 DUP1 REVERT JUMPDEST DUP3 CALLDATALOAD PUSH2 0xCD5 DUP2 PUSH2 0xC6E JUMP JUMPDEST SWAP2 POP PUSH2 0xCE3 PUSH1 0x20 DUP5 ADD PUSH2 0xCA0 JUMP JUMPDEST SWAP1 POP SWAP3 POP SWAP3 SWAP1 POP JUMP JUMPDEST PUSH1 0x0 DUP1 PUSH1 0x0 PUSH1 0x60 DUP5 DUP7 SUB SLT ISZERO PUSH2 0xD01 JUMPI PUSH1 0x0 DUP1 REVERT JUMPDEST DUP4 CALLDATALOAD PUSH2 0xD0C DUP2 PUSH2 0xC6E JUMP JUMPDEST SWAP3 POP PUSH1 0x20 DUP5 ADD CALLDATALOAD PUSH2 0xD1C DUP2 PUSH2 0xC6E JUMP JUMPDEST SWAP2 POP PUSH2 0xD2A PUSH1 0x40 DUP6 ADD PUSH2 0xCA0 JUMP JUMPDEST SWAP1 POP SWAP3 POP SWAP3 POP SWAP3 JUMP JUMPDEST PUSH1 0x0 DUP1 PUSH1 0x40 DUP4 DUP6 SUB SLT ISZERO PUSH2 0xD46 JUMPI PUSH1 0x0 DUP1 REVERT JUMPDEST DUP3 CALLDATALOAD PUSH2 0xD51 DUP2 PUSH2 0xC6E JUMP JUMPDEST SWAP2 POP PUSH1 0x20 DUP4 ADD CALLDATALOAD PUSH2 0xD61 DUP2 PUSH2 0xC6E JUMP JUMPDEST DUP1 SWAP2 POP POP SWAP3 POP SWAP3 SWAP1 POP JUMP JUMPDEST PUSH1 0x20 DUP1 DUP3 MSTORE DUP3 MLOAD DUP3 DUP3 ADD DUP2 SWAP1 MSTORE PUSH1 0x0 SWAP2 SWAP1 DUP5 DUP3 ADD SWAP1 PUSH1 0x40 DUP6 ADD SWAP1 DUP5 JUMPDEST DUP2 DUP2 LT ISZERO PUSH2 0xDAE JUMPI DUP4 MLOAD PUSH1 0x1 PUSH1 0x1 PUSH1 0xE0 SHL SUB NOT AND DUP4 MSTORE SWAP3 DUP5 ADD SWAP3 SWAP2 DUP5 ADD SWAP2 PUSH1 0x1 ADD PUSH2 0xD88 JUMP JUMPDEST POP SWAP1 SWAP7 SWAP6 POP POP POP POP POP POP JUMP JUMPDEST PUSH4 0x4E487B71 PUSH1 0xE0 SHL PUSH1 0x0 MSTORE PUSH1 0x41 PUSH1 0x4 MSTORE PUSH1 0x24 PUSH1 0x0 REVERT JUMPDEST PUSH4 0x4E487B71 PUSH1 0xE0 SHL PUSH1 0x0 MSTORE PUSH1 0x11 PUSH1 0x4 MSTORE PUSH1 0x24 PUSH1 0x0 REVERT JUMPDEST PUSH1 0x0 DUP2 PUSH2 0xDF5 JUMPI PUSH2 0xDF5 PUSH2 0xDD0 JUMP JUMPDEST POP PUSH1 0x0 NOT ADD SWAP1 JUMP JUMPDEST PUSH4 0x4E487B71 PUSH1 0xE0 SHL PUSH1 0x0 MSTORE PUSH1 0x32 PUSH1 0x4 MSTORE PUSH1 0x24 PUSH1 0x0 REVERT JUMPDEST PUSH1 0x20 DUP1 DUP3 MSTORE PUSH1 0x2A SWAP1 DUP3 ADD MSTORE PUSH32 0x4964656E74697479496E7465726E616C3A206964656E74697479206973207A65 PUSH1 0x40 DUP3 ADD MSTORE PUSH10 0x726F2061646472657373 PUSH1 0xB0 SHL PUSH1 0x60 DUP3 ADD MSTORE PUSH1 0x80 ADD SWAP1 JUMP JUMPDEST PUSH1 0x0 PUSH1 0x1 DUP3 ADD PUSH2 0xE6F JUMPI PUSH2 0xE6F PUSH2 0xDD0 JUMP JUMPDEST POP PUSH1 0x1 ADD SWAP1 JUMP JUMPDEST PUSH1 0x40 MLOAD PUSH1 0x1F DUP3 ADD PUSH1 0x1F NOT AND DUP2 ADD PUSH8 0xFFFFFFFFFFFFFFFF DUP2 GT DUP3 DUP3 LT OR ISZERO PUSH2 0xE9F JUMPI PUSH2 0xE9F PUSH2 0xDBA JUMP JUMPDEST PUSH1 0x40 MSTORE SWAP2 SWAP1 POP JUMP JUMPDEST PUSH1 0x0 PUSH1 0x20 DUP1 DUP4 DUP6 SUB SLT ISZERO PUSH2 0xEBA JUMPI PUSH1 0x0 DUP1 REVERT JUMPDEST DUP3 MLOAD PUSH8 0xFFFFFFFFFFFFFFFF DUP1 DUP3 GT ISZERO PUSH2 0xED2 JUMPI PUSH1 0x0 DUP1 REVERT JUMPDEST DUP2 DUP6 ADD SWAP2 POP DUP6 PUSH1 0x1F DUP4 ADD SLT PUSH2 0xEE6 JUMPI PUSH1 0x0 DUP1 REVERT JUMPDEST DUP2 MLOAD DUP2 DUP2 GT ISZERO PUSH2 0xEF8 JUMPI PUSH2 0xEF8 PUSH2 0xDBA JUMP JUMPDEST DUP1 PUSH1 0x5 SHL SWAP2 POP PUSH2 0xF09 DUP5 DUP4 ADD PUSH2 0xE76 JUMP JUMPDEST DUP2 DUP2 MSTORE SWAP2 DUP4 ADD DUP5 ADD SWAP2 DUP5 DUP2 ADD SWAP1 DUP9 DUP5 GT ISZERO PUSH2 0xF23 JUMPI PUSH1 0x0 DUP1 REVERT JUMPDEST SWAP4 DUP6 ADD SWAP4 JUMPDEST DUP4 DUP6 LT ISZERO PUSH2 0xF41 JUMPI DUP5 MLOAD DUP3 MSTORE SWAP4 DUP6 ADD SWAP4 SWAP1 DUP6 ADD SWAP1 PUSH2 0xF28 JUMP JUMPDEST SWAP9 SWAP8 POP POP POP POP POP POP POP POP JUMP JUMPDEST PUSH1 0x0 JUMPDEST DUP4 DUP2 LT ISZERO PUSH2 0xF68 JUMPI DUP2 DUP2 ADD MLOAD DUP4 DUP3 ADD MSTORE PUSH1 0x20 ADD PUSH2 0xF50 JUMP JUMPDEST POP POP PUSH1 0x0 SWAP2 ADD MSTORE JUMP JUMPDEST PUSH1 0x0 PUSH8 0xFFFFFFFFFFFFFFFF DUP4 GT ISZERO PUSH2 0xF8B JUMPI PUSH2 0xF8B PUSH2 0xDBA JUMP JUMPDEST PUSH2 0xF9E PUSH1 0x1F DUP5 ADD PUSH1 0x1F NOT AND PUSH1 0x20 ADD PUSH2 0xE76 JUMP JUMPDEST SWAP1 POP DUP3 DUP2 MSTORE DUP4 DUP4 DUP4 ADD GT ISZERO PUSH2 0xFB2 JUMPI PUSH1 0x0 DUP1 REVERT JUMPDEST PUSH2 0xB50 DUP4 PUSH1 0x20 DUP4 ADD DUP5 PUSH2 0xF4D JUMP JUMPDEST PUSH1 0x0 DUP3 PUSH1 0x1F DUP4 ADD SLT PUSH2 0xFD1 JUMPI PUSH1 0x0 DUP1 REVERT JUMPDEST PUSH2 0xB50 DUP4 DUP4 MLOAD PUSH1 0x20 DUP6 ADD PUSH2 0xF71 JUMP JUMPDEST PUSH1 0x0 DUP1 PUSH1 0x0 DUP1 PUSH1 0x0 DUP1 PUSH1 0xC0 DUP8 DUP10 SUB SLT ISZERO PUSH2 0xFF9 JUMPI PUSH1 0x0 DUP1 REVERT JUMPDEST DUP7 MLOAD SWAP6 POP PUSH1 0x20 DUP8 ADD MLOAD SWAP5 POP PUSH1 0x40 DUP8 ADD MLOAD PUSH2 0x1012 DUP2 PUSH2 0xC6E JUMP JUMPDEST PUSH1 0x60 DUP9 ADD MLOAD SWAP1 SWAP5 POP PUSH8 0xFFFFFFFFFFFFFFFF DUP1 DUP3 GT ISZERO PUSH2 0x1030 JUMPI PUSH1 0x0 DUP1 REVERT JUMPDEST PUSH2 0x103C DUP11 DUP4 DUP12 ADD PUSH2 0xFC0 JUMP JUMPDEST SWAP5 POP PUSH1 0x80 DUP10 ADD MLOAD SWAP2 POP DUP1 DUP3 GT ISZERO PUSH2 0x1052 JUMPI PUSH1 0x0 DUP1 REVERT JUMPDEST PUSH2 0x105E DUP11 DUP4 DUP12 ADD PUSH2 0xFC0 JUMP JUMPDEST SWAP4 POP PUSH1 0xA0 DUP10 ADD MLOAD SWAP2 POP DUP1 DUP3 GT ISZERO PUSH2 0x1074 JUMPI PUSH1 0x0 DUP1 REVERT JUMPDEST POP DUP8 ADD PUSH1 0x1F DUP2 ADD DUP10 SGT PUSH2 0x1086 JUMPI PUSH1 0x0 DUP1 REVERT JUMPDEST PUSH2 0x1095 DUP10 DUP3 MLOAD PUSH1 0x20 DUP5 ADD PUSH2 0xF71 JUMP JUMPDEST SWAP2 POP POP SWAP3 SWAP6 POP SWAP3 SWAP6 POP SWAP3 SWAP6 JUMP JUMPDEST PUSH1 0x0 DUP2 MLOAD DUP1 DUP5 MSTORE PUSH2 0x10BA DUP2 PUSH1 0x20 DUP7 ADD PUSH1 0x20 DUP7 ADD PUSH2 0xF4D JUMP JUMPDEST PUSH1 0x1F ADD PUSH1 0x1F NOT AND SWAP3 SWAP1 SWAP3 ADD PUSH1 0x20 ADD SWAP3 SWAP2 POP POP JUMP JUMPDEST PUSH1 0x1 DUP1 PUSH1 0xA0 SHL SUB DUP6 AND DUP2 MSTORE DUP4 PUSH1 0x20 DUP3 ADD MSTORE PUSH1 0x80 PUSH1 0x40 DUP3 ADD MSTORE PUSH1 0x0 PUSH2 0x10F5 PUSH1 0x80 DUP4 ADD DUP6 PUSH2 0x10A2 JUMP JUMPDEST DUP3 DUP2 SUB PUSH1 0x60 DUP5 ADD MSTORE PUSH2 0x1107 DUP2 DUP6 PUSH2 0x10A2 JUMP JUMPDEST SWAP8 SWAP7 POP POP POP POP POP POP POP JUMP JUMPDEST PUSH1 0x0 PUSH1 0x20 DUP3 DUP5 SUB SLT ISZERO PUSH2 0x1124 JUMPI PUSH1 0x0 DUP1 REVERT JUMPDEST DUP2 MLOAD DUP1 ISZERO ISZERO DUP2 EQ PUSH2 0xB50 JUMPI PUSH1 0x0 DUP1 REVERT INVALID DUP3 POP CREATE PUSH3 0x390633 PUSH21 0xB58DD505171A2B7207C6C4B65557D3F50BA32FE92 DUP15 SWAP14 0xA5 LOG2 PUSH5 0x6970667358 0x22 SLT KECCAK256 0xCD JUMPI ORIGIN OR 0xDE PUSH14 0x8E841A0388781472D82D0102C39E CREATE 0xCA DUP5 SLT SWAP5 SWAP9 0xE6 0xAA PUSH13 0x3059DA64736F6C634300081100 CALLER "},"methodIdentifiers":{"deleteIdentity(address)":"a8d29d1d","getIdentity(address)":"2fea7b81","getInvestorCountry(address)":"13b1d144","isVerified(address)":"b9209e33","registerIdentity(address,address,uint16)":"454a03e0","selectorsIntrospection()":"e3b807a0","updateCountry(address,uint16)":"3b239a7f","updateIdentity(address,address)":"8e098ca1"}},"storageLayout":{"storage":[],"types":null}}}}