{"contracts/facets/RolesFacet.sol":{"RolesFacet":{"abi":[{"anonymous":false,"inputs":[{"indexed":true,"internalType":"address","name":"agent","type":"address"},{"indexed":false,"internalType":"bool","name":"status","type":"bool"}],"name":"AgentSet","type":"event"},{"anonymous":false,"inputs":[{"indexed":false,"internalType":"uint8","name":"version","type":"uint8"}],"name":"Initialized","type":"event"},{"anonymous":false,"inputs":[{"indexed":true,"internalType":"address","name":"previousOwner","type":"address"},{"indexed":true,"internalType":"address","name":"newOwner","type":"address"}],"name":"OwnershipTransferred","type":"event"},{"inputs":[{"internalType":"address","name":"initialOwner","type":"address"}],"name":"initializeRoles","outputs":[],"stateMutability":"nonpayable","type":"function"},{"inputs":[{"internalType":"address","name":"addr","type":"address"}],"name":"isAgent","outputs":[{"internalType":"bool","name":"","type":"bool"}],"stateMutability":"view","type":"function"},{"inputs":[],"name":"owner","outputs":[{"internalType":"address","name":"","type":"address"}],"stateMutability":"view","type":"function"},{"inputs":[],"name":"selectorsIntrospection","outputs":[{"internalType":"bytes4[]","name":"selectors_","type":"bytes4[]"}],"stateMutability":"pure","type":"function"},{"inputs":[{"internalType":"address","name":"agent","type":"address"},{"internalType":"bool","name":"status","type":"bool"}],"name":"setAgent","outputs":[],"stateMutability":"nonpayable","type":"function"},{"inputs":[{"internalType":"address","name":"newOwner","type":"address"}],"name":"transferOwnership","outputs":[],"stateMutability":"nonpayable","type":"function"}],"evm":{"bytecode":{"linkReferences":{},"object":"608060405234801561001057600080fd5b506108a3806100206000396000f3fe608060405234801561001057600080fd5b50600436106100625760003560e01c80631ffbb0641461006757806354208a2f146100c75780638da5cb5b146100dc57806397d8c676146100fc578063e3b807a01461010f578063f2fde38b14610124575b600080fd5b6100b2610075366004610766565b6001600160a01b031660009081527f0fcb11fff5651caf53eaf1124d25315389f7b0ceffd704a5e999a2ffc7764fd6602052604090205460ff1690565b60405190151581526020015b60405180910390f35b6100da6100d5366004610766565b610137565b005b6100e461024f565b6040516001600160a01b0390911681526020016100be565b6100da61010a366004610788565b610275565b610117610288565b6040516100be91906107c4565b6100da610132366004610766565b6103e7565b600054610100900460ff16158080156101575750600054600160ff909116105b806101715750303b158015610171575060005460ff166001145b6101d95760405162461bcd60e51b815260206004820152602e60248201527f496e697469616c697a61626c653a20636f6e747261637420697320616c72656160448201526d191e481a5b9a5d1a585b1a5e995960921b60648201526084015b60405180910390fd5b6000805460ff1916600117905580156101fc576000805461ff0019166101001790555b610205826103fc565b801561024b576000805461ff0019169055604051600181527f7f26b83ff96e1f2b6a682f133852f6798a09c465da95921460cefb38474024989060200160405180910390a15b5050565b600061027060008051602061084e833981519152546001600160a01b031690565b905090565b61027e3361051f565b61024b8282610589565b60408051600580825260c0820190925260609190816020820160a0803683370190505091506354208a2f60e01b826102bf83610812565b925082815181106102d2576102d2610837565b6001600160e01b03199092166020928302919091019091015263f2fde38b60e01b826102fd83610812565b9250828151811061031057610310610837565b6001600160e01b031990921660209283029190910190910152638da5cb5b60e01b8261033b83610812565b9250828151811061034e5761034e610837565b6001600160e01b031990921660209283029190910190910152634bec633b60e11b8261037983610812565b9250828151811061038c5761038c610837565b6001600160e01b0319909216602092830291909101909101526307feec1960e21b826103b783610812565b925082815181106103ca576103ca610837565b6001600160e01b0319909216602092830291909101909101525090565b6103f03361051f565b6103f981610680565b50565b6001600160a01b0381166104635760405162461bcd60e51b815260206004820152602860248201527f526f6c6573496e7465726e616c3a206f776e657220697320746865207a65726f604482015267206164647265737360c01b60648201526084016101d0565b60008051602061084e83398151915280546001600160a01b0316156104d55760405162461bcd60e51b815260206004820152602260248201527f526f6c6573496e7465726e616c3a20616c726561647920696e697469616c697a604482015261195960f21b60648201526084016101d0565b80546001600160a01b0319166001600160a01b03831690811782556040516000907f8be0079c531659141344cd1fd0a4f28419497f9722a3daafe3b4186f6b6457e0908290a35050565b60008051602061084e833981519152546001600160a01b038281169116146103f95760405162461bcd60e51b815260206004820152601860248201527f526f6c6573496e7465726e616c3a204e6f74206f776e6572000000000000000060448201526064016101d0565b6001600160a01b0382166105f05760405162461bcd60e51b815260206004820152602860248201527f526f6c6573496e7465726e616c3a206167656e7420697320746865207a65726f604482015267206164647265737360c01b60648201526084016101d0565b6001600160a01b03821660008181527f0fcb11fff5651caf53eaf1124d25315389f7b0ceffd704a5e999a2ffc7764fd66020908152604091829020805460ff1916851515908117909155915191825260008051602061084e83398151915292917fdfbbd189290ad6ccafc74f11e514df22fe2c990b1f70c48e80c0c152ccf16415910160405180910390a2505050565b6001600160a01b0381166106eb5760405162461bcd60e51b815260206004820152602c60248201527f526f6c6573496e7465726e616c3a206e6577206f776e6572206973207468652060448201526b7a65726f206164647265737360a01b60648201526084016101d0565b60008051602061084e83398151915280546001600160a01b031981166001600160a01b03848116918217845560405192169182907f8be0079c531659141344cd1fd0a4f28419497f9722a3daafe3b4186f6b6457e090600090a3505050565b80356001600160a01b038116811461076157600080fd5b919050565b60006020828403121561077857600080fd5b6107818261074a565b9392505050565b6000806040838503121561079b57600080fd5b6107a48361074a565b9150602083013580151581146107b957600080fd5b809150509250929050565b6020808252825182820181905260009190848201906040850190845b818110156108065783516001600160e01b031916835292840192918401916001016107e0565b50909695505050505050565b60008161082f57634e487b7160e01b600052601160045260246000fd5b506000190190565b634e487b7160e01b600052603260045260246000fdfe0fcb11fff5651caf53eaf1124d25315389f7b0ceffd704a5e999a2ffc7764fd5a2646970667358221220f4d86e5aa70c81aa156d5252073b5293f4af94e7e12defd810a65aee56a28f4964736f6c63430008110033","opcodes":"PUSH1 0x80 PUSH1 0x40 MSTORE CALLVALUE DUP1 ISZERO PUSH2 0x10 JUMPI PUSH1 0x0 DUP1 REVERT JUMPDEST POP PUSH2 0x8A3 DUP1 PUSH2 0x20 PUSH1 0x0 CODECOPY PUSH1 0x0 RETURN INVALID PUSH1 0x80 PUSH1 0x40 MSTORE CALLVALUE DUP1 ISZERO PUSH2 0x10 JUMPI PUSH1 0x0 DUP1 REVERT JUMPDEST POP PUSH1 0x4 CALLDATASIZE LT PUSH2 0x62 JUMPI PUSH1 0x0 CALLDATALOAD PUSH1 0xE0 SHR DUP1 PUSH4 0x1FFBB064 EQ PUSH2 0x67 JUMPI DUP1 PUSH4 0x54208A2F EQ PUSH2 0xC7 JUMPI DUP1 PUSH4 0x8DA5CB5B EQ PUSH2 0xDC JUMPI DUP1 PUSH4 0x97D8C676 EQ PUSH2 0xFC JUMPI DUP1 PUSH4 0xE3B807A0 EQ PUSH2 0x10F JUMPI DUP1 PUSH4 0xF2FDE38B EQ PUSH2 0x124 JUMPI JUMPDEST PUSH1 0x0 DUP1 REVERT JUMPDEST PUSH2 0xB2 PUSH2 0x75 CALLDATASIZE PUSH1 0x4 PUSH2 0x766 JUMP JUMPDEST PUSH1 0x1 PUSH1 0x1 PUSH1 0xA0 SHL SUB AND PUSH1 0x0 SWAP1 DUP2 MSTORE PUSH32 0xFCB11FFF5651CAF53EAF1124D25315389F7B0CEFFD704A5E999A2FFC7764FD6 PUSH1 0x20 MSTORE PUSH1 0x40 SWAP1 KECCAK256 SLOAD PUSH1 0xFF AND SWAP1 JUMP JUMPDEST PUSH1 0x40 MLOAD SWAP1 ISZERO ISZERO DUP2 MSTORE PUSH1 0x20 ADD JUMPDEST PUSH1 0x40 MLOAD DUP1 SWAP2 SUB SWAP1 RETURN JUMPDEST PUSH2 0xDA PUSH2 0xD5 CALLDATASIZE PUSH1 0x4 PUSH2 0x766 JUMP JUMPDEST PUSH2 0x137 JUMP JUMPDEST STOP JUMPDEST PUSH2 0xE4 PUSH2 0x24F JUMP JUMPDEST PUSH1 0x40 MLOAD PUSH1 0x1 PUSH1 0x1 PUSH1 0xA0 SHL SUB SWAP1 SWAP2 AND DUP2 MSTORE PUSH1 0x20 ADD PUSH2 0xBE JUMP JUMPDEST PUSH2 0xDA PUSH2 0x10A CALLDATASIZE PUSH1 0x4 PUSH2 0x788 JUMP JUMPDEST PUSH2 0x275 JUMP JUMPDEST PUSH2 0x117 PUSH2 0x288 JUMP JUMPDEST PUSH1 0x40 MLOAD PUSH2 0xBE SWAP2 SWAP1 PUSH2 0x7C4 JUMP JUMPDEST PUSH2 0xDA PUSH2 0x132 CALLDATASIZE PUSH1 0x4 PUSH2 0x766 JUMP JUMPDEST PUSH2 0x3E7 JUMP JUMPDEST PUSH1 0x0 SLOAD PUSH2 0x100 SWAP1 DIV PUSH1 0xFF AND ISZERO DUP1 DUP1 ISZERO PUSH2 0x157 JUMPI POP PUSH1 0x0 SLOAD PUSH1 0x1 PUSH1 0xFF SWAP1 SWAP2 AND LT JUMPDEST DUP1 PUSH2 0x171 JUMPI POP ADDRESS EXTCODESIZE ISZERO DUP1 ISZERO PUSH2 0x171 JUMPI POP PUSH1 0x0 SLOAD PUSH1 0xFF AND PUSH1 0x1 EQ JUMPDEST PUSH2 0x1D9 JUMPI PUSH1 0x40 MLOAD PUSH3 0x461BCD PUSH1 0xE5 SHL DUP2 MSTORE PUSH1 0x20 PUSH1 0x4 DUP3 ADD MSTORE PUSH1 0x2E PUSH1 0x24 DUP3 ADD MSTORE PUSH32 0x496E697469616C697A61626C653A20636F6E747261637420697320616C726561 PUSH1 0x44 DUP3 ADD MSTORE PUSH14 0x191E481A5B9A5D1A585B1A5E9959 PUSH1 0x92 SHL PUSH1 0x64 DUP3 ADD MSTORE PUSH1 0x84 ADD JUMPDEST PUSH1 0x40 MLOAD DUP1 SWAP2 SUB SWAP1 REVERT JUMPDEST PUSH1 0x0 DUP1 SLOAD PUSH1 0xFF NOT AND PUSH1 0x1 OR SWAP1 SSTORE DUP1 ISZERO PUSH2 0x1FC JUMPI PUSH1 0x0 DUP1 SLOAD PUSH2 0xFF00 NOT AND PUSH2 0x100 OR SWAP1 SSTORE JUMPDEST PUSH2 0x205 DUP3 PUSH2 0x3FC JUMP JUMPDEST DUP1 ISZERO PUSH2 0x24B JUMPI PUSH1 0x0 DUP1 SLOAD PUSH2 0xFF00 NOT AND SWAP1 SSTORE PUSH1 0x40 MLOAD PUSH1 0x1 DUP2 MSTORE PUSH32 0x7F26B83FF96E1F2B6A682F133852F6798A09C465DA95921460CEFB3847402498 SWAP1 PUSH1 0x20 ADD PUSH1 0x40 MLOAD DUP1 SWAP2 SUB SWAP1 LOG1 JUMPDEST POP POP JUMP JUMPDEST PUSH1 0x0 PUSH2 0x270 PUSH1 0x0 DUP1 MLOAD PUSH1 0x20 PUSH2 0x84E DUP4 CODECOPY DUP2 MLOAD SWAP2 MSTORE SLOAD PUSH1 0x1 PUSH1 0x1 PUSH1 0xA0 SHL SUB AND SWAP1 JUMP JUMPDEST SWAP1 POP SWAP1 JUMP JUMPDEST PUSH2 0x27E CALLER PUSH2 0x51F JUMP JUMPDEST PUSH2 0x24B DUP3 DUP3 PUSH2 0x589 JUMP JUMPDEST PUSH1 0x40 DUP1 MLOAD PUSH1 0x5 DUP1 DUP3 MSTORE PUSH1 0xC0 DUP3 ADD SWAP1 SWAP3 MSTORE PUSH1 0x60 SWAP2 SWAP1 DUP2 PUSH1 0x20 DUP3 ADD PUSH1 0xA0 DUP1 CALLDATASIZE DUP4 CALLDATACOPY ADD SWAP1 POP POP SWAP2 POP PUSH4 0x54208A2F PUSH1 0xE0 SHL DUP3 PUSH2 0x2BF DUP4 PUSH2 0x812 JUMP JUMPDEST SWAP3 POP DUP3 DUP2 MLOAD DUP2 LT PUSH2 0x2D2 JUMPI PUSH2 0x2D2 PUSH2 0x837 JUMP JUMPDEST PUSH1 0x1 PUSH1 0x1 PUSH1 0xE0 SHL SUB NOT SWAP1 SWAP3 AND PUSH1 0x20 SWAP3 DUP4 MUL SWAP2 SWAP1 SWAP2 ADD SWAP1 SWAP2 ADD MSTORE PUSH4 0xF2FDE38B PUSH1 0xE0 SHL DUP3 PUSH2 0x2FD DUP4 PUSH2 0x812 JUMP JUMPDEST SWAP3 POP DUP3 DUP2 MLOAD DUP2 LT PUSH2 0x310 JUMPI PUSH2 0x310 PUSH2 0x837 JUMP JUMPDEST PUSH1 0x1 PUSH1 0x1 PUSH1 0xE0 SHL SUB NOT SWAP1 SWAP3 AND PUSH1 0x20 SWAP3 DUP4 MUL SWAP2 SWAP1 SWAP2 ADD SWAP1 SWAP2 ADD MSTORE PUSH4 0x8DA5CB5B PUSH1 0xE0 SHL DUP3 PUSH2 0x33B DUP4 PUSH2 0x812 JUMP JUMPDEST SWAP3 POP DUP3 DUP2 MLOAD DUP2 LT PUSH2 0x34E JUMPI PUSH2 0x34E PUSH2 0x837 JUMP JUMPDEST PUSH1 0x1 PUSH1 0x1 PUSH1 0xE0 SHL SUB NOT SWAP1 SWAP3 AND PUSH1 0x20 SWAP3 DUP4 MUL SWAP2 SWAP1 SWAP2 ADD SWAP1 SWAP2 ADD MSTORE PUSH4 0x4BEC633B PUSH1 0xE1 SHL DUP3 PUSH2 0x379 DUP4 PUSH2 0x812 JUMP JUMPDEST SWAP3 POP DUP3 DUP2 MLOAD DUP2 LT PUSH2 0x38C JUMPI PUSH2 0x38C PUSH2 0x837 JUMP JUMPDEST PUSH1 0x1 PUSH1 0x1 PUSH1 0xE0 SHL SUB NOT SWAP1 SWAP3 AND PUSH1 0x20 SWAP3 DUP4 MUL SWAP2 SWAP1 SWAP2 ADD SWAP1 SWAP2 ADD MSTORE PUSH4 0x7FEEC19 PUSH1 0xE2 SHL DUP3 PUSH2 0x3B7 DUP4 PUSH2 0x812 JUMP JUMPDEST SWAP3 POP DUP3 DUP2 MLOAD DUP2 LT PUSH2 0x3CA JUMPI PUSH2 0x3CA PUSH2 0x837 JUMP JUMPDEST PUSH1 0x1 PUSH1 0x1 PUSH1 0xE0 SHL SUB NOT SWAP1 SWAP3 AND PUSH1 0x20 SWAP3 DUP4 MUL SWAP2 SWAP1 SWAP2 ADD SWAP1 SWAP2 ADD MSTORE POP SWAP1 JUMP JUMPDEST PUSH2 0x3F0 CALLER PUSH2 0x51F JUMP JUMPDEST PUSH2 0x3F9 DUP2 PUSH2 0x680 JUMP JUMPDEST POP JUMP JUMPDEST PUSH1 0x1 PUSH1 0x1 PUSH1 0xA0 SHL SUB DUP2 AND PUSH2 0x463 JUMPI PUSH1 0x40 MLOAD PUSH3 0x461BCD PUSH1 0xE5 SHL DUP2 MSTORE PUSH1 0x20 PUSH1 0x4 DUP3 ADD MSTORE PUSH1 0x28 PUSH1 0x24 DUP3 ADD MSTORE PUSH32 0x526F6C6573496E7465726E616C3A206F776E657220697320746865207A65726F PUSH1 0x44 DUP3 ADD MSTORE PUSH8 0x2061646472657373 PUSH1 0xC0 SHL PUSH1 0x64 DUP3 ADD MSTORE PUSH1 0x84 ADD PUSH2 0x1D0 JUMP JUMPDEST PUSH1 0x0 DUP1 MLOAD PUSH1 0x20 PUSH2 0x84E DUP4 CODECOPY DUP2 MLOAD SWAP2 MSTORE DUP1 SLOAD PUSH1 0x1 PUSH1 0x1 PUSH1 0xA0 SHL SUB AND ISZERO PUSH2 0x4D5 JUMPI PUSH1 0x40 MLOAD PUSH3 0x461BCD PUSH1 0xE5 SHL DUP2 MSTORE PUSH1 0x20 PUSH1 0x4 DUP3 ADD MSTORE PUSH1 0x22 PUSH1 0x24 DUP3 ADD MSTORE PUSH32 0x526F6C6573496E7465726E616C3A20616C726561647920696E697469616C697A PUSH1 0x44 DUP3 ADD MSTORE PUSH2 0x1959 PUSH1 0xF2 SHL PUSH1 0x64 DUP3 ADD MSTORE PUSH1 0x84 ADD PUSH2 0x1D0 JUMP JUMPDEST DUP1 SLOAD PUSH1 0x1 PUSH1 0x1 PUSH1 0xA0 SHL SUB NOT AND PUSH1 0x1 PUSH1 0x1 PUSH1 0xA0 SHL SUB DUP4 AND SWAP1 DUP2 OR DUP3 SSTORE PUSH1 0x40 MLOAD PUSH1 0x0 SWAP1 PUSH32 0x8BE0079C531659141344CD1FD0A4F28419497F9722A3DAAFE3B4186F6B6457E0 SWAP1 DUP3 SWAP1 LOG3 POP POP JUMP JUMPDEST PUSH1 0x0 DUP1 MLOAD PUSH1 0x20 PUSH2 0x84E DUP4 CODECOPY DUP2 MLOAD SWAP2 MSTORE SLOAD PUSH1 0x1 PUSH1 0x1 PUSH1 0xA0 SHL SUB DUP3 DUP2 AND SWAP2 AND EQ PUSH2 0x3F9 JUMPI PUSH1 0x40 MLOAD PUSH3 0x461BCD PUSH1 0xE5 SHL DUP2 MSTORE PUSH1 0x20 PUSH1 0x4 DUP3 ADD MSTORE PUSH1 0x18 PUSH1 0x24 DUP3 ADD MSTORE PUSH32 0x526F6C6573496E7465726E616C3A204E6F74206F776E65720000000000000000 PUSH1 0x44 DUP3 ADD MSTORE PUSH1 0x64 ADD PUSH2 0x1D0 JUMP JUMPDEST PUSH1 0x1 PUSH1 0x1 PUSH1 0xA0 SHL SUB DUP3 AND PUSH2 0x5F0 JUMPI PUSH1 0x40 MLOAD PUSH3 0x461BCD PUSH1 0xE5 SHL DUP2 MSTORE PUSH1 0x20 PUSH1 0x4 DUP3 ADD MSTORE PUSH1 0x28 PUSH1 0x24 DUP3 ADD MSTORE PUSH32 0x526F6C6573496E7465726E616C3A206167656E7420697320746865207A65726F PUSH1 0x44 DUP3 ADD MSTORE PUSH8 0x2061646472657373 PUSH1 0xC0 SHL PUSH1 0x64 DUP3 ADD MSTORE PUSH1 0x84 ADD PUSH2 0x1D0 JUMP JUMPDEST PUSH1 0x1 PUSH1 0x1 PUSH1 0xA0 SHL SUB DUP3 AND PUSH1 0x0 DUP2 DUP2 MSTORE PUSH32 0xFCB11FFF5651CAF53EAF1124D25315389F7B0CEFFD704A5E999A2FFC7764FD6 PUSH1 0x20 SWAP1 DUP2 MSTORE PUSH1 0x40 SWAP2 DUP3 SWAP1 KECCAK256 DUP1 SLOAD PUSH1 0xFF NOT AND DUP6 ISZERO ISZERO SWAP1 DUP2 OR SWAP1 SWAP2 SSTORE SWAP2 MLOAD SWAP2 DUP3 MSTORE PUSH1 0x0 DUP1 MLOAD PUSH1 0x20 PUSH2 0x84E DUP4 CODECOPY DUP2 MLOAD SWAP2 MSTORE SWAP3 SWAP2 PUSH32 0xDFBBD189290AD6CCAFC74F11E514DF22FE2C990B1F70C48E80C0C152CCF16415 SWAP2 ADD PUSH1 0x40 MLOAD DUP1 SWAP2 SUB SWAP1 LOG2 POP POP POP JUMP JUMPDEST PUSH1 0x1 PUSH1 0x1 PUSH1 0xA0 SHL SUB DUP2 AND PUSH2 0x6EB JUMPI PUSH1 0x40 MLOAD PUSH3 0x461BCD PUSH1 0xE5 SHL DUP2 MSTORE PUSH1 0x20 PUSH1 0x4 DUP3 ADD MSTORE PUSH1 0x2C PUSH1 0x24 DUP3 ADD MSTORE PUSH32 0x526F6C6573496E7465726E616C3A206E6577206F776E65722069732074686520 PUSH1 0x44 DUP3 ADD MSTORE PUSH12 0x7A65726F2061646472657373 PUSH1 0xA0 SHL PUSH1 0x64 DUP3 ADD MSTORE PUSH1 0x84 ADD PUSH2 0x1D0 JUMP JUMPDEST PUSH1 0x0 DUP1 MLOAD PUSH1 0x20 PUSH2 0x84E DUP4 CODECOPY DUP2 MLOAD SWAP2 MSTORE DUP1 SLOAD PUSH1 0x1 PUSH1 0x1 PUSH1 0xA0 SHL SUB NOT DUP2 AND PUSH1 0x1 PUSH1 0x1 PUSH1 0xA0 SHL SUB DUP5 DUP2 AND SWAP2 DUP3 OR DUP5 SSTORE PUSH1 0x40 MLOAD SWAP3 AND SWAP2 DUP3 SWAP1 PUSH32 0x8BE0079C531659141344CD1FD0A4F28419497F9722A3DAAFE3B4186F6B6457E0 SWAP1 PUSH1 0x0 SWAP1 LOG3 POP POP POP JUMP JUMPDEST DUP1 CALLDATALOAD PUSH1 0x1 PUSH1 0x1 PUSH1 0xA0 SHL SUB DUP2 AND DUP2 EQ PUSH2 0x761 JUMPI PUSH1 0x0 DUP1 REVERT JUMPDEST SWAP2 SWAP1 POP JUMP JUMPDEST PUSH1 0x0 PUSH1 0x20 DUP3 DUP5 SUB SLT ISZERO PUSH2 0x778 JUMPI PUSH1 0x0 DUP1 REVERT JUMPDEST PUSH2 0x781 DUP3 PUSH2 0x74A JUMP JUMPDEST SWAP4 SWAP3 POP POP POP JUMP JUMPDEST PUSH1 0x0 DUP1 PUSH1 0x40 DUP4 DUP6 SUB SLT ISZERO PUSH2 0x79B JUMPI PUSH1 0x0 DUP1 REVERT JUMPDEST PUSH2 0x7A4 DUP4 PUSH2 0x74A JUMP JUMPDEST SWAP2 POP PUSH1 0x20 DUP4 ADD CALLDATALOAD DUP1 ISZERO ISZERO DUP2 EQ PUSH2 0x7B9 JUMPI PUSH1 0x0 DUP1 REVERT JUMPDEST DUP1 SWAP2 POP POP SWAP3 POP SWAP3 SWAP1 POP JUMP JUMPDEST PUSH1 0x20 DUP1 DUP3 MSTORE DUP3 MLOAD DUP3 DUP3 ADD DUP2 SWAP1 MSTORE PUSH1 0x0 SWAP2 SWAP1 DUP5 DUP3 ADD SWAP1 PUSH1 0x40 DUP6 ADD SWAP1 DUP5 JUMPDEST DUP2 DUP2 LT ISZERO PUSH2 0x806 JUMPI DUP4 MLOAD PUSH1 0x1 PUSH1 0x1 PUSH1 0xE0 SHL SUB NOT AND DUP4 MSTORE SWAP3 DUP5 ADD SWAP3 SWAP2 DUP5 ADD SWAP2 PUSH1 0x1 ADD PUSH2 0x7E0 JUMP JUMPDEST POP SWAP1 SWAP7 SWAP6 POP POP POP POP POP POP JUMP JUMPDEST PUSH1 0x0 DUP2 PUSH2 0x82F JUMPI PUSH4 0x4E487B71 PUSH1 0xE0 SHL PUSH1 0x0 MSTORE PUSH1 0x11 PUSH1 0x4 MSTORE PUSH1 0x24 PUSH1 0x0 REVERT JUMPDEST POP PUSH1 0x0 NOT ADD SWAP1 JUMP JUMPDEST PUSH4 0x4E487B71 PUSH1 0xE0 SHL PUSH1 0x0 MSTORE PUSH1 0x32 PUSH1 0x4 MSTORE PUSH1 0x24 PUSH1 0x0 REVERT INVALID 0xF 0xCB GT SELFDESTRUCT CREATE2 PUSH6 0x1CAF53EAF112 0x4D 0x25 BALANCE MSTORE8 DUP10 0xF7 0xB0 0xCE SELFDESTRUCT 0xD7 DIV 0xA5 0xE9 SWAP10 LOG2 SELFDESTRUCT 0xC7 PUSH23 0x4FD5A2646970667358221220F4D86E5AA70C81AA156D52 MSTORE SMOD EXTCODESIZE MSTORE SWAP4 DELEGATECALL 0xAF SWAP5 0xE7 0xE1 0x2D 0xEF 0xD8 LT 0xA6 GAS 0xEE JUMP LOG2 DUP16 0x49 PUSH5 0x736F6C6343 STOP ADDMOD GT STOP CALLER "},"methodIdentifiers":{"initializeRoles(address)":"54208a2f","isAgent(address)":"1ffbb064","owner()":"8da5cb5b","selectorsIntrospection()":"e3b807a0","setAgent(address,bool)":"97d8c676","transferOwnership(address)":"f2fde38b"}},"storageLayout":{"storage":[{"astId":335,"contract":"contracts/facets/RolesFacet.sol:RolesFacet","label":"_initialized","offset":0,"slot":"0","type":"t_uint8"},{"astId":338,"contract":"contracts/facets/RolesFacet.sol:RolesFacet","label":"_initializing","offset":1,"slot":"0","type":"t_bool"}],"types":{"t_bool":{"encoding":"inplace","label":"bool","numberOfBytes":"1"},"t_uint8":{"encoding":"inplace","label":"uint8","numberOfBytes":"1"}}}}}}