{"contracts/InitDiamond.sol":{"InitDiamond":{"abi":[{"anonymous":false,"inputs":[{"indexed":true,"internalType":"address","name":"owner","type":"address"},{"indexed":false,"internalType":"string","name":"name","type":"string"},{"indexed":false,"internalType":"string","name":"symbol","type":"string"}],"name":"DiamondInitialized","type":"event"},{"anonymous":false,"inputs":[{"indexed":false,"internalType":"uint8","name":"version","type":"uint8"}],"name":"Initialized","type":"event"},{"inputs":[],"name":"getInitializationStatus","outputs":[{"internalType":"bool","name":"roles","type":"bool"},{"internalType":"bool","name":"token","type":"bool"}],"stateMutability":"view","type":"function"},{"inputs":[{"internalType":"address","name":"owner","type":"address"},{"internalType":"string","name":"name","type":"string"},{"internalType":"string","name":"symbol","type":"string"}],"name":"init","outputs":[],"stateMutability":"nonpayable","type":"function"}],"evm":{"bytecode":{"linkReferences":{},"object":"608060405234801561001057600080fd5b50610712806100206000396000f3fe608060405234801561001057600080fd5b50600436106100365760003560e01c8063b2b45df51461003b578063f94a6fd114610050575b600080fd5b61004e61004936600461049d565b610073565b005b6100586102e4565b60408051921515835290151560208301520160405180910390f35b600054610100900460ff16158080156100935750600054600160ff909116105b806100ad5750303b1580156100ad575060005460ff166001145b6101155760405162461bcd60e51b815260206004820152602e60248201527f496e697469616c697a61626c653a20636f6e747261637420697320616c72656160448201526d191e481a5b9a5d1a585b1a5e995960921b60648201526084015b60405180910390fd5b6000805460ff191660011790558015610138576000805461ff0019166101001790555b6001600160a01b0384166101a05760405162461bcd60e51b815260206004820152602960248201527f496e69744469616d6f6e643a206f776e65722063616e6e6f74206265207a65726044820152686f206164647265737360b81b606482015260840161010c565b7f0fcb11fff5651caf53eaf1124d25315389f7b0ceffd704a5e999a2ffc7764fd580546001600160a01b0319166001600160a01b0386161790556101e4838361034e565b61025560007f3f58a8938bec95c6a1ed44e042c3c2e2b9c1eb2b83644b148efde1f9dd7788d48190557f3f58a8938bec95c6a1ed44e042c3c2e2b9c1eb2b83644b148efde1f9dd7788d58190557f3f58a8938bec95c6a1ed44e042c3c2e2b9c1eb2b83644b148efde1f9dd7788d655565b836001600160a01b03167f33b0890aead116059e09fc2986d80e5e5205c857686b538bc5b4962f1f38044c8484604051610290929190610565565b60405180910390a280156102de576000805461ff0019169055604051600181527f7f26b83ff96e1f2b6a682f133852f6798a09c465da95921460cefb38474024989060200160405180910390a15b50505050565b7f0fcb11fff5651caf53eaf1124d25315389f7b0ceffd704a5e999a2ffc7764fd5547f736ce0c14097c43f46534906dfa4c53dc3d50ced9d4ca89fafa7ec003cfb443780546001600160a01b03909216151591600091829161034590610593565b90501190509091565b7f736ce0c14097c43f46534906dfa4c53dc3d50ced9d4ca89fafa7ec003cfb4437610379838261061c565b507f736ce0c14097c43f46534906dfa4c53dc3d50ced9d4ca89fafa7ec003cfb44386103a5828261061c565b50507f736ce0c14097c43f46534906dfa4c53dc3d50ced9d4ca89fafa7ec003cfb4439805460ff191660121790555060007f736ce0c14097c43f46534906dfa4c53dc3d50ced9d4ca89fafa7ec003cfb443655565b634e487b7160e01b600052604160045260246000fd5b600082601f83011261042157600080fd5b813567ffffffffffffffff8082111561043c5761043c6103fa565b604051601f8301601f19908116603f01168101908282118183101715610464576104646103fa565b8160405283815286602085880101111561047d57600080fd5b836020870160208301376000602085830101528094505050505092915050565b6000806000606084860312156104b257600080fd5b83356001600160a01b03811681146104c957600080fd5b9250602084013567ffffffffffffffff808211156104e657600080fd5b6104f287838801610410565b9350604086013591508082111561050857600080fd5b5061051586828701610410565b9150509250925092565b6000815180845260005b8181101561054557602081850181015186830182015201610529565b506000602082860101526020601f19601f83011685010191505092915050565b604081526000610578604083018561051f565b828103602084015261058a818561051f565b95945050505050565b600181811c908216806105a757607f821691505b6020821081036105c757634e487b7160e01b600052602260045260246000fd5b50919050565b601f82111561061757600081815260208120601f850160051c810160208610156105f45750805b601f850160051c820191505b8181101561061357828155600101610600565b5050505b505050565b815167ffffffffffffffff811115610636576106366103fa565b61064a816106448454610593565b846105cd565b602080601f83116001811461067f57600084156106675750858301515b600019600386901b1c1916600185901b178555610613565b600085815260208120601f198616915b828110156106ae5788860151825594840194600190910190840161068f565b50858210156106cc5787850151600019600388901b60f8161c191681555b5050505050600190811b0190555056fea26469706673582212205b16247aa9b4f62883dfe19c0a7151464de23d0b49abc3a30c7d6005f7dd6a7164736f6c63430008110033","opcodes":"PUSH1 0x80 PUSH1 0x40 MSTORE CALLVALUE DUP1 ISZERO PUSH2 0x10 JUMPI PUSH1 0x0 DUP1 REVERT JUMPDEST POP PUSH2 0x712 DUP1 PUSH2 0x20 PUSH1 0x0 CODECOPY PUSH1 0x0 RETURN INVALID PUSH1 0x80 PUSH1 0x40 MSTORE CALLVALUE DUP1 ISZERO PUSH2 0x10 JUMPI PUSH1 0x0 DUP1 REVERT JUMPDEST POP PUSH1 0x4 CALLDATASIZE LT PUSH2 0x36 JUMPI PUSH1 0x0 CALLDATALOAD PUSH1 0xE0 SHR DUP1 PUSH4 0xB2B45DF5 EQ PUSH2 0x3B JUMPI DUP1 PUSH4 0xF94A6FD1 EQ PUSH2 0x50 JUMPI JUMPDEST PUSH1 0x0 DUP1 REVERT JUMPDEST PUSH2 0x4E PUSH2 0x49 CALLDATASIZE PUSH1 0x4 PUSH2 0x49D JUMP JUMPDEST PUSH2 0x73 JUMP JUMPDEST STOP JUMPDEST PUSH2 0x58 PUSH2 0x2E4 JUMP JUMPDEST PUSH1 0x40 DUP1 MLOAD SWAP3 ISZERO ISZERO DUP4 MSTORE SWAP1 ISZERO ISZERO PUSH1 0x20 DUP4 ADD MSTORE ADD PUSH1 0x40 MLOAD DUP1 SWAP2 SUB SWAP1 RETURN JUMPDEST PUSH1 0x0 SLOAD PUSH2 0x100 SWAP1 DIV PUSH1 0xFF AND ISZERO DUP1 DUP1 ISZERO PUSH2 0x93 JUMPI POP PUSH1 0x0 SLOAD PUSH1 0x1 PUSH1 0xFF SWAP1 SWAP2 AND LT JUMPDEST DUP1 PUSH2 0xAD JUMPI POP ADDRESS EXTCODESIZE ISZERO DUP1 ISZERO PUSH2 0xAD JUMPI POP PUSH1 0x0 SLOAD PUSH1 0xFF AND PUSH1 0x1 EQ JUMPDEST PUSH2 0x115 JUMPI PUSH1 0x40 MLOAD PUSH3 0x461BCD PUSH1 0xE5 SHL DUP2 MSTORE PUSH1 0x20 PUSH1 0x4 DUP3 ADD MSTORE PUSH1 0x2E PUSH1 0x24 DUP3 ADD MSTORE PUSH32 0x496E697469616C697A61626C653A20636F6E747261637420697320616C726561 PUSH1 0x44 DUP3 ADD MSTORE PUSH14 0x191E481A5B9A5D1A585B1A5E9959 PUSH1 0x92 SHL PUSH1 0x64 DUP3 ADD MSTORE PUSH1 0x84 ADD JUMPDEST PUSH1 0x40 MLOAD DUP1 SWAP2 SUB SWAP1 REVERT JUMPDEST PUSH1 0x0 DUP1 SLOAD PUSH1 0xFF NOT AND PUSH1 0x1 OR SWAP1 SSTORE DUP1 ISZERO PUSH2 0x138 JUMPI PUSH1 0x0 DUP1 SLOAD PUSH2 0xFF00 NOT AND PUSH2 0x100 OR SWAP1 SSTORE JUMPDEST PUSH1 0x1 PUSH1 0x1 PUSH1 0xA0 SHL SUB DUP5 AND PUSH2 0x1A0 JUMPI PUSH1 0x40 MLOAD PUSH3 0x461BCD PUSH1 0xE5 SHL DUP2 MSTORE PUSH1 0x20 PUSH1 0x4 DUP3 ADD MSTORE PUSH1 0x29 PUSH1 0x24 DUP3 ADD MSTORE PUSH32 0x496E69744469616D6F6E643A206F776E65722063616E6E6F74206265207A6572 PUSH1 0x44 DUP3 ADD MSTORE PUSH9 0x6F2061646472657373 PUSH1 0xB8 SHL PUSH1 0x64 DUP3 ADD MSTORE PUSH1 0x84 ADD PUSH2 0x10C JUMP JUMPDEST PUSH32 0xFCB11FFF5651CAF53EAF1124D25315389F7B0CEFFD704A5E999A2FFC7764FD5 DUP1 SLOAD PUSH1 0x1 PUSH1 0x1 PUSH1 0xA0 SHL SUB NOT AND PUSH1 0x1 PUSH1 0x1 PUSH1 0xA0 SHL SUB DUP7 AND OR SWAP1 SSTORE PUSH2 0x1E4 DUP4 DUP4 PUSH2 0x34E JUMP JUMPDEST PUSH2 0x255 PUSH1 0x0 PUSH32 0x3F58A8938BEC95C6A1ED44E042C3C2E2B9C1EB2B83644B148EFDE1F9DD7788D4 DUP2 SWAP1 SSTORE PUSH32 0x3F58A8938BEC95C6A1ED44E042C3C2E2B9C1EB2B83644B148EFDE1F9DD7788D5 DUP2 SWAP1 SSTORE PUSH32 0x3F58A8938BEC95C6A1ED44E042C3C2E2B9C1EB2B83644B148EFDE1F9DD7788D6 SSTORE JUMP JUMPDEST DUP4 PUSH1 0x1 PUSH1 0x1 PUSH1 0xA0 SHL SUB AND PUSH32 0x33B0890AEAD116059E09FC2986D80E5E5205C857686B538BC5B4962F1F38044C DUP5 DUP5 PUSH1 0x40 MLOAD PUSH2 0x290 SWAP3 SWAP2 SWAP1 PUSH2 0x565 JUMP JUMPDEST PUSH1 0x40 MLOAD DUP1 SWAP2 SUB SWAP1 LOG2 DUP1 ISZERO PUSH2 0x2DE JUMPI PUSH1 0x0 DUP1 SLOAD PUSH2 0xFF00 NOT AND SWAP1 SSTORE PUSH1 0x40 MLOAD PUSH1 0x1 DUP2 MSTORE PUSH32 0x7F26B83FF96E1F2B6A682F133852F6798A09C465DA95921460CEFB3847402498 SWAP1 PUSH1 0x20 ADD PUSH1 0x40 MLOAD DUP1 SWAP2 SUB SWAP1 LOG1 JUMPDEST POP POP POP POP JUMP JUMPDEST PUSH32 0xFCB11FFF5651CAF53EAF1124D25315389F7B0CEFFD704A5E999A2FFC7764FD5 SLOAD PUSH32 0x736CE0C14097C43F46534906DFA4C53DC3D50CED9D4CA89FAFA7EC003CFB4437 DUP1 SLOAD PUSH1 0x1 PUSH1 0x1 PUSH1 0xA0 SHL SUB SWAP1 SWAP3 AND ISZERO ISZERO SWAP2 PUSH1 0x0 SWAP2 DUP3 SWAP2 PUSH2 0x345 SWAP1 PUSH2 0x593 JUMP JUMPDEST SWAP1 POP GT SWAP1 POP SWAP1 SWAP2 JUMP JUMPDEST PUSH32 0x736CE0C14097C43F46534906DFA4C53DC3D50CED9D4CA89FAFA7EC003CFB4437 PUSH2 0x379 DUP4 DUP3 PUSH2 0x61C JUMP JUMPDEST POP PUSH32 0x736CE0C14097C43F46534906DFA4C53DC3D50CED9D4CA89FAFA7EC003CFB4438 PUSH2 0x3A5 DUP3 DUP3 PUSH2 0x61C JUMP JUMPDEST POP POP PUSH32 0x736CE0C14097C43F46534906DFA4C53DC3D50CED9D4CA89FAFA7EC003CFB4439 DUP1 SLOAD PUSH1 0xFF NOT AND PUSH1 0x12 OR SWAP1 SSTORE POP PUSH1 0x0 PUSH32 0x736CE0C14097C43F46534906DFA4C53DC3D50CED9D4CA89FAFA7EC003CFB4436 SSTORE JUMP JUMPDEST PUSH4 0x4E487B71 PUSH1 0xE0 SHL PUSH1 0x0 MSTORE PUSH1 0x41 PUSH1 0x4 MSTORE PUSH1 0x24 PUSH1 0x0 REVERT JUMPDEST PUSH1 0x0 DUP3 PUSH1 0x1F DUP4 ADD SLT PUSH2 0x421 JUMPI PUSH1 0x0 DUP1 REVERT JUMPDEST DUP2 CALLDATALOAD PUSH8 0xFFFFFFFFFFFFFFFF DUP1 DUP3 GT ISZERO PUSH2 0x43C JUMPI PUSH2 0x43C PUSH2 0x3FA JUMP JUMPDEST PUSH1 0x40 MLOAD PUSH1 0x1F DUP4 ADD PUSH1 0x1F NOT SWAP1 DUP2 AND PUSH1 0x3F ADD AND DUP2 ADD SWAP1 DUP3 DUP3 GT DUP2 DUP4 LT OR ISZERO PUSH2 0x464 JUMPI PUSH2 0x464 PUSH2 0x3FA JUMP JUMPDEST DUP2 PUSH1 0x40 MSTORE DUP4 DUP2 MSTORE DUP7 PUSH1 0x20 DUP6 DUP9 ADD ADD GT ISZERO PUSH2 0x47D JUMPI PUSH1 0x0 DUP1 REVERT JUMPDEST DUP4 PUSH1 0x20 DUP8 ADD PUSH1 0x20 DUP4 ADD CALLDATACOPY PUSH1 0x0 PUSH1 0x20 DUP6 DUP4 ADD ADD MSTORE DUP1 SWAP5 POP POP POP POP POP SWAP3 SWAP2 POP POP JUMP JUMPDEST PUSH1 0x0 DUP1 PUSH1 0x0 PUSH1 0x60 DUP5 DUP7 SUB SLT ISZERO PUSH2 0x4B2 JUMPI PUSH1 0x0 DUP1 REVERT JUMPDEST DUP4 CALLDATALOAD PUSH1 0x1 PUSH1 0x1 PUSH1 0xA0 SHL SUB DUP2 AND DUP2 EQ PUSH2 0x4C9 JUMPI PUSH1 0x0 DUP1 REVERT JUMPDEST SWAP3 POP PUSH1 0x20 DUP5 ADD CALLDATALOAD PUSH8 0xFFFFFFFFFFFFFFFF DUP1 DUP3 GT ISZERO PUSH2 0x4E6 JUMPI PUSH1 0x0 DUP1 REVERT JUMPDEST PUSH2 0x4F2 DUP8 DUP4 DUP9 ADD PUSH2 0x410 JUMP JUMPDEST SWAP4 POP PUSH1 0x40 DUP7 ADD CALLDATALOAD SWAP2 POP DUP1 DUP3 GT ISZERO PUSH2 0x508 JUMPI PUSH1 0x0 DUP1 REVERT JUMPDEST POP PUSH2 0x515 DUP7 DUP3 DUP8 ADD PUSH2 0x410 JUMP JUMPDEST SWAP2 POP POP SWAP3 POP SWAP3 POP SWAP3 JUMP JUMPDEST PUSH1 0x0 DUP2 MLOAD DUP1 DUP5 MSTORE PUSH1 0x0 JUMPDEST DUP2 DUP2 LT ISZERO PUSH2 0x545 JUMPI PUSH1 0x20 DUP2 DUP6 ADD DUP2 ADD MLOAD DUP7 DUP4 ADD DUP3 ADD MSTORE ADD PUSH2 0x529 JUMP JUMPDEST POP PUSH1 0x0 PUSH1 0x20 DUP3 DUP7 ADD ADD MSTORE PUSH1 0x20 PUSH1 0x1F NOT PUSH1 0x1F DUP4 ADD AND DUP6 ADD ADD SWAP2 POP POP SWAP3 SWAP2 POP POP JUMP JUMPDEST PUSH1 0x40 DUP2 MSTORE PUSH1 0x0 PUSH2 0x578 PUSH1 0x40 DUP4 ADD DUP6 PUSH2 0x51F JUMP JUMPDEST DUP3 DUP2 SUB PUSH1 0x20 DUP5 ADD MSTORE PUSH2 0x58A DUP2 DUP6 PUSH2 0x51F JUMP JUMPDEST SWAP6 SWAP5 POP POP POP POP POP JUMP JUMPDEST PUSH1 0x1 DUP2 DUP2 SHR SWAP1 DUP3 AND DUP1 PUSH2 0x5A7 JUMPI PUSH1 0x7F DUP3 AND SWAP2 POP JUMPDEST PUSH1 0x20 DUP3 LT DUP2 SUB PUSH2 0x5C7 JUMPI PUSH4 0x4E487B71 PUSH1 0xE0 SHL PUSH1 0x0 MSTORE PUSH1 0x22 PUSH1 0x4 MSTORE PUSH1 0x24 PUSH1 0x0 REVERT JUMPDEST POP SWAP2 SWAP1 POP JUMP JUMPDEST PUSH1 0x1F DUP3 GT ISZERO PUSH2 0x617 JUMPI PUSH1 0x0 DUP2 DUP2 MSTORE PUSH1 0x20 DUP2 KECCAK256 PUSH1 0x1F DUP6 ADD PUSH1 0x5 SHR DUP2 ADD PUSH1 0x20 DUP7 LT ISZERO PUSH2 0x5F4 JUMPI POP DUP1 JUMPDEST PUSH1 0x1F DUP6 ADD PUSH1 0x5 SHR DUP3 ADD SWAP2 POP JUMPDEST DUP2 DUP2 LT ISZERO PUSH2 0x613 JUMPI DUP3 DUP2 SSTORE PUSH1 0x1 ADD PUSH2 0x600 JUMP JUMPDEST POP POP POP JUMPDEST POP POP POP JUMP JUMPDEST DUP2 MLOAD PUSH8 0xFFFFFFFFFFFFFFFF DUP2 GT ISZERO PUSH2 0x636 JUMPI PUSH2 0x636 PUSH2 0x3FA JUMP JUMPDEST PUSH2 0x64A DUP2 PUSH2 0x644 DUP5 SLOAD PUSH2 0x593 JUMP JUMPDEST DUP5 PUSH2 0x5CD JUMP JUMPDEST PUSH1 0x20 DUP1 PUSH1 0x1F DUP4 GT PUSH1 0x1 DUP2 EQ PUSH2 0x67F JUMPI PUSH1 0x0 DUP5 ISZERO PUSH2 0x667 JUMPI POP DUP6 DUP4 ADD MLOAD JUMPDEST PUSH1 0x0 NOT PUSH1 0x3 DUP7 SWAP1 SHL SHR NOT AND PUSH1 0x1 DUP6 SWAP1 SHL OR DUP6 SSTORE PUSH2 0x613 JUMP JUMPDEST PUSH1 0x0 DUP6 DUP2 MSTORE PUSH1 0x20 DUP2 KECCAK256 PUSH1 0x1F NOT DUP7 AND SWAP2 JUMPDEST DUP3 DUP2 LT ISZERO PUSH2 0x6AE JUMPI DUP9 DUP7 ADD MLOAD DUP3 SSTORE SWAP5 DUP5 ADD SWAP5 PUSH1 0x1 SWAP1 SWAP2 ADD SWAP1 DUP5 ADD PUSH2 0x68F JUMP JUMPDEST POP DUP6 DUP3 LT ISZERO PUSH2 0x6CC JUMPI DUP8 DUP6 ADD MLOAD PUSH1 0x0 NOT PUSH1 0x3 DUP9 SWAP1 SHL PUSH1 0xF8 AND SHR NOT AND DUP2 SSTORE JUMPDEST POP POP POP POP POP PUSH1 0x1 SWAP1 DUP2 SHL ADD SWAP1 SSTORE POP JUMP INVALID LOG2 PUSH5 0x6970667358 0x22 SLT KECCAK256 JUMPDEST AND 0x24 PUSH27 0xA9B4F62883DFE19C0A7151464DE23D0B49ABC3A30C7D6005F7DD6A PUSH18 0x64736F6C6343000811003300000000000000 "},"methodIdentifiers":{"getInitializationStatus()":"f94a6fd1","init(address,string,string)":"b2b45df5"}},"storageLayout":{"storage":[{"astId":335,"contract":"contracts/InitDiamond.sol:InitDiamond","label":"_initialized","offset":0,"slot":"0","type":"t_uint8"},{"astId":338,"contract":"contracts/InitDiamond.sol:InitDiamond","label":"_initializing","offset":1,"slot":"0","type":"t_bool"}],"types":{"t_bool":{"encoding":"inplace","label":"bool","numberOfBytes":"1"},"t_uint8":{"encoding":"inplace","label":"uint8","numberOfBytes":"1"}}}}}}