{"contracts/faces/ComplianceFacet.sol":{"ComplianceFacet":{"abi":[{"anonymous":false,"inputs":[{"indexed":false,"internalType":"uint256","name":"max","type":"uint256"}],"name":"MaxBalanceSet","type":"event"},{"anonymous":false,"inputs":[{"indexed":false,"internalType":"uint256","name":"max","type":"uint256"}],"name":"MaxInvestorsSet","type":"event"},{"anonymous":false,"inputs":[{"indexed":false,"internalType":"uint256","name":"min","type":"uint256"}],"name":"MinBalanceSet","type":"event"},{"inputs":[{"internalType":"address","name":"from","type":"address"},{"internalType":"address","name":"to","type":"address"},{"internalType":"uint256","name":"amount","type":"uint256"}],"name":"canTransfer","outputs":[{"internalType":"bool","name":"","type":"bool"}],"stateMutability":"view","type":"function"},{"inputs":[],"name":"complianceRules","outputs":[{"internalType":"uint256","name":"maxBalance","type":"uint256"},{"internalType":"uint256","name":"minBalance","type":"uint256"},{"internalType":"uint256","name":"maxInvestors","type":"uint256"}],"stateMutability":"view","type":"function"},{"inputs":[{"internalType":"uint256","name":"max","type":"uint256"}],"name":"setMaxBalance","outputs":[],"stateMutability":"nonpayable","type":"function"},{"inputs":[{"internalType":"uint256","name":"max","type":"uint256"}],"name":"setMaxInvestors","outputs":[],"stateMutability":"nonpayable","type":"function"},{"inputs":[{"internalType":"uint256","name":"min","type":"uint256"}],"name":"setMinBalance","outputs":[],"stateMutability":"nonpayable","type":"function"}],"evm":{"bytecode":{"linkReferences":{},"object":"608060405234801561001057600080fd5b5061061b806100206000396000f3fe608060405234801561001057600080fd5b50600436106100575760003560e01c806335e896c11461005c5780636ec58d13146100715780639d51d9b7146100f7578063c91d956c1461010a578063e46638e61461011d575b600080fd5b61006f61006a3660046104d3565b610140565b005b7fc2b69da5e7be41c6eaba0bfa82e0e1fef8d4512d663aa63c99ede9dd1d17b016547fc2b69da5e7be41c6eaba0bfa82e0e1fef8d4512d663aa63c99ede9dd1d17b017547fc2b69da5e7be41c6eaba0bfa82e0e1fef8d4512d663aa63c99ede9dd1d17b01854604080519384526020840192909252908201526060015b60405180910390f35b61006f6101053660046104d3565b6101de565b61006f6101183660046104d3565b61026c565b61013061012b366004610508565b6102fa565b60405190151581526020016100ee565b6000805160206105c6833981519152600a01546001600160a01b031633146101835760405162461bcd60e51b815260040161017a90610544565b60405180910390fd5b7fc2b69da5e7be41c6eaba0bfa82e0e1fef8d4512d663aa63c99ede9dd1d17b0188190556040518181527f0de3b656191db95f0ae3b33d959531021110a9da5b819655d9d13a57496144ad906020015b60405180910390a150565b6000805160206105c6833981519152600a01546001600160a01b031633146102185760405162461bcd60e51b815260040161017a90610544565b7fc2b69da5e7be41c6eaba0bfa82e0e1fef8d4512d663aa63c99ede9dd1d17b0168190556040518181527f82f9980487703d8db41f1ba63b2665566f7fb449fbc840a9e0c6ca932bed582c906020016101d3565b6000805160206105c6833981519152600a01546001600160a01b031633146102a65760405162461bcd60e51b815260040161017a90610544565b7fc2b69da5e7be41c6eaba0bfa82e0e1fef8d4512d663aa63c99ede9dd1d17b0178190556040518181527fc9ac0b9c6116d44b14ac8198e0802802d07cf6956054e7542f0460a4d3423b3a906020016101d3565b6001600160a01b03831660009081526000805160206105c683398151915260208190526040822054600160b01b900460ff168061035657506001600160a01b038416600090815260208290526040902054600160b01b900460ff165b156103655760009150506104cc565b6001600160a01b038481166000908152602083905260409020541661038e5760009150506104cc565b6001600160a01b03841660009081526001820160205260408120546103b490859061057d565b6007830154909150158015906103cd5750600782015481115b156103dd576000925050506104cc565b6008820154158015906103f35750600882015481105b15610403576000925050506104cc565b60098201541580159061042e57506001600160a01b0385166000908152600183016020526040902054155b156104c5576000805b600f8401548110156104ab57600084600101600086600f01848154811061046057610460610596565b60009182526020808320909101546001600160a01b0316835282019290925260400190205411156104995781610495816105ac565b9250505b806104a3816105ac565b915050610437565b50600983015481106104c357600093505050506104cc565b505b6001925050505b9392505050565b6000602082840312156104e557600080fd5b5035919050565b80356001600160a01b038116811461050357600080fd5b919050565b60008060006060848603121561051d57600080fd5b610526846104ec565b9250610534602085016104ec565b9150604084013590509250925092565b6020808252600990820152682737ba1037bbb732b960b91b604082015260600190565b634e487b7160e01b600052601160045260246000fd5b8082018082111561059057610590610567565b92915050565b634e487b7160e01b600052603260045260246000fd5b6000600182016105be576105be610567565b506001019056fec2b69da5e7be41c6eaba0bfa82e0e1fef8d4512d663aa63c99ede9dd1d17b00fa26469706673582212205bdd489f14262fc6ac9583e47613c27838063af98939f9e5301002c7a81afaed64736f6c63430008110033","opcodes":"PUSH1 0x80 PUSH1 0x40 MSTORE CALLVALUE DUP1 ISZERO PUSH2 0x10 JUMPI PUSH1 0x0 DUP1 REVERT JUMPDEST POP PUSH2 0x61B DUP1 PUSH2 0x20 PUSH1 0x0 CODECOPY PUSH1 0x0 RETURN INVALID PUSH1 0x80 PUSH1 0x40 MSTORE CALLVALUE DUP1 ISZERO PUSH2 0x10 JUMPI PUSH1 0x0 DUP1 REVERT JUMPDEST POP PUSH1 0x4 CALLDATASIZE LT PUSH2 0x57 JUMPI PUSH1 0x0 CALLDATALOAD PUSH1 0xE0 SHR DUP1 PUSH4 0x35E896C1 EQ PUSH2 0x5C JUMPI DUP1 PUSH4 0x6EC58D13 EQ PUSH2 0x71 JUMPI DUP1 PUSH4 0x9D51D9B7 EQ PUSH2 0xF7 JUMPI DUP1 PUSH4 0xC91D956C EQ PUSH2 0x10A JUMPI DUP1 PUSH4 0xE46638E6 EQ PUSH2 0x11D JUMPI JUMPDEST PUSH1 0x0 DUP1 REVERT JUMPDEST PUSH2 0x6F PUSH2 0x6A CALLDATASIZE PUSH1 0x4 PUSH2 0x4D3 JUMP JUMPDEST PUSH2 0x140 JUMP JUMPDEST STOP JUMPDEST PUSH32 0xC2B69DA5E7BE41C6EABA0BFA82E0E1FEF8D4512D663AA63C99EDE9DD1D17B016 SLOAD PUSH32 0xC2B69DA5E7BE41C6EABA0BFA82E0E1FEF8D4512D663AA63C99EDE9DD1D17B017 SLOAD PUSH32 0xC2B69DA5E7BE41C6EABA0BFA82E0E1FEF8D4512D663AA63C99EDE9DD1D17B018 SLOAD PUSH1 0x40 DUP1 MLOAD SWAP4 DUP5 MSTORE PUSH1 0x20 DUP5 ADD SWAP3 SWAP1 SWAP3 MSTORE SWAP1 DUP3 ADD MSTORE PUSH1 0x60 ADD JUMPDEST PUSH1 0x40 MLOAD DUP1 SWAP2 SUB SWAP1 RETURN JUMPDEST PUSH2 0x6F PUSH2 0x105 CALLDATASIZE PUSH1 0x4 PUSH2 0x4D3 JUMP JUMPDEST PUSH2 0x1DE JUMP JUMPDEST PUSH2 0x6F PUSH2 0x118 CALLDATASIZE PUSH1 0x4 PUSH2 0x4D3 JUMP JUMPDEST PUSH2 0x26C JUMP JUMPDEST PUSH2 0x130 PUSH2 0x12B CALLDATASIZE PUSH1 0x4 PUSH2 0x508 JUMP JUMPDEST PUSH2 0x2FA JUMP JUMPDEST PUSH1 0x40 MLOAD SWAP1 ISZERO ISZERO DUP2 MSTORE PUSH1 0x20 ADD PUSH2 0xEE JUMP JUMPDEST PUSH1 0x0 DUP1 MLOAD PUSH1 0x20 PUSH2 0x5C6 DUP4 CODECOPY DUP2 MLOAD SWAP2 MSTORE PUSH1 0xA ADD SLOAD PUSH1 0x1 PUSH1 0x1 PUSH1 0xA0 SHL SUB AND CALLER EQ PUSH2 0x183 JUMPI PUSH1 0x40 MLOAD PUSH3 0x461BCD PUSH1 0xE5 SHL DUP2 MSTORE PUSH1 0x4 ADD PUSH2 0x17A SWAP1 PUSH2 0x544 JUMP JUMPDEST PUSH1 0x40 MLOAD DUP1 SWAP2 SUB SWAP1 REVERT JUMPDEST PUSH32 0xC2B69DA5E7BE41C6EABA0BFA82E0E1FEF8D4512D663AA63C99EDE9DD1D17B018 DUP2 SWAP1 SSTORE PUSH1 0x40 MLOAD DUP2 DUP2 MSTORE PUSH32 0xDE3B656191DB95F0AE3B33D959531021110A9DA5B819655D9D13A57496144AD SWAP1 PUSH1 0x20 ADD JUMPDEST PUSH1 0x40 MLOAD DUP1 SWAP2 SUB SWAP1 LOG1 POP JUMP JUMPDEST PUSH1 0x0 DUP1 MLOAD PUSH1 0x20 PUSH2 0x5C6 DUP4 CODECOPY DUP2 MLOAD SWAP2 MSTORE PUSH1 0xA ADD SLOAD PUSH1 0x1 PUSH1 0x1 PUSH1 0xA0 SHL SUB AND CALLER EQ PUSH2 0x218 JUMPI PUSH1 0x40 MLOAD PUSH3 0x461BCD PUSH1 0xE5 SHL DUP2 MSTORE PUSH1 0x4 ADD PUSH2 0x17A SWAP1 PUSH2 0x544 JUMP JUMPDEST PUSH32 0xC2B69DA5E7BE41C6EABA0BFA82E0E1FEF8D4512D663AA63C99EDE9DD1D17B016 DUP2 SWAP1 SSTORE PUSH1 0x40 MLOAD DUP2 DUP2 MSTORE PUSH32 0x82F9980487703D8DB41F1BA63B2665566F7FB449FBC840A9E0C6CA932BED582C SWAP1 PUSH1 0x20 ADD PUSH2 0x1D3 JUMP JUMPDEST PUSH1 0x0 DUP1 MLOAD PUSH1 0x20 PUSH2 0x5C6 DUP4 CODECOPY DUP2 MLOAD SWAP2 MSTORE PUSH1 0xA ADD SLOAD PUSH1 0x1 PUSH1 0x1 PUSH1 0xA0 SHL SUB AND CALLER EQ PUSH2 0x2A6 JUMPI PUSH1 0x40 MLOAD PUSH3 0x461BCD PUSH1 0xE5 SHL DUP2 MSTORE PUSH1 0x4 ADD PUSH2 0x17A SWAP1 PUSH2 0x544 JUMP JUMPDEST PUSH32 0xC2B69DA5E7BE41C6EABA0BFA82E0E1FEF8D4512D663AA63C99EDE9DD1D17B017 DUP2 SWAP1 SSTORE PUSH1 0x40 MLOAD DUP2 DUP2 MSTORE PUSH32 0xC9AC0B9C6116D44B14AC8198E0802802D07CF6956054E7542F0460A4D3423B3A SWAP1 PUSH1 0x20 ADD PUSH2 0x1D3 JUMP JUMPDEST PUSH1 0x1 PUSH1 0x1 PUSH1 0xA0 SHL SUB DUP4 AND PUSH1 0x0 SWAP1 DUP2 MSTORE PUSH1 0x0 DUP1 MLOAD PUSH1 0x20 PUSH2 0x5C6 DUP4 CODECOPY DUP2 MLOAD SWAP2 MSTORE PUSH1 0x20 DUP2 SWAP1 MSTORE PUSH1 0x40 DUP3 KECCAK256 SLOAD PUSH1 0x1 PUSH1 0xB0 SHL SWAP1 DIV PUSH1 0xFF AND DUP1 PUSH2 0x356 JUMPI POP PUSH1 0x1 PUSH1 0x1 PUSH1 0xA0 SHL SUB DUP5 AND PUSH1 0x0 SWAP1 DUP2 MSTORE PUSH1 0x20 DUP3 SWAP1 MSTORE PUSH1 0x40 SWAP1 KECCAK256 SLOAD PUSH1 0x1 PUSH1 0xB0 SHL SWAP1 DIV PUSH1 0xFF AND JUMPDEST ISZERO PUSH2 0x365 JUMPI PUSH1 0x0 SWAP2 POP POP PUSH2 0x4CC JUMP JUMPDEST PUSH1 0x1 PUSH1 0x1 PUSH1 0xA0 SHL SUB DUP5 DUP2 AND PUSH1 0x0 SWAP1 DUP2 MSTORE PUSH1 0x20 DUP4 SWAP1 MSTORE PUSH1 0x40 SWAP1 KECCAK256 SLOAD AND PUSH2 0x38E JUMPI PUSH1 0x0 SWAP2 POP POP PUSH2 0x4CC JUMP JUMPDEST PUSH1 0x1 PUSH1 0x1 PUSH1 0xA0 SHL SUB DUP5 AND PUSH1 0x0 SWAP1 DUP2 MSTORE PUSH1 0x1 DUP3 ADD PUSH1 0x20 MSTORE PUSH1 0x40 DUP2 KECCAK256 SLOAD PUSH2 0x3B4 SWAP1 DUP6 SWAP1 PUSH2 0x57D JUMP JUMPDEST PUSH1 0x7 DUP4 ADD SLOAD SWAP1 SWAP2 POP ISZERO DUP1 ISZERO SWAP1 PUSH2 0x3CD JUMPI POP PUSH1 0x7 DUP3 ADD SLOAD DUP2 GT JUMPDEST ISZERO PUSH2 0x3DD JUMPI PUSH1 0x0 SWAP3 POP POP POP PUSH2 0x4CC JUMP JUMPDEST PUSH1 0x8 DUP3 ADD SLOAD ISZERO DUP1 ISZERO SWAP1 PUSH2 0x3F3 JUMPI POP PUSH1 0x8 DUP3 ADD SLOAD DUP2 LT JUMPDEST ISZERO PUSH2 0x403 JUMPI PUSH1 0x0 SWAP3 POP POP POP PUSH2 0x4CC JUMP JUMPDEST PUSH1 0x9 DUP3 ADD SLOAD ISZERO DUP1 ISZERO SWAP1 PUSH2 0x42E JUMPI POP PUSH1 0x1 PUSH1 0x1 PUSH1 0xA0 SHL SUB DUP6 AND PUSH1 0x0 SWAP1 DUP2 MSTORE PUSH1 0x1 DUP4 ADD PUSH1 0x20 MSTORE PUSH1 0x40 SWAP1 KECCAK256 SLOAD ISZERO JUMPDEST ISZERO PUSH2 0x4C5 JUMPI PUSH1 0x0 DUP1 JUMPDEST PUSH1 0xF DUP5 ADD SLOAD DUP2 LT ISZERO PUSH2 0x4AB JUMPI PUSH1 0x0 DUP5 PUSH1 0x1 ADD PUSH1 0x0 DUP7 PUSH1 0xF ADD DUP5 DUP2 SLOAD DUP2 LT PUSH2 0x460 JUMPI PUSH2 0x460 PUSH2 0x596 JUMP JUMPDEST PUSH1 0x0 SWAP2 DUP3 MSTORE PUSH1 0x20 DUP1 DUP4 KECCAK256 SWAP1 SWAP2 ADD SLOAD PUSH1 0x1 PUSH1 0x1 PUSH1 0xA0 SHL SUB AND DUP4 MSTORE DUP3 ADD SWAP3 SWAP1 SWAP3 MSTORE PUSH1 0x40 ADD SWAP1 KECCAK256 SLOAD GT ISZERO PUSH2 0x499 JUMPI DUP2 PUSH2 0x495 DUP2 PUSH2 0x5AC JUMP JUMPDEST SWAP3 POP POP JUMPDEST DUP1 PUSH2 0x4A3 DUP2 PUSH2 0x5AC JUMP JUMPDEST SWAP2 POP POP PUSH2 0x437 JUMP JUMPDEST POP PUSH1 0x9 DUP4 ADD SLOAD DUP2 LT PUSH2 0x4C3 JUMPI PUSH1 0x0 SWAP4 POP POP POP POP PUSH2 0x4CC JUMP JUMPDEST POP JUMPDEST PUSH1 0x1 SWAP3 POP POP POP JUMPDEST SWAP4 SWAP3 POP POP POP JUMP JUMPDEST PUSH1 0x0 PUSH1 0x20 DUP3 DUP5 SUB SLT ISZERO PUSH2 0x4E5 JUMPI PUSH1 0x0 DUP1 REVERT JUMPDEST POP CALLDATALOAD SWAP2 SWAP1 POP JUMP JUMPDEST DUP1 CALLDATALOAD PUSH1 0x1 PUSH1 0x1 PUSH1 0xA0 SHL SUB DUP2 AND DUP2 EQ PUSH2 0x503 JUMPI PUSH1 0x0 DUP1 REVERT JUMPDEST SWAP2 SWAP1 POP JUMP JUMPDEST PUSH1 0x0 DUP1 PUSH1 0x0 PUSH1 0x60 DUP5 DUP7 SUB SLT ISZERO PUSH2 0x51D JUMPI PUSH1 0x0 DUP1 REVERT JUMPDEST PUSH2 0x526 DUP5 PUSH2 0x4EC JUMP JUMPDEST SWAP3 POP PUSH2 0x534 PUSH1 0x20 DUP6 ADD PUSH2 0x4EC JUMP JUMPDEST SWAP2 POP PUSH1 0x40 DUP5 ADD CALLDATALOAD SWAP1 POP SWAP3 POP SWAP3 POP SWAP3 JUMP JUMPDEST PUSH1 0x20 DUP1 DUP3 MSTORE PUSH1 0x9 SWAP1 DUP3 ADD MSTORE PUSH9 0x2737BA1037BBB732B9 PUSH1 0xB9 SHL PUSH1 0x40 DUP3 ADD MSTORE PUSH1 0x60 ADD SWAP1 JUMP JUMPDEST PUSH4 0x4E487B71 PUSH1 0xE0 SHL PUSH1 0x0 MSTORE PUSH1 0x11 PUSH1 0x4 MSTORE PUSH1 0x24 PUSH1 0x0 REVERT JUMPDEST DUP1 DUP3 ADD DUP1 DUP3 GT ISZERO PUSH2 0x590 JUMPI PUSH2 0x590 PUSH2 0x567 JUMP JUMPDEST SWAP3 SWAP2 POP POP JUMP JUMPDEST PUSH4 0x4E487B71 PUSH1 0xE0 SHL PUSH1 0x0 MSTORE PUSH1 0x32 PUSH1 0x4 MSTORE PUSH1 0x24 PUSH1 0x0 REVERT JUMPDEST PUSH1 0x0 PUSH1 0x1 DUP3 ADD PUSH2 0x5BE JUMPI PUSH2 0x5BE PUSH2 0x567 JUMP JUMPDEST POP PUSH1 0x1 ADD SWAP1 JUMP INVALID 0xC2 0xB6 SWAP14 0xA5 0xE7 0xBE COINBASE 0xC6 0xEA 0xBA SIGNEXTEND STATICCALL DUP3 0xE0 0xE1 INVALID 0xF8 0xD4 MLOAD 0x2D PUSH7 0x3AA63C99EDE9DD SAR OR 0xB0 0xF LOG2 PUSH5 0x6970667358 0x22 SLT KECCAK256 JUMPDEST 0xDD BASEFEE SWAP16 EQ 0x26 0x2F 0xC6 0xAC SWAP6 DUP4 0xE4 PUSH23 0x13C27838063AF98939F9E5301002C7A81AFAED64736F6C PUSH4 0x43000811 STOP CALLER "},"methodIdentifiers":{"canTransfer(address,address,uint256)":"e46638e6","complianceRules()":"6ec58d13","setMaxBalance(uint256)":"9d51d9b7","setMaxInvestors(uint256)":"35e896c1","setMinBalance(uint256)":"c91d956c"}},"storageLayout":{"storage":[],"types":null}}}}