{"contracts/facets/TrustedIssuersFacetExternal.sol":{"TrustedIssuersFacetExternal":{"abi":[{"anonymous":false,"inputs":[{"indexed":true,"internalType":"address","name":"issuer","type":"address"},{"indexed":false,"internalType":"uint256[]","name":"claimTopics","type":"uint256[]"}],"name":"TrustedIssuerAdded","type":"event"},{"anonymous":false,"inputs":[{"indexed":true,"internalType":"address","name":"issuer","type":"address"}],"name":"TrustedIssuerRemoved","type":"event"},{"inputs":[{"internalType":"address","name":"issuer","type":"address"},{"internalType":"uint256[]","name":"topics","type":"uint256[]"}],"name":"addTrustedIssuer","outputs":[],"stateMutability":"nonpayable","type":"function"},{"inputs":[{"internalType":"uint256","name":"topic","type":"uint256"}],"name":"getTrustedIssuers","outputs":[{"internalType":"address[]","name":"","type":"address[]"}],"stateMutability":"view","type":"function"},{"inputs":[{"internalType":"address","name":"issuer","type":"address"},{"internalType":"uint256","name":"topic","type":"uint256"}],"name":"removeTrustedIssuer","outputs":[],"stateMutability":"nonpayable","type":"function"},{"inputs":[],"name":"selectorsIntrospection","outputs":[{"internalType":"bytes4[]","name":"selectors_","type":"bytes4[]"}],"stateMutability":"pure","type":"function"}],"evm":{"bytecode":{"linkReferences":{},"object":"608060405234801561001057600080fd5b506108e7806100206000396000f3fe608060405234801561001057600080fd5b506004361061004c5760003560e01c80639f63ea9814610051578063b499850314610066578063d30988301461008f578063e3b807a0146100a2575b600080fd5b61006461005f36600461069b565b6100b7565b005b610079610074366004610721565b6100d0565b604051610086919061073a565b60405180910390f35b61006461009d366004610787565b6100e1565b6100aa6100f8565b60405161008691906107b1565b6100c0336101da565b6100cb838383610268565b505050565b60606100db8261047f565b92915050565b6100ea336101da565b6100f4828261050a565b5050565b6040805160038082526080820190925260609190816020820184803683370190505091506313ec7d5360e31b8261012e83610809565b9250828151811061014157610141610820565b6001600160e01b031990921660209283029190910190910152630d30988360e41b8261016c83610809565b9250828151811061017f5761017f610820565b6001600160e01b03199092166020928302919091019091015263b499850360e01b826101aa83610809565b925082815181106101bd576101bd610820565b6001600160e01b0319909216602092830291909101909101525090565b7f0fcb11fff5651caf53eaf1124d25315389f7b0ceffd704a5e999a2ffc7764fd5546001600160a01b038281169116146102655760405162461bcd60e51b815260206004820152602160248201527f5472757374656449737375657273496e7465726e616c3a204e6f74206f776e656044820152603960f91b60648201526084015b60405180910390fd5b50565b6001600160a01b0383166102d55760405162461bcd60e51b815260206004820152602e60248201527f5472757374656449737375657273496e7465726e616c3a20697373756572206960448201526d73207a65726f206164647265737360901b606482015260840161025c565b806103355760405162461bcd60e51b815260206004820152602a60248201527f5472757374656449737375657273496e7465726e616c3a206e6f20746f7069636044820152691cc81c1c9bdd9a59195960b21b606482015260840161025c565b7f28d6a9f6581d908cc2f13822881616b1781b3a80e4b3f5e5b577fa5f2f74ddc360005b8281101561043557600084848381811061037557610375610820565b60209081029290920135600081815292869052604083209093509050815b81548110156103ed57886001600160a01b03168282815481106103b8576103b8610820565b6000918252602090912001546001600160a01b0316036103db57600192506103ed565b806103e581610836565b915050610393565b508161041f5780546001810182556000828152602090200180546001600160a01b0319166001600160a01b038a161790555b505050808061042d90610836565b915050610359565b50836001600160a01b03167ffedc33fd34859594822c0ff6f3f4f9fc279cc6d5cae53068f706a088e4500872848460405161047192919061084f565b60405180910390a250505050565b60008181527f28d6a9f6581d908cc2f13822881616b1781b3a80e4b3f5e5b577fa5f2f74ddc360209081526040918290208054835181840281018401909452808452606093928301828280156104fe57602002820191906000526020600020905b81546001600160a01b031681526001909101906020018083116104e0575b50505050509050919050565b60008181527f28d6a9f6581d908cc2f13822881616b1781b3a80e4b3f5e5b577fa5f2f74ddc360208190526040822090915b815481101561067857846001600160a01b031682828154811061056157610561610820565b6000918252602090912001546001600160a01b031603610666578154829061058b90600190610888565b8154811061059b5761059b610820565b9060005260206000200160009054906101000a90046001600160a01b03168282815481106105cb576105cb610820565b9060005260206000200160006101000a8154816001600160a01b0302191690836001600160a01b03160217905550818054806106095761060961089b565b600082815260208120820160001990810180546001600160a01b03191690559091019091556040516001600160a01b038716917f2214ded40113cc3fb63fc206cafee88270b0a903dac7245d54efdde30ebb032191a25050505050565b8061067081610836565b91505061053c565b5050505050565b80356001600160a01b038116811461069657600080fd5b919050565b6000806000604084860312156106b057600080fd5b6106b98461067f565b9250602084013567ffffffffffffffff808211156106d657600080fd5b818601915086601f8301126106ea57600080fd5b8135818111156106f957600080fd5b8760208260051b850101111561070e57600080fd5b6020830194508093505050509250925092565b60006020828403121561073357600080fd5b5035919050565b6020808252825182820181905260009190848201906040850190845b8181101561077b5783516001600160a01b031683529284019291840191600101610756565b50909695505050505050565b6000806040838503121561079a57600080fd5b6107a38361067f565b946020939093013593505050565b6020808252825182820181905260009190848201906040850190845b8181101561077b5783516001600160e01b031916835292840192918401916001016107cd565b634e487b7160e01b600052601160045260246000fd5b600081610818576108186107f3565b506000190190565b634e487b7160e01b600052603260045260246000fd5b600060018201610848576108486107f3565b5060010190565b6020808252810182905260006001600160fb1b0383111561086f57600080fd5b8260051b80856040850137919091016040019392505050565b818103818111156100db576100db6107f3565b634e487b7160e01b600052603160045260246000fdfea2646970667358221220ebccf36c831320e8b9d9ef3184daa91d3b439677ba97c00e694e98cbf3d4dfe064736f6c63430008110033","opcodes":"PUSH1 0x80 PUSH1 0x40 MSTORE CALLVALUE DUP1 ISZERO PUSH2 0x10 JUMPI PUSH1 0x0 DUP1 REVERT JUMPDEST POP PUSH2 0x8E7 DUP1 PUSH2 0x20 PUSH1 0x0 CODECOPY PUSH1 0x0 RETURN INVALID PUSH1 0x80 PUSH1 0x40 MSTORE CALLVALUE DUP1 ISZERO PUSH2 0x10 JUMPI PUSH1 0x0 DUP1 REVERT JUMPDEST POP PUSH1 0x4 CALLDATASIZE LT PUSH2 0x4C JUMPI PUSH1 0x0 CALLDATALOAD PUSH1 0xE0 SHR DUP1 PUSH4 0x9F63EA98 EQ PUSH2 0x51 JUMPI DUP1 PUSH4 0xB4998503 EQ PUSH2 0x66 JUMPI DUP1 PUSH4 0xD3098830 EQ PUSH2 0x8F JUMPI DUP1 PUSH4 0xE3B807A0 EQ PUSH2 0xA2 JUMPI JUMPDEST PUSH1 0x0 DUP1 REVERT JUMPDEST PUSH2 0x64 PUSH2 0x5F CALLDATASIZE PUSH1 0x4 PUSH2 0x69B JUMP JUMPDEST PUSH2 0xB7 JUMP JUMPDEST STOP JUMPDEST PUSH2 0x79 PUSH2 0x74 CALLDATASIZE PUSH1 0x4 PUSH2 0x721 JUMP JUMPDEST PUSH2 0xD0 JUMP JUMPDEST PUSH1 0x40 MLOAD PUSH2 0x86 SWAP2 SWAP1 PUSH2 0x73A JUMP JUMPDEST PUSH1 0x40 MLOAD DUP1 SWAP2 SUB SWAP1 RETURN JUMPDEST PUSH2 0x64 PUSH2 0x9D CALLDATASIZE PUSH1 0x4 PUSH2 0x787 JUMP JUMPDEST PUSH2 0xE1 JUMP JUMPDEST PUSH2 0xAA PUSH2 0xF8 JUMP JUMPDEST PUSH1 0x40 MLOAD PUSH2 0x86 SWAP2 SWAP1 PUSH2 0x7B1 JUMP JUMPDEST PUSH2 0xC0 CALLER PUSH2 0x1DA JUMP JUMPDEST PUSH2 0xCB DUP4 DUP4 DUP4 PUSH2 0x268 JUMP JUMPDEST POP POP POP JUMP JUMPDEST PUSH1 0x60 PUSH2 0xDB DUP3 PUSH2 0x47F JUMP JUMPDEST SWAP3 SWAP2 POP POP JUMP JUMPDEST PUSH2 0xEA CALLER PUSH2 0x1DA JUMP JUMPDEST PUSH2 0xF4 DUP3 DUP3 PUSH2 0x50A JUMP JUMPDEST POP POP JUMP JUMPDEST PUSH1 0x40 DUP1 MLOAD PUSH1 0x3 DUP1 DUP3 MSTORE PUSH1 0x80 DUP3 ADD SWAP1 SWAP3 MSTORE PUSH1 0x60 SWAP2 SWAP1 DUP2 PUSH1 0x20 DUP3 ADD DUP5 DUP1 CALLDATASIZE DUP4 CALLDATACOPY ADD SWAP1 POP POP SWAP2 POP PUSH4 0x13EC7D53 PUSH1 0xE3 SHL DUP3 PUSH2 0x12E DUP4 PUSH2 0x809 JUMP JUMPDEST SWAP3 POP DUP3 DUP2 MLOAD DUP2 LT PUSH2 0x141 JUMPI PUSH2 0x141 PUSH2 0x820 JUMP JUMPDEST PUSH1 0x1 PUSH1 0x1 PUSH1 0xE0 SHL SUB NOT SWAP1 SWAP3 AND PUSH1 0x20 SWAP3 DUP4 MUL SWAP2 SWAP1 SWAP2 ADD SWAP1 SWAP2 ADD MSTORE PUSH4 0xD309883 PUSH1 0xE4 SHL DUP3 PUSH2 0x16C DUP4 PUSH2 0x809 JUMP JUMPDEST SWAP3 POP DUP3 DUP2 MLOAD DUP2 LT PUSH2 0x17F JUMPI PUSH2 0x17F PUSH2 0x820 JUMP JUMPDEST PUSH1 0x1 PUSH1 0x1 PUSH1 0xE0 SHL SUB NOT SWAP1 SWAP3 AND PUSH1 0x20 SWAP3 DUP4 MUL SWAP2 SWAP1 SWAP2 ADD SWAP1 SWAP2 ADD MSTORE PUSH4 0xB4998503 PUSH1 0xE0 SHL DUP3 PUSH2 0x1AA DUP4 PUSH2 0x809 JUMP JUMPDEST SWAP3 POP DUP3 DUP2 MLOAD DUP2 LT PUSH2 0x1BD JUMPI PUSH2 0x1BD PUSH2 0x820 JUMP JUMPDEST PUSH1 0x1 PUSH1 0x1 PUSH1 0xE0 SHL SUB NOT SWAP1 SWAP3 AND PUSH1 0x20 SWAP3 DUP4 MUL SWAP2 SWAP1 SWAP2 ADD SWAP1 SWAP2 ADD MSTORE POP SWAP1 JUMP JUMPDEST PUSH32 0xFCB11FFF5651CAF53EAF1124D25315389F7B0CEFFD704A5E999A2FFC7764FD5 SLOAD PUSH1 0x1 PUSH1 0x1 PUSH1 0xA0 SHL SUB DUP3 DUP2 AND SWAP2 AND EQ PUSH2 0x265 JUMPI PUSH1 0x40 MLOAD PUSH3 0x461BCD PUSH1 0xE5 SHL DUP2 MSTORE PUSH1 0x20 PUSH1 0x4 DUP3 ADD MSTORE PUSH1 0x21 PUSH1 0x24 DUP3 ADD MSTORE PUSH32 0x5472757374656449737375657273496E7465726E616C3A204E6F74206F776E65 PUSH1 0x44 DUP3 ADD MSTORE PUSH1 0x39 PUSH1 0xF9 SHL PUSH1 0x64 DUP3 ADD MSTORE PUSH1 0x84 ADD JUMPDEST PUSH1 0x40 MLOAD DUP1 SWAP2 SUB SWAP1 REVERT JUMPDEST POP JUMP JUMPDEST PUSH1 0x1 PUSH1 0x1 PUSH1 0xA0 SHL SUB DUP4 AND PUSH2 0x2D5 JUMPI PUSH1 0x40 MLOAD PUSH3 0x461BCD PUSH1 0xE5 SHL DUP2 MSTORE PUSH1 0x20 PUSH1 0x4 DUP3 ADD MSTORE PUSH1 0x2E PUSH1 0x24 DUP3 ADD MSTORE PUSH32 0x5472757374656449737375657273496E7465726E616C3A206973737565722069 PUSH1 0x44 DUP3 ADD MSTORE PUSH14 0x73207A65726F2061646472657373 PUSH1 0x90 SHL PUSH1 0x64 DUP3 ADD MSTORE PUSH1 0x84 ADD PUSH2 0x25C JUMP JUMPDEST DUP1 PUSH2 0x335 JUMPI PUSH1 0x40 MLOAD PUSH3 0x461BCD PUSH1 0xE5 SHL DUP2 MSTORE PUSH1 0x20 PUSH1 0x4 DUP3 ADD MSTORE PUSH1 0x2A PUSH1 0x24 DUP3 ADD MSTORE PUSH32 0x5472757374656449737375657273496E7465726E616C3A206E6F20746F706963 PUSH1 0x44 DUP3 ADD MSTORE PUSH10 0x1CC81C1C9BDD9A591959 PUSH1 0xB2 SHL PUSH1 0x64 DUP3 ADD MSTORE PUSH1 0x84 ADD PUSH2 0x25C JUMP JUMPDEST PUSH32 0x28D6A9F6581D908CC2F13822881616B1781B3A80E4B3F5E5B577FA5F2F74DDC3 PUSH1 0x0 JUMPDEST DUP3 DUP2 LT ISZERO PUSH2 0x435 JUMPI PUSH1 0x0 DUP5 DUP5 DUP4 DUP2 DUP2 LT PUSH2 0x375 JUMPI PUSH2 0x375 PUSH2 0x820 JUMP JUMPDEST PUSH1 0x20 SWAP1 DUP2 MUL SWAP3 SWAP1 SWAP3 ADD CALLDATALOAD PUSH1 0x0 DUP2 DUP2 MSTORE SWAP3 DUP7 SWAP1 MSTORE PUSH1 0x40 DUP4 KECCAK256 SWAP1 SWAP4 POP SWAP1 POP DUP2 JUMPDEST DUP2 SLOAD DUP2 LT ISZERO PUSH2 0x3ED JUMPI DUP9 PUSH1 0x1 PUSH1 0x1 PUSH1 0xA0 SHL SUB AND DUP3 DUP3 DUP2 SLOAD DUP2 LT PUSH2 0x3B8 JUMPI PUSH2 0x3B8 PUSH2 0x820 JUMP JUMPDEST PUSH1 0x0 SWAP2 DUP3 MSTORE PUSH1 0x20 SWAP1 SWAP2 KECCAK256 ADD SLOAD PUSH1 0x1 PUSH1 0x1 PUSH1 0xA0 SHL SUB AND SUB PUSH2 0x3DB JUMPI PUSH1 0x1 SWAP3 POP PUSH2 0x3ED JUMP JUMPDEST DUP1 PUSH2 0x3E5 DUP2 PUSH2 0x836 JUMP JUMPDEST SWAP2 POP POP PUSH2 0x393 JUMP JUMPDEST POP DUP2 PUSH2 0x41F JUMPI DUP1 SLOAD PUSH1 0x1 DUP2 ADD DUP3 SSTORE PUSH1 0x0 DUP3 DUP2 MSTORE PUSH1 0x20 SWAP1 KECCAK256 ADD DUP1 SLOAD PUSH1 0x1 PUSH1 0x1 PUSH1 0xA0 SHL SUB NOT AND PUSH1 0x1 PUSH1 0x1 PUSH1 0xA0 SHL SUB DUP11 AND OR SWAP1 SSTORE JUMPDEST POP POP POP DUP1 DUP1 PUSH2 0x42D SWAP1 PUSH2 0x836 JUMP JUMPDEST SWAP2 POP POP PUSH2 0x359 JUMP JUMPDEST POP DUP4 PUSH1 0x1 PUSH1 0x1 PUSH1 0xA0 SHL SUB AND PUSH32 0xFEDC33FD34859594822C0FF6F3F4F9FC279CC6D5CAE53068F706A088E4500872 DUP5 DUP5 PUSH1 0x40 MLOAD PUSH2 0x471 SWAP3 SWAP2 SWAP1 PUSH2 0x84F JUMP JUMPDEST PUSH1 0x40 MLOAD DUP1 SWAP2 SUB SWAP1 LOG2 POP POP POP POP JUMP JUMPDEST PUSH1 0x0 DUP2 DUP2 MSTORE PUSH32 0x28D6A9F6581D908CC2F13822881616B1781B3A80E4B3F5E5B577FA5F2F74DDC3 PUSH1 0x20 SWAP1 DUP2 MSTORE PUSH1 0x40 SWAP2 DUP3 SWAP1 KECCAK256 DUP1 SLOAD DUP4 MLOAD DUP2 DUP5 MUL DUP2 ADD DUP5 ADD SWAP1 SWAP5 MSTORE DUP1 DUP5 MSTORE PUSH1 0x60 SWAP4 SWAP3 DUP4 ADD DUP3 DUP3 DUP1 ISZERO PUSH2 0x4FE JUMPI PUSH1 0x20 MUL DUP3 ADD SWAP2 SWAP1 PUSH1 0x0 MSTORE PUSH1 0x20 PUSH1 0x0 KECCAK256 SWAP1 JUMPDEST DUP2 SLOAD PUSH1 0x1 PUSH1 0x1 PUSH1 0xA0 SHL SUB AND DUP2 MSTORE PUSH1 0x1 SWAP1 SWAP2 ADD SWAP1 PUSH1 0x20 ADD DUP1 DUP4 GT PUSH2 0x4E0 JUMPI JUMPDEST POP POP POP POP POP SWAP1 POP SWAP2 SWAP1 POP JUMP JUMPDEST PUSH1 0x0 DUP2 DUP2 MSTORE PUSH32 0x28D6A9F6581D908CC2F13822881616B1781B3A80E4B3F5E5B577FA5F2F74DDC3 PUSH1 0x20 DUP2 SWAP1 MSTORE PUSH1 0x40 DUP3 KECCAK256 SWAP1 SWAP2 JUMPDEST DUP2 SLOAD DUP2 LT ISZERO PUSH2 0x678 JUMPI DUP5 PUSH1 0x1 PUSH1 0x1 PUSH1 0xA0 SHL SUB AND DUP3 DUP3 DUP2 SLOAD DUP2 LT PUSH2 0x561 JUMPI PUSH2 0x561 PUSH2 0x820 JUMP JUMPDEST PUSH1 0x0 SWAP2 DUP3 MSTORE PUSH1 0x20 SWAP1 SWAP2 KECCAK256 ADD SLOAD PUSH1 0x1 PUSH1 0x1 PUSH1 0xA0 SHL SUB AND SUB PUSH2 0x666 JUMPI DUP2 SLOAD DUP3 SWAP1 PUSH2 0x58B SWAP1 PUSH1 0x1 SWAP1 PUSH2 0x888 JUMP JUMPDEST DUP2 SLOAD DUP2 LT PUSH2 0x59B JUMPI PUSH2 0x59B PUSH2 0x820 JUMP JUMPDEST SWAP1 PUSH1 0x0 MSTORE PUSH1 0x20 PUSH1 0x0 KECCAK256 ADD PUSH1 0x0 SWAP1 SLOAD SWAP1 PUSH2 0x100 EXP SWAP1 DIV PUSH1 0x1 PUSH1 0x1 PUSH1 0xA0 SHL SUB AND DUP3 DUP3 DUP2 SLOAD DUP2 LT PUSH2 0x5CB JUMPI PUSH2 0x5CB PUSH2 0x820 JUMP JUMPDEST SWAP1 PUSH1 0x0 MSTORE PUSH1 0x20 PUSH1 0x0 KECCAK256 ADD PUSH1 0x0 PUSH2 0x100 EXP DUP2 SLOAD DUP2 PUSH1 0x1 PUSH1 0x1 PUSH1 0xA0 SHL SUB MUL NOT AND SWAP1 DUP4 PUSH1 0x1 PUSH1 0x1 PUSH1 0xA0 SHL SUB AND MUL OR SWAP1 SSTORE POP DUP2 DUP1 SLOAD DUP1 PUSH2 0x609 JUMPI PUSH2 0x609 PUSH2 0x89B JUMP JUMPDEST PUSH1 0x0 DUP3 DUP2 MSTORE PUSH1 0x20 DUP2 KECCAK256 DUP3 ADD PUSH1 0x0 NOT SWAP1 DUP2 ADD DUP1 SLOAD PUSH1 0x1 PUSH1 0x1 PUSH1 0xA0 SHL SUB NOT AND SWAP1 SSTORE SWAP1 SWAP2 ADD SWAP1 SWAP2 SSTORE PUSH1 0x40 MLOAD PUSH1 0x1 PUSH1 0x1 PUSH1 0xA0 SHL SUB DUP8 AND SWAP2 PUSH32 0x2214DED40113CC3FB63FC206CAFEE88270B0A903DAC7245D54EFDDE30EBB0321 SWAP2 LOG2 POP POP POP POP POP JUMP JUMPDEST DUP1 PUSH2 0x670 DUP2 PUSH2 0x836 JUMP JUMPDEST SWAP2 POP POP PUSH2 0x53C JUMP JUMPDEST POP POP POP POP POP JUMP JUMPDEST DUP1 CALLDATALOAD PUSH1 0x1 PUSH1 0x1 PUSH1 0xA0 SHL SUB DUP2 AND DUP2 EQ PUSH2 0x696 JUMPI PUSH1 0x0 DUP1 REVERT JUMPDEST SWAP2 SWAP1 POP JUMP JUMPDEST PUSH1 0x0 DUP1 PUSH1 0x0 PUSH1 0x40 DUP5 DUP7 SUB SLT ISZERO PUSH2 0x6B0 JUMPI PUSH1 0x0 DUP1 REVERT JUMPDEST PUSH2 0x6B9 DUP5 PUSH2 0x67F JUMP JUMPDEST SWAP3 POP PUSH1 0x20 DUP5 ADD CALLDATALOAD PUSH8 0xFFFFFFFFFFFFFFFF DUP1 DUP3 GT ISZERO PUSH2 0x6D6 JUMPI PUSH1 0x0 DUP1 REVERT JUMPDEST DUP2 DUP7 ADD SWAP2 POP DUP7 PUSH1 0x1F DUP4 ADD SLT PUSH2 0x6EA JUMPI PUSH1 0x0 DUP1 REVERT JUMPDEST DUP2 CALLDATALOAD DUP2 DUP2 GT ISZERO PUSH2 0x6F9 JUMPI PUSH1 0x0 DUP1 REVERT JUMPDEST DUP8 PUSH1 0x20 DUP3 PUSH1 0x5 SHL DUP6 ADD ADD GT ISZERO PUSH2 0x70E JUMPI PUSH1 0x0 DUP1 REVERT JUMPDEST PUSH1 0x20 DUP4 ADD SWAP5 POP DUP1 SWAP4 POP POP POP POP SWAP3 POP SWAP3 POP SWAP3 JUMP JUMPDEST PUSH1 0x0 PUSH1 0x20 DUP3 DUP5 SUB SLT ISZERO PUSH2 0x733 JUMPI PUSH1 0x0 DUP1 REVERT JUMPDEST POP CALLDATALOAD SWAP2 SWAP1 POP JUMP JUMPDEST PUSH1 0x20 DUP1 DUP3 MSTORE DUP3 MLOAD DUP3 DUP3 ADD DUP2 SWAP1 MSTORE PUSH1 0x0 SWAP2 SWAP1 DUP5 DUP3 ADD SWAP1 PUSH1 0x40 DUP6 ADD SWAP1 DUP5 JUMPDEST DUP2 DUP2 LT ISZERO PUSH2 0x77B JUMPI DUP4 MLOAD PUSH1 0x1 PUSH1 0x1 PUSH1 0xA0 SHL SUB AND DUP4 MSTORE SWAP3 DUP5 ADD SWAP3 SWAP2 DUP5 ADD SWAP2 PUSH1 0x1 ADD PUSH2 0x756 JUMP JUMPDEST POP SWAP1 SWAP7 SWAP6 POP POP POP POP POP POP JUMP JUMPDEST PUSH1 0x0 DUP1 PUSH1 0x40 DUP4 DUP6 SUB SLT ISZERO PUSH2 0x79A JUMPI PUSH1 0x0 DUP1 REVERT JUMPDEST PUSH2 0x7A3 DUP4 PUSH2 0x67F JUMP JUMPDEST SWAP5 PUSH1 0x20 SWAP4 SWAP1 SWAP4 ADD CALLDATALOAD SWAP4 POP POP POP JUMP JUMPDEST PUSH1 0x20 DUP1 DUP3 MSTORE DUP3 MLOAD DUP3 DUP3 ADD DUP2 SWAP1 MSTORE PUSH1 0x0 SWAP2 SWAP1 DUP5 DUP3 ADD SWAP1 PUSH1 0x40 DUP6 ADD SWAP1 DUP5 JUMPDEST DUP2 DUP2 LT ISZERO PUSH2 0x77B JUMPI DUP4 MLOAD PUSH1 0x1 PUSH1 0x1 PUSH1 0xE0 SHL SUB NOT AND DUP4 MSTORE SWAP3 DUP5 ADD SWAP3 SWAP2 DUP5 ADD SWAP2 PUSH1 0x1 ADD PUSH2 0x7CD JUMP JUMPDEST PUSH4 0x4E487B71 PUSH1 0xE0 SHL PUSH1 0x0 MSTORE PUSH1 0x11 PUSH1 0x4 MSTORE PUSH1 0x24 PUSH1 0x0 REVERT JUMPDEST PUSH1 0x0 DUP2 PUSH2 0x818 JUMPI PUSH2 0x818 PUSH2 0x7F3 JUMP JUMPDEST POP PUSH1 0x0 NOT ADD SWAP1 JUMP JUMPDEST PUSH4 0x4E487B71 PUSH1 0xE0 SHL PUSH1 0x0 MSTORE PUSH1 0x32 PUSH1 0x4 MSTORE PUSH1 0x24 PUSH1 0x0 REVERT JUMPDEST PUSH1 0x0 PUSH1 0x1 DUP3 ADD PUSH2 0x848 JUMPI PUSH2 0x848 PUSH2 0x7F3 JUMP JUMPDEST POP PUSH1 0x1 ADD SWAP1 JUMP JUMPDEST PUSH1 0x20 DUP1 DUP3 MSTORE DUP2 ADD DUP3 SWAP1 MSTORE PUSH1 0x0 PUSH1 0x1 PUSH1 0x1 PUSH1 0xFB SHL SUB DUP4 GT ISZERO PUSH2 0x86F JUMPI PUSH1 0x0 DUP1 REVERT JUMPDEST DUP3 PUSH1 0x5 SHL DUP1 DUP6 PUSH1 0x40 DUP6 ADD CALLDATACOPY SWAP2 SWAP1 SWAP2 ADD PUSH1 0x40 ADD SWAP4 SWAP3 POP POP POP JUMP JUMPDEST DUP2 DUP2 SUB DUP2 DUP2 GT ISZERO PUSH2 0xDB JUMPI PUSH2 0xDB PUSH2 0x7F3 JUMP JUMPDEST PUSH4 0x4E487B71 PUSH1 0xE0 SHL PUSH1 0x0 MSTORE PUSH1 0x31 PUSH1 0x4 MSTORE PUSH1 0x24 PUSH1 0x0 REVERT INVALID LOG2 PUSH5 0x6970667358 0x22 SLT KECCAK256 0xEB 0xCC RETURN PUSH13 0x831320E8B9D9EF3184DAA91D3B NUMBER SWAP7 PUSH24 0xBA97C00E694E98CBF3D4DFE064736F6C6343000811003300 "},"methodIdentifiers":{"addTrustedIssuer(address,uint256[])":"9f63ea98","getTrustedIssuers(uint256)":"b4998503","removeTrustedIssuer(address,uint256)":"d3098830","selectorsIntrospection()":"e3b807a0"}},"storageLayout":{"storage":[],"types":null}}}}