{"contracts/facets/TokenFacetExternal.sol":{"TokenFacetExternal":{"abi":[{"anonymous":false,"inputs":[{"indexed":true,"internalType":"address","name":"user","type":"address"},{"indexed":false,"internalType":"bool","name":"frozen","type":"bool"}],"name":"AccountFrozen","type":"event"},{"anonymous":false,"inputs":[{"indexed":true,"internalType":"address","name":"owner","type":"address"},{"indexed":true,"internalType":"address","name":"spender","type":"address"},{"indexed":false,"internalType":"uint256","name":"value","type":"uint256"}],"name":"Approval","type":"event"},{"anonymous":false,"inputs":[{"indexed":true,"internalType":"address","name":"from","type":"address"},{"indexed":true,"internalType":"address","name":"to","type":"address"},{"indexed":false,"internalType":"uint256","name":"value","type":"uint256"}],"name":"Transfer","type":"event"},{"inputs":[{"internalType":"address","name":"owner_","type":"address"},{"internalType":"address","name":"spender","type":"address"}],"name":"allowance","outputs":[{"internalType":"uint256","name":"","type":"uint256"}],"stateMutability":"view","type":"function"},{"inputs":[{"internalType":"address","name":"spender","type":"address"},{"internalType":"uint256","name":"amount","type":"uint256"}],"name":"approve","outputs":[{"internalType":"bool","name":"","type":"bool"}],"stateMutability":"nonpayable","type":"function"},{"inputs":[{"internalType":"address","name":"account","type":"address"}],"name":"balanceOf","outputs":[{"internalType":"uint256","name":"","type":"uint256"}],"stateMutability":"view","type":"function"},{"inputs":[{"internalType":"address","name":"from","type":"address"},{"internalType":"uint256","name":"amount","type":"uint256"}],"name":"burn","outputs":[],"stateMutability":"nonpayable","type":"function"},{"inputs":[],"name":"decimals","outputs":[{"internalType":"uint8","name":"","type":"uint8"}],"stateMutability":"pure","type":"function"},{"inputs":[{"internalType":"address","name":"from","type":"address"},{"internalType":"address","name":"to","type":"address"},{"internalType":"uint256","name":"amount","type":"uint256"}],"name":"forceTransfer","outputs":[],"stateMutability":"nonpayable","type":"function"},{"inputs":[{"internalType":"address","name":"user","type":"address"}],"name":"freezeAccount","outputs":[],"stateMutability":"nonpayable","type":"function"},{"inputs":[{"internalType":"address","name":"account","type":"address"}],"name":"isFrozen","outputs":[{"internalType":"bool","name":"","type":"bool"}],"stateMutability":"view","type":"function"},{"inputs":[{"internalType":"address","name":"to","type":"address"},{"internalType":"uint256","name":"amount","type":"uint256"}],"name":"mint","outputs":[],"stateMutability":"nonpayable","type":"function"},{"inputs":[],"name":"name","outputs":[{"internalType":"string","name":"","type":"string"}],"stateMutability":"view","type":"function"},{"inputs":[],"name":"selectorsIntrospection","outputs":[{"internalType":"bytes4[]","name":"selectors_","type":"bytes4[]"}],"stateMutability":"pure","type":"function"},{"inputs":[],"name":"symbol","outputs":[{"internalType":"string","name":"","type":"string"}],"stateMutability":"view","type":"function"},{"inputs":[],"name":"totalSupply","outputs":[{"internalType":"uint256","name":"","type":"uint256"}],"stateMutability":"view","type":"function"},{"inputs":[{"internalType":"address","name":"to","type":"address"},{"internalType":"uint256","name":"amount","type":"uint256"}],"name":"transfer","outputs":[{"internalType":"bool","name":"","type":"bool"}],"stateMutability":"nonpayable","type":"function"},{"inputs":[{"internalType":"address","name":"from","type":"address"},{"internalType":"address","name":"to","type":"address"},{"internalType":"uint256","name":"amount","type":"uint256"}],"name":"transferFrom","outputs":[{"internalType":"bool","name":"","type":"bool"}],"stateMutability":"nonpayable","type":"function"},{"inputs":[{"internalType":"address","name":"user","type":"address"}],"name":"unfreezeAccount","outputs":[],"stateMutability":"nonpayable","type":"function"}],"evm":{"bytecode":{"linkReferences":{},"object":"608060405234801561001057600080fd5b506114aa806100206000396000f3fe608060405234801561001057600080fd5b50600436106101005760003560e01c8063788649ea11610097578063dd62ed3e11610066578063dd62ed3e146101fa578063e3b807a01461020d578063e583983614610222578063f26c159f1461023557600080fd5b8063788649ea146101b957806395d89b41146101cc5780639dc29fac146101d4578063a9059cbb146101e757600080fd5b8063313ce567116100d3578063313ce5671461016f57806333bebb771461017e57806340c10f191461019357806370a08231146101a657600080fd5b806306fdde0314610105578063095ea7b31461012357806318160ddd1461014657806323b872dd1461015c575b600080fd5b61010d610248565b60405161011a919061119f565b60405180910390f35b610136610131366004611209565b610257565b604051901515815260200161011a565b61014e61026e565b60405190815260200161011a565b61013661016a366004611233565b610298565b6040516012815260200161011a565b61019161018c366004611233565b610326565b005b6101916101a1366004611209565b610394565b61014e6101b436600461126f565b610400565b6101916101c736600461126f565b61042b565b61010d610497565b6101916101e2366004611209565b6104a1565b6101366101f5366004611209565b610509565b61014e61020836600461128a565b610516565b610215610529565b60405161011a91906112bd565b61013661023036600461126f565b6108f6565b61019161024336600461126f565b610936565b606061025261099f565b905090565b6000610264338484610a41565b5060015b92915050565b60006102527f736ce0c14097c43f46534906dfa4c53dc3d50ced9d4ca89fafa7ec003cfb44365490565b6000806102a58533610ad5565b9050828110156102fc5760405162461bcd60e51b815260206004820152601e60248201527f546f6b656e46616365743a20616c6c6f77616e6365206578636565646564000060448201526064015b60405180910390fd5b610310853361030b8685611321565b610a41565b61031b858585610b1f565b506001949350505050565b600080516020611455833981519152546001600160a01b03163314806103685750336000908152600080516020611415833981519152602052604090205460ff165b6103845760405162461bcd60e51b81526004016102f390611334565b61038f838383610b1f565b505050565b600080516020611455833981519152546001600160a01b03163314806103d65750336000908152600080516020611415833981519152602052604090205460ff165b6103f25760405162461bcd60e51b81526004016102f390611334565b6103fc8282610d40565b5050565b6001600160a01b03811660009081526000805160206114358339815191526020526040812054610268565b600080516020611455833981519152546001600160a01b031633148061046d5750336000908152600080516020611415833981519152602052604090205460ff165b6104895760405162461bcd60e51b81526004016102f390611334565b610494816000610e08565b50565b6060610252610e98565b600080516020611455833981519152546001600160a01b03163314806104e35750336000908152600080516020611415833981519152602052604090205460ff165b6104ff5760405162461bcd60e51b81526004016102f390611334565b6103fc8282610eb7565b6000610264338484610b1f565b60006105228383610ad5565b9392505050565b60408051600f80825261020082019092526060919081602082016101e0803683370190505091506306fdde0360e01b826105628361136b565b9250828151811061057557610575611382565b6001600160e01b0319909216602092830291909101909101526395d89b4160e01b826105a08361136b565b925082815181106105b3576105b3611382565b6001600160e01b03199092166020928302919091019091015263313ce56760e01b826105de8361136b565b925082815181106105f1576105f1611382565b6001600160e01b0319909216602092830291909101909101526318160ddd60e01b8261061c8361136b565b9250828151811061062f5761062f611382565b6001600160e01b0319909216602092830291909101909101526370a0823160e01b8261065a8361136b565b9250828151811061066d5761066d611382565b6001600160e01b03199092166020928302919091019091015263a9059cbb60e01b826106988361136b565b925082815181106106ab576106ab611382565b6001600160e01b03199092166020928302919091019091015263095ea7b360e01b826106d68361136b565b925082815181106106e9576106e9611382565b6001600160e01b0319909216602092830291909101909101526323b872dd60e01b826107148361136b565b9250828151811061072757610727611382565b6001600160e01b031990921660209283029190910190910152636eb1769f60e11b826107528361136b565b9250828151811061076557610765611382565b6001600160e01b0319909216602092830291909101909101526340c10f1960e01b826107908361136b565b925082815181106107a3576107a3611382565b6001600160e01b031990921660209283029190910190910152632770a7eb60e21b826107ce8361136b565b925082815181106107e1576107e1611382565b6001600160e01b0319909216602092830291909101909101526333bebb7760e01b8261080c8361136b565b9250828151811061081f5761081f611382565b6001600160e01b03199092166020928302919091019091015263f26c159f60e01b8261084a8361136b565b9250828151811061085d5761085d611382565b6001600160e01b031990921660209283029190910190910152633c4324f560e11b826108888361136b565b9250828151811061089b5761089b611382565b6001600160e01b0319909216602092830291909101909101526372c1cc1b60e11b826108c68361136b565b925082815181106108d9576108d9611382565b6001600160e01b0319909216602092830291909101909101525090565b6001600160a01b03811660009081527f736ce0c14097c43f46534906dfa4c53dc3d50ced9d4ca89fafa7ec003cfb443a602052604081205460ff16610268565b600080516020611455833981519152546001600160a01b03163314806109785750336000908152600080516020611415833981519152602052604090205460ff165b6109945760405162461bcd60e51b81526004016102f390611334565b610494816001610e08565b606060008051602061143583398151915260030180546109be90611398565b80601f01602080910402602001604051908101604052809291908181526020018280546109ea90611398565b8015610a375780601f10610a0c57610100808354040283529160200191610a37565b820191906000526020600020905b815481529060010190602001808311610a1a57829003601f168201915b5050505050905090565b6001600160a01b0383811660008181527f736ce0c14097c43f46534906dfa4c53dc3d50ced9d4ca89fafa7ec003cfb4435602090815260408083209487168084529482529182902085905590518481526000805160206114358339815191529392917f8c5be1e5ebec7d5bd14f71427d1e84f3dd0314c0f7b2291e5b200ac8c7c3b92591015b60405180910390a350505050565b6001600160a01b0391821660009081527f736ce0c14097c43f46534906dfa4c53dc3d50ced9d4ca89fafa7ec003cfb44356020908152604080832093909416825291909152205490565b6001600160a01b03831660009081527f736ce0c14097c43f46534906dfa4c53dc3d50ced9d4ca89fafa7ec003cfb443a60205260409020546000805160206114358339815191529060ff1615610bb75760405162461bcd60e51b815260206004820152601c60248201527f546f6b656e496e7465726e616c3a2073656e6465722066726f7a656e0000000060448201526064016102f3565b6001600160a01b038316600090815260068201602052604090205460ff1615610c225760405162461bcd60e51b815260206004820152601e60248201527f546f6b656e496e7465726e616c3a2072656365697665722066726f7a656e000060448201526064016102f3565b6001600160a01b038416600090815260208290526040902054821115610c965760405162461bcd60e51b815260206004820152602360248201527f546f6b656e496e7465726e616c3a20696e73756666696369656e742062616c616044820152626e636560e81b60648201526084016102f3565b6001600160a01b03841660009081526020829052604081208054849290610cbe908490611321565b90915550506001600160a01b03831660009081526020829052604081208054849290610ceb9084906113d2565b90915550610cfb90508484610fd4565b826001600160a01b0316846001600160a01b03167fddf252ad1be2c89b69c2b068fc378daa952ba7f163c4a11628f55a4df523b3ef84604051610ac791815260200190565b7f736ce0c14097c43f46534906dfa4c53dc3d50ced9d4ca89fafa7ec003cfb44368054600080516020611435833981519152918391600090610d839084906113d2565b90915550506001600160a01b03831660009081526020829052604081208054849290610db09084906113d2565b90915550610dc19050600084610fd4565b6040518281526001600160a01b038416906000907fddf252ad1be2c89b69c2b068fc378daa952ba7f163c4a11628f55a4df523b3ef906020015b60405180910390a3505050565b6001600160a01b03821660008181527f736ce0c14097c43f46534906dfa4c53dc3d50ced9d4ca89fafa7ec003cfb443a6020908152604091829020805460ff1916851515908117909155915191825260008051602061143583398151915292917fa33e6b076d391e96626483b30e365719f79f1d6594aff6587649ffd6c82ed7fa910160405180910390a2505050565b606060008051602061143583398151915260040180546109be90611398565b6001600160a01b03821660009081526000805160206114358339815191526020819052604090912054821115610f425760405162461bcd60e51b815260206004820152602a60248201527f546f6b656e496e7465726e616c3a206275726e20616d6f756e7420657863656560448201526964732062616c616e636560b01b60648201526084016102f3565b6001600160a01b03831660009081526020829052604081208054849290610f6a908490611321565b9250508190555081816002016000828254610f859190611321565b90915550610f969050836000610fd4565b6040518281526000906001600160a01b038516907fddf252ad1be2c89b69c2b068fc378daa952ba7f163c4a11628f55a4df523b3ef90602001610dfb565b6000805160206114358339815191526001600160a01b0382161580159061101157506001600160a01b038216600090815260208290526040902054155b1561104757600781018054600181018255600091825260209091200180546001600160a01b0319166001600160a01b0384161790555b6001600160a01b0383161580159061107557506001600160a01b038316600090815260208290526040902054155b1561038f5761038f8360008051602061143583398151915260005b600782015481101561038f57826001600160a01b03168260070182815481106110bb576110bb611382565b6000918252602090912001546001600160a01b03160361118d576007820180546110e790600190611321565b815481106110f7576110f7611382565b6000918252602090912001546007830180546001600160a01b03909216918390811061112557611125611382565b9060005260206000200160006101000a8154816001600160a01b0302191690836001600160a01b0316021790555081600701805480611166576111666113e5565b600082815260209020810160001990810180546001600160a01b0319169055019055505050565b80611197816113fb565b915050611090565b600060208083528351808285015260005b818110156111cc578581018301518582016040015282016111b0565b506000604082860101526040601f19601f8301168501019250505092915050565b80356001600160a01b038116811461120457600080fd5b919050565b6000806040838503121561121c57600080fd5b611225836111ed565b946020939093013593505050565b60008060006060848603121561124857600080fd5b611251846111ed565b925061125f602085016111ed565b9150604084013590509250925092565b60006020828403121561128157600080fd5b610522826111ed565b6000806040838503121561129d57600080fd5b6112a6836111ed565b91506112b4602084016111ed565b90509250929050565b6020808252825182820181905260009190848201906040850190845b818110156112ff5783516001600160e01b031916835292840192918401916001016112d9565b50909695505050505050565b634e487b7160e01b600052601160045260246000fd5b818103818111156102685761026861130b565b6020808252601a908201527f546f6b656e46616365743a204e6f7420617574686f72697a6564000000000000604082015260600190565b60008161137a5761137a61130b565b506000190190565b634e487b7160e01b600052603260045260246000fd5b600181811c908216806113ac57607f821691505b6020821081036113cc57634e487b7160e01b600052602260045260246000fd5b50919050565b808201808211156102685761026861130b565b634e487b7160e01b600052603160045260246000fd5b60006001820161140d5761140d61130b565b506001019056fe0fcb11fff5651caf53eaf1124d25315389f7b0ceffd704a5e999a2ffc7764fd6736ce0c14097c43f46534906dfa4c53dc3d50ced9d4ca89fafa7ec003cfb44340fcb11fff5651caf53eaf1124d25315389f7b0ceffd704a5e999a2ffc7764fd5a2646970667358221220842cc2f74f339e8fa9d278e6a0cdaf726c2a6cce0beb19345a6b61d87e9168ac64736f6c63430008110033","opcodes":"PUSH1 0x80 PUSH1 0x40 MSTORE CALLVALUE DUP1 ISZERO PUSH2 0x10 JUMPI PUSH1 0x0 DUP1 REVERT JUMPDEST POP PUSH2 0x14AA DUP1 PUSH2 0x20 PUSH1 0x0 CODECOPY PUSH1 0x0 RETURN INVALID PUSH1 0x80 PUSH1 0x40 MSTORE CALLVALUE DUP1 ISZERO PUSH2 0x10 JUMPI PUSH1 0x0 DUP1 REVERT JUMPDEST POP PUSH1 0x4 CALLDATASIZE LT PUSH2 0x100 JUMPI PUSH1 0x0 CALLDATALOAD PUSH1 0xE0 SHR DUP1 PUSH4 0x788649EA GT PUSH2 0x97 JUMPI DUP1 PUSH4 0xDD62ED3E GT PUSH2 0x66 JUMPI DUP1 PUSH4 0xDD62ED3E EQ PUSH2 0x1FA JUMPI DUP1 PUSH4 0xE3B807A0 EQ PUSH2 0x20D JUMPI DUP1 PUSH4 0xE5839836 EQ PUSH2 0x222 JUMPI DUP1 PUSH4 0xF26C159F EQ PUSH2 0x235 JUMPI PUSH1 0x0 DUP1 REVERT JUMPDEST DUP1 PUSH4 0x788649EA EQ PUSH2 0x1B9 JUMPI DUP1 PUSH4 0x95D89B41 EQ PUSH2 0x1CC JUMPI DUP1 PUSH4 0x9DC29FAC EQ PUSH2 0x1D4 JUMPI DUP1 PUSH4 0xA9059CBB EQ PUSH2 0x1E7 JUMPI PUSH1 0x0 DUP1 REVERT JUMPDEST DUP1 PUSH4 0x313CE567 GT PUSH2 0xD3 JUMPI DUP1 PUSH4 0x313CE567 EQ PUSH2 0x16F JUMPI DUP1 PUSH4 0x33BEBB77 EQ PUSH2 0x17E JUMPI DUP1 PUSH4 0x40C10F19 EQ PUSH2 0x193 JUMPI DUP1 PUSH4 0x70A08231 EQ PUSH2 0x1A6 JUMPI PUSH1 0x0 DUP1 REVERT JUMPDEST DUP1 PUSH4 0x6FDDE03 EQ PUSH2 0x105 JUMPI DUP1 PUSH4 0x95EA7B3 EQ PUSH2 0x123 JUMPI DUP1 PUSH4 0x18160DDD EQ PUSH2 0x146 JUMPI DUP1 PUSH4 0x23B872DD EQ PUSH2 0x15C JUMPI JUMPDEST PUSH1 0x0 DUP1 REVERT JUMPDEST PUSH2 0x10D PUSH2 0x248 JUMP JUMPDEST PUSH1 0x40 MLOAD PUSH2 0x11A SWAP2 SWAP1 PUSH2 0x119F JUMP JUMPDEST PUSH1 0x40 MLOAD DUP1 SWAP2 SUB SWAP1 RETURN JUMPDEST PUSH2 0x136 PUSH2 0x131 CALLDATASIZE PUSH1 0x4 PUSH2 0x1209 JUMP JUMPDEST PUSH2 0x257 JUMP JUMPDEST PUSH1 0x40 MLOAD SWAP1 ISZERO ISZERO DUP2 MSTORE PUSH1 0x20 ADD PUSH2 0x11A JUMP JUMPDEST PUSH2 0x14E PUSH2 0x26E JUMP JUMPDEST PUSH1 0x40 MLOAD SWAP1 DUP2 MSTORE PUSH1 0x20 ADD PUSH2 0x11A JUMP JUMPDEST PUSH2 0x136 PUSH2 0x16A CALLDATASIZE PUSH1 0x4 PUSH2 0x1233 JUMP JUMPDEST PUSH2 0x298 JUMP JUMPDEST PUSH1 0x40 MLOAD PUSH1 0x12 DUP2 MSTORE PUSH1 0x20 ADD PUSH2 0x11A JUMP JUMPDEST PUSH2 0x191 PUSH2 0x18C CALLDATASIZE PUSH1 0x4 PUSH2 0x1233 JUMP JUMPDEST PUSH2 0x326 JUMP JUMPDEST STOP JUMPDEST PUSH2 0x191 PUSH2 0x1A1 CALLDATASIZE PUSH1 0x4 PUSH2 0x1209 JUMP JUMPDEST PUSH2 0x394 JUMP JUMPDEST PUSH2 0x14E PUSH2 0x1B4 CALLDATASIZE PUSH1 0x4 PUSH2 0x126F JUMP JUMPDEST PUSH2 0x400 JUMP JUMPDEST PUSH2 0x191 PUSH2 0x1C7 CALLDATASIZE PUSH1 0x4 PUSH2 0x126F JUMP JUMPDEST PUSH2 0x42B JUMP JUMPDEST PUSH2 0x10D PUSH2 0x497 JUMP JUMPDEST PUSH2 0x191 PUSH2 0x1E2 CALLDATASIZE PUSH1 0x4 PUSH2 0x1209 JUMP JUMPDEST PUSH2 0x4A1 JUMP JUMPDEST PUSH2 0x136 PUSH2 0x1F5 CALLDATASIZE PUSH1 0x4 PUSH2 0x1209 JUMP JUMPDEST PUSH2 0x509 JUMP JUMPDEST PUSH2 0x14E PUSH2 0x208 CALLDATASIZE PUSH1 0x4 PUSH2 0x128A JUMP JUMPDEST PUSH2 0x516 JUMP JUMPDEST PUSH2 0x215 PUSH2 0x529 JUMP JUMPDEST PUSH1 0x40 MLOAD PUSH2 0x11A SWAP2 SWAP1 PUSH2 0x12BD JUMP JUMPDEST PUSH2 0x136 PUSH2 0x230 CALLDATASIZE PUSH1 0x4 PUSH2 0x126F JUMP JUMPDEST PUSH2 0x8F6 JUMP JUMPDEST PUSH2 0x191 PUSH2 0x243 CALLDATASIZE PUSH1 0x4 PUSH2 0x126F JUMP JUMPDEST PUSH2 0x936 JUMP JUMPDEST PUSH1 0x60 PUSH2 0x252 PUSH2 0x99F JUMP JUMPDEST SWAP1 POP SWAP1 JUMP JUMPDEST PUSH1 0x0 PUSH2 0x264 CALLER DUP5 DUP5 PUSH2 0xA41 JUMP JUMPDEST POP PUSH1 0x1 JUMPDEST SWAP3 SWAP2 POP POP JUMP JUMPDEST PUSH1 0x0 PUSH2 0x252 PUSH32 0x736CE0C14097C43F46534906DFA4C53DC3D50CED9D4CA89FAFA7EC003CFB4436 SLOAD SWAP1 JUMP JUMPDEST PUSH1 0x0 DUP1 PUSH2 0x2A5 DUP6 CALLER PUSH2 0xAD5 JUMP JUMPDEST SWAP1 POP DUP3 DUP2 LT ISZERO PUSH2 0x2FC JUMPI PUSH1 0x40 MLOAD PUSH3 0x461BCD PUSH1 0xE5 SHL DUP2 MSTORE PUSH1 0x20 PUSH1 0x4 DUP3 ADD MSTORE PUSH1 0x1E PUSH1 0x24 DUP3 ADD MSTORE PUSH32 0x546F6B656E46616365743A20616C6C6F77616E63652065786365656465640000 PUSH1 0x44 DUP3 ADD MSTORE PUSH1 0x64 ADD JUMPDEST PUSH1 0x40 MLOAD DUP1 SWAP2 SUB SWAP1 REVERT JUMPDEST PUSH2 0x310 DUP6 CALLER PUSH2 0x30B DUP7 DUP6 PUSH2 0x1321 JUMP JUMPDEST PUSH2 0xA41 JUMP JUMPDEST PUSH2 0x31B DUP6 DUP6 DUP6 PUSH2 0xB1F JUMP JUMPDEST POP PUSH1 0x1 SWAP5 SWAP4 POP POP POP POP JUMP JUMPDEST PUSH1 0x0 DUP1 MLOAD PUSH1 0x20 PUSH2 0x1455 DUP4 CODECOPY DUP2 MLOAD SWAP2 MSTORE SLOAD PUSH1 0x1 PUSH1 0x1 PUSH1 0xA0 SHL SUB AND CALLER EQ DUP1 PUSH2 0x368 JUMPI POP CALLER PUSH1 0x0 SWAP1 DUP2 MSTORE PUSH1 0x0 DUP1 MLOAD PUSH1 0x20 PUSH2 0x1415 DUP4 CODECOPY DUP2 MLOAD SWAP2 MSTORE PUSH1 0x20 MSTORE PUSH1 0x40 SWAP1 KECCAK256 SLOAD PUSH1 0xFF AND JUMPDEST PUSH2 0x384 JUMPI PUSH1 0x40 MLOAD PUSH3 0x461BCD PUSH1 0xE5 SHL DUP2 MSTORE PUSH1 0x4 ADD PUSH2 0x2F3 SWAP1 PUSH2 0x1334 JUMP JUMPDEST PUSH2 0x38F DUP4 DUP4 DUP4 PUSH2 0xB1F JUMP JUMPDEST POP POP POP JUMP JUMPDEST PUSH1 0x0 DUP1 MLOAD PUSH1 0x20 PUSH2 0x1455 DUP4 CODECOPY DUP2 MLOAD SWAP2 MSTORE SLOAD PUSH1 0x1 PUSH1 0x1 PUSH1 0xA0 SHL SUB AND CALLER EQ DUP1 PUSH2 0x3D6 JUMPI POP CALLER PUSH1 0x0 SWAP1 DUP2 MSTORE PUSH1 0x0 DUP1 MLOAD PUSH1 0x20 PUSH2 0x1415 DUP4 CODECOPY DUP2 MLOAD SWAP2 MSTORE PUSH1 0x20 MSTORE PUSH1 0x40 SWAP1 KECCAK256 SLOAD PUSH1 0xFF AND JUMPDEST PUSH2 0x3F2 JUMPI PUSH1 0x40 MLOAD PUSH3 0x461BCD PUSH1 0xE5 SHL DUP2 MSTORE PUSH1 0x4 ADD PUSH2 0x2F3 SWAP1 PUSH2 0x1334 JUMP JUMPDEST PUSH2 0x3FC DUP3 DUP3 PUSH2 0xD40 JUMP JUMPDEST POP POP JUMP JUMPDEST PUSH1 0x1 PUSH1 0x1 PUSH1 0xA0 SHL SUB DUP2 AND PUSH1 0x0 SWAP1 DUP2 MSTORE PUSH1 0x0 DUP1 MLOAD PUSH1 0x20 PUSH2 0x1435 DUP4 CODECOPY DUP2 MLOAD SWAP2 MSTORE PUSH1 0x20 MSTORE PUSH1 0x40 DUP2 KECCAK256 SLOAD PUSH2 0x268 JUMP JUMPDEST PUSH1 0x0 DUP1 MLOAD PUSH1 0x20 PUSH2 0x1455 DUP4 CODECOPY DUP2 MLOAD SWAP2 MSTORE SLOAD PUSH1 0x1 PUSH1 0x1 PUSH1 0xA0 SHL SUB AND CALLER EQ DUP1 PUSH2 0x46D JUMPI POP CALLER PUSH1 0x0 SWAP1 DUP2 MSTORE PUSH1 0x0 DUP1 MLOAD PUSH1 0x20 PUSH2 0x1415 DUP4 CODECOPY DUP2 MLOAD SWAP2 MSTORE PUSH1 0x20 MSTORE PUSH1 0x40 SWAP1 KECCAK256 SLOAD PUSH1 0xFF AND JUMPDEST PUSH2 0x489 JUMPI PUSH1 0x40 MLOAD PUSH3 0x461BCD PUSH1 0xE5 SHL DUP2 MSTORE PUSH1 0x4 ADD PUSH2 0x2F3 SWAP1 PUSH2 0x1334 JUMP JUMPDEST PUSH2 0x494 DUP2 PUSH1 0x0 PUSH2 0xE08 JUMP JUMPDEST POP JUMP JUMPDEST PUSH1 0x60 PUSH2 0x252 PUSH2 0xE98 JUMP JUMPDEST PUSH1 0x0 DUP1 MLOAD PUSH1 0x20 PUSH2 0x1455 DUP4 CODECOPY DUP2 MLOAD SWAP2 MSTORE SLOAD PUSH1 0x1 PUSH1 0x1 PUSH1 0xA0 SHL SUB AND CALLER EQ DUP1 PUSH2 0x4E3 JUMPI POP CALLER PUSH1 0x0 SWAP1 DUP2 MSTORE PUSH1 0x0 DUP1 MLOAD PUSH1 0x20 PUSH2 0x1415 DUP4 CODECOPY DUP2 MLOAD SWAP2 MSTORE PUSH1 0x20 MSTORE PUSH1 0x40 SWAP1 KECCAK256 SLOAD PUSH1 0xFF AND JUMPDEST PUSH2 0x4FF JUMPI PUSH1 0x40 MLOAD PUSH3 0x461BCD PUSH1 0xE5 SHL DUP2 MSTORE PUSH1 0x4 ADD PUSH2 0x2F3 SWAP1 PUSH2 0x1334 JUMP JUMPDEST PUSH2 0x3FC DUP3 DUP3 PUSH2 0xEB7 JUMP JUMPDEST PUSH1 0x0 PUSH2 0x264 CALLER DUP5 DUP5 PUSH2 0xB1F JUMP JUMPDEST PUSH1 0x0 PUSH2 0x522 DUP4 DUP4 PUSH2 0xAD5 JUMP JUMPDEST SWAP4 SWAP3 POP POP POP JUMP JUMPDEST PUSH1 0x40 DUP1 MLOAD PUSH1 0xF DUP1 DUP3 MSTORE PUSH2 0x200 DUP3 ADD SWAP1 SWAP3 MSTORE PUSH1 0x60 SWAP2 SWAP1 DUP2 PUSH1 0x20 DUP3 ADD PUSH2 0x1E0 DUP1 CALLDATASIZE DUP4 CALLDATACOPY ADD SWAP1 POP POP SWAP2 POP PUSH4 0x6FDDE03 PUSH1 0xE0 SHL DUP3 PUSH2 0x562 DUP4 PUSH2 0x136B JUMP JUMPDEST SWAP3 POP DUP3 DUP2 MLOAD DUP2 LT PUSH2 0x575 JUMPI PUSH2 0x575 PUSH2 0x1382 JUMP JUMPDEST PUSH1 0x1 PUSH1 0x1 PUSH1 0xE0 SHL SUB NOT SWAP1 SWAP3 AND PUSH1 0x20 SWAP3 DUP4 MUL SWAP2 SWAP1 SWAP2 ADD SWAP1 SWAP2 ADD MSTORE PUSH4 0x95D89B41 PUSH1 0xE0 SHL DUP3 PUSH2 0x5A0 DUP4 PUSH2 0x136B JUMP JUMPDEST SWAP3 POP DUP3 DUP2 MLOAD DUP2 LT PUSH2 0x5B3 JUMPI PUSH2 0x5B3 PUSH2 0x1382 JUMP JUMPDEST PUSH1 0x1 PUSH1 0x1 PUSH1 0xE0 SHL SUB NOT SWAP1 SWAP3 AND PUSH1 0x20 SWAP3 DUP4 MUL SWAP2 SWAP1 SWAP2 ADD SWAP1 SWAP2 ADD MSTORE PUSH4 0x313CE567 PUSH1 0xE0 SHL DUP3 PUSH2 0x5DE DUP4 PUSH2 0x136B JUMP JUMPDEST SWAP3 POP DUP3 DUP2 MLOAD DUP2 LT PUSH2 0x5F1 JUMPI PUSH2 0x5F1 PUSH2 0x1382 JUMP JUMPDEST PUSH1 0x1 PUSH1 0x1 PUSH1 0xE0 SHL SUB NOT SWAP1 SWAP3 AND PUSH1 0x20 SWAP3 DUP4 MUL SWAP2 SWAP1 SWAP2 ADD SWAP1 SWAP2 ADD MSTORE PUSH4 0x18160DDD PUSH1 0xE0 SHL DUP3 PUSH2 0x61C DUP4 PUSH2 0x136B JUMP JUMPDEST SWAP3 POP DUP3 DUP2 MLOAD DUP2 LT PUSH2 0x62F JUMPI PUSH2 0x62F PUSH2 0x1382 JUMP JUMPDEST PUSH1 0x1 PUSH1 0x1 PUSH1 0xE0 SHL SUB NOT SWAP1 SWAP3 AND PUSH1 0x20 SWAP3 DUP4 MUL SWAP2 SWAP1 SWAP2 ADD SWAP1 SWAP2 ADD MSTORE PUSH4 0x70A08231 PUSH1 0xE0 SHL DUP3 PUSH2 0x65A DUP4 PUSH2 0x136B JUMP JUMPDEST SWAP3 POP DUP3 DUP2 MLOAD DUP2 LT PUSH2 0x66D JUMPI PUSH2 0x66D PUSH2 0x1382 JUMP JUMPDEST PUSH1 0x1 PUSH1 0x1 PUSH1 0xE0 SHL SUB NOT SWAP1 SWAP3 AND PUSH1 0x20 SWAP3 DUP4 MUL SWAP2 SWAP1 SWAP2 ADD SWAP1 SWAP2 ADD MSTORE PUSH4 0xA9059CBB PUSH1 0xE0 SHL DUP3 PUSH2 0x698 DUP4 PUSH2 0x136B JUMP JUMPDEST SWAP3 POP DUP3 DUP2 MLOAD DUP2 LT PUSH2 0x6AB JUMPI PUSH2 0x6AB PUSH2 0x1382 JUMP JUMPDEST PUSH1 0x1 PUSH1 0x1 PUSH1 0xE0 SHL SUB NOT SWAP1 SWAP3 AND PUSH1 0x20 SWAP3 DUP4 MUL SWAP2 SWAP1 SWAP2 ADD SWAP1 SWAP2 ADD MSTORE PUSH4 0x95EA7B3 PUSH1 0xE0 SHL DUP3 PUSH2 0x6D6 DUP4 PUSH2 0x136B JUMP JUMPDEST SWAP3 POP DUP3 DUP2 MLOAD DUP2 LT PUSH2 0x6E9 JUMPI PUSH2 0x6E9 PUSH2 0x1382 JUMP JUMPDEST PUSH1 0x1 PUSH1 0x1 PUSH1 0xE0 SHL SUB NOT SWAP1 SWAP3 AND PUSH1 0x20 SWAP3 DUP4 MUL SWAP2 SWAP1 SWAP2 ADD SWAP1 SWAP2 ADD MSTORE PUSH4 0x23B872DD PUSH1 0xE0 SHL DUP3 PUSH2 0x714 DUP4 PUSH2 0x136B JUMP JUMPDEST SWAP3 POP DUP3 DUP2 MLOAD DUP2 LT PUSH2 0x727 JUMPI PUSH2 0x727 PUSH2 0x1382 JUMP JUMPDEST PUSH1 0x1 PUSH1 0x1 PUSH1 0xE0 SHL SUB NOT SWAP1 SWAP3 AND PUSH1 0x20 SWAP3 DUP4 MUL SWAP2 SWAP1 SWAP2 ADD SWAP1 SWAP2 ADD MSTORE PUSH4 0x6EB1769F PUSH1 0xE1 SHL DUP3 PUSH2 0x752 DUP4 PUSH2 0x136B JUMP JUMPDEST SWAP3 POP DUP3 DUP2 MLOAD DUP2 LT PUSH2 0x765 JUMPI PUSH2 0x765 PUSH2 0x1382 JUMP JUMPDEST PUSH1 0x1 PUSH1 0x1 PUSH1 0xE0 SHL SUB NOT SWAP1 SWAP3 AND PUSH1 0x20 SWAP3 DUP4 MUL SWAP2 SWAP1 SWAP2 ADD SWAP1 SWAP2 ADD MSTORE PUSH4 0x40C10F19 PUSH1 0xE0 SHL DUP3 PUSH2 0x790 DUP4 PUSH2 0x136B JUMP JUMPDEST SWAP3 POP DUP3 DUP2 MLOAD DUP2 LT PUSH2 0x7A3 JUMPI PUSH2 0x7A3 PUSH2 0x1382 JUMP JUMPDEST PUSH1 0x1 PUSH1 0x1 PUSH1 0xE0 SHL SUB NOT SWAP1 SWAP3 AND PUSH1 0x20 SWAP3 DUP4 MUL SWAP2 SWAP1 SWAP2 ADD SWAP1 SWAP2 ADD MSTORE PUSH4 0x2770A7EB PUSH1 0xE2 SHL DUP3 PUSH2 0x7CE DUP4 PUSH2 0x136B JUMP JUMPDEST SWAP3 POP DUP3 DUP2 MLOAD DUP2 LT PUSH2 0x7E1 JUMPI PUSH2 0x7E1 PUSH2 0x1382 JUMP JUMPDEST PUSH1 0x1 PUSH1 0x1 PUSH1 0xE0 SHL SUB NOT SWAP1 SWAP3 AND PUSH1 0x20 SWAP3 DUP4 MUL SWAP2 SWAP1 SWAP2 ADD SWAP1 SWAP2 ADD MSTORE PUSH4 0x33BEBB77 PUSH1 0xE0 SHL DUP3 PUSH2 0x80C DUP4 PUSH2 0x136B JUMP JUMPDEST SWAP3 POP DUP3 DUP2 MLOAD DUP2 LT PUSH2 0x81F JUMPI PUSH2 0x81F PUSH2 0x1382 JUMP JUMPDEST PUSH1 0x1 PUSH1 0x1 PUSH1 0xE0 SHL SUB NOT SWAP1 SWAP3 AND PUSH1 0x20 SWAP3 DUP4 MUL SWAP2 SWAP1 SWAP2 ADD SWAP1 SWAP2 ADD MSTORE PUSH4 0xF26C159F PUSH1 0xE0 SHL DUP3 PUSH2 0x84A DUP4 PUSH2 0x136B JUMP JUMPDEST SWAP3 POP DUP3 DUP2 MLOAD DUP2 LT PUSH2 0x85D JUMPI PUSH2 0x85D PUSH2 0x1382 JUMP JUMPDEST PUSH1 0x1 PUSH1 0x1 PUSH1 0xE0 SHL SUB NOT SWAP1 SWAP3 AND PUSH1 0x20 SWAP3 DUP4 MUL SWAP2 SWAP1 SWAP2 ADD SWAP1 SWAP2 ADD MSTORE PUSH4 0x3C4324F5 PUSH1 0xE1 SHL DUP3 PUSH2 0x888 DUP4 PUSH2 0x136B JUMP JUMPDEST SWAP3 POP DUP3 DUP2 MLOAD DUP2 LT PUSH2 0x89B JUMPI PUSH2 0x89B PUSH2 0x1382 JUMP JUMPDEST PUSH1 0x1 PUSH1 0x1 PUSH1 0xE0 SHL SUB NOT SWAP1 SWAP3 AND PUSH1 0x20 SWAP3 DUP4 MUL SWAP2 SWAP1 SWAP2 ADD SWAP1 SWAP2 ADD MSTORE PUSH4 0x72C1CC1B PUSH1 0xE1 SHL DUP3 PUSH2 0x8C6 DUP4 PUSH2 0x136B JUMP JUMPDEST SWAP3 POP DUP3 DUP2 MLOAD DUP2 LT PUSH2 0x8D9 JUMPI PUSH2 0x8D9 PUSH2 0x1382 JUMP JUMPDEST PUSH1 0x1 PUSH1 0x1 PUSH1 0xE0 SHL SUB NOT SWAP1 SWAP3 AND PUSH1 0x20 SWAP3 DUP4 MUL SWAP2 SWAP1 SWAP2 ADD SWAP1 SWAP2 ADD MSTORE POP SWAP1 JUMP JUMPDEST PUSH1 0x1 PUSH1 0x1 PUSH1 0xA0 SHL SUB DUP2 AND PUSH1 0x0 SWAP1 DUP2 MSTORE PUSH32 0x736CE0C14097C43F46534906DFA4C53DC3D50CED9D4CA89FAFA7EC003CFB443A PUSH1 0x20 MSTORE PUSH1 0x40 DUP2 KECCAK256 SLOAD PUSH1 0xFF AND PUSH2 0x268 JUMP JUMPDEST PUSH1 0x0 DUP1 MLOAD PUSH1 0x20 PUSH2 0x1455 DUP4 CODECOPY DUP2 MLOAD SWAP2 MSTORE SLOAD PUSH1 0x1 PUSH1 0x1 PUSH1 0xA0 SHL SUB AND CALLER EQ DUP1 PUSH2 0x978 JUMPI POP CALLER PUSH1 0x0 SWAP1 DUP2 MSTORE PUSH1 0x0 DUP1 MLOAD PUSH1 0x20 PUSH2 0x1415 DUP4 CODECOPY DUP2 MLOAD SWAP2 MSTORE PUSH1 0x20 MSTORE PUSH1 0x40 SWAP1 KECCAK256 SLOAD PUSH1 0xFF AND JUMPDEST PUSH2 0x994 JUMPI PUSH1 0x40 MLOAD PUSH3 0x461BCD PUSH1 0xE5 SHL DUP2 MSTORE PUSH1 0x4 ADD PUSH2 0x2F3 SWAP1 PUSH2 0x1334 JUMP JUMPDEST PUSH2 0x494 DUP2 PUSH1 0x1 PUSH2 0xE08 JUMP JUMPDEST PUSH1 0x60 PUSH1 0x0 DUP1 MLOAD PUSH1 0x20 PUSH2 0x1435 DUP4 CODECOPY DUP2 MLOAD SWAP2 MSTORE PUSH1 0x3 ADD DUP1 SLOAD PUSH2 0x9BE SWAP1 PUSH2 0x1398 JUMP JUMPDEST DUP1 PUSH1 0x1F ADD PUSH1 0x20 DUP1 SWAP2 DIV MUL PUSH1 0x20 ADD PUSH1 0x40 MLOAD SWAP1 DUP2 ADD PUSH1 0x40 MSTORE DUP1 SWAP3 SWAP2 SWAP1 DUP2 DUP2 MSTORE PUSH1 0x20 ADD DUP3 DUP1 SLOAD PUSH2 0x9EA SWAP1 PUSH2 0x1398 JUMP JUMPDEST DUP1 ISZERO PUSH2 0xA37 JUMPI DUP1 PUSH1 0x1F LT PUSH2 0xA0C JUMPI PUSH2 0x100 DUP1 DUP4 SLOAD DIV MUL DUP4 MSTORE SWAP2 PUSH1 0x20 ADD SWAP2 PUSH2 0xA37 JUMP JUMPDEST DUP3 ADD SWAP2 SWAP1 PUSH1 0x0 MSTORE PUSH1 0x20 PUSH1 0x0 KECCAK256 SWAP1 JUMPDEST DUP2 SLOAD DUP2 MSTORE SWAP1 PUSH1 0x1 ADD SWAP1 PUSH1 0x20 ADD DUP1 DUP4 GT PUSH2 0xA1A JUMPI DUP3 SWAP1 SUB PUSH1 0x1F AND DUP3 ADD SWAP2 JUMPDEST POP POP POP POP POP SWAP1 POP SWAP1 JUMP JUMPDEST PUSH1 0x1 PUSH1 0x1 PUSH1 0xA0 SHL SUB DUP4 DUP2 AND PUSH1 0x0 DUP2 DUP2 MSTORE PUSH32 0x736CE0C14097C43F46534906DFA4C53DC3D50CED9D4CA89FAFA7EC003CFB4435 PUSH1 0x20 SWAP1 DUP2 MSTORE PUSH1 0x40 DUP1 DUP4 KECCAK256 SWAP5 DUP8 AND DUP1 DUP5 MSTORE SWAP5 DUP3 MSTORE SWAP2 DUP3 SWAP1 KECCAK256 DUP6 SWAP1 SSTORE SWAP1 MLOAD DUP5 DUP2 MSTORE PUSH1 0x0 DUP1 MLOAD PUSH1 0x20 PUSH2 0x1435 DUP4 CODECOPY DUP2 MLOAD SWAP2 MSTORE SWAP4 SWAP3 SWAP2 PUSH32 0x8C5BE1E5EBEC7D5BD14F71427D1E84F3DD0314C0F7B2291E5B200AC8C7C3B925 SWAP2 ADD JUMPDEST PUSH1 0x40 MLOAD DUP1 SWAP2 SUB SWAP1 LOG3 POP POP POP POP JUMP JUMPDEST PUSH1 0x1 PUSH1 0x1 PUSH1 0xA0 SHL SUB SWAP2 DUP3 AND PUSH1 0x0 SWAP1 DUP2 MSTORE PUSH32 0x736CE0C14097C43F46534906DFA4C53DC3D50CED9D4CA89FAFA7EC003CFB4435 PUSH1 0x20 SWAP1 DUP2 MSTORE PUSH1 0x40 DUP1 DUP4 KECCAK256 SWAP4 SWAP1 SWAP5 AND DUP3 MSTORE SWAP2 SWAP1 SWAP2 MSTORE KECCAK256 SLOAD SWAP1 JUMP JUMPDEST PUSH1 0x1 PUSH1 0x1 PUSH1 0xA0 SHL SUB DUP4 AND PUSH1 0x0 SWAP1 DUP2 MSTORE PUSH32 0x736CE0C14097C43F46534906DFA4C53DC3D50CED9D4CA89FAFA7EC003CFB443A PUSH1 0x20 MSTORE PUSH1 0x40 SWAP1 KECCAK256 SLOAD PUSH1 0x0 DUP1 MLOAD PUSH1 0x20 PUSH2 0x1435 DUP4 CODECOPY DUP2 MLOAD SWAP2 MSTORE SWAP1 PUSH1 0xFF AND ISZERO PUSH2 0xBB7 JUMPI PUSH1 0x40 MLOAD PUSH3 0x461BCD PUSH1 0xE5 SHL DUP2 MSTORE PUSH1 0x20 PUSH1 0x4 DUP3 ADD MSTORE PUSH1 0x1C PUSH1 0x24 DUP3 ADD MSTORE PUSH32 0x546F6B656E496E7465726E616C3A2073656E6465722066726F7A656E00000000 PUSH1 0x44 DUP3 ADD MSTORE PUSH1 0x64 ADD PUSH2 0x2F3 JUMP JUMPDEST PUSH1 0x1 PUSH1 0x1 PUSH1 0xA0 SHL SUB DUP4 AND PUSH1 0x0 SWAP1 DUP2 MSTORE PUSH1 0x6 DUP3 ADD PUSH1 0x20 MSTORE PUSH1 0x40 SWAP1 KECCAK256 SLOAD PUSH1 0xFF AND ISZERO PUSH2 0xC22 JUMPI PUSH1 0x40 MLOAD PUSH3 0x461BCD PUSH1 0xE5 SHL DUP2 MSTORE PUSH1 0x20 PUSH1 0x4 DUP3 ADD MSTORE PUSH1 0x1E PUSH1 0x24 DUP3 ADD MSTORE PUSH32 0x546F6B656E496E7465726E616C3A2072656365697665722066726F7A656E0000 PUSH1 0x44 DUP3 ADD MSTORE PUSH1 0x64 ADD PUSH2 0x2F3 JUMP JUMPDEST PUSH1 0x1 PUSH1 0x1 PUSH1 0xA0 SHL SUB DUP5 AND PUSH1 0x0 SWAP1 DUP2 MSTORE PUSH1 0x20 DUP3 SWAP1 MSTORE PUSH1 0x40 SWAP1 KECCAK256 SLOAD DUP3 GT ISZERO PUSH2 0xC96 JUMPI PUSH1 0x40 MLOAD PUSH3 0x461BCD PUSH1 0xE5 SHL DUP2 MSTORE PUSH1 0x20 PUSH1 0x4 DUP3 ADD MSTORE PUSH1 0x23 PUSH1 0x24 DUP3 ADD MSTORE PUSH32 0x546F6B656E496E7465726E616C3A20696E73756666696369656E742062616C61 PUSH1 0x44 DUP3 ADD MSTORE PUSH3 0x6E6365 PUSH1 0xE8 SHL PUSH1 0x64 DUP3 ADD MSTORE PUSH1 0x84 ADD PUSH2 0x2F3 JUMP JUMPDEST PUSH1 0x1 PUSH1 0x1 PUSH1 0xA0 SHL SUB DUP5 AND PUSH1 0x0 SWAP1 DUP2 MSTORE PUSH1 0x20 DUP3 SWAP1 MSTORE PUSH1 0x40 DUP2 KECCAK256 DUP1 SLOAD DUP5 SWAP3 SWAP1 PUSH2 0xCBE SWAP1 DUP5 SWAP1 PUSH2 0x1321 JUMP JUMPDEST SWAP1 SWAP2 SSTORE POP POP PUSH1 0x1 PUSH1 0x1 PUSH1 0xA0 SHL SUB DUP4 AND PUSH1 0x0 SWAP1 DUP2 MSTORE PUSH1 0x20 DUP3 SWAP1 MSTORE PUSH1 0x40 DUP2 KECCAK256 DUP1 SLOAD DUP5 SWAP3 SWAP1 PUSH2 0xCEB SWAP1 DUP5 SWAP1 PUSH2 0x13D2 JUMP JUMPDEST SWAP1 SWAP2 SSTORE POP PUSH2 0xCFB SWAP1 POP DUP5 DUP5 PUSH2 0xFD4 JUMP JUMPDEST DUP3 PUSH1 0x1 PUSH1 0x1 PUSH1 0xA0 SHL SUB AND DUP5 PUSH1 0x1 PUSH1 0x1 PUSH1 0xA0 SHL SUB AND PUSH32 0xDDF252AD1BE2C89B69C2B068FC378DAA952BA7F163C4A11628F55A4DF523B3EF DUP5 PUSH1 0x40 MLOAD PUSH2 0xAC7 SWAP2 DUP2 MSTORE PUSH1 0x20 ADD SWAP1 JUMP JUMPDEST PUSH32 0x736CE0C14097C43F46534906DFA4C53DC3D50CED9D4CA89FAFA7EC003CFB4436 DUP1 SLOAD PUSH1 0x0 DUP1 MLOAD PUSH1 0x20 PUSH2 0x1435 DUP4 CODECOPY DUP2 MLOAD SWAP2 MSTORE SWAP2 DUP4 SWAP2 PUSH1 0x0 SWAP1 PUSH2 0xD83 SWAP1 DUP5 SWAP1 PUSH2 0x13D2 JUMP JUMPDEST SWAP1 SWAP2 SSTORE POP POP PUSH1 0x1 PUSH1 0x1 PUSH1 0xA0 SHL SUB DUP4 AND PUSH1 0x0 SWAP1 DUP2 MSTORE PUSH1 0x20 DUP3 SWAP1 MSTORE PUSH1 0x40 DUP2 KECCAK256 DUP1 SLOAD DUP5 SWAP3 SWAP1 PUSH2 0xDB0 SWAP1 DUP5 SWAP1 PUSH2 0x13D2 JUMP JUMPDEST SWAP1 SWAP2 SSTORE POP PUSH2 0xDC1 SWAP1 POP PUSH1 0x0 DUP5 PUSH2 0xFD4 JUMP JUMPDEST PUSH1 0x40 MLOAD DUP3 DUP2 MSTORE PUSH1 0x1 PUSH1 0x1 PUSH1 0xA0 SHL SUB DUP5 AND SWAP1 PUSH1 0x0 SWAP1 PUSH32 0xDDF252AD1BE2C89B69C2B068FC378DAA952BA7F163C4A11628F55A4DF523B3EF SWAP1 PUSH1 0x20 ADD JUMPDEST PUSH1 0x40 MLOAD DUP1 SWAP2 SUB SWAP1 LOG3 POP POP POP JUMP JUMPDEST PUSH1 0x1 PUSH1 0x1 PUSH1 0xA0 SHL SUB DUP3 AND PUSH1 0x0 DUP2 DUP2 MSTORE PUSH32 0x736CE0C14097C43F46534906DFA4C53DC3D50CED9D4CA89FAFA7EC003CFB443A PUSH1 0x20 SWAP1 DUP2 MSTORE PUSH1 0x40 SWAP2 DUP3 SWAP1 KECCAK256 DUP1 SLOAD PUSH1 0xFF NOT AND DUP6 ISZERO ISZERO SWAP1 DUP2 OR SWAP1 SWAP2 SSTORE SWAP2 MLOAD SWAP2 DUP3 MSTORE PUSH1 0x0 DUP1 MLOAD PUSH1 0x20 PUSH2 0x1435 DUP4 CODECOPY DUP2 MLOAD SWAP2 MSTORE SWAP3 SWAP2 PUSH32 0xA33E6B076D391E96626483B30E365719F79F1D6594AFF6587649FFD6C82ED7FA SWAP2 ADD PUSH1 0x40 MLOAD DUP1 SWAP2 SUB SWAP1 LOG2 POP POP POP JUMP JUMPDEST PUSH1 0x60 PUSH1 0x0 DUP1 MLOAD PUSH1 0x20 PUSH2 0x1435 DUP4 CODECOPY DUP2 MLOAD SWAP2 MSTORE PUSH1 0x4 ADD DUP1 SLOAD PUSH2 0x9BE SWAP1 PUSH2 0x1398 JUMP JUMPDEST PUSH1 0x1 PUSH1 0x1 PUSH1 0xA0 SHL SUB DUP3 AND PUSH1 0x0 SWAP1 DUP2 MSTORE PUSH1 0x0 DUP1 MLOAD PUSH1 0x20 PUSH2 0x1435 DUP4 CODECOPY DUP2 MLOAD SWAP2 MSTORE PUSH1 0x20 DUP2 SWAP1 MSTORE PUSH1 0x40 SWAP1 SWAP2 KECCAK256 SLOAD DUP3 GT ISZERO PUSH2 0xF42 JUMPI PUSH1 0x40 MLOAD PUSH3 0x461BCD PUSH1 0xE5 SHL DUP2 MSTORE PUSH1 0x20 PUSH1 0x4 DUP3 ADD MSTORE PUSH1 0x2A PUSH1 0x24 DUP3 ADD MSTORE PUSH32 0x546F6B656E496E7465726E616C3A206275726E20616D6F756E74206578636565 PUSH1 0x44 DUP3 ADD MSTORE PUSH10 0x64732062616C616E6365 PUSH1 0xB0 SHL PUSH1 0x64 DUP3 ADD MSTORE PUSH1 0x84 ADD PUSH2 0x2F3 JUMP JUMPDEST PUSH1 0x1 PUSH1 0x1 PUSH1 0xA0 SHL SUB DUP4 AND PUSH1 0x0 SWAP1 DUP2 MSTORE PUSH1 0x20 DUP3 SWAP1 MSTORE PUSH1 0x40 DUP2 KECCAK256 DUP1 SLOAD DUP5 SWAP3 SWAP1 PUSH2 0xF6A SWAP1 DUP5 SWAP1 PUSH2 0x1321 JUMP JUMPDEST SWAP3 POP POP DUP2 SWAP1 SSTORE POP DUP2 DUP2 PUSH1 0x2 ADD PUSH1 0x0 DUP3 DUP3 SLOAD PUSH2 0xF85 SWAP2 SWAP1 PUSH2 0x1321 JUMP JUMPDEST SWAP1 SWAP2 SSTORE POP PUSH2 0xF96 SWAP1 POP DUP4 PUSH1 0x0 PUSH2 0xFD4 JUMP JUMPDEST PUSH1 0x40 MLOAD DUP3 DUP2 MSTORE PUSH1 0x0 SWAP1 PUSH1 0x1 PUSH1 0x1 PUSH1 0xA0 SHL SUB DUP6 AND SWAP1 PUSH32 0xDDF252AD1BE2C89B69C2B068FC378DAA952BA7F163C4A11628F55A4DF523B3EF SWAP1 PUSH1 0x20 ADD PUSH2 0xDFB JUMP JUMPDEST PUSH1 0x0 DUP1 MLOAD PUSH1 0x20 PUSH2 0x1435 DUP4 CODECOPY DUP2 MLOAD SWAP2 MSTORE PUSH1 0x1 PUSH1 0x1 PUSH1 0xA0 SHL SUB DUP3 AND ISZERO DUP1 ISZERO SWAP1 PUSH2 0x1011 JUMPI POP PUSH1 0x1 PUSH1 0x1 PUSH1 0xA0 SHL SUB DUP3 AND PUSH1 0x0 SWAP1 DUP2 MSTORE PUSH1 0x20 DUP3 SWAP1 MSTORE PUSH1 0x40 SWAP1 KECCAK256 SLOAD ISZERO JUMPDEST ISZERO PUSH2 0x1047 JUMPI PUSH1 0x7 DUP2 ADD DUP1 SLOAD PUSH1 0x1 DUP2 ADD DUP3 SSTORE PUSH1 0x0 SWAP2 DUP3 MSTORE PUSH1 0x20 SWAP1 SWAP2 KECCAK256 ADD DUP1 SLOAD PUSH1 0x1 PUSH1 0x1 PUSH1 0xA0 SHL SUB NOT AND PUSH1 0x1 PUSH1 0x1 PUSH1 0xA0 SHL SUB DUP5 AND OR SWAP1 SSTORE JUMPDEST PUSH1 0x1 PUSH1 0x1 PUSH1 0xA0 SHL SUB DUP4 AND ISZERO DUP1 ISZERO SWAP1 PUSH2 0x1075 JUMPI POP PUSH1 0x1 PUSH1 0x1 PUSH1 0xA0 SHL SUB DUP4 AND PUSH1 0x0 SWAP1 DUP2 MSTORE PUSH1 0x20 DUP3 SWAP1 MSTORE PUSH1 0x40 SWAP1 KECCAK256 SLOAD ISZERO JUMPDEST ISZERO PUSH2 0x38F JUMPI PUSH2 0x38F DUP4 PUSH1 0x0 DUP1 MLOAD PUSH1 0x20 PUSH2 0x1435 DUP4 CODECOPY DUP2 MLOAD SWAP2 MSTORE PUSH1 0x0 JUMPDEST PUSH1 0x7 DUP3 ADD SLOAD DUP2 LT ISZERO PUSH2 0x38F JUMPI DUP3 PUSH1 0x1 PUSH1 0x1 PUSH1 0xA0 SHL SUB AND DUP3 PUSH1 0x7 ADD DUP3 DUP2 SLOAD DUP2 LT PUSH2 0x10BB JUMPI PUSH2 0x10BB PUSH2 0x1382 JUMP JUMPDEST PUSH1 0x0 SWAP2 DUP3 MSTORE PUSH1 0x20 SWAP1 SWAP2 KECCAK256 ADD SLOAD PUSH1 0x1 PUSH1 0x1 PUSH1 0xA0 SHL SUB AND SUB PUSH2 0x118D JUMPI PUSH1 0x7 DUP3 ADD DUP1 SLOAD PUSH2 0x10E7 SWAP1 PUSH1 0x1 SWAP1 PUSH2 0x1321 JUMP JUMPDEST DUP2 SLOAD DUP2 LT PUSH2 0x10F7 JUMPI PUSH2 0x10F7 PUSH2 0x1382 JUMP JUMPDEST PUSH1 0x0 SWAP2 DUP3 MSTORE PUSH1 0x20 SWAP1 SWAP2 KECCAK256 ADD SLOAD PUSH1 0x7 DUP4 ADD DUP1 SLOAD PUSH1 0x1 PUSH1 0x1 PUSH1 0xA0 SHL SUB SWAP1 SWAP3 AND SWAP2 DUP4 SWAP1 DUP2 LT PUSH2 0x1125 JUMPI PUSH2 0x1125 PUSH2 0x1382 JUMP JUMPDEST SWAP1 PUSH1 0x0 MSTORE PUSH1 0x20 PUSH1 0x0 KECCAK256 ADD PUSH1 0x0 PUSH2 0x100 EXP DUP2 SLOAD DUP2 PUSH1 0x1 PUSH1 0x1 PUSH1 0xA0 SHL SUB MUL NOT AND SWAP1 DUP4 PUSH1 0x1 PUSH1 0x1 PUSH1 0xA0 SHL SUB AND MUL OR SWAP1 SSTORE POP DUP2 PUSH1 0x7 ADD DUP1 SLOAD DUP1 PUSH2 0x1166 JUMPI PUSH2 0x1166 PUSH2 0x13E5 JUMP JUMPDEST PUSH1 0x0 DUP3 DUP2 MSTORE PUSH1 0x20 SWAP1 KECCAK256 DUP2 ADD PUSH1 0x0 NOT SWAP1 DUP2 ADD DUP1 SLOAD PUSH1 0x1 PUSH1 0x1 PUSH1 0xA0 SHL SUB NOT AND SWAP1 SSTORE ADD SWAP1 SSTORE POP POP POP JUMP JUMPDEST DUP1 PUSH2 0x1197 DUP2 PUSH2 0x13FB JUMP JUMPDEST SWAP2 POP POP PUSH2 0x1090 JUMP JUMPDEST PUSH1 0x0 PUSH1 0x20 DUP1 DUP4 MSTORE DUP4 MLOAD DUP1 DUP3 DUP6 ADD MSTORE PUSH1 0x0 JUMPDEST DUP2 DUP2 LT ISZERO PUSH2 0x11CC JUMPI DUP6 DUP2 ADD DUP4 ADD MLOAD DUP6 DUP3 ADD PUSH1 0x40 ADD MSTORE DUP3 ADD PUSH2 0x11B0 JUMP JUMPDEST POP PUSH1 0x0 PUSH1 0x40 DUP3 DUP7 ADD ADD MSTORE PUSH1 0x40 PUSH1 0x1F NOT PUSH1 0x1F DUP4 ADD AND DUP6 ADD ADD SWAP3 POP POP POP SWAP3 SWAP2 POP POP JUMP JUMPDEST DUP1 CALLDATALOAD PUSH1 0x1 PUSH1 0x1 PUSH1 0xA0 SHL SUB DUP2 AND DUP2 EQ PUSH2 0x1204 JUMPI PUSH1 0x0 DUP1 REVERT JUMPDEST SWAP2 SWAP1 POP JUMP JUMPDEST PUSH1 0x0 DUP1 PUSH1 0x40 DUP4 DUP6 SUB SLT ISZERO PUSH2 0x121C JUMPI PUSH1 0x0 DUP1 REVERT JUMPDEST PUSH2 0x1225 DUP4 PUSH2 0x11ED JUMP JUMPDEST SWAP5 PUSH1 0x20 SWAP4 SWAP1 SWAP4 ADD CALLDATALOAD SWAP4 POP POP POP JUMP JUMPDEST PUSH1 0x0 DUP1 PUSH1 0x0 PUSH1 0x60 DUP5 DUP7 SUB SLT ISZERO PUSH2 0x1248 JUMPI PUSH1 0x0 DUP1 REVERT JUMPDEST PUSH2 0x1251 DUP5 PUSH2 0x11ED JUMP JUMPDEST SWAP3 POP PUSH2 0x125F PUSH1 0x20 DUP6 ADD PUSH2 0x11ED JUMP JUMPDEST SWAP2 POP PUSH1 0x40 DUP5 ADD CALLDATALOAD SWAP1 POP SWAP3 POP SWAP3 POP SWAP3 JUMP JUMPDEST PUSH1 0x0 PUSH1 0x20 DUP3 DUP5 SUB SLT ISZERO PUSH2 0x1281 JUMPI PUSH1 0x0 DUP1 REVERT JUMPDEST PUSH2 0x522 DUP3 PUSH2 0x11ED JUMP JUMPDEST PUSH1 0x0 DUP1 PUSH1 0x40 DUP4 DUP6 SUB SLT ISZERO PUSH2 0x129D JUMPI PUSH1 0x0 DUP1 REVERT JUMPDEST PUSH2 0x12A6 DUP4 PUSH2 0x11ED JUMP JUMPDEST SWAP2 POP PUSH2 0x12B4 PUSH1 0x20 DUP5 ADD PUSH2 0x11ED JUMP JUMPDEST SWAP1 POP SWAP3 POP SWAP3 SWAP1 POP JUMP JUMPDEST PUSH1 0x20 DUP1 DUP3 MSTORE DUP3 MLOAD DUP3 DUP3 ADD DUP2 SWAP1 MSTORE PUSH1 0x0 SWAP2 SWAP1 DUP5 DUP3 ADD SWAP1 PUSH1 0x40 DUP6 ADD SWAP1 DUP5 JUMPDEST DUP2 DUP2 LT ISZERO PUSH2 0x12FF JUMPI DUP4 MLOAD PUSH1 0x1 PUSH1 0x1 PUSH1 0xE0 SHL SUB NOT AND DUP4 MSTORE SWAP3 DUP5 ADD SWAP3 SWAP2 DUP5 ADD SWAP2 PUSH1 0x1 ADD PUSH2 0x12D9 JUMP JUMPDEST POP SWAP1 SWAP7 SWAP6 POP POP POP POP POP POP JUMP JUMPDEST PUSH4 0x4E487B71 PUSH1 0xE0 SHL PUSH1 0x0 MSTORE PUSH1 0x11 PUSH1 0x4 MSTORE PUSH1 0x24 PUSH1 0x0 REVERT JUMPDEST DUP2 DUP2 SUB DUP2 DUP2 GT ISZERO PUSH2 0x268 JUMPI PUSH2 0x268 PUSH2 0x130B JUMP JUMPDEST PUSH1 0x20 DUP1 DUP3 MSTORE PUSH1 0x1A SWAP1 DUP3 ADD MSTORE PUSH32 0x546F6B656E46616365743A204E6F7420617574686F72697A6564000000000000 PUSH1 0x40 DUP3 ADD MSTORE PUSH1 0x60 ADD SWAP1 JUMP JUMPDEST PUSH1 0x0 DUP2 PUSH2 0x137A JUMPI PUSH2 0x137A PUSH2 0x130B JUMP JUMPDEST POP PUSH1 0x0 NOT ADD SWAP1 JUMP JUMPDEST PUSH4 0x4E487B71 PUSH1 0xE0 SHL PUSH1 0x0 MSTORE PUSH1 0x32 PUSH1 0x4 MSTORE PUSH1 0x24 PUSH1 0x0 REVERT JUMPDEST PUSH1 0x1 DUP2 DUP2 SHR SWAP1 DUP3 AND DUP1 PUSH2 0x13AC JUMPI PUSH1 0x7F DUP3 AND SWAP2 POP JUMPDEST PUSH1 0x20 DUP3 LT DUP2 SUB PUSH2 0x13CC JUMPI PUSH4 0x4E487B71 PUSH1 0xE0 SHL PUSH1 0x0 MSTORE PUSH1 0x22 PUSH1 0x4 MSTORE PUSH1 0x24 PUSH1 0x0 REVERT JUMPDEST POP SWAP2 SWAP1 POP JUMP JUMPDEST DUP1 DUP3 ADD DUP1 DUP3 GT ISZERO PUSH2 0x268 JUMPI PUSH2 0x268 PUSH2 0x130B JUMP JUMPDEST PUSH4 0x4E487B71 PUSH1 0xE0 SHL PUSH1 0x0 MSTORE PUSH1 0x31 PUSH1 0x4 MSTORE PUSH1 0x24 PUSH1 0x0 REVERT JUMPDEST PUSH1 0x0 PUSH1 0x1 DUP3 ADD PUSH2 0x140D JUMPI PUSH2 0x140D PUSH2 0x130B JUMP JUMPDEST POP PUSH1 0x1 ADD SWAP1 JUMP INVALID 0xF 0xCB GT SELFDESTRUCT CREATE2 PUSH6 0x1CAF53EAF112 0x4D 0x25 BALANCE MSTORE8 DUP10 0xF7 0xB0 0xCE SELFDESTRUCT 0xD7 DIV 0xA5 0xE9 SWAP10 LOG2 SELFDESTRUCT 0xC7 PUSH23 0x4FD6736CE0C14097C43F46534906DFA4C53DC3D50CED9D 0x4C 0xA8 SWAP16 0xAF 0xA7 0xEC STOP EXTCODECOPY 0xFB DIFFICULTY CALLVALUE 0xF 0xCB GT SELFDESTRUCT CREATE2 PUSH6 0x1CAF53EAF112 0x4D 0x25 BALANCE MSTORE8 DUP10 0xF7 0xB0 0xCE SELFDESTRUCT 0xD7 DIV 0xA5 0xE9 SWAP10 LOG2 SELFDESTRUCT 0xC7 PUSH23 0x4FD5A2646970667358221220842CC2F74F339E8FA9D278 0xE6 LOG0 0xCD 0xAF PUSH19 0x6C2A6CCE0BEB19345A6B61D87E9168AC64736F PUSH13 0x63430008110033000000000000 "},"methodIdentifiers":{"allowance(address,address)":"dd62ed3e","approve(address,uint256)":"095ea7b3","balanceOf(address)":"70a08231","burn(address,uint256)":"9dc29fac","decimals()":"313ce567","forceTransfer(address,address,uint256)":"33bebb77","freezeAccount(address)":"f26c159f","isFrozen(address)":"e5839836","mint(address,uint256)":"40c10f19","name()":"06fdde03","selectorsIntrospection()":"e3b807a0","symbol()":"95d89b41","totalSupply()":"18160ddd","transfer(address,uint256)":"a9059cbb","transferFrom(address,address,uint256)":"23b872dd","unfreezeAccount(address)":"788649ea"}},"storageLayout":{"storage":[],"types":null}}}}