{"contracts/facets/ComplianceFacetExternal.sol":{"ComplianceFacetExternal":{"abi":[{"anonymous":false,"inputs":[{"indexed":false,"internalType":"uint256","name":"max","type":"uint256"}],"name":"MaxBalanceSet","type":"event"},{"anonymous":false,"inputs":[{"indexed":false,"internalType":"uint256","name":"max","type":"uint256"}],"name":"MaxInvestorsSet","type":"event"},{"anonymous":false,"inputs":[{"indexed":false,"internalType":"uint256","name":"min","type":"uint256"}],"name":"MinBalanceSet","type":"event"},{"inputs":[{"internalType":"address","name":"from","type":"address"},{"internalType":"address","name":"to","type":"address"},{"internalType":"uint256","name":"amount","type":"uint256"}],"name":"canTransfer","outputs":[{"internalType":"bool","name":"","type":"bool"}],"stateMutability":"view","type":"function"},{"inputs":[],"name":"complianceRules","outputs":[{"internalType":"uint256","name":"maxBalance","type":"uint256"},{"internalType":"uint256","name":"minBalance","type":"uint256"},{"internalType":"uint256","name":"maxInvestors","type":"uint256"}],"stateMutability":"view","type":"function"},{"inputs":[],"name":"selectorsIntrospection","outputs":[{"internalType":"bytes4[]","name":"selectors_","type":"bytes4[]"}],"stateMutability":"pure","type":"function"},{"inputs":[{"internalType":"uint256","name":"max","type":"uint256"}],"name":"setMaxBalance","outputs":[],"stateMutability":"nonpayable","type":"function"},{"inputs":[{"internalType":"uint256","name":"max","type":"uint256"}],"name":"setMaxInvestors","outputs":[],"stateMutability":"nonpayable","type":"function"},{"inputs":[{"internalType":"uint256","name":"min","type":"uint256"}],"name":"setMinBalance","outputs":[],"stateMutability":"nonpayable","type":"function"}],"evm":{"bytecode":{"linkReferences":{},"object":"608060405234801561001057600080fd5b506108f0806100206000396000f3fe608060405234801561001057600080fd5b50600436106100625760003560e01c806335e896c1146100675780636ec58d131461007c5780639d51d9b7146100f0578063c91d956c14610103578063e3b807a014610116578063e46638e61461012b575b600080fd5b61007a610075366004610766565b61014e565b005b60008051602061089b833981519152547f3f58a8938bec95c6a1ed44e042c3c2e2b9c1eb2b83644b148efde1f9dd7788d5547f3f58a8938bec95c6a1ed44e042c3c2e2b9c1eb2b83644b148efde1f9dd7788d654604080519384526020840192909252908201526060015b60405180910390f35b61007a6100fe366004610766565b610163565b61007a610111366004610766565b610175565b61011e610187565b6040516100e7919061077f565b61013e6101393660046107e9565b6102e6565b60405190151581526020016100e7565b610157336102fd565b6101608161037d565b50565b61016c336102fd565b610160816103e9565b61017e336102fd565b6101608161042b565b60408051600580825260c0820190925260609190816020820160a080368337019050509150639d51d9b760e01b826101be8361083b565b925082815181106101d1576101d1610852565b6001600160e01b031990921660209283029190910190910152633247655b60e21b826101fc8361083b565b9250828151811061020f5761020f610852565b6001600160e01b0319909216602092830291909101909101526335e896c160e01b8261023a8361083b565b9250828151811061024d5761024d610852565b6001600160e01b0319909216602092830291909101909101526372331c7360e11b826102788361083b565b9250828151811061028b5761028b610852565b6001600160e01b031990921660209283029190910190910152636ec58d1360e01b826102b68361083b565b925082815181106102c9576102c9610852565b6001600160e01b0319909216602092830291909101909101525090565b60006102f384848461048f565b90505b9392505050565b7f0fcb11fff5651caf53eaf1124d25315389f7b0ceffd704a5e999a2ffc7764fd5546001600160a01b038281169116146101605760405162461bcd60e51b815260206004820152601d60248201527f436f6d706c69616e6365496e7465726e616c3a204e6f74206f776e6572000000604482015260640160405180910390fd5b7f3f58a8938bec95c6a1ed44e042c3c2e2b9c1eb2b83644b148efde1f9dd7788d681905560405181815260008051602061089b833981519152907f0de3b656191db95f0ae3b33d959531021110a9da5b819655d9d13a57496144ad906020015b60405180910390a15050565b60008051602061089b8339815191528181556040518281527f82f9980487703d8db41f1ba63b2665566f7fb449fbc840a9e0c6ca932bed582c906020016103dd565b7f3f58a8938bec95c6a1ed44e042c3c2e2b9c1eb2b83644b148efde1f9dd7788d581905560405181815260008051602061089b833981519152907fc9ac0b9c6116d44b14ac8198e0802802d07cf6956054e7542f0460a4d3423b3a906020016103dd565b6001600160a01b03831660009081527f736ce0c14097c43f46534906dfa4c53dc3d50ced9d4ca89fafa7ec003cfb443a602052604081205460ff168061050c57506001600160a01b03831660009081527f736ce0c14097c43f46534906dfa4c53dc3d50ced9d4ca89fafa7ec003cfb443a602052604090205460ff165b15610519575060006102f6565b6001600160a01b0383811660009081527f8250f062390633740b58dd505171a2b7207c6c4b65557d3f50ba32fe928e9da560205260409020541661055f575060006102f6565b6001600160a01b03831660009081527f736ce0c14097c43f46534906dfa4c53dc3d50ced9d4ca89fafa7ec003cfb4434602052604081205460008051602061089b833981519152916105b18583610868565b8354909150158015906105c45750825481115b156105d557600093505050506102f6565b600083600101541180156105ec5750826001015481105b156105fd57600093505050506102f6565b6000836002015411801561060f575081155b1561063a57600061061e610647565b9050836002015481106106385760009450505050506102f6565b505b5060019695505050505050565b6000807f736ce0c14097c43f46534906dfa4c53dc3d50ced9d4ca89fafa7ec003cfb44346007018054806020026020016040519081016040528092919081815260200182805480156106c257602002820191906000526020600020905b81546001600160a01b031681526001909101906020018083116106a4575b505050505090506000805b825181101561075f5760007f736ce0c14097c43f46534906dfa4c53dc3d50ced9d4ca89fafa7ec003cfb4434600001600085848151811061071057610710610852565b60200260200101516001600160a01b03166001600160a01b0316815260200190815260200160002054111561074d578161074981610881565b9250505b8061075781610881565b9150506106cd565b5092915050565b60006020828403121561077857600080fd5b5035919050565b6020808252825182820181905260009190848201906040850190845b818110156107c15783516001600160e01b0319168352928401929184019160010161079b565b50909695505050505050565b80356001600160a01b03811681146107e457600080fd5b919050565b6000806000606084860312156107fe57600080fd5b610807846107cd565b9250610815602085016107cd565b9150604084013590509250925092565b634e487b7160e01b600052601160045260246000fd5b60008161084a5761084a610825565b506000190190565b634e487b7160e01b600052603260045260246000fd5b8082018082111561087b5761087b610825565b92915050565b60006001820161089357610893610825565b506001019056fe3f58a8938bec95c6a1ed44e042c3c2e2b9c1eb2b83644b148efde1f9dd7788d4a26469706673582212202c0b5a6c3473e4d46f5a41839d75b3304aac936f6233fd2c9ef66c7e9716b03764736f6c63430008110033","opcodes":"PUSH1 0x80 PUSH1 0x40 MSTORE CALLVALUE DUP1 ISZERO PUSH2 0x10 JUMPI PUSH1 0x0 DUP1 REVERT JUMPDEST POP PUSH2 0x8F0 DUP1 PUSH2 0x20 PUSH1 0x0 CODECOPY PUSH1 0x0 RETURN INVALID PUSH1 0x80 PUSH1 0x40 MSTORE CALLVALUE DUP1 ISZERO PUSH2 0x10 JUMPI PUSH1 0x0 DUP1 REVERT JUMPDEST POP PUSH1 0x4 CALLDATASIZE LT PUSH2 0x62 JUMPI PUSH1 0x0 CALLDATALOAD PUSH1 0xE0 SHR DUP1 PUSH4 0x35E896C1 EQ PUSH2 0x67 JUMPI DUP1 PUSH4 0x6EC58D13 EQ PUSH2 0x7C JUMPI DUP1 PUSH4 0x9D51D9B7 EQ PUSH2 0xF0 JUMPI DUP1 PUSH4 0xC91D956C EQ PUSH2 0x103 JUMPI DUP1 PUSH4 0xE3B807A0 EQ PUSH2 0x116 JUMPI DUP1 PUSH4 0xE46638E6 EQ PUSH2 0x12B JUMPI JUMPDEST PUSH1 0x0 DUP1 REVERT JUMPDEST PUSH2 0x7A PUSH2 0x75 CALLDATASIZE PUSH1 0x4 PUSH2 0x766 JUMP JUMPDEST PUSH2 0x14E JUMP JUMPDEST STOP JUMPDEST PUSH1 0x0 DUP1 MLOAD PUSH1 0x20 PUSH2 0x89B DUP4 CODECOPY DUP2 MLOAD SWAP2 MSTORE SLOAD PUSH32 0x3F58A8938BEC95C6A1ED44E042C3C2E2B9C1EB2B83644B148EFDE1F9DD7788D5 SLOAD PUSH32 0x3F58A8938BEC95C6A1ED44E042C3C2E2B9C1EB2B83644B148EFDE1F9DD7788D6 SLOAD PUSH1 0x40 DUP1 MLOAD SWAP4 DUP5 MSTORE PUSH1 0x20 DUP5 ADD SWAP3 SWAP1 SWAP3 MSTORE SWAP1 DUP3 ADD MSTORE PUSH1 0x60 ADD JUMPDEST PUSH1 0x40 MLOAD DUP1 SWAP2 SUB SWAP1 RETURN JUMPDEST PUSH2 0x7A PUSH2 0xFE CALLDATASIZE PUSH1 0x4 PUSH2 0x766 JUMP JUMPDEST PUSH2 0x163 JUMP JUMPDEST PUSH2 0x7A PUSH2 0x111 CALLDATASIZE PUSH1 0x4 PUSH2 0x766 JUMP JUMPDEST PUSH2 0x175 JUMP JUMPDEST PUSH2 0x11E PUSH2 0x187 JUMP JUMPDEST PUSH1 0x40 MLOAD PUSH2 0xE7 SWAP2 SWAP1 PUSH2 0x77F JUMP JUMPDEST PUSH2 0x13E PUSH2 0x139 CALLDATASIZE PUSH1 0x4 PUSH2 0x7E9 JUMP JUMPDEST PUSH2 0x2E6 JUMP JUMPDEST PUSH1 0x40 MLOAD SWAP1 ISZERO ISZERO DUP2 MSTORE PUSH1 0x20 ADD PUSH2 0xE7 JUMP JUMPDEST PUSH2 0x157 CALLER PUSH2 0x2FD JUMP JUMPDEST PUSH2 0x160 DUP2 PUSH2 0x37D JUMP JUMPDEST POP JUMP JUMPDEST PUSH2 0x16C CALLER PUSH2 0x2FD JUMP JUMPDEST PUSH2 0x160 DUP2 PUSH2 0x3E9 JUMP JUMPDEST PUSH2 0x17E CALLER PUSH2 0x2FD JUMP JUMPDEST PUSH2 0x160 DUP2 PUSH2 0x42B JUMP JUMPDEST PUSH1 0x40 DUP1 MLOAD PUSH1 0x5 DUP1 DUP3 MSTORE PUSH1 0xC0 DUP3 ADD SWAP1 SWAP3 MSTORE PUSH1 0x60 SWAP2 SWAP1 DUP2 PUSH1 0x20 DUP3 ADD PUSH1 0xA0 DUP1 CALLDATASIZE DUP4 CALLDATACOPY ADD SWAP1 POP POP SWAP2 POP PUSH4 0x9D51D9B7 PUSH1 0xE0 SHL DUP3 PUSH2 0x1BE DUP4 PUSH2 0x83B JUMP JUMPDEST SWAP3 POP DUP3 DUP2 MLOAD DUP2 LT PUSH2 0x1D1 JUMPI PUSH2 0x1D1 PUSH2 0x852 JUMP JUMPDEST PUSH1 0x1 PUSH1 0x1 PUSH1 0xE0 SHL SUB NOT SWAP1 SWAP3 AND PUSH1 0x20 SWAP3 DUP4 MUL SWAP2 SWAP1 SWAP2 ADD SWAP1 SWAP2 ADD MSTORE PUSH4 0x3247655B PUSH1 0xE2 SHL DUP3 PUSH2 0x1FC DUP4 PUSH2 0x83B JUMP JUMPDEST SWAP3 POP DUP3 DUP2 MLOAD DUP2 LT PUSH2 0x20F JUMPI PUSH2 0x20F PUSH2 0x852 JUMP JUMPDEST PUSH1 0x1 PUSH1 0x1 PUSH1 0xE0 SHL SUB NOT SWAP1 SWAP3 AND PUSH1 0x20 SWAP3 DUP4 MUL SWAP2 SWAP1 SWAP2 ADD SWAP1 SWAP2 ADD MSTORE PUSH4 0x35E896C1 PUSH1 0xE0 SHL DUP3 PUSH2 0x23A DUP4 PUSH2 0x83B JUMP JUMPDEST SWAP3 POP DUP3 DUP2 MLOAD DUP2 LT PUSH2 0x24D JUMPI PUSH2 0x24D PUSH2 0x852 JUMP JUMPDEST PUSH1 0x1 PUSH1 0x1 PUSH1 0xE0 SHL SUB NOT SWAP1 SWAP3 AND PUSH1 0x20 SWAP3 DUP4 MUL SWAP2 SWAP1 SWAP2 ADD SWAP1 SWAP2 ADD MSTORE PUSH4 0x72331C73 PUSH1 0xE1 SHL DUP3 PUSH2 0x278 DUP4 PUSH2 0x83B JUMP JUMPDEST SWAP3 POP DUP3 DUP2 MLOAD DUP2 LT PUSH2 0x28B JUMPI PUSH2 0x28B PUSH2 0x852 JUMP JUMPDEST PUSH1 0x1 PUSH1 0x1 PUSH1 0xE0 SHL SUB NOT SWAP1 SWAP3 AND PUSH1 0x20 SWAP3 DUP4 MUL SWAP2 SWAP1 SWAP2 ADD SWAP1 SWAP2 ADD MSTORE PUSH4 0x6EC58D13 PUSH1 0xE0 SHL DUP3 PUSH2 0x2B6 DUP4 PUSH2 0x83B JUMP JUMPDEST SWAP3 POP DUP3 DUP2 MLOAD DUP2 LT PUSH2 0x2C9 JUMPI PUSH2 0x2C9 PUSH2 0x852 JUMP JUMPDEST PUSH1 0x1 PUSH1 0x1 PUSH1 0xE0 SHL SUB NOT SWAP1 SWAP3 AND PUSH1 0x20 SWAP3 DUP4 MUL SWAP2 SWAP1 SWAP2 ADD SWAP1 SWAP2 ADD MSTORE POP SWAP1 JUMP JUMPDEST PUSH1 0x0 PUSH2 0x2F3 DUP5 DUP5 DUP5 PUSH2 0x48F JUMP JUMPDEST SWAP1 POP JUMPDEST SWAP4 SWAP3 POP POP POP JUMP JUMPDEST PUSH32 0xFCB11FFF5651CAF53EAF1124D25315389F7B0CEFFD704A5E999A2FFC7764FD5 SLOAD PUSH1 0x1 PUSH1 0x1 PUSH1 0xA0 SHL SUB DUP3 DUP2 AND SWAP2 AND EQ PUSH2 0x160 JUMPI PUSH1 0x40 MLOAD PUSH3 0x461BCD PUSH1 0xE5 SHL DUP2 MSTORE PUSH1 0x20 PUSH1 0x4 DUP3 ADD MSTORE PUSH1 0x1D PUSH1 0x24 DUP3 ADD MSTORE PUSH32 0x436F6D706C69616E6365496E7465726E616C3A204E6F74206F776E6572000000 PUSH1 0x44 DUP3 ADD MSTORE PUSH1 0x64 ADD PUSH1 0x40 MLOAD DUP1 SWAP2 SUB SWAP1 REVERT JUMPDEST PUSH32 0x3F58A8938BEC95C6A1ED44E042C3C2E2B9C1EB2B83644B148EFDE1F9DD7788D6 DUP2 SWAP1 SSTORE PUSH1 0x40 MLOAD DUP2 DUP2 MSTORE PUSH1 0x0 DUP1 MLOAD PUSH1 0x20 PUSH2 0x89B DUP4 CODECOPY DUP2 MLOAD SWAP2 MSTORE SWAP1 PUSH32 0xDE3B656191DB95F0AE3B33D959531021110A9DA5B819655D9D13A57496144AD SWAP1 PUSH1 0x20 ADD JUMPDEST PUSH1 0x40 MLOAD DUP1 SWAP2 SUB SWAP1 LOG1 POP POP JUMP JUMPDEST PUSH1 0x0 DUP1 MLOAD PUSH1 0x20 PUSH2 0x89B DUP4 CODECOPY DUP2 MLOAD SWAP2 MSTORE DUP2 DUP2 SSTORE PUSH1 0x40 MLOAD DUP3 DUP2 MSTORE PUSH32 0x82F9980487703D8DB41F1BA63B2665566F7FB449FBC840A9E0C6CA932BED582C SWAP1 PUSH1 0x20 ADD PUSH2 0x3DD JUMP JUMPDEST PUSH32 0x3F58A8938BEC95C6A1ED44E042C3C2E2B9C1EB2B83644B148EFDE1F9DD7788D5 DUP2 SWAP1 SSTORE PUSH1 0x40 MLOAD DUP2 DUP2 MSTORE PUSH1 0x0 DUP1 MLOAD PUSH1 0x20 PUSH2 0x89B DUP4 CODECOPY DUP2 MLOAD SWAP2 MSTORE SWAP1 PUSH32 0xC9AC0B9C6116D44B14AC8198E0802802D07CF6956054E7542F0460A4D3423B3A SWAP1 PUSH1 0x20 ADD PUSH2 0x3DD JUMP JUMPDEST PUSH1 0x1 PUSH1 0x1 PUSH1 0xA0 SHL SUB DUP4 AND PUSH1 0x0 SWAP1 DUP2 MSTORE PUSH32 0x736CE0C14097C43F46534906DFA4C53DC3D50CED9D4CA89FAFA7EC003CFB443A PUSH1 0x20 MSTORE PUSH1 0x40 DUP2 KECCAK256 SLOAD PUSH1 0xFF AND DUP1 PUSH2 0x50C JUMPI POP PUSH1 0x1 PUSH1 0x1 PUSH1 0xA0 SHL SUB DUP4 AND PUSH1 0x0 SWAP1 DUP2 MSTORE PUSH32 0x736CE0C14097C43F46534906DFA4C53DC3D50CED9D4CA89FAFA7EC003CFB443A PUSH1 0x20 MSTORE PUSH1 0x40 SWAP1 KECCAK256 SLOAD PUSH1 0xFF AND JUMPDEST ISZERO PUSH2 0x519 JUMPI POP PUSH1 0x0 PUSH2 0x2F6 JUMP JUMPDEST PUSH1 0x1 PUSH1 0x1 PUSH1 0xA0 SHL SUB DUP4 DUP2 AND PUSH1 0x0 SWAP1 DUP2 MSTORE PUSH32 0x8250F062390633740B58DD505171A2B7207C6C4B65557D3F50BA32FE928E9DA5 PUSH1 0x20 MSTORE PUSH1 0x40 SWAP1 KECCAK256 SLOAD AND PUSH2 0x55F JUMPI POP PUSH1 0x0 PUSH2 0x2F6 JUMP JUMPDEST PUSH1 0x1 PUSH1 0x1 PUSH1 0xA0 SHL SUB DUP4 AND PUSH1 0x0 SWAP1 DUP2 MSTORE PUSH32 0x736CE0C14097C43F46534906DFA4C53DC3D50CED9D4CA89FAFA7EC003CFB4434 PUSH1 0x20 MSTORE PUSH1 0x40 DUP2 KECCAK256 SLOAD PUSH1 0x0 DUP1 MLOAD PUSH1 0x20 PUSH2 0x89B DUP4 CODECOPY DUP2 MLOAD SWAP2 MSTORE SWAP2 PUSH2 0x5B1 DUP6 DUP4 PUSH2 0x868 JUMP JUMPDEST DUP4 SLOAD SWAP1 SWAP2 POP ISZERO DUP1 ISZERO SWAP1 PUSH2 0x5C4 JUMPI POP DUP3 SLOAD DUP2 GT JUMPDEST ISZERO PUSH2 0x5D5 JUMPI PUSH1 0x0 SWAP4 POP POP POP POP PUSH2 0x2F6 JUMP JUMPDEST PUSH1 0x0 DUP4 PUSH1 0x1 ADD SLOAD GT DUP1 ISZERO PUSH2 0x5EC JUMPI POP DUP3 PUSH1 0x1 ADD SLOAD DUP2 LT JUMPDEST ISZERO PUSH2 0x5FD JUMPI PUSH1 0x0 SWAP4 POP POP POP POP PUSH2 0x2F6 JUMP JUMPDEST PUSH1 0x0 DUP4 PUSH1 0x2 ADD SLOAD GT DUP1 ISZERO PUSH2 0x60F JUMPI POP DUP2 ISZERO JUMPDEST ISZERO PUSH2 0x63A JUMPI PUSH1 0x0 PUSH2 0x61E PUSH2 0x647 JUMP JUMPDEST SWAP1 POP DUP4 PUSH1 0x2 ADD SLOAD DUP2 LT PUSH2 0x638 JUMPI PUSH1 0x0 SWAP5 POP POP POP POP POP PUSH2 0x2F6 JUMP JUMPDEST POP JUMPDEST POP PUSH1 0x1 SWAP7 SWAP6 POP POP POP POP POP POP JUMP JUMPDEST PUSH1 0x0 DUP1 PUSH32 0x736CE0C14097C43F46534906DFA4C53DC3D50CED9D4CA89FAFA7EC003CFB4434 PUSH1 0x7 ADD DUP1 SLOAD DUP1 PUSH1 0x20 MUL PUSH1 0x20 ADD PUSH1 0x40 MLOAD SWAP1 DUP2 ADD PUSH1 0x40 MSTORE DUP1 SWAP3 SWAP2 SWAP1 DUP2 DUP2 MSTORE PUSH1 0x20 ADD DUP3 DUP1 SLOAD DUP1 ISZERO PUSH2 0x6C2 JUMPI PUSH1 0x20 MUL DUP3 ADD SWAP2 SWAP1 PUSH1 0x0 MSTORE PUSH1 0x20 PUSH1 0x0 KECCAK256 SWAP1 JUMPDEST DUP2 SLOAD PUSH1 0x1 PUSH1 0x1 PUSH1 0xA0 SHL SUB AND DUP2 MSTORE PUSH1 0x1 SWAP1 SWAP2 ADD SWAP1 PUSH1 0x20 ADD DUP1 DUP4 GT PUSH2 0x6A4 JUMPI JUMPDEST POP POP POP POP POP SWAP1 POP PUSH1 0x0 DUP1 JUMPDEST DUP3 MLOAD DUP2 LT ISZERO PUSH2 0x75F JUMPI PUSH1 0x0 PUSH32 0x736CE0C14097C43F46534906DFA4C53DC3D50CED9D4CA89FAFA7EC003CFB4434 PUSH1 0x0 ADD PUSH1 0x0 DUP6 DUP5 DUP2 MLOAD DUP2 LT PUSH2 0x710 JUMPI PUSH2 0x710 PUSH2 0x852 JUMP JUMPDEST PUSH1 0x20 MUL PUSH1 0x20 ADD ADD MLOAD PUSH1 0x1 PUSH1 0x1 PUSH1 0xA0 SHL SUB AND PUSH1 0x1 PUSH1 0x1 PUSH1 0xA0 SHL SUB AND DUP2 MSTORE PUSH1 0x20 ADD SWAP1 DUP2 MSTORE PUSH1 0x20 ADD PUSH1 0x0 KECCAK256 SLOAD GT ISZERO PUSH2 0x74D JUMPI DUP2 PUSH2 0x749 DUP2 PUSH2 0x881 JUMP JUMPDEST SWAP3 POP POP JUMPDEST DUP1 PUSH2 0x757 DUP2 PUSH2 0x881 JUMP JUMPDEST SWAP2 POP POP PUSH2 0x6CD JUMP JUMPDEST POP SWAP3 SWAP2 POP POP JUMP JUMPDEST PUSH1 0x0 PUSH1 0x20 DUP3 DUP5 SUB SLT ISZERO PUSH2 0x778 JUMPI PUSH1 0x0 DUP1 REVERT JUMPDEST POP CALLDATALOAD SWAP2 SWAP1 POP JUMP JUMPDEST PUSH1 0x20 DUP1 DUP3 MSTORE DUP3 MLOAD DUP3 DUP3 ADD DUP2 SWAP1 MSTORE PUSH1 0x0 SWAP2 SWAP1 DUP5 DUP3 ADD SWAP1 PUSH1 0x40 DUP6 ADD SWAP1 DUP5 JUMPDEST DUP2 DUP2 LT ISZERO PUSH2 0x7C1 JUMPI DUP4 MLOAD PUSH1 0x1 PUSH1 0x1 PUSH1 0xE0 SHL SUB NOT AND DUP4 MSTORE SWAP3 DUP5 ADD SWAP3 SWAP2 DUP5 ADD SWAP2 PUSH1 0x1 ADD PUSH2 0x79B JUMP JUMPDEST POP SWAP1 SWAP7 SWAP6 POP POP POP POP POP POP JUMP JUMPDEST DUP1 CALLDATALOAD PUSH1 0x1 PUSH1 0x1 PUSH1 0xA0 SHL SUB DUP2 AND DUP2 EQ PUSH2 0x7E4 JUMPI PUSH1 0x0 DUP1 REVERT JUMPDEST SWAP2 SWAP1 POP JUMP JUMPDEST PUSH1 0x0 DUP1 PUSH1 0x0 PUSH1 0x60 DUP5 DUP7 SUB SLT ISZERO PUSH2 0x7FE JUMPI PUSH1 0x0 DUP1 REVERT JUMPDEST PUSH2 0x807 DUP5 PUSH2 0x7CD JUMP JUMPDEST SWAP3 POP PUSH2 0x815 PUSH1 0x20 DUP6 ADD PUSH2 0x7CD JUMP JUMPDEST SWAP2 POP PUSH1 0x40 DUP5 ADD CALLDATALOAD SWAP1 POP SWAP3 POP SWAP3 POP SWAP3 JUMP JUMPDEST PUSH4 0x4E487B71 PUSH1 0xE0 SHL PUSH1 0x0 MSTORE PUSH1 0x11 PUSH1 0x4 MSTORE PUSH1 0x24 PUSH1 0x0 REVERT JUMPDEST PUSH1 0x0 DUP2 PUSH2 0x84A JUMPI PUSH2 0x84A PUSH2 0x825 JUMP JUMPDEST POP PUSH1 0x0 NOT ADD SWAP1 JUMP JUMPDEST PUSH4 0x4E487B71 PUSH1 0xE0 SHL PUSH1 0x0 MSTORE PUSH1 0x32 PUSH1 0x4 MSTORE PUSH1 0x24 PUSH1 0x0 REVERT JUMPDEST DUP1 DUP3 ADD DUP1 DUP3 GT ISZERO PUSH2 0x87B JUMPI PUSH2 0x87B PUSH2 0x825 JUMP JUMPDEST SWAP3 SWAP2 POP POP JUMP JUMPDEST PUSH1 0x0 PUSH1 0x1 DUP3 ADD PUSH2 0x893 JUMPI PUSH2 0x893 PUSH2 0x825 JUMP JUMPDEST POP PUSH1 0x1 ADD SWAP1 JUMP INVALID EXTCODEHASH PC 0xA8 SWAP4 DUP12 0xEC SWAP6 0xC6 LOG1 0xED DIFFICULTY 0xE0 TIMESTAMP 0xC3 0xC2 0xE2 0xB9 0xC1 0xEB 0x2B DUP4 PUSH5 0x4B148EFDE1 0xF9 0xDD PUSH24 0x88D4A26469706673582212202C0B5A6C3473E4D46F5A4183 SWAP14 PUSH22 0xB3304AAC936F6233FD2C9EF66C7E9716B03764736F6C PUSH4 0x43000811 STOP CALLER "},"methodIdentifiers":{"canTransfer(address,address,uint256)":"e46638e6","complianceRules()":"6ec58d13","selectorsIntrospection()":"e3b807a0","setMaxBalance(uint256)":"9d51d9b7","setMaxInvestors(uint256)":"35e896c1","setMinBalance(uint256)":"c91d956c"}},"storageLayout":{"storage":[],"types":null}}}}