{"contracts/facets/ClaimTopicsFacet.sol":{"ClaimTopicsFacet":{"abi":[{"anonymous":false,"inputs":[{"indexed":true,"internalType":"uint256","name":"topic","type":"uint256"}],"name":"ClaimTopicAdded","type":"event"},{"anonymous":false,"inputs":[{"indexed":true,"internalType":"uint256","name":"topic","type":"uint256"}],"name":"ClaimTopicRemoved","type":"event"},{"inputs":[{"internalType":"uint256","name":"topic","type":"uint256"}],"name":"addClaimTopic","outputs":[],"stateMutability":"nonpayable","type":"function"},{"inputs":[],"name":"getClaimTopics","outputs":[{"internalType":"uint256[]","name":"","type":"uint256[]"}],"stateMutability":"view","type":"function"},{"inputs":[{"internalType":"uint256","name":"topic","type":"uint256"}],"name":"removeClaimTopic","outputs":[],"stateMutability":"nonpayable","type":"function"},{"inputs":[],"name":"selectorsIntrospection","outputs":[{"internalType":"bytes4[]","name":"selectors_","type":"bytes4[]"}],"stateMutability":"pure","type":"function"}],"evm":{"bytecode":{"linkReferences":{},"object":"608060405234801561001057600080fd5b50610609806100206000396000f3fe608060405234801561001057600080fd5b506004361061004c5760003560e01c80630829784614610051578063c7b2255114610066578063df09d60414610079578063e3b807a014610097575b600080fd5b61006461005f366004610489565b6100ac565b005b610064610074366004610489565b610210565b61008161033f565b60405161008e91906104a2565b60405180910390f35b61009f6103a7565b60405161008e91906104e6565b6000805160206105b48339815191526008015461010090046001600160a01b0316331461010c5760405162461bcd60e51b81526020600482015260096024820152682737ba1037bbb732b960b91b60448201526064015b60405180910390fd5b6000805160206105b483398151915260005b600e82015481101561020b578282600e01828154811061014057610140610528565b9060005260206000200154036101f957600e8201805461016290600190610554565b8154811061017257610172610528565b906000526020600020015482600e01828154811061019257610192610528565b600091825260209091200155600e82018054806101b1576101b161056d565b60019003818190600052602060002001600090559055827f0b1381093c776453c1bbe54fd68be1b235c65db61d099cb50d194b2991e0eec560405160405180910390a2505050565b8061020381610583565b91505061011e565b505050565b6000805160206105b48339815191526008015461010090046001600160a01b0316331461026b5760405162461bcd60e51b81526020600482015260096024820152682737ba1037bbb732b960b91b6044820152606401610103565b6000805160206105b483398151915260005b600e8201548110156102f9578282600e01828154811061029f5761029f610528565b9060005260206000200154036102e75760405162461bcd60e51b815260206004820152600d60248201526c105b1c9958591e481859191959609a1b6044820152606401610103565b806102f181610583565b91505061027d565b50600e810180546001810182556000918252602082200183905560405183917f01c928b7f7ade2949e92366aa9454dbef3a416b731cf6ec786ba9595bbd814d691a25050565b60606000805160206105b4833981519152600e0180548060200260200160405190810160405280929190818152602001828054801561039d57602002820191906000526020600020905b815481526020019060010190808311610389575b5050505050905090565b60408051600380825260808201909252606091908160208201848036833701905050915063c7b2255160e01b826103dd8361059c565b925082815181106103f0576103f0610528565b6001600160e01b031990921660209283029190910190910152630414bc2360e11b8261041b8361059c565b9250828151811061042e5761042e610528565b6001600160e01b0319909216602092830291909101909101526337c2758160e21b826104598361059c565b9250828151811061046c5761046c610528565b6001600160e01b0319909216602092830291909101909101525090565b60006020828403121561049b57600080fd5b5035919050565b6020808252825182820181905260009190848201906040850190845b818110156104da578351835292840192918401916001016104be565b50909695505050505050565b6020808252825182820181905260009190848201906040850190845b818110156104da5783516001600160e01b03191683529284019291840191600101610502565b634e487b7160e01b600052603260045260246000fd5b634e487b7160e01b600052601160045260246000fd5b818103818111156105675761056761053e565b92915050565b634e487b7160e01b600052603160045260246000fd5b6000600182016105955761059561053e565b5060010190565b6000816105ab576105ab61053e565b50600019019056fec2b69da5e7be41c6eaba0bfa82e0e1fef8d4512d663aa63c99ede9dd1d17b00fa2646970667358221220c3f746bc40c0629514ffbb66227774ff5fb4249b369488bbcc0d567f6627c2d364736f6c63430008110033","opcodes":"PUSH1 0x80 PUSH1 0x40 MSTORE CALLVALUE DUP1 ISZERO PUSH2 0x10 JUMPI PUSH1 0x0 DUP1 REVERT JUMPDEST POP PUSH2 0x609 DUP1 PUSH2 0x20 PUSH1 0x0 CODECOPY PUSH1 0x0 RETURN INVALID PUSH1 0x80 PUSH1 0x40 MSTORE CALLVALUE DUP1 ISZERO PUSH2 0x10 JUMPI PUSH1 0x0 DUP1 REVERT JUMPDEST POP PUSH1 0x4 CALLDATASIZE LT PUSH2 0x4C JUMPI PUSH1 0x0 CALLDATALOAD PUSH1 0xE0 SHR DUP1 PUSH4 0x8297846 EQ PUSH2 0x51 JUMPI DUP1 PUSH4 0xC7B22551 EQ PUSH2 0x66 JUMPI DUP1 PUSH4 0xDF09D604 EQ PUSH2 0x79 JUMPI DUP1 PUSH4 0xE3B807A0 EQ PUSH2 0x97 JUMPI JUMPDEST PUSH1 0x0 DUP1 REVERT JUMPDEST PUSH2 0x64 PUSH2 0x5F CALLDATASIZE PUSH1 0x4 PUSH2 0x489 JUMP JUMPDEST PUSH2 0xAC JUMP JUMPDEST STOP JUMPDEST PUSH2 0x64 PUSH2 0x74 CALLDATASIZE PUSH1 0x4 PUSH2 0x489 JUMP JUMPDEST PUSH2 0x210 JUMP JUMPDEST PUSH2 0x81 PUSH2 0x33F JUMP JUMPDEST PUSH1 0x40 MLOAD PUSH2 0x8E SWAP2 SWAP1 PUSH2 0x4A2 JUMP JUMPDEST PUSH1 0x40 MLOAD DUP1 SWAP2 SUB SWAP1 RETURN JUMPDEST PUSH2 0x9F PUSH2 0x3A7 JUMP JUMPDEST PUSH1 0x40 MLOAD PUSH2 0x8E SWAP2 SWAP1 PUSH2 0x4E6 JUMP JUMPDEST PUSH1 0x0 DUP1 MLOAD PUSH1 0x20 PUSH2 0x5B4 DUP4 CODECOPY DUP2 MLOAD SWAP2 MSTORE PUSH1 0x8 ADD SLOAD PUSH2 0x100 SWAP1 DIV PUSH1 0x1 PUSH1 0x1 PUSH1 0xA0 SHL SUB AND CALLER EQ PUSH2 0x10C JUMPI PUSH1 0x40 MLOAD PUSH3 0x461BCD PUSH1 0xE5 SHL DUP2 MSTORE PUSH1 0x20 PUSH1 0x4 DUP3 ADD MSTORE PUSH1 0x9 PUSH1 0x24 DUP3 ADD MSTORE PUSH9 0x2737BA1037BBB732B9 PUSH1 0xB9 SHL PUSH1 0x44 DUP3 ADD MSTORE PUSH1 0x64 ADD JUMPDEST PUSH1 0x40 MLOAD DUP1 SWAP2 SUB SWAP1 REVERT JUMPDEST PUSH1 0x0 DUP1 MLOAD PUSH1 0x20 PUSH2 0x5B4 DUP4 CODECOPY DUP2 MLOAD SWAP2 MSTORE PUSH1 0x0 JUMPDEST PUSH1 0xE DUP3 ADD SLOAD DUP2 LT ISZERO PUSH2 0x20B JUMPI DUP3 DUP3 PUSH1 0xE ADD DUP3 DUP2 SLOAD DUP2 LT PUSH2 0x140 JUMPI PUSH2 0x140 PUSH2 0x528 JUMP JUMPDEST SWAP1 PUSH1 0x0 MSTORE PUSH1 0x20 PUSH1 0x0 KECCAK256 ADD SLOAD SUB PUSH2 0x1F9 JUMPI PUSH1 0xE DUP3 ADD DUP1 SLOAD PUSH2 0x162 SWAP1 PUSH1 0x1 SWAP1 PUSH2 0x554 JUMP JUMPDEST DUP2 SLOAD DUP2 LT PUSH2 0x172 JUMPI PUSH2 0x172 PUSH2 0x528 JUMP JUMPDEST SWAP1 PUSH1 0x0 MSTORE PUSH1 0x20 PUSH1 0x0 KECCAK256 ADD SLOAD DUP3 PUSH1 0xE ADD DUP3 DUP2 SLOAD DUP2 LT PUSH2 0x192 JUMPI PUSH2 0x192 PUSH2 0x528 JUMP JUMPDEST PUSH1 0x0 SWAP2 DUP3 MSTORE PUSH1 0x20 SWAP1 SWAP2 KECCAK256 ADD SSTORE PUSH1 0xE DUP3 ADD DUP1 SLOAD DUP1 PUSH2 0x1B1 JUMPI PUSH2 0x1B1 PUSH2 0x56D JUMP JUMPDEST PUSH1 0x1 SWAP1 SUB DUP2 DUP2 SWAP1 PUSH1 0x0 MSTORE PUSH1 0x20 PUSH1 0x0 KECCAK256 ADD PUSH1 0x0 SWAP1 SSTORE SWAP1 SSTORE DUP3 PUSH32 0xB1381093C776453C1BBE54FD68BE1B235C65DB61D099CB50D194B2991E0EEC5 PUSH1 0x40 MLOAD PUSH1 0x40 MLOAD DUP1 SWAP2 SUB SWAP1 LOG2 POP POP POP JUMP JUMPDEST DUP1 PUSH2 0x203 DUP2 PUSH2 0x583 JUMP JUMPDEST SWAP2 POP POP PUSH2 0x11E JUMP JUMPDEST POP POP POP JUMP JUMPDEST PUSH1 0x0 DUP1 MLOAD PUSH1 0x20 PUSH2 0x5B4 DUP4 CODECOPY DUP2 MLOAD SWAP2 MSTORE PUSH1 0x8 ADD SLOAD PUSH2 0x100 SWAP1 DIV PUSH1 0x1 PUSH1 0x1 PUSH1 0xA0 SHL SUB AND CALLER EQ PUSH2 0x26B JUMPI PUSH1 0x40 MLOAD PUSH3 0x461BCD PUSH1 0xE5 SHL DUP2 MSTORE PUSH1 0x20 PUSH1 0x4 DUP3 ADD MSTORE PUSH1 0x9 PUSH1 0x24 DUP3 ADD MSTORE PUSH9 0x2737BA1037BBB732B9 PUSH1 0xB9 SHL PUSH1 0x44 DUP3 ADD MSTORE PUSH1 0x64 ADD PUSH2 0x103 JUMP JUMPDEST PUSH1 0x0 DUP1 MLOAD PUSH1 0x20 PUSH2 0x5B4 DUP4 CODECOPY DUP2 MLOAD SWAP2 MSTORE PUSH1 0x0 JUMPDEST PUSH1 0xE DUP3 ADD SLOAD DUP2 LT ISZERO PUSH2 0x2F9 JUMPI DUP3 DUP3 PUSH1 0xE ADD DUP3 DUP2 SLOAD DUP2 LT PUSH2 0x29F JUMPI PUSH2 0x29F PUSH2 0x528 JUMP JUMPDEST SWAP1 PUSH1 0x0 MSTORE PUSH1 0x20 PUSH1 0x0 KECCAK256 ADD SLOAD SUB PUSH2 0x2E7 JUMPI PUSH1 0x40 MLOAD PUSH3 0x461BCD PUSH1 0xE5 SHL DUP2 MSTORE PUSH1 0x20 PUSH1 0x4 DUP3 ADD MSTORE PUSH1 0xD PUSH1 0x24 DUP3 ADD MSTORE PUSH13 0x105B1C9958591E481859191959 PUSH1 0x9A SHL PUSH1 0x44 DUP3 ADD MSTORE PUSH1 0x64 ADD PUSH2 0x103 JUMP JUMPDEST DUP1 PUSH2 0x2F1 DUP2 PUSH2 0x583 JUMP JUMPDEST SWAP2 POP POP PUSH2 0x27D JUMP JUMPDEST POP PUSH1 0xE DUP2 ADD DUP1 SLOAD PUSH1 0x1 DUP2 ADD DUP3 SSTORE PUSH1 0x0 SWAP2 DUP3 MSTORE PUSH1 0x20 DUP3 KECCAK256 ADD DUP4 SWAP1 SSTORE PUSH1 0x40 MLOAD DUP4 SWAP2 PUSH32 0x1C928B7F7ADE2949E92366AA9454DBEF3A416B731CF6EC786BA9595BBD814D6 SWAP2 LOG2 POP POP JUMP JUMPDEST PUSH1 0x60 PUSH1 0x0 DUP1 MLOAD PUSH1 0x20 PUSH2 0x5B4 DUP4 CODECOPY DUP2 MLOAD SWAP2 MSTORE PUSH1 0xE ADD DUP1 SLOAD DUP1 PUSH1 0x20 MUL PUSH1 0x20 ADD PUSH1 0x40 MLOAD SWAP1 DUP2 ADD PUSH1 0x40 MSTORE DUP1 SWAP3 SWAP2 SWAP1 DUP2 DUP2 MSTORE PUSH1 0x20 ADD DUP3 DUP1 SLOAD DUP1 ISZERO PUSH2 0x39D JUMPI PUSH1 0x20 MUL DUP3 ADD SWAP2 SWAP1 PUSH1 0x0 MSTORE PUSH1 0x20 PUSH1 0x0 KECCAK256 SWAP1 JUMPDEST DUP2 SLOAD DUP2 MSTORE PUSH1 0x20 ADD SWAP1 PUSH1 0x1 ADD SWAP1 DUP1 DUP4 GT PUSH2 0x389 JUMPI JUMPDEST POP POP POP POP POP SWAP1 POP SWAP1 JUMP JUMPDEST PUSH1 0x40 DUP1 MLOAD PUSH1 0x3 DUP1 DUP3 MSTORE PUSH1 0x80 DUP3 ADD SWAP1 SWAP3 MSTORE PUSH1 0x60 SWAP2 SWAP1 DUP2 PUSH1 0x20 DUP3 ADD DUP5 DUP1 CALLDATASIZE DUP4 CALLDATACOPY ADD SWAP1 POP POP SWAP2 POP PUSH4 0xC7B22551 PUSH1 0xE0 SHL DUP3 PUSH2 0x3DD DUP4 PUSH2 0x59C JUMP JUMPDEST SWAP3 POP DUP3 DUP2 MLOAD DUP2 LT PUSH2 0x3F0 JUMPI PUSH2 0x3F0 PUSH2 0x528 JUMP JUMPDEST PUSH1 0x1 PUSH1 0x1 PUSH1 0xE0 SHL SUB NOT SWAP1 SWAP3 AND PUSH1 0x20 SWAP3 DUP4 MUL SWAP2 SWAP1 SWAP2 ADD SWAP1 SWAP2 ADD MSTORE PUSH4 0x414BC23 PUSH1 0xE1 SHL DUP3 PUSH2 0x41B DUP4 PUSH2 0x59C JUMP JUMPDEST SWAP3 POP DUP3 DUP2 MLOAD DUP2 LT PUSH2 0x42E JUMPI PUSH2 0x42E PUSH2 0x528 JUMP JUMPDEST PUSH1 0x1 PUSH1 0x1 PUSH1 0xE0 SHL SUB NOT SWAP1 SWAP3 AND PUSH1 0x20 SWAP3 DUP4 MUL SWAP2 SWAP1 SWAP2 ADD SWAP1 SWAP2 ADD MSTORE PUSH4 0x37C27581 PUSH1 0xE2 SHL DUP3 PUSH2 0x459 DUP4 PUSH2 0x59C JUMP JUMPDEST SWAP3 POP DUP3 DUP2 MLOAD DUP2 LT PUSH2 0x46C JUMPI PUSH2 0x46C PUSH2 0x528 JUMP JUMPDEST PUSH1 0x1 PUSH1 0x1 PUSH1 0xE0 SHL SUB NOT SWAP1 SWAP3 AND PUSH1 0x20 SWAP3 DUP4 MUL SWAP2 SWAP1 SWAP2 ADD SWAP1 SWAP2 ADD MSTORE POP SWAP1 JUMP JUMPDEST PUSH1 0x0 PUSH1 0x20 DUP3 DUP5 SUB SLT ISZERO PUSH2 0x49B JUMPI PUSH1 0x0 DUP1 REVERT JUMPDEST POP CALLDATALOAD SWAP2 SWAP1 POP JUMP JUMPDEST PUSH1 0x20 DUP1 DUP3 MSTORE DUP3 MLOAD DUP3 DUP3 ADD DUP2 SWAP1 MSTORE PUSH1 0x0 SWAP2 SWAP1 DUP5 DUP3 ADD SWAP1 PUSH1 0x40 DUP6 ADD SWAP1 DUP5 JUMPDEST DUP2 DUP2 LT ISZERO PUSH2 0x4DA JUMPI DUP4 MLOAD DUP4 MSTORE SWAP3 DUP5 ADD SWAP3 SWAP2 DUP5 ADD SWAP2 PUSH1 0x1 ADD PUSH2 0x4BE JUMP JUMPDEST POP SWAP1 SWAP7 SWAP6 POP POP POP POP POP POP JUMP JUMPDEST PUSH1 0x20 DUP1 DUP3 MSTORE DUP3 MLOAD DUP3 DUP3 ADD DUP2 SWAP1 MSTORE PUSH1 0x0 SWAP2 SWAP1 DUP5 DUP3 ADD SWAP1 PUSH1 0x40 DUP6 ADD SWAP1 DUP5 JUMPDEST DUP2 DUP2 LT ISZERO PUSH2 0x4DA JUMPI DUP4 MLOAD PUSH1 0x1 PUSH1 0x1 PUSH1 0xE0 SHL SUB NOT AND DUP4 MSTORE SWAP3 DUP5 ADD SWAP3 SWAP2 DUP5 ADD SWAP2 PUSH1 0x1 ADD PUSH2 0x502 JUMP JUMPDEST PUSH4 0x4E487B71 PUSH1 0xE0 SHL PUSH1 0x0 MSTORE PUSH1 0x32 PUSH1 0x4 MSTORE PUSH1 0x24 PUSH1 0x0 REVERT JUMPDEST PUSH4 0x4E487B71 PUSH1 0xE0 SHL PUSH1 0x0 MSTORE PUSH1 0x11 PUSH1 0x4 MSTORE PUSH1 0x24 PUSH1 0x0 REVERT JUMPDEST DUP2 DUP2 SUB DUP2 DUP2 GT ISZERO PUSH2 0x567 JUMPI PUSH2 0x567 PUSH2 0x53E JUMP JUMPDEST SWAP3 SWAP2 POP POP JUMP JUMPDEST PUSH4 0x4E487B71 PUSH1 0xE0 SHL PUSH1 0x0 MSTORE PUSH1 0x31 PUSH1 0x4 MSTORE PUSH1 0x24 PUSH1 0x0 REVERT JUMPDEST PUSH1 0x0 PUSH1 0x1 DUP3 ADD PUSH2 0x595 JUMPI PUSH2 0x595 PUSH2 0x53E JUMP JUMPDEST POP PUSH1 0x1 ADD SWAP1 JUMP JUMPDEST PUSH1 0x0 DUP2 PUSH2 0x5AB JUMPI PUSH2 0x5AB PUSH2 0x53E JUMP JUMPDEST POP PUSH1 0x0 NOT ADD SWAP1 JUMP INVALID 0xC2 0xB6 SWAP14 0xA5 0xE7 0xBE COINBASE 0xC6 0xEA 0xBA SIGNEXTEND STATICCALL DUP3 0xE0 0xE1 INVALID 0xF8 0xD4 MLOAD 0x2D PUSH7 0x3AA63C99EDE9DD SAR OR 0xB0 0xF LOG2 PUSH5 0x6970667358 0x22 SLT KECCAK256 0xC3 0xF7 CHAINID 0xBC BLOCKHASH 0xC0 PUSH3 0x9514FF 0xBB PUSH7 0x227774FF5FB424 SWAP12 CALLDATASIZE SWAP5 DUP9 0xBB 0xCC 0xD JUMP PUSH32 0x6627C2D364736F6C634300081100330000000000000000000000000000000000 "},"methodIdentifiers":{"addClaimTopic(uint256)":"c7b22551","getClaimTopics()":"df09d604","removeClaimTopic(uint256)":"08297846","selectorsIntrospection()":"e3b807a0"}},"storageLayout":{"storage":[],"types":null}}}}