{"contracts/facets/ClaimTopicsFacet.sol":{"ClaimTopicsFacet":{"abi":[{"anonymous":false,"inputs":[{"indexed":true,"internalType":"uint256","name":"topic","type":"uint256"}],"name":"ClaimTopicAdded","type":"event"},{"anonymous":false,"inputs":[{"indexed":true,"internalType":"uint256","name":"topic","type":"uint256"}],"name":"ClaimTopicRemoved","type":"event"},{"inputs":[{"internalType":"uint256","name":"topic","type":"uint256"}],"name":"addClaimTopic","outputs":[],"stateMutability":"nonpayable","type":"function"},{"inputs":[],"name":"getClaimTopics","outputs":[{"internalType":"uint256[]","name":"","type":"uint256[]"}],"stateMutability":"view","type":"function"},{"inputs":[{"internalType":"uint256","name":"topic","type":"uint256"}],"name":"removeClaimTopic","outputs":[],"stateMutability":"nonpayable","type":"function"}],"evm":{"bytecode":{"linkReferences":{},"object":"608060405234801561001057600080fd5b506104a4806100206000396000f3fe608060405234801561001057600080fd5b50600436106100415760003560e01c80630829784614610046578063c7b225511461005b578063df09d6041461006e575b600080fd5b61005961005436600461037d565b61008c565b005b61005961006936600461037d565b6101eb565b610076610315565b6040516100839190610396565b60405180910390f35b60008051602061044f833981519152600a01546001600160a01b031633146100e75760405162461bcd60e51b81526020600482015260096024820152682737ba1037bbb732b960b91b60448201526064015b60405180910390fd5b60008051602061044f83398151915260005b600d8201548110156101e6578282600d01828154811061011b5761011b6103da565b9060005260206000200154036101d457600d8201805461013d90600190610406565b8154811061014d5761014d6103da565b906000526020600020015482600d01828154811061016d5761016d6103da565b600091825260209091200155600d820180548061018c5761018c61041f565b60019003818190600052602060002001600090559055827f0b1381093c776453c1bbe54fd68be1b235c65db61d099cb50d194b2991e0eec560405160405180910390a2505050565b806101de81610435565b9150506100f9565b505050565b60008051602061044f833981519152600a01546001600160a01b031633146102415760405162461bcd60e51b81526020600482015260096024820152682737ba1037bbb732b960b91b60448201526064016100de565b60008051602061044f83398151915260005b600d8201548110156102cf578282600d018281548110610275576102756103da565b9060005260206000200154036102bd5760405162461bcd60e51b815260206004820152600d60248201526c105b1c9958591e481859191959609a1b60448201526064016100de565b806102c781610435565b915050610253565b50600d810180546001810182556000918252602082200183905560405183917f01c928b7f7ade2949e92366aa9454dbef3a416b731cf6ec786ba9595bbd814d691a25050565b606060008051602061044f833981519152600d0180548060200260200160405190810160405280929190818152602001828054801561037357602002820191906000526020600020905b81548152602001906001019080831161035f575b5050505050905090565b60006020828403121561038f57600080fd5b5035919050565b6020808252825182820181905260009190848201906040850190845b818110156103ce578351835292840192918401916001016103b2565b50909695505050505050565b634e487b7160e01b600052603260045260246000fd5b634e487b7160e01b600052601160045260246000fd5b81810381811115610419576104196103f0565b92915050565b634e487b7160e01b600052603160045260246000fd5b600060018201610447576104476103f0565b506001019056fec2b69da5e7be41c6eaba0bfa82e0e1fef8d4512d663aa63c99ede9dd1d17b00fa26469706673582212201d79e9aad1e593118ee80e10b5f4f901b1c266d4630203248884065d7dd1121364736f6c63430008110033","opcodes":"PUSH1 0x80 PUSH1 0x40 MSTORE CALLVALUE DUP1 ISZERO PUSH2 0x10 JUMPI PUSH1 0x0 DUP1 REVERT JUMPDEST POP PUSH2 0x4A4 DUP1 PUSH2 0x20 PUSH1 0x0 CODECOPY PUSH1 0x0 RETURN INVALID PUSH1 0x80 PUSH1 0x40 MSTORE CALLVALUE DUP1 ISZERO PUSH2 0x10 JUMPI PUSH1 0x0 DUP1 REVERT JUMPDEST POP PUSH1 0x4 CALLDATASIZE LT PUSH2 0x41 JUMPI PUSH1 0x0 CALLDATALOAD PUSH1 0xE0 SHR DUP1 PUSH4 0x8297846 EQ PUSH2 0x46 JUMPI DUP1 PUSH4 0xC7B22551 EQ PUSH2 0x5B JUMPI DUP1 PUSH4 0xDF09D604 EQ PUSH2 0x6E JUMPI JUMPDEST PUSH1 0x0 DUP1 REVERT JUMPDEST PUSH2 0x59 PUSH2 0x54 CALLDATASIZE PUSH1 0x4 PUSH2 0x37D JUMP JUMPDEST PUSH2 0x8C JUMP JUMPDEST STOP JUMPDEST PUSH2 0x59 PUSH2 0x69 CALLDATASIZE PUSH1 0x4 PUSH2 0x37D JUMP JUMPDEST PUSH2 0x1EB JUMP JUMPDEST PUSH2 0x76 PUSH2 0x315 JUMP JUMPDEST PUSH1 0x40 MLOAD PUSH2 0x83 SWAP2 SWAP1 PUSH2 0x396 JUMP JUMPDEST PUSH1 0x40 MLOAD DUP1 SWAP2 SUB SWAP1 RETURN JUMPDEST PUSH1 0x0 DUP1 MLOAD PUSH1 0x20 PUSH2 0x44F DUP4 CODECOPY DUP2 MLOAD SWAP2 MSTORE PUSH1 0xA ADD SLOAD PUSH1 0x1 PUSH1 0x1 PUSH1 0xA0 SHL SUB AND CALLER EQ PUSH2 0xE7 JUMPI PUSH1 0x40 MLOAD PUSH3 0x461BCD PUSH1 0xE5 SHL DUP2 MSTORE PUSH1 0x20 PUSH1 0x4 DUP3 ADD MSTORE PUSH1 0x9 PUSH1 0x24 DUP3 ADD MSTORE PUSH9 0x2737BA1037BBB732B9 PUSH1 0xB9 SHL PUSH1 0x44 DUP3 ADD MSTORE PUSH1 0x64 ADD JUMPDEST PUSH1 0x40 MLOAD DUP1 SWAP2 SUB SWAP1 REVERT JUMPDEST PUSH1 0x0 DUP1 MLOAD PUSH1 0x20 PUSH2 0x44F DUP4 CODECOPY DUP2 MLOAD SWAP2 MSTORE PUSH1 0x0 JUMPDEST PUSH1 0xD DUP3 ADD SLOAD DUP2 LT ISZERO PUSH2 0x1E6 JUMPI DUP3 DUP3 PUSH1 0xD ADD DUP3 DUP2 SLOAD DUP2 LT PUSH2 0x11B JUMPI PUSH2 0x11B PUSH2 0x3DA JUMP JUMPDEST SWAP1 PUSH1 0x0 MSTORE PUSH1 0x20 PUSH1 0x0 KECCAK256 ADD SLOAD SUB PUSH2 0x1D4 JUMPI PUSH1 0xD DUP3 ADD DUP1 SLOAD PUSH2 0x13D SWAP1 PUSH1 0x1 SWAP1 PUSH2 0x406 JUMP JUMPDEST DUP2 SLOAD DUP2 LT PUSH2 0x14D JUMPI PUSH2 0x14D PUSH2 0x3DA JUMP JUMPDEST SWAP1 PUSH1 0x0 MSTORE PUSH1 0x20 PUSH1 0x0 KECCAK256 ADD SLOAD DUP3 PUSH1 0xD ADD DUP3 DUP2 SLOAD DUP2 LT PUSH2 0x16D JUMPI PUSH2 0x16D PUSH2 0x3DA JUMP JUMPDEST PUSH1 0x0 SWAP2 DUP3 MSTORE PUSH1 0x20 SWAP1 SWAP2 KECCAK256 ADD SSTORE PUSH1 0xD DUP3 ADD DUP1 SLOAD DUP1 PUSH2 0x18C JUMPI PUSH2 0x18C PUSH2 0x41F JUMP JUMPDEST PUSH1 0x1 SWAP1 SUB DUP2 DUP2 SWAP1 PUSH1 0x0 MSTORE PUSH1 0x20 PUSH1 0x0 KECCAK256 ADD PUSH1 0x0 SWAP1 SSTORE SWAP1 SSTORE DUP3 PUSH32 0xB1381093C776453C1BBE54FD68BE1B235C65DB61D099CB50D194B2991E0EEC5 PUSH1 0x40 MLOAD PUSH1 0x40 MLOAD DUP1 SWAP2 SUB SWAP1 LOG2 POP POP POP JUMP JUMPDEST DUP1 PUSH2 0x1DE DUP2 PUSH2 0x435 JUMP JUMPDEST SWAP2 POP POP PUSH2 0xF9 JUMP JUMPDEST POP POP POP JUMP JUMPDEST PUSH1 0x0 DUP1 MLOAD PUSH1 0x20 PUSH2 0x44F DUP4 CODECOPY DUP2 MLOAD SWAP2 MSTORE PUSH1 0xA ADD SLOAD PUSH1 0x1 PUSH1 0x1 PUSH1 0xA0 SHL SUB AND CALLER EQ PUSH2 0x241 JUMPI PUSH1 0x40 MLOAD PUSH3 0x461BCD PUSH1 0xE5 SHL DUP2 MSTORE PUSH1 0x20 PUSH1 0x4 DUP3 ADD MSTORE PUSH1 0x9 PUSH1 0x24 DUP3 ADD MSTORE PUSH9 0x2737BA1037BBB732B9 PUSH1 0xB9 SHL PUSH1 0x44 DUP3 ADD MSTORE PUSH1 0x64 ADD PUSH2 0xDE JUMP JUMPDEST PUSH1 0x0 DUP1 MLOAD PUSH1 0x20 PUSH2 0x44F DUP4 CODECOPY DUP2 MLOAD SWAP2 MSTORE PUSH1 0x0 JUMPDEST PUSH1 0xD DUP3 ADD SLOAD DUP2 LT ISZERO PUSH2 0x2CF JUMPI DUP3 DUP3 PUSH1 0xD ADD DUP3 DUP2 SLOAD DUP2 LT PUSH2 0x275 JUMPI PUSH2 0x275 PUSH2 0x3DA JUMP JUMPDEST SWAP1 PUSH1 0x0 MSTORE PUSH1 0x20 PUSH1 0x0 KECCAK256 ADD SLOAD SUB PUSH2 0x2BD JUMPI PUSH1 0x40 MLOAD PUSH3 0x461BCD PUSH1 0xE5 SHL DUP2 MSTORE PUSH1 0x20 PUSH1 0x4 DUP3 ADD MSTORE PUSH1 0xD PUSH1 0x24 DUP3 ADD MSTORE PUSH13 0x105B1C9958591E481859191959 PUSH1 0x9A SHL PUSH1 0x44 DUP3 ADD MSTORE PUSH1 0x64 ADD PUSH2 0xDE JUMP JUMPDEST DUP1 PUSH2 0x2C7 DUP2 PUSH2 0x435 JUMP JUMPDEST SWAP2 POP POP PUSH2 0x253 JUMP JUMPDEST POP PUSH1 0xD DUP2 ADD DUP1 SLOAD PUSH1 0x1 DUP2 ADD DUP3 SSTORE PUSH1 0x0 SWAP2 DUP3 MSTORE PUSH1 0x20 DUP3 KECCAK256 ADD DUP4 SWAP1 SSTORE PUSH1 0x40 MLOAD DUP4 SWAP2 PUSH32 0x1C928B7F7ADE2949E92366AA9454DBEF3A416B731CF6EC786BA9595BBD814D6 SWAP2 LOG2 POP POP JUMP JUMPDEST PUSH1 0x60 PUSH1 0x0 DUP1 MLOAD PUSH1 0x20 PUSH2 0x44F DUP4 CODECOPY DUP2 MLOAD SWAP2 MSTORE PUSH1 0xD ADD DUP1 SLOAD DUP1 PUSH1 0x20 MUL PUSH1 0x20 ADD PUSH1 0x40 MLOAD SWAP1 DUP2 ADD PUSH1 0x40 MSTORE DUP1 SWAP3 SWAP2 SWAP1 DUP2 DUP2 MSTORE PUSH1 0x20 ADD DUP3 DUP1 SLOAD DUP1 ISZERO PUSH2 0x373 JUMPI PUSH1 0x20 MUL DUP3 ADD SWAP2 SWAP1 PUSH1 0x0 MSTORE PUSH1 0x20 PUSH1 0x0 KECCAK256 SWAP1 JUMPDEST DUP2 SLOAD DUP2 MSTORE PUSH1 0x20 ADD SWAP1 PUSH1 0x1 ADD SWAP1 DUP1 DUP4 GT PUSH2 0x35F JUMPI JUMPDEST POP POP POP POP POP SWAP1 POP SWAP1 JUMP JUMPDEST PUSH1 0x0 PUSH1 0x20 DUP3 DUP5 SUB SLT ISZERO PUSH2 0x38F JUMPI PUSH1 0x0 DUP1 REVERT JUMPDEST POP CALLDATALOAD SWAP2 SWAP1 POP JUMP JUMPDEST PUSH1 0x20 DUP1 DUP3 MSTORE DUP3 MLOAD DUP3 DUP3 ADD DUP2 SWAP1 MSTORE PUSH1 0x0 SWAP2 SWAP1 DUP5 DUP3 ADD SWAP1 PUSH1 0x40 DUP6 ADD SWAP1 DUP5 JUMPDEST DUP2 DUP2 LT ISZERO PUSH2 0x3CE JUMPI DUP4 MLOAD DUP4 MSTORE SWAP3 DUP5 ADD SWAP3 SWAP2 DUP5 ADD SWAP2 PUSH1 0x1 ADD PUSH2 0x3B2 JUMP JUMPDEST POP SWAP1 SWAP7 SWAP6 POP POP POP POP POP POP JUMP JUMPDEST PUSH4 0x4E487B71 PUSH1 0xE0 SHL PUSH1 0x0 MSTORE PUSH1 0x32 PUSH1 0x4 MSTORE PUSH1 0x24 PUSH1 0x0 REVERT JUMPDEST PUSH4 0x4E487B71 PUSH1 0xE0 SHL PUSH1 0x0 MSTORE PUSH1 0x11 PUSH1 0x4 MSTORE PUSH1 0x24 PUSH1 0x0 REVERT JUMPDEST DUP2 DUP2 SUB DUP2 DUP2 GT ISZERO PUSH2 0x419 JUMPI PUSH2 0x419 PUSH2 0x3F0 JUMP JUMPDEST SWAP3 SWAP2 POP POP JUMP JUMPDEST PUSH4 0x4E487B71 PUSH1 0xE0 SHL PUSH1 0x0 MSTORE PUSH1 0x31 PUSH1 0x4 MSTORE PUSH1 0x24 PUSH1 0x0 REVERT JUMPDEST PUSH1 0x0 PUSH1 0x1 DUP3 ADD PUSH2 0x447 JUMPI PUSH2 0x447 PUSH2 0x3F0 JUMP JUMPDEST POP PUSH1 0x1 ADD SWAP1 JUMP INVALID 0xC2 0xB6 SWAP14 0xA5 0xE7 0xBE COINBASE 0xC6 0xEA 0xBA SIGNEXTEND STATICCALL DUP3 0xE0 0xE1 INVALID 0xF8 0xD4 MLOAD 0x2D PUSH7 0x3AA63C99EDE9DD SAR OR 0xB0 0xF LOG2 PUSH5 0x6970667358 0x22 SLT KECCAK256 SAR PUSH26 0xE9AAD1E593118EE80E10B5F4F901B1C266D4630203248884065D PUSH30 0xD1121364736F6C6343000811003300000000000000000000000000000000 "},"methodIdentifiers":{"addClaimTopic(uint256)":"c7b22551","getClaimTopics()":"df09d604","removeClaimTopic(uint256)":"08297846"}},"storageLayout":{"storage":[],"types":null}}}}