{"contracts/facets/ComplianceFacet.sol":{"ComplianceFacet":{"abi":[{"anonymous":false,"inputs":[{"indexed":false,"internalType":"uint256","name":"max","type":"uint256"}],"name":"MaxBalanceSet","type":"event"},{"anonymous":false,"inputs":[{"indexed":false,"internalType":"uint256","name":"max","type":"uint256"}],"name":"MaxInvestorsSet","type":"event"},{"anonymous":false,"inputs":[{"indexed":false,"internalType":"uint256","name":"min","type":"uint256"}],"name":"MinBalanceSet","type":"event"},{"inputs":[{"internalType":"address","name":"from","type":"address"},{"internalType":"address","name":"to","type":"address"},{"internalType":"uint256","name":"amount","type":"uint256"}],"name":"canTransfer","outputs":[{"internalType":"bool","name":"","type":"bool"}],"stateMutability":"view","type":"function"},{"inputs":[],"name":"complianceRules","outputs":[{"internalType":"uint256","name":"maxBalance","type":"uint256"},{"internalType":"uint256","name":"minBalance","type":"uint256"},{"internalType":"uint256","name":"maxInvestors","type":"uint256"}],"stateMutability":"view","type":"function"},{"inputs":[{"internalType":"uint256","name":"max","type":"uint256"}],"name":"setMaxBalance","outputs":[],"stateMutability":"nonpayable","type":"function"},{"inputs":[{"internalType":"uint256","name":"max","type":"uint256"}],"name":"setMaxInvestors","outputs":[],"stateMutability":"nonpayable","type":"function"},{"inputs":[{"internalType":"uint256","name":"min","type":"uint256"}],"name":"setMinBalance","outputs":[],"stateMutability":"nonpayable","type":"function"}],"evm":{"bytecode":{"linkReferences":{},"object":"608060405234801561001057600080fd5b50610640806100206000396000f3fe608060405234801561001057600080fd5b50600436106100575760003560e01c806335e896c11461005c5780636ec58d13146100715780639d51d9b7146100f7578063c91d956c1461010a578063e46638e61461011d575b600080fd5b61006f61006a3660046104f8565b610140565b005b7fc2b69da5e7be41c6eaba0bfa82e0e1fef8d4512d663aa63c99ede9dd1d17b019547fc2b69da5e7be41c6eaba0bfa82e0e1fef8d4512d663aa63c99ede9dd1d17b01a547fc2b69da5e7be41c6eaba0bfa82e0e1fef8d4512d663aa63c99ede9dd1d17b01b54604080519384526020840192909252908201526060015b60405180910390f35b61006f6101053660046104f8565b6101e3565b61006f6101183660046104f8565b610276565b61013061012b36600461052d565b610309565b60405190151581526020016100ee565b6000805160206105eb8339815191526008015461010090046001600160a01b031633146101885760405162461bcd60e51b815260040161017f90610569565b60405180910390fd5b7fc2b69da5e7be41c6eaba0bfa82e0e1fef8d4512d663aa63c99ede9dd1d17b01b8190556040518181527f0de3b656191db95f0ae3b33d959531021110a9da5b819655d9d13a57496144ad906020015b60405180910390a150565b6000805160206105eb8339815191526008015461010090046001600160a01b031633146102225760405162461bcd60e51b815260040161017f90610569565b7fc2b69da5e7be41c6eaba0bfa82e0e1fef8d4512d663aa63c99ede9dd1d17b0198190556040518181527f82f9980487703d8db41f1ba63b2665566f7fb449fbc840a9e0c6ca932bed582c906020016101d8565b6000805160206105eb8339815191526008015461010090046001600160a01b031633146102b55760405162461bcd60e51b815260040161017f90610569565b7fc2b69da5e7be41c6eaba0bfa82e0e1fef8d4512d663aa63c99ede9dd1d17b01a8190556040518181527fc9ac0b9c6116d44b14ac8198e0802802d07cf6956054e7542f0460a4d3423b3a906020016101d8565b6001600160a01b03831660009081527fc2b69da5e7be41c6eaba0bfa82e0e1fef8d4512d663aa63c99ede9dd1d17b01160205260408120546000805160206105eb8339815191529060ff168061037957506001600160a01b038416600090815260028201602052604090205460ff165b156103885760009150506104f1565b6001600160a01b03848116600090815260208390526040902054166103b15760009150506104f1565b6001600160a01b03841660009081526003820160205260408120546103d79085906105a2565b9050600082600a01541180156103f0575081600a015481115b15610400576000925050506104f1565b600082600b0154118015610417575081600b015481105b15610427576000925050506104f1565b600082600c015411801561045357506001600160a01b0385166000908152600383016020526040902054155b156104ea576000805b60108401548110156104d0576000846003016000866010018481548110610485576104856105bb565b60009182526020808320909101546001600160a01b0316835282019290925260400190205411156104be57816104ba816105d1565b9250505b806104c8816105d1565b91505061045c565b5082600c015481106104e857600093505050506104f1565b505b6001925050505b9392505050565b60006020828403121561050a57600080fd5b5035919050565b80356001600160a01b038116811461052857600080fd5b919050565b60008060006060848603121561054257600080fd5b61054b84610511565b925061055960208501610511565b9150604084013590509250925092565b6020808252600990820152682737ba1037bbb732b960b91b604082015260600190565b634e487b7160e01b600052601160045260246000fd5b808201808211156105b5576105b561058c565b92915050565b634e487b7160e01b600052603260045260246000fd5b6000600182016105e3576105e361058c565b506001019056fec2b69da5e7be41c6eaba0bfa82e0e1fef8d4512d663aa63c99ede9dd1d17b00fa2646970667358221220c6ac30c329089105beeb75e7bc5e276258f8d4ee7077e0f2373893f5ea92ef2764736f6c63430008110033","opcodes":"PUSH1 0x80 PUSH1 0x40 MSTORE CALLVALUE DUP1 ISZERO PUSH2 0x10 JUMPI PUSH1 0x0 DUP1 REVERT JUMPDEST POP PUSH2 0x640 DUP1 PUSH2 0x20 PUSH1 0x0 CODECOPY PUSH1 0x0 RETURN INVALID PUSH1 0x80 PUSH1 0x40 MSTORE CALLVALUE DUP1 ISZERO PUSH2 0x10 JUMPI PUSH1 0x0 DUP1 REVERT JUMPDEST POP PUSH1 0x4 CALLDATASIZE LT PUSH2 0x57 JUMPI PUSH1 0x0 CALLDATALOAD PUSH1 0xE0 SHR DUP1 PUSH4 0x35E896C1 EQ PUSH2 0x5C JUMPI DUP1 PUSH4 0x6EC58D13 EQ PUSH2 0x71 JUMPI DUP1 PUSH4 0x9D51D9B7 EQ PUSH2 0xF7 JUMPI DUP1 PUSH4 0xC91D956C EQ PUSH2 0x10A JUMPI DUP1 PUSH4 0xE46638E6 EQ PUSH2 0x11D JUMPI JUMPDEST PUSH1 0x0 DUP1 REVERT JUMPDEST PUSH2 0x6F PUSH2 0x6A CALLDATASIZE PUSH1 0x4 PUSH2 0x4F8 JUMP JUMPDEST PUSH2 0x140 JUMP JUMPDEST STOP JUMPDEST PUSH32 0xC2B69DA5E7BE41C6EABA0BFA82E0E1FEF8D4512D663AA63C99EDE9DD1D17B019 SLOAD PUSH32 0xC2B69DA5E7BE41C6EABA0BFA82E0E1FEF8D4512D663AA63C99EDE9DD1D17B01A SLOAD PUSH32 0xC2B69DA5E7BE41C6EABA0BFA82E0E1FEF8D4512D663AA63C99EDE9DD1D17B01B SLOAD PUSH1 0x40 DUP1 MLOAD SWAP4 DUP5 MSTORE PUSH1 0x20 DUP5 ADD SWAP3 SWAP1 SWAP3 MSTORE SWAP1 DUP3 ADD MSTORE PUSH1 0x60 ADD JUMPDEST PUSH1 0x40 MLOAD DUP1 SWAP2 SUB SWAP1 RETURN JUMPDEST PUSH2 0x6F PUSH2 0x105 CALLDATASIZE PUSH1 0x4 PUSH2 0x4F8 JUMP JUMPDEST PUSH2 0x1E3 JUMP JUMPDEST PUSH2 0x6F PUSH2 0x118 CALLDATASIZE PUSH1 0x4 PUSH2 0x4F8 JUMP JUMPDEST PUSH2 0x276 JUMP JUMPDEST PUSH2 0x130 PUSH2 0x12B CALLDATASIZE PUSH1 0x4 PUSH2 0x52D JUMP JUMPDEST PUSH2 0x309 JUMP JUMPDEST PUSH1 0x40 MLOAD SWAP1 ISZERO ISZERO DUP2 MSTORE PUSH1 0x20 ADD PUSH2 0xEE JUMP JUMPDEST PUSH1 0x0 DUP1 MLOAD PUSH1 0x20 PUSH2 0x5EB DUP4 CODECOPY DUP2 MLOAD SWAP2 MSTORE PUSH1 0x8 ADD SLOAD PUSH2 0x100 SWAP1 DIV PUSH1 0x1 PUSH1 0x1 PUSH1 0xA0 SHL SUB AND CALLER EQ PUSH2 0x188 JUMPI PUSH1 0x40 MLOAD PUSH3 0x461BCD PUSH1 0xE5 SHL DUP2 MSTORE PUSH1 0x4 ADD PUSH2 0x17F SWAP1 PUSH2 0x569 JUMP JUMPDEST PUSH1 0x40 MLOAD DUP1 SWAP2 SUB SWAP1 REVERT JUMPDEST PUSH32 0xC2B69DA5E7BE41C6EABA0BFA82E0E1FEF8D4512D663AA63C99EDE9DD1D17B01B DUP2 SWAP1 SSTORE PUSH1 0x40 MLOAD DUP2 DUP2 MSTORE PUSH32 0xDE3B656191DB95F0AE3B33D959531021110A9DA5B819655D9D13A57496144AD SWAP1 PUSH1 0x20 ADD JUMPDEST PUSH1 0x40 MLOAD DUP1 SWAP2 SUB SWAP1 LOG1 POP JUMP JUMPDEST PUSH1 0x0 DUP1 MLOAD PUSH1 0x20 PUSH2 0x5EB DUP4 CODECOPY DUP2 MLOAD SWAP2 MSTORE PUSH1 0x8 ADD SLOAD PUSH2 0x100 SWAP1 DIV PUSH1 0x1 PUSH1 0x1 PUSH1 0xA0 SHL SUB AND CALLER EQ PUSH2 0x222 JUMPI PUSH1 0x40 MLOAD PUSH3 0x461BCD PUSH1 0xE5 SHL DUP2 MSTORE PUSH1 0x4 ADD PUSH2 0x17F SWAP1 PUSH2 0x569 JUMP JUMPDEST PUSH32 0xC2B69DA5E7BE41C6EABA0BFA82E0E1FEF8D4512D663AA63C99EDE9DD1D17B019 DUP2 SWAP1 SSTORE PUSH1 0x40 MLOAD DUP2 DUP2 MSTORE PUSH32 0x82F9980487703D8DB41F1BA63B2665566F7FB449FBC840A9E0C6CA932BED582C SWAP1 PUSH1 0x20 ADD PUSH2 0x1D8 JUMP JUMPDEST PUSH1 0x0 DUP1 MLOAD PUSH1 0x20 PUSH2 0x5EB DUP4 CODECOPY DUP2 MLOAD SWAP2 MSTORE PUSH1 0x8 ADD SLOAD PUSH2 0x100 SWAP1 DIV PUSH1 0x1 PUSH1 0x1 PUSH1 0xA0 SHL SUB AND CALLER EQ PUSH2 0x2B5 JUMPI PUSH1 0x40 MLOAD PUSH3 0x461BCD PUSH1 0xE5 SHL DUP2 MSTORE PUSH1 0x4 ADD PUSH2 0x17F SWAP1 PUSH2 0x569 JUMP JUMPDEST PUSH32 0xC2B69DA5E7BE41C6EABA0BFA82E0E1FEF8D4512D663AA63C99EDE9DD1D17B01A DUP2 SWAP1 SSTORE PUSH1 0x40 MLOAD DUP2 DUP2 MSTORE PUSH32 0xC9AC0B9C6116D44B14AC8198E0802802D07CF6956054E7542F0460A4D3423B3A SWAP1 PUSH1 0x20 ADD PUSH2 0x1D8 JUMP JUMPDEST PUSH1 0x1 PUSH1 0x1 PUSH1 0xA0 SHL SUB DUP4 AND PUSH1 0x0 SWAP1 DUP2 MSTORE PUSH32 0xC2B69DA5E7BE41C6EABA0BFA82E0E1FEF8D4512D663AA63C99EDE9DD1D17B011 PUSH1 0x20 MSTORE PUSH1 0x40 DUP2 KECCAK256 SLOAD PUSH1 0x0 DUP1 MLOAD PUSH1 0x20 PUSH2 0x5EB DUP4 CODECOPY DUP2 MLOAD SWAP2 MSTORE SWAP1 PUSH1 0xFF AND DUP1 PUSH2 0x379 JUMPI POP PUSH1 0x1 PUSH1 0x1 PUSH1 0xA0 SHL SUB DUP5 AND PUSH1 0x0 SWAP1 DUP2 MSTORE PUSH1 0x2 DUP3 ADD PUSH1 0x20 MSTORE PUSH1 0x40 SWAP1 KECCAK256 SLOAD PUSH1 0xFF AND JUMPDEST ISZERO PUSH2 0x388 JUMPI PUSH1 0x0 SWAP2 POP POP PUSH2 0x4F1 JUMP JUMPDEST PUSH1 0x1 PUSH1 0x1 PUSH1 0xA0 SHL SUB DUP5 DUP2 AND PUSH1 0x0 SWAP1 DUP2 MSTORE PUSH1 0x20 DUP4 SWAP1 MSTORE PUSH1 0x40 SWAP1 KECCAK256 SLOAD AND PUSH2 0x3B1 JUMPI PUSH1 0x0 SWAP2 POP POP PUSH2 0x4F1 JUMP JUMPDEST PUSH1 0x1 PUSH1 0x1 PUSH1 0xA0 SHL SUB DUP5 AND PUSH1 0x0 SWAP1 DUP2 MSTORE PUSH1 0x3 DUP3 ADD PUSH1 0x20 MSTORE PUSH1 0x40 DUP2 KECCAK256 SLOAD PUSH2 0x3D7 SWAP1 DUP6 SWAP1 PUSH2 0x5A2 JUMP JUMPDEST SWAP1 POP PUSH1 0x0 DUP3 PUSH1 0xA ADD SLOAD GT DUP1 ISZERO PUSH2 0x3F0 JUMPI POP DUP2 PUSH1 0xA ADD SLOAD DUP2 GT JUMPDEST ISZERO PUSH2 0x400 JUMPI PUSH1 0x0 SWAP3 POP POP POP PUSH2 0x4F1 JUMP JUMPDEST PUSH1 0x0 DUP3 PUSH1 0xB ADD SLOAD GT DUP1 ISZERO PUSH2 0x417 JUMPI POP DUP2 PUSH1 0xB ADD SLOAD DUP2 LT JUMPDEST ISZERO PUSH2 0x427 JUMPI PUSH1 0x0 SWAP3 POP POP POP PUSH2 0x4F1 JUMP JUMPDEST PUSH1 0x0 DUP3 PUSH1 0xC ADD SLOAD GT DUP1 ISZERO PUSH2 0x453 JUMPI POP PUSH1 0x1 PUSH1 0x1 PUSH1 0xA0 SHL SUB DUP6 AND PUSH1 0x0 SWAP1 DUP2 MSTORE PUSH1 0x3 DUP4 ADD PUSH1 0x20 MSTORE PUSH1 0x40 SWAP1 KECCAK256 SLOAD ISZERO JUMPDEST ISZERO PUSH2 0x4EA JUMPI PUSH1 0x0 DUP1 JUMPDEST PUSH1 0x10 DUP5 ADD SLOAD DUP2 LT ISZERO PUSH2 0x4D0 JUMPI PUSH1 0x0 DUP5 PUSH1 0x3 ADD PUSH1 0x0 DUP7 PUSH1 0x10 ADD DUP5 DUP2 SLOAD DUP2 LT PUSH2 0x485 JUMPI PUSH2 0x485 PUSH2 0x5BB JUMP JUMPDEST PUSH1 0x0 SWAP2 DUP3 MSTORE PUSH1 0x20 DUP1 DUP4 KECCAK256 SWAP1 SWAP2 ADD SLOAD PUSH1 0x1 PUSH1 0x1 PUSH1 0xA0 SHL SUB AND DUP4 MSTORE DUP3 ADD SWAP3 SWAP1 SWAP3 MSTORE PUSH1 0x40 ADD SWAP1 KECCAK256 SLOAD GT ISZERO PUSH2 0x4BE JUMPI DUP2 PUSH2 0x4BA DUP2 PUSH2 0x5D1 JUMP JUMPDEST SWAP3 POP POP JUMPDEST DUP1 PUSH2 0x4C8 DUP2 PUSH2 0x5D1 JUMP JUMPDEST SWAP2 POP POP PUSH2 0x45C JUMP JUMPDEST POP DUP3 PUSH1 0xC ADD SLOAD DUP2 LT PUSH2 0x4E8 JUMPI PUSH1 0x0 SWAP4 POP POP POP POP PUSH2 0x4F1 JUMP JUMPDEST POP JUMPDEST PUSH1 0x1 SWAP3 POP POP POP JUMPDEST SWAP4 SWAP3 POP POP POP JUMP JUMPDEST PUSH1 0x0 PUSH1 0x20 DUP3 DUP5 SUB SLT ISZERO PUSH2 0x50A JUMPI PUSH1 0x0 DUP1 REVERT JUMPDEST POP CALLDATALOAD SWAP2 SWAP1 POP JUMP JUMPDEST DUP1 CALLDATALOAD PUSH1 0x1 PUSH1 0x1 PUSH1 0xA0 SHL SUB DUP2 AND DUP2 EQ PUSH2 0x528 JUMPI PUSH1 0x0 DUP1 REVERT JUMPDEST SWAP2 SWAP1 POP JUMP JUMPDEST PUSH1 0x0 DUP1 PUSH1 0x0 PUSH1 0x60 DUP5 DUP7 SUB SLT ISZERO PUSH2 0x542 JUMPI PUSH1 0x0 DUP1 REVERT JUMPDEST PUSH2 0x54B DUP5 PUSH2 0x511 JUMP JUMPDEST SWAP3 POP PUSH2 0x559 PUSH1 0x20 DUP6 ADD PUSH2 0x511 JUMP JUMPDEST SWAP2 POP PUSH1 0x40 DUP5 ADD CALLDATALOAD SWAP1 POP SWAP3 POP SWAP3 POP SWAP3 JUMP JUMPDEST PUSH1 0x20 DUP1 DUP3 MSTORE PUSH1 0x9 SWAP1 DUP3 ADD MSTORE PUSH9 0x2737BA1037BBB732B9 PUSH1 0xB9 SHL PUSH1 0x40 DUP3 ADD MSTORE PUSH1 0x60 ADD SWAP1 JUMP JUMPDEST PUSH4 0x4E487B71 PUSH1 0xE0 SHL PUSH1 0x0 MSTORE PUSH1 0x11 PUSH1 0x4 MSTORE PUSH1 0x24 PUSH1 0x0 REVERT JUMPDEST DUP1 DUP3 ADD DUP1 DUP3 GT ISZERO PUSH2 0x5B5 JUMPI PUSH2 0x5B5 PUSH2 0x58C JUMP JUMPDEST SWAP3 SWAP2 POP POP JUMP JUMPDEST PUSH4 0x4E487B71 PUSH1 0xE0 SHL PUSH1 0x0 MSTORE PUSH1 0x32 PUSH1 0x4 MSTORE PUSH1 0x24 PUSH1 0x0 REVERT JUMPDEST PUSH1 0x0 PUSH1 0x1 DUP3 ADD PUSH2 0x5E3 JUMPI PUSH2 0x5E3 PUSH2 0x58C JUMP JUMPDEST POP PUSH1 0x1 ADD SWAP1 JUMP INVALID 0xC2 0xB6 SWAP14 0xA5 0xE7 0xBE COINBASE 0xC6 0xEA 0xBA SIGNEXTEND STATICCALL DUP3 0xE0 0xE1 INVALID 0xF8 0xD4 MLOAD 0x2D PUSH7 0x3AA63C99EDE9DD SAR OR 0xB0 0xF LOG2 PUSH5 0x6970667358 0x22 SLT KECCAK256 0xC6 0xAC ADDRESS 0xC3 0x29 ADDMOD SWAP2 SDIV 0xBE 0xEB PUSH22 0xE7BC5E276258F8D4EE7077E0F2373893F5EA92EF2764 PUSH20 0x6F6C634300081100330000000000000000000000 "},"methodIdentifiers":{"canTransfer(address,address,uint256)":"e46638e6","complianceRules()":"6ec58d13","setMaxBalance(uint256)":"9d51d9b7","setMaxInvestors(uint256)":"35e896c1","setMinBalance(uint256)":"c91d956c"}},"storageLayout":{"storage":[],"types":null}}}}