{"contracts/examples/OptimizedTokenFacet.sol":{"OptimizedTokenFacet":{"abi":[{"inputs":[{"internalType":"address","name":"owner","type":"address"},{"internalType":"address","name":"spender","type":"address"}],"name":"allowance","outputs":[{"internalType":"uint256","name":"","type":"uint256"}],"stateMutability":"view","type":"function"},{"inputs":[{"internalType":"address","name":"spender","type":"address"},{"internalType":"uint256","name":"amount","type":"uint256"}],"name":"approve","outputs":[{"internalType":"bool","name":"","type":"bool"}],"stateMutability":"nonpayable","type":"function"},{"inputs":[{"internalType":"address","name":"account","type":"address"}],"name":"balanceOf","outputs":[{"internalType":"uint256","name":"","type":"uint256"}],"stateMutability":"view","type":"function"},{"inputs":[],"name":"decimals","outputs":[{"internalType":"uint8","name":"","type":"uint8"}],"stateMutability":"view","type":"function"},{"inputs":[{"internalType":"address","name":"account","type":"address"}],"name":"freezeAccount","outputs":[],"stateMutability":"nonpayable","type":"function"},{"inputs":[],"name":"getSelectors","outputs":[{"internalType":"bytes4[]","name":"selectors","type":"bytes4[]"}],"stateMutability":"pure","type":"function"},{"inputs":[],"name":"getStorageNamespace","outputs":[{"internalType":"string","name":"","type":"string"}],"stateMutability":"pure","type":"function"},{"inputs":[],"name":"getStorageStatus","outputs":[{"internalType":"bool","name":"token","type":"bool"},{"internalType":"bool","name":"roles","type":"bool"},{"internalType":"bool","name":"compliance","type":"bool"}],"stateMutability":"view","type":"function"},{"inputs":[],"name":"getStorageVersion","outputs":[{"internalType":"uint256","name":"","type":"uint256"}],"stateMutability":"pure","type":"function"},{"inputs":[{"internalType":"address","name":"to","type":"address"},{"internalType":"uint256","name":"amount","type":"uint256"}],"name":"mint","outputs":[],"stateMutability":"nonpayable","type":"function"},{"inputs":[],"name":"name","outputs":[{"internalType":"string","name":"","type":"string"}],"stateMutability":"view","type":"function"},{"inputs":[],"name":"selectorsIntrospection","outputs":[{"internalType":"bytes4[]","name":"selectors_","type":"bytes4[]"}],"stateMutability":"pure","type":"function"},{"inputs":[],"name":"symbol","outputs":[{"internalType":"string","name":"","type":"string"}],"stateMutability":"view","type":"function"},{"inputs":[],"name":"totalSupply","outputs":[{"internalType":"uint256","name":"","type":"uint256"}],"stateMutability":"view","type":"function"},{"inputs":[{"internalType":"address","name":"to","type":"address"},{"internalType":"uint256","name":"amount","type":"uint256"}],"name":"transfer","outputs":[{"internalType":"bool","name":"","type":"bool"}],"stateMutability":"nonpayable","type":"function"},{"inputs":[{"internalType":"address","name":"from","type":"address"},{"internalType":"address","name":"to","type":"address"},{"internalType":"uint256","name":"amount","type":"uint256"}],"name":"transferFrom","outputs":[{"internalType":"bool","name":"","type":"bool"}],"stateMutability":"nonpayable","type":"function"},{"inputs":[{"internalType":"address","name":"account","type":"address"}],"name":"unfreezeAccount","outputs":[],"stateMutability":"nonpayable","type":"function"}],"evm":{"bytecode":{"linkReferences":{},"object":"608060405234801561001057600080fd5b506115f2806100206000396000f3fe608060405234801561001057600080fd5b506004361061010b5760003560e01c806370a08231116100a2578063a9059cbb11610071578063a9059cbb1461021a578063c3946aa81461022d578063dd62ed3e14610256578063e3b807a0146101a9578063f26c159f1461026957600080fd5b806370a08231146101e5578063788649ea146101f857806379fd5e2e1461020b57806395d89b411461021257600080fd5b8063313ce567116100de578063313ce5671461017a57806340c10f19146101945780634b503f0b146101a9578063545e1b52146101be57600080fd5b806306fdde0314610110578063095ea7b31461012e57806318160ddd1461015157806323b872dd14610167575b600080fd5b61011861027c565b604051610125919061129a565b60405180910390f35b61014161013c366004611304565b61035a565b6040519015158152602001610125565b6101596103cd565b604051908152602001610125565b61014161017536600461132e565b6103fc565b6101826104df565b60405160ff9091168152602001610125565b6101a76101a2366004611304565b61052e565b005b6101b16106f4565b604051610125919061136a565b6101c66109e4565b6040805193151584529115156020840152151590820152606001610125565b6101596101f33660046113b8565b610a0c565b6101a76102063660046113b8565b610a17565b6001610159565b610118610a82565b610141610228366004611304565b610ad4565b60408051808201909152600d81526c1d0b5c995e0b991a585b5bdb99609a1b6020820152610118565b6101596102643660046113d3565b610ae1565b6101a76102773660046113b8565b610aed565b6060610286610b5b565b6102ab5760405162461bcd60e51b81526004016102a290611406565b60405180910390fd5b7f736ce0c14097c43f46534906dfa4c53dc3d50ced9d4ca89fafa7ec003cfb443780546102d790611450565b80601f016020809104026020016040519081016040528092919081815260200182805461030390611450565b80156103505780601f1061032557610100808354040283529160200191610350565b820191906000526020600020905b81548152906001019060200180831161033357829003601f168201915b5050505050905090565b600061037e836040518060600160405280603081526020016114dd60309139610b83565b503360009081527f736ce0c14097c43f46534906dfa4c53dc3d50ced9d4ca89fafa7ec003cfb4435602090815260408083206001600160a01b0386168452909152902081905560015b92915050565b60006103f77f736ce0c14097c43f46534906dfa4c53dc3d50ced9d4ca89fafa7ec003cfb44365490565b905090565b6000806104098533610bb0565b90508281101561046f5760405162461bcd60e51b815260206004820152602b60248201527f4f7074696d697a6564546f6b656e46616365743a20496e73756666696369656e60448201526a7420616c6c6f77616e636560a81b60648201526084016102a2565b600061047c868686610cf5565b905080801561048d57506000198214155b156104d45760008051602061153e8339815191526104ab85846114a0565b6001600160a01b0388166000908152600190920160209081526040808420338552909152909120555b9150505b9392505050565b60006104e9610b5b565b6105055760405162461bcd60e51b81526004016102a290611406565b507f736ce0c14097c43f46534906dfa4c53dc3d50ced9d4ca89fafa7ec003cfb44395460ff1690565b61053733610e72565b6105598260405180606001604052806030815260200161155e60309139610b83565b60008161056584610ed6565b61056f91906114b3565b905061057a81610f7d565b6105e15760405162461bcd60e51b815260206004820152603260248201527f4f7074696d697a6564546f6b656e46616365743a204d696e7420776f756c642060448201527176696f6c61746520636f6d706c69616e636560701b60648201526084016102a2565b6105ea83610ed6565b60000361065e576105f961100a565b61065e5760405162461bcd60e51b815260206004820152603060248201527f4f7074696d697a6564546f6b656e46616365743a20576f756c6420657863656560448201526f19081a5b9d995cdd1bdc881b1a5b5a5d60821b60648201526084016102a2565b6001600160a01b038316600090815260008051602061153e8339815191526020819052604082208054919285926106969084906114b3565b92505081905550828160020160008282546106b191906114b3565b90915550508282036106ee57600781018054600181018255600091825260209091200180546001600160a01b0319166001600160a01b0386161790555b50505050565b60408051600d8082526101c08201909252606091602082016101a0803683370190505090506306fdde0360e01b81600081518110610734576107346114c6565b6001600160e01b03199092166020928302919091019091015280516395d89b4160e01b908290600190811061076b5761076b6114c6565b6001600160e01b031990921660209283029190910190910152805163313ce56760e01b90829060029081106107a2576107a26114c6565b6001600160e01b03199092166020928302919091019091015280516318160ddd60e01b90829060039081106107d9576107d96114c6565b6001600160e01b03199092166020928302919091019091015280516370a0823160e01b9082906004908110610810576108106114c6565b6001600160e01b0319909216602092830291909101909101528051636eb1769f60e11b9082906005908110610847576108476114c6565b6001600160e01b031990921660209283029190910190910152805163a9059cbb60e01b908290600690811061087e5761087e6114c6565b6001600160e01b03199092166020928302919091019091015280516323b872dd60e01b90829060079081106108b5576108b56114c6565b6001600160e01b031990921660209283029190910190910152805163095ea7b360e01b90829060089081106108ec576108ec6114c6565b6001600160e01b03199092166020928302919091019091015280516340c10f1960e01b9082906009908110610923576109236114c6565b6001600160e01b031990921660209283029190910190910152805163f26c159f60e01b908290600a90811061095a5761095a6114c6565b6001600160e01b0319909216602092830291909101909101528051633c4324f560e11b908290600b908110610991576109916114c6565b6001600160e01b031990921660209283029190910190910152805163071dc03d60e51b908290600c9081106109c8576109c86114c6565b6001600160e01b03199092166020928302919091019091015290565b60008060006109f1610b5b565b92506109fb61107c565b9150610a056110b6565b9050909192565b60006103c782610ed6565b610a2033610e72565b610a428160405180606001604052806031815260200161150d60319139610b83565b6001600160a01b031660009081527f3f58a8938bec95c6a1ed44e042c3c2e2b9c1eb2b83644b148efde1f9dd7788d960205260409020805460ff19169055565b6060610a8c610b5b565b610aa85760405162461bcd60e51b81526004016102a290611406565b7f736ce0c14097c43f46534906dfa4c53dc3d50ced9d4ca89fafa7ec003cfb443880546102d790611450565b60006104d8338484610cf5565b60006104d88383610bb0565b610af633610e72565b610b18816040518060600160405280602f815260200161158e602f9139610b83565b6001600160a01b031660009081527f3f58a8938bec95c6a1ed44e042c3c2e2b9c1eb2b83644b148efde1f9dd7788d960205260409020805460ff19166001179055565b60008060008051602061153e8339815191526003018054610b7b90611450565b905011905090565b806001600160a01b038316610bab5760405162461bcd60e51b81526004016102a2919061129a565b505050565b60006001600160a01b038316610c2e5760405162461bcd60e51b815260206004820152603c60248201527f546f6b656e53746f726167654163636573736f723a2043616e6e6f742067657460448201527f20616c6c6f77616e63652066726f6d207a65726f20616464726573730000000060648201526084016102a2565b6001600160a01b038216610caa5760405162461bcd60e51b815260206004820152603b60248201527f546f6b656e53746f726167654163636573736f723a2043616e6e6f742067657460448201527f20616c6c6f77616e636520666f72207a65726f2061646472657373000000000060648201526084016102a2565b506001600160a01b0391821660009081527f736ce0c14097c43f46534906dfa4c53dc3d50ced9d4ca89fafa7ec003cfb44356020908152604080832093909416825291909152205490565b6000610d02848484611103565b610d665760405162461bcd60e51b815260206004820152602f60248201527f4f7074696d697a6564546f6b656e46616365743a205472616e7366657220766160448201526e1b1a59185d1a5bdb8819985a5b1959608a1b60648201526084016102a2565b6001600160a01b038416600090815260008051602061153e833981519152602081905260408220805491928592610d9e9084906114a0565b90915550506001600160a01b03841660009081526020829052604081208054859290610dcb9084906114b3565b90915550506001600160a01b038416600090815260208290526040902054839003610e2157600781018054600181018255600091825260209091200180546001600160a01b0319166001600160a01b0386161790555b5050506001600160a01b0391821660009081527f3f58a8938bec95c6a1ed44e042c3c2e2b9c1eb2b83644b148efde1f9dd7788d8602052604080822042908190559290931681529190912055600190565b610e7b816111d0565b610ed35760405162461bcd60e51b8152602060048201526024808201527f526f6c657353746f726167654163636573736f723a204e6f7420617574686f726044820152631a5e995960e21b60648201526084016102a2565b50565b60006001600160a01b038216610f545760405162461bcd60e51b815260206004820152603860248201527f546f6b656e53746f726167654163636573736f723a2043616e6e6f742067657460448201527f2062616c616e6365206f66207a65726f2061646472657373000000000000000060648201526084016102a2565b506001600160a01b0316600090815260008051602061153e833981519152602052604090205490565b7f3f58a8938bec95c6a1ed44e042c3c2e2b9c1eb2b83644b148efde1f9dd7788d5546000907f3f58a8938bec95c6a1ed44e042c3c2e2b9c1eb2b83644b148efde1f9dd7788d49015801590610fd55750806001015483105b15610fe35750600092915050565b805415801590610ff35750805483115b156110015750600092915050565b50600192915050565b7f3f58a8938bec95c6a1ed44e042c3c2e2b9c1eb2b83644b148efde1f9dd7788d6546000907f3f58a8938bec95c6a1ed44e042c3c2e2b9c1eb2b83644b148efde1f9dd7788d4901580159061106757508060020154816003015410155b1561107457600091505090565b600191505090565b60006110b07f0fcb11fff5651caf53eaf1124d25315389f7b0ceffd704a5e999a2ffc7764fd5546001600160a01b03161590565b15905090565b7f3f58a8938bec95c6a1ed44e042c3c2e2b9c1eb2b83644b148efde1f9dd7788d48054600091901515806110ee575060008160010154115b806110fd575060008160020154115b91505090565b60006001600160a01b038416158061112257506001600160a01b038316155b1561112f575060006104d8565b61113884611244565b80611147575061114783611244565b15611154575060006104d8565b8161115e85610ed6565b101561116c575060006104d8565b60008261117885610ed6565b61118291906114b3565b905061118d81610f7d565b61119b5760009150506104d8565b6111a484610ed6565b1580156111b657506111b461100a565b155b156111c55760009150506104d8565b506001949350505050565b60006001600160a01b0382166111e857506000919050565b7f0fcb11fff5651caf53eaf1124d25315389f7b0ceffd704a5e999a2ffc7764fd580546001600160a01b03848116911614806104d857506001600160a01b038316600090815260018201602052604090205460ff169392505050565b60006001600160a01b03821661125c57506000919050565b506001600160a01b031660009081527f3f58a8938bec95c6a1ed44e042c3c2e2b9c1eb2b83644b148efde1f9dd7788d9602052604090205460ff1690565b600060208083528351808285015260005b818110156112c7578581018301518582016040015282016112ab565b506000604082860101526040601f19601f8301168501019250505092915050565b80356001600160a01b03811681146112ff57600080fd5b919050565b6000806040838503121561131757600080fd5b611320836112e8565b946020939093013593505050565b60008060006060848603121561134357600080fd5b61134c846112e8565b925061135a602085016112e8565b9150604084013590509250925092565b6020808252825182820181905260009190848201906040850190845b818110156113ac5783516001600160e01b03191683529284019291840191600101611386565b50909695505050505050565b6000602082840312156113ca57600080fd5b6104d8826112e8565b600080604083850312156113e657600080fd5b6113ef836112e8565b91506113fd602084016112e8565b90509250929050565b6020808252602a908201527f4f7074696d697a6564546f6b656e46616365743a20546f6b656e206e6f7420696040820152691b9a5d1a585b1a5e995960b21b606082015260800190565b600181811c9082168061146457607f821691505b60208210810361148457634e487b7160e01b600052602260045260246000fd5b50919050565b634e487b7160e01b600052601160045260246000fd5b818103818111156103c7576103c761148a565b808201808211156103c7576103c761148a565b634e487b7160e01b600052603260045260246000fdfe4f7074696d697a6564546f6b656e46616365743a2043616e6e6f7420617070726f7665207a65726f20616464726573734f7074696d697a6564546f6b656e46616365743a2043616e6e6f7420756e667265657a65207a65726f2061646472657373736ce0c14097c43f46534906dfa4c53dc3d50ced9d4ca89fafa7ec003cfb44344f7074696d697a6564546f6b656e46616365743a2043616e6e6f74206d696e7420746f207a65726f20616464726573734f7074696d697a6564546f6b656e46616365743a2043616e6e6f7420667265657a65207a65726f2061646472657373a264697066735822122099aa7d65f599eb92cef0612542e32a571b02dccb9175255c9d5da48f87a73d2364736f6c63430008110033","opcodes":"PUSH1 0x80 PUSH1 0x40 MSTORE CALLVALUE DUP1 ISZERO PUSH2 0x10 JUMPI PUSH1 0x0 DUP1 REVERT JUMPDEST POP PUSH2 0x15F2 DUP1 PUSH2 0x20 PUSH1 0x0 CODECOPY PUSH1 0x0 RETURN INVALID PUSH1 0x80 PUSH1 0x40 MSTORE CALLVALUE DUP1 ISZERO PUSH2 0x10 JUMPI PUSH1 0x0 DUP1 REVERT JUMPDEST POP PUSH1 0x4 CALLDATASIZE LT PUSH2 0x10B JUMPI PUSH1 0x0 CALLDATALOAD PUSH1 0xE0 SHR DUP1 PUSH4 0x70A08231 GT PUSH2 0xA2 JUMPI DUP1 PUSH4 0xA9059CBB GT PUSH2 0x71 JUMPI DUP1 PUSH4 0xA9059CBB EQ PUSH2 0x21A JUMPI DUP1 PUSH4 0xC3946AA8 EQ PUSH2 0x22D JUMPI DUP1 PUSH4 0xDD62ED3E EQ PUSH2 0x256 JUMPI DUP1 PUSH4 0xE3B807A0 EQ PUSH2 0x1A9 JUMPI DUP1 PUSH4 0xF26C159F EQ PUSH2 0x269 JUMPI PUSH1 0x0 DUP1 REVERT JUMPDEST DUP1 PUSH4 0x70A08231 EQ PUSH2 0x1E5 JUMPI DUP1 PUSH4 0x788649EA EQ PUSH2 0x1F8 JUMPI DUP1 PUSH4 0x79FD5E2E EQ PUSH2 0x20B JUMPI DUP1 PUSH4 0x95D89B41 EQ PUSH2 0x212 JUMPI PUSH1 0x0 DUP1 REVERT JUMPDEST DUP1 PUSH4 0x313CE567 GT PUSH2 0xDE JUMPI DUP1 PUSH4 0x313CE567 EQ PUSH2 0x17A JUMPI DUP1 PUSH4 0x40C10F19 EQ PUSH2 0x194 JUMPI DUP1 PUSH4 0x4B503F0B EQ PUSH2 0x1A9 JUMPI DUP1 PUSH4 0x545E1B52 EQ PUSH2 0x1BE JUMPI PUSH1 0x0 DUP1 REVERT JUMPDEST DUP1 PUSH4 0x6FDDE03 EQ PUSH2 0x110 JUMPI DUP1 PUSH4 0x95EA7B3 EQ PUSH2 0x12E JUMPI DUP1 PUSH4 0x18160DDD EQ PUSH2 0x151 JUMPI DUP1 PUSH4 0x23B872DD EQ PUSH2 0x167 JUMPI JUMPDEST PUSH1 0x0 DUP1 REVERT JUMPDEST PUSH2 0x118 PUSH2 0x27C JUMP JUMPDEST PUSH1 0x40 MLOAD PUSH2 0x125 SWAP2 SWAP1 PUSH2 0x129A JUMP JUMPDEST PUSH1 0x40 MLOAD DUP1 SWAP2 SUB SWAP1 RETURN JUMPDEST PUSH2 0x141 PUSH2 0x13C CALLDATASIZE PUSH1 0x4 PUSH2 0x1304 JUMP JUMPDEST PUSH2 0x35A JUMP JUMPDEST PUSH1 0x40 MLOAD SWAP1 ISZERO ISZERO DUP2 MSTORE PUSH1 0x20 ADD PUSH2 0x125 JUMP JUMPDEST PUSH2 0x159 PUSH2 0x3CD JUMP JUMPDEST PUSH1 0x40 MLOAD SWAP1 DUP2 MSTORE PUSH1 0x20 ADD PUSH2 0x125 JUMP JUMPDEST PUSH2 0x141 PUSH2 0x175 CALLDATASIZE PUSH1 0x4 PUSH2 0x132E JUMP JUMPDEST PUSH2 0x3FC JUMP JUMPDEST PUSH2 0x182 PUSH2 0x4DF JUMP JUMPDEST PUSH1 0x40 MLOAD PUSH1 0xFF SWAP1 SWAP2 AND DUP2 MSTORE PUSH1 0x20 ADD PUSH2 0x125 JUMP JUMPDEST PUSH2 0x1A7 PUSH2 0x1A2 CALLDATASIZE PUSH1 0x4 PUSH2 0x1304 JUMP JUMPDEST PUSH2 0x52E JUMP JUMPDEST STOP JUMPDEST PUSH2 0x1B1 PUSH2 0x6F4 JUMP JUMPDEST PUSH1 0x40 MLOAD PUSH2 0x125 SWAP2 SWAP1 PUSH2 0x136A JUMP JUMPDEST PUSH2 0x1C6 PUSH2 0x9E4 JUMP JUMPDEST PUSH1 0x40 DUP1 MLOAD SWAP4 ISZERO ISZERO DUP5 MSTORE SWAP2 ISZERO ISZERO PUSH1 0x20 DUP5 ADD MSTORE ISZERO ISZERO SWAP1 DUP3 ADD MSTORE PUSH1 0x60 ADD PUSH2 0x125 JUMP JUMPDEST PUSH2 0x159 PUSH2 0x1F3 CALLDATASIZE PUSH1 0x4 PUSH2 0x13B8 JUMP JUMPDEST PUSH2 0xA0C JUMP JUMPDEST PUSH2 0x1A7 PUSH2 0x206 CALLDATASIZE PUSH1 0x4 PUSH2 0x13B8 JUMP JUMPDEST PUSH2 0xA17 JUMP JUMPDEST PUSH1 0x1 PUSH2 0x159 JUMP JUMPDEST PUSH2 0x118 PUSH2 0xA82 JUMP JUMPDEST PUSH2 0x141 PUSH2 0x228 CALLDATASIZE PUSH1 0x4 PUSH2 0x1304 JUMP JUMPDEST PUSH2 0xAD4 JUMP JUMPDEST PUSH1 0x40 DUP1 MLOAD DUP1 DUP3 ADD SWAP1 SWAP2 MSTORE PUSH1 0xD DUP2 MSTORE PUSH13 0x1D0B5C995E0B991A585B5BDB99 PUSH1 0x9A SHL PUSH1 0x20 DUP3 ADD MSTORE PUSH2 0x118 JUMP JUMPDEST PUSH2 0x159 PUSH2 0x264 CALLDATASIZE PUSH1 0x4 PUSH2 0x13D3 JUMP JUMPDEST PUSH2 0xAE1 JUMP JUMPDEST PUSH2 0x1A7 PUSH2 0x277 CALLDATASIZE PUSH1 0x4 PUSH2 0x13B8 JUMP JUMPDEST PUSH2 0xAED JUMP JUMPDEST PUSH1 0x60 PUSH2 0x286 PUSH2 0xB5B JUMP JUMPDEST PUSH2 0x2AB JUMPI PUSH1 0x40 MLOAD PUSH3 0x461BCD PUSH1 0xE5 SHL DUP2 MSTORE PUSH1 0x4 ADD PUSH2 0x2A2 SWAP1 PUSH2 0x1406 JUMP JUMPDEST PUSH1 0x40 MLOAD DUP1 SWAP2 SUB SWAP1 REVERT JUMPDEST PUSH32 0x736CE0C14097C43F46534906DFA4C53DC3D50CED9D4CA89FAFA7EC003CFB4437 DUP1 SLOAD PUSH2 0x2D7 SWAP1 PUSH2 0x1450 JUMP JUMPDEST DUP1 PUSH1 0x1F ADD PUSH1 0x20 DUP1 SWAP2 DIV MUL PUSH1 0x20 ADD PUSH1 0x40 MLOAD SWAP1 DUP2 ADD PUSH1 0x40 MSTORE DUP1 SWAP3 SWAP2 SWAP1 DUP2 DUP2 MSTORE PUSH1 0x20 ADD DUP3 DUP1 SLOAD PUSH2 0x303 SWAP1 PUSH2 0x1450 JUMP JUMPDEST DUP1 ISZERO PUSH2 0x350 JUMPI DUP1 PUSH1 0x1F LT PUSH2 0x325 JUMPI PUSH2 0x100 DUP1 DUP4 SLOAD DIV MUL DUP4 MSTORE SWAP2 PUSH1 0x20 ADD SWAP2 PUSH2 0x350 JUMP JUMPDEST DUP3 ADD SWAP2 SWAP1 PUSH1 0x0 MSTORE PUSH1 0x20 PUSH1 0x0 KECCAK256 SWAP1 JUMPDEST DUP2 SLOAD DUP2 MSTORE SWAP1 PUSH1 0x1 ADD SWAP1 PUSH1 0x20 ADD DUP1 DUP4 GT PUSH2 0x333 JUMPI DUP3 SWAP1 SUB PUSH1 0x1F AND DUP3 ADD SWAP2 JUMPDEST POP POP POP POP POP SWAP1 POP SWAP1 JUMP JUMPDEST PUSH1 0x0 PUSH2 0x37E DUP4 PUSH1 0x40 MLOAD DUP1 PUSH1 0x60 ADD PUSH1 0x40 MSTORE DUP1 PUSH1 0x30 DUP2 MSTORE PUSH1 0x20 ADD PUSH2 0x14DD PUSH1 0x30 SWAP2 CODECOPY PUSH2 0xB83 JUMP JUMPDEST POP CALLER PUSH1 0x0 SWAP1 DUP2 MSTORE PUSH32 0x736CE0C14097C43F46534906DFA4C53DC3D50CED9D4CA89FAFA7EC003CFB4435 PUSH1 0x20 SWAP1 DUP2 MSTORE PUSH1 0x40 DUP1 DUP4 KECCAK256 PUSH1 0x1 PUSH1 0x1 PUSH1 0xA0 SHL SUB DUP7 AND DUP5 MSTORE SWAP1 SWAP2 MSTORE SWAP1 KECCAK256 DUP2 SWAP1 SSTORE PUSH1 0x1 JUMPDEST SWAP3 SWAP2 POP POP JUMP JUMPDEST PUSH1 0x0 PUSH2 0x3F7 PUSH32 0x736CE0C14097C43F46534906DFA4C53DC3D50CED9D4CA89FAFA7EC003CFB4436 SLOAD SWAP1 JUMP JUMPDEST SWAP1 POP SWAP1 JUMP JUMPDEST PUSH1 0x0 DUP1 PUSH2 0x409 DUP6 CALLER PUSH2 0xBB0 JUMP JUMPDEST SWAP1 POP DUP3 DUP2 LT ISZERO PUSH2 0x46F JUMPI PUSH1 0x40 MLOAD PUSH3 0x461BCD PUSH1 0xE5 SHL DUP2 MSTORE PUSH1 0x20 PUSH1 0x4 DUP3 ADD MSTORE PUSH1 0x2B PUSH1 0x24 DUP3 ADD MSTORE PUSH32 0x4F7074696D697A6564546F6B656E46616365743A20496E73756666696369656E PUSH1 0x44 DUP3 ADD MSTORE PUSH11 0x7420616C6C6F77616E6365 PUSH1 0xA8 SHL PUSH1 0x64 DUP3 ADD MSTORE PUSH1 0x84 ADD PUSH2 0x2A2 JUMP JUMPDEST PUSH1 0x0 PUSH2 0x47C DUP7 DUP7 DUP7 PUSH2 0xCF5 JUMP JUMPDEST SWAP1 POP DUP1 DUP1 ISZERO PUSH2 0x48D JUMPI POP PUSH1 0x0 NOT DUP3 EQ ISZERO JUMPDEST ISZERO PUSH2 0x4D4 JUMPI PUSH1 0x0 DUP1 MLOAD PUSH1 0x20 PUSH2 0x153E DUP4 CODECOPY DUP2 MLOAD SWAP2 MSTORE PUSH2 0x4AB DUP6 DUP5 PUSH2 0x14A0 JUMP JUMPDEST PUSH1 0x1 PUSH1 0x1 PUSH1 0xA0 SHL SUB DUP9 AND PUSH1 0x0 SWAP1 DUP2 MSTORE PUSH1 0x1 SWAP1 SWAP3 ADD PUSH1 0x20 SWAP1 DUP2 MSTORE PUSH1 0x40 DUP1 DUP5 KECCAK256 CALLER DUP6 MSTORE SWAP1 SWAP2 MSTORE SWAP1 SWAP2 KECCAK256 SSTORE JUMPDEST SWAP2 POP POP JUMPDEST SWAP4 SWAP3 POP POP POP JUMP JUMPDEST PUSH1 0x0 PUSH2 0x4E9 PUSH2 0xB5B JUMP JUMPDEST PUSH2 0x505 JUMPI PUSH1 0x40 MLOAD PUSH3 0x461BCD PUSH1 0xE5 SHL DUP2 MSTORE PUSH1 0x4 ADD PUSH2 0x2A2 SWAP1 PUSH2 0x1406 JUMP JUMPDEST POP PUSH32 0x736CE0C14097C43F46534906DFA4C53DC3D50CED9D4CA89FAFA7EC003CFB4439 SLOAD PUSH1 0xFF AND SWAP1 JUMP JUMPDEST PUSH2 0x537 CALLER PUSH2 0xE72 JUMP JUMPDEST PUSH2 0x559 DUP3 PUSH1 0x40 MLOAD DUP1 PUSH1 0x60 ADD PUSH1 0x40 MSTORE DUP1 PUSH1 0x30 DUP2 MSTORE PUSH1 0x20 ADD PUSH2 0x155E PUSH1 0x30 SWAP2 CODECOPY PUSH2 0xB83 JUMP JUMPDEST PUSH1 0x0 DUP2 PUSH2 0x565 DUP5 PUSH2 0xED6 JUMP JUMPDEST PUSH2 0x56F SWAP2 SWAP1 PUSH2 0x14B3 JUMP JUMPDEST SWAP1 POP PUSH2 0x57A DUP2 PUSH2 0xF7D JUMP JUMPDEST PUSH2 0x5E1 JUMPI PUSH1 0x40 MLOAD PUSH3 0x461BCD PUSH1 0xE5 SHL DUP2 MSTORE PUSH1 0x20 PUSH1 0x4 DUP3 ADD MSTORE PUSH1 0x32 PUSH1 0x24 DUP3 ADD MSTORE PUSH32 0x4F7074696D697A6564546F6B656E46616365743A204D696E7420776F756C6420 PUSH1 0x44 DUP3 ADD MSTORE PUSH18 0x76696F6C61746520636F6D706C69616E6365 PUSH1 0x70 SHL PUSH1 0x64 DUP3 ADD MSTORE PUSH1 0x84 ADD PUSH2 0x2A2 JUMP JUMPDEST PUSH2 0x5EA DUP4 PUSH2 0xED6 JUMP JUMPDEST PUSH1 0x0 SUB PUSH2 0x65E JUMPI PUSH2 0x5F9 PUSH2 0x100A JUMP JUMPDEST PUSH2 0x65E JUMPI PUSH1 0x40 MLOAD PUSH3 0x461BCD PUSH1 0xE5 SHL DUP2 MSTORE PUSH1 0x20 PUSH1 0x4 DUP3 ADD MSTORE PUSH1 0x30 PUSH1 0x24 DUP3 ADD MSTORE PUSH32 0x4F7074696D697A6564546F6B656E46616365743A20576F756C64206578636565 PUSH1 0x44 DUP3 ADD MSTORE PUSH16 0x19081A5B9D995CDD1BDC881B1A5B5A5D PUSH1 0x82 SHL PUSH1 0x64 DUP3 ADD MSTORE PUSH1 0x84 ADD PUSH2 0x2A2 JUMP JUMPDEST PUSH1 0x1 PUSH1 0x1 PUSH1 0xA0 SHL SUB DUP4 AND PUSH1 0x0 SWAP1 DUP2 MSTORE PUSH1 0x0 DUP1 MLOAD PUSH1 0x20 PUSH2 0x153E DUP4 CODECOPY DUP2 MLOAD SWAP2 MSTORE PUSH1 0x20 DUP2 SWAP1 MSTORE PUSH1 0x40 DUP3 KECCAK256 DUP1 SLOAD SWAP2 SWAP3 DUP6 SWAP3 PUSH2 0x696 SWAP1 DUP5 SWAP1 PUSH2 0x14B3 JUMP JUMPDEST SWAP3 POP POP DUP2 SWAP1 SSTORE POP DUP3 DUP2 PUSH1 0x2 ADD PUSH1 0x0 DUP3 DUP3 SLOAD PUSH2 0x6B1 SWAP2 SWAP1 PUSH2 0x14B3 JUMP JUMPDEST SWAP1 SWAP2 SSTORE POP POP DUP3 DUP3 SUB PUSH2 0x6EE JUMPI PUSH1 0x7 DUP2 ADD DUP1 SLOAD PUSH1 0x1 DUP2 ADD DUP3 SSTORE PUSH1 0x0 SWAP2 DUP3 MSTORE PUSH1 0x20 SWAP1 SWAP2 KECCAK256 ADD DUP1 SLOAD PUSH1 0x1 PUSH1 0x1 PUSH1 0xA0 SHL SUB NOT AND PUSH1 0x1 PUSH1 0x1 PUSH1 0xA0 SHL SUB DUP7 AND OR SWAP1 SSTORE JUMPDEST POP POP POP POP JUMP JUMPDEST PUSH1 0x40 DUP1 MLOAD PUSH1 0xD DUP1 DUP3 MSTORE PUSH2 0x1C0 DUP3 ADD SWAP1 SWAP3 MSTORE PUSH1 0x60 SWAP2 PUSH1 0x20 DUP3 ADD PUSH2 0x1A0 DUP1 CALLDATASIZE DUP4 CALLDATACOPY ADD SWAP1 POP POP SWAP1 POP PUSH4 0x6FDDE03 PUSH1 0xE0 SHL DUP2 PUSH1 0x0 DUP2 MLOAD DUP2 LT PUSH2 0x734 JUMPI PUSH2 0x734 PUSH2 0x14C6 JUMP JUMPDEST PUSH1 0x1 PUSH1 0x1 PUSH1 0xE0 SHL SUB NOT SWAP1 SWAP3 AND PUSH1 0x20 SWAP3 DUP4 MUL SWAP2 SWAP1 SWAP2 ADD SWAP1 SWAP2 ADD MSTORE DUP1 MLOAD PUSH4 0x95D89B41 PUSH1 0xE0 SHL SWAP1 DUP3 SWAP1 PUSH1 0x1 SWAP1 DUP2 LT PUSH2 0x76B JUMPI PUSH2 0x76B PUSH2 0x14C6 JUMP JUMPDEST PUSH1 0x1 PUSH1 0x1 PUSH1 0xE0 SHL SUB NOT SWAP1 SWAP3 AND PUSH1 0x20 SWAP3 DUP4 MUL SWAP2 SWAP1 SWAP2 ADD SWAP1 SWAP2 ADD MSTORE DUP1 MLOAD PUSH4 0x313CE567 PUSH1 0xE0 SHL SWAP1 DUP3 SWAP1 PUSH1 0x2 SWAP1 DUP2 LT PUSH2 0x7A2 JUMPI PUSH2 0x7A2 PUSH2 0x14C6 JUMP JUMPDEST PUSH1 0x1 PUSH1 0x1 PUSH1 0xE0 SHL SUB NOT SWAP1 SWAP3 AND PUSH1 0x20 SWAP3 DUP4 MUL SWAP2 SWAP1 SWAP2 ADD SWAP1 SWAP2 ADD MSTORE DUP1 MLOAD PUSH4 0x18160DDD PUSH1 0xE0 SHL SWAP1 DUP3 SWAP1 PUSH1 0x3 SWAP1 DUP2 LT PUSH2 0x7D9 JUMPI PUSH2 0x7D9 PUSH2 0x14C6 JUMP JUMPDEST PUSH1 0x1 PUSH1 0x1 PUSH1 0xE0 SHL SUB NOT SWAP1 SWAP3 AND PUSH1 0x20 SWAP3 DUP4 MUL SWAP2 SWAP1 SWAP2 ADD SWAP1 SWAP2 ADD MSTORE DUP1 MLOAD PUSH4 0x70A08231 PUSH1 0xE0 SHL SWAP1 DUP3 SWAP1 PUSH1 0x4 SWAP1 DUP2 LT PUSH2 0x810 JUMPI PUSH2 0x810 PUSH2 0x14C6 JUMP JUMPDEST PUSH1 0x1 PUSH1 0x1 PUSH1 0xE0 SHL SUB NOT SWAP1 SWAP3 AND PUSH1 0x20 SWAP3 DUP4 MUL SWAP2 SWAP1 SWAP2 ADD SWAP1 SWAP2 ADD MSTORE DUP1 MLOAD PUSH4 0x6EB1769F PUSH1 0xE1 SHL SWAP1 DUP3 SWAP1 PUSH1 0x5 SWAP1 DUP2 LT PUSH2 0x847 JUMPI PUSH2 0x847 PUSH2 0x14C6 JUMP JUMPDEST PUSH1 0x1 PUSH1 0x1 PUSH1 0xE0 SHL SUB NOT SWAP1 SWAP3 AND PUSH1 0x20 SWAP3 DUP4 MUL SWAP2 SWAP1 SWAP2 ADD SWAP1 SWAP2 ADD MSTORE DUP1 MLOAD PUSH4 0xA9059CBB PUSH1 0xE0 SHL SWAP1 DUP3 SWAP1 PUSH1 0x6 SWAP1 DUP2 LT PUSH2 0x87E JUMPI PUSH2 0x87E PUSH2 0x14C6 JUMP JUMPDEST PUSH1 0x1 PUSH1 0x1 PUSH1 0xE0 SHL SUB NOT SWAP1 SWAP3 AND PUSH1 0x20 SWAP3 DUP4 MUL SWAP2 SWAP1 SWAP2 ADD SWAP1 SWAP2 ADD MSTORE DUP1 MLOAD PUSH4 0x23B872DD PUSH1 0xE0 SHL SWAP1 DUP3 SWAP1 PUSH1 0x7 SWAP1 DUP2 LT PUSH2 0x8B5 JUMPI PUSH2 0x8B5 PUSH2 0x14C6 JUMP JUMPDEST PUSH1 0x1 PUSH1 0x1 PUSH1 0xE0 SHL SUB NOT SWAP1 SWAP3 AND PUSH1 0x20 SWAP3 DUP4 MUL SWAP2 SWAP1 SWAP2 ADD SWAP1 SWAP2 ADD MSTORE DUP1 MLOAD PUSH4 0x95EA7B3 PUSH1 0xE0 SHL SWAP1 DUP3 SWAP1 PUSH1 0x8 SWAP1 DUP2 LT PUSH2 0x8EC JUMPI PUSH2 0x8EC PUSH2 0x14C6 JUMP JUMPDEST PUSH1 0x1 PUSH1 0x1 PUSH1 0xE0 SHL SUB NOT SWAP1 SWAP3 AND PUSH1 0x20 SWAP3 DUP4 MUL SWAP2 SWAP1 SWAP2 ADD SWAP1 SWAP2 ADD MSTORE DUP1 MLOAD PUSH4 0x40C10F19 PUSH1 0xE0 SHL SWAP1 DUP3 SWAP1 PUSH1 0x9 SWAP1 DUP2 LT PUSH2 0x923 JUMPI PUSH2 0x923 PUSH2 0x14C6 JUMP JUMPDEST PUSH1 0x1 PUSH1 0x1 PUSH1 0xE0 SHL SUB NOT SWAP1 SWAP3 AND PUSH1 0x20 SWAP3 DUP4 MUL SWAP2 SWAP1 SWAP2 ADD SWAP1 SWAP2 ADD MSTORE DUP1 MLOAD PUSH4 0xF26C159F PUSH1 0xE0 SHL SWAP1 DUP3 SWAP1 PUSH1 0xA SWAP1 DUP2 LT PUSH2 0x95A JUMPI PUSH2 0x95A PUSH2 0x14C6 JUMP JUMPDEST PUSH1 0x1 PUSH1 0x1 PUSH1 0xE0 SHL SUB NOT SWAP1 SWAP3 AND PUSH1 0x20 SWAP3 DUP4 MUL SWAP2 SWAP1 SWAP2 ADD SWAP1 SWAP2 ADD MSTORE DUP1 MLOAD PUSH4 0x3C4324F5 PUSH1 0xE1 SHL SWAP1 DUP3 SWAP1 PUSH1 0xB SWAP1 DUP2 LT PUSH2 0x991 JUMPI PUSH2 0x991 PUSH2 0x14C6 JUMP JUMPDEST PUSH1 0x1 PUSH1 0x1 PUSH1 0xE0 SHL SUB NOT SWAP1 SWAP3 AND PUSH1 0x20 SWAP3 DUP4 MUL SWAP2 SWAP1 SWAP2 ADD SWAP1 SWAP2 ADD MSTORE DUP1 MLOAD PUSH4 0x71DC03D PUSH1 0xE5 SHL SWAP1 DUP3 SWAP1 PUSH1 0xC SWAP1 DUP2 LT PUSH2 0x9C8 JUMPI PUSH2 0x9C8 PUSH2 0x14C6 JUMP JUMPDEST PUSH1 0x1 PUSH1 0x1 PUSH1 0xE0 SHL SUB NOT SWAP1 SWAP3 AND PUSH1 0x20 SWAP3 DUP4 MUL SWAP2 SWAP1 SWAP2 ADD SWAP1 SWAP2 ADD MSTORE SWAP1 JUMP JUMPDEST PUSH1 0x0 DUP1 PUSH1 0x0 PUSH2 0x9F1 PUSH2 0xB5B JUMP JUMPDEST SWAP3 POP PUSH2 0x9FB PUSH2 0x107C JUMP JUMPDEST SWAP2 POP PUSH2 0xA05 PUSH2 0x10B6 JUMP JUMPDEST SWAP1 POP SWAP1 SWAP2 SWAP3 JUMP JUMPDEST PUSH1 0x0 PUSH2 0x3C7 DUP3 PUSH2 0xED6 JUMP JUMPDEST PUSH2 0xA20 CALLER PUSH2 0xE72 JUMP JUMPDEST PUSH2 0xA42 DUP2 PUSH1 0x40 MLOAD DUP1 PUSH1 0x60 ADD PUSH1 0x40 MSTORE DUP1 PUSH1 0x31 DUP2 MSTORE PUSH1 0x20 ADD PUSH2 0x150D PUSH1 0x31 SWAP2 CODECOPY PUSH2 0xB83 JUMP JUMPDEST PUSH1 0x1 PUSH1 0x1 PUSH1 0xA0 SHL SUB AND PUSH1 0x0 SWAP1 DUP2 MSTORE PUSH32 0x3F58A8938BEC95C6A1ED44E042C3C2E2B9C1EB2B83644B148EFDE1F9DD7788D9 PUSH1 0x20 MSTORE PUSH1 0x40 SWAP1 KECCAK256 DUP1 SLOAD PUSH1 0xFF NOT AND SWAP1 SSTORE JUMP JUMPDEST PUSH1 0x60 PUSH2 0xA8C PUSH2 0xB5B JUMP JUMPDEST PUSH2 0xAA8 JUMPI PUSH1 0x40 MLOAD PUSH3 0x461BCD PUSH1 0xE5 SHL DUP2 MSTORE PUSH1 0x4 ADD PUSH2 0x2A2 SWAP1 PUSH2 0x1406 JUMP JUMPDEST PUSH32 0x736CE0C14097C43F46534906DFA4C53DC3D50CED9D4CA89FAFA7EC003CFB4438 DUP1 SLOAD PUSH2 0x2D7 SWAP1 PUSH2 0x1450 JUMP JUMPDEST PUSH1 0x0 PUSH2 0x4D8 CALLER DUP5 DUP5 PUSH2 0xCF5 JUMP JUMPDEST PUSH1 0x0 PUSH2 0x4D8 DUP4 DUP4 PUSH2 0xBB0 JUMP JUMPDEST PUSH2 0xAF6 CALLER PUSH2 0xE72 JUMP JUMPDEST PUSH2 0xB18 DUP2 PUSH1 0x40 MLOAD DUP1 PUSH1 0x60 ADD PUSH1 0x40 MSTORE DUP1 PUSH1 0x2F DUP2 MSTORE PUSH1 0x20 ADD PUSH2 0x158E PUSH1 0x2F SWAP2 CODECOPY PUSH2 0xB83 JUMP JUMPDEST PUSH1 0x1 PUSH1 0x1 PUSH1 0xA0 SHL SUB AND PUSH1 0x0 SWAP1 DUP2 MSTORE PUSH32 0x3F58A8938BEC95C6A1ED44E042C3C2E2B9C1EB2B83644B148EFDE1F9DD7788D9 PUSH1 0x20 MSTORE PUSH1 0x40 SWAP1 KECCAK256 DUP1 SLOAD PUSH1 0xFF NOT AND PUSH1 0x1 OR SWAP1 SSTORE JUMP JUMPDEST PUSH1 0x0 DUP1 PUSH1 0x0 DUP1 MLOAD PUSH1 0x20 PUSH2 0x153E DUP4 CODECOPY DUP2 MLOAD SWAP2 MSTORE PUSH1 0x3 ADD DUP1 SLOAD PUSH2 0xB7B SWAP1 PUSH2 0x1450 JUMP JUMPDEST SWAP1 POP GT SWAP1 POP SWAP1 JUMP JUMPDEST DUP1 PUSH1 0x1 PUSH1 0x1 PUSH1 0xA0 SHL SUB DUP4 AND PUSH2 0xBAB JUMPI PUSH1 0x40 MLOAD PUSH3 0x461BCD PUSH1 0xE5 SHL DUP2 MSTORE PUSH1 0x4 ADD PUSH2 0x2A2 SWAP2 SWAP1 PUSH2 0x129A JUMP JUMPDEST POP POP POP JUMP JUMPDEST PUSH1 0x0 PUSH1 0x1 PUSH1 0x1 PUSH1 0xA0 SHL SUB DUP4 AND PUSH2 0xC2E JUMPI PUSH1 0x40 MLOAD PUSH3 0x461BCD PUSH1 0xE5 SHL DUP2 MSTORE PUSH1 0x20 PUSH1 0x4 DUP3 ADD MSTORE PUSH1 0x3C PUSH1 0x24 DUP3 ADD MSTORE PUSH32 0x546F6B656E53746F726167654163636573736F723A2043616E6E6F7420676574 PUSH1 0x44 DUP3 ADD MSTORE PUSH32 0x20616C6C6F77616E63652066726F6D207A65726F206164647265737300000000 PUSH1 0x64 DUP3 ADD MSTORE PUSH1 0x84 ADD PUSH2 0x2A2 JUMP JUMPDEST PUSH1 0x1 PUSH1 0x1 PUSH1 0xA0 SHL SUB DUP3 AND PUSH2 0xCAA JUMPI PUSH1 0x40 MLOAD PUSH3 0x461BCD PUSH1 0xE5 SHL DUP2 MSTORE PUSH1 0x20 PUSH1 0x4 DUP3 ADD MSTORE PUSH1 0x3B PUSH1 0x24 DUP3 ADD MSTORE PUSH32 0x546F6B656E53746F726167654163636573736F723A2043616E6E6F7420676574 PUSH1 0x44 DUP3 ADD MSTORE PUSH32 0x20616C6C6F77616E636520666F72207A65726F20616464726573730000000000 PUSH1 0x64 DUP3 ADD MSTORE PUSH1 0x84 ADD PUSH2 0x2A2 JUMP JUMPDEST POP PUSH1 0x1 PUSH1 0x1 PUSH1 0xA0 SHL SUB SWAP2 DUP3 AND PUSH1 0x0 SWAP1 DUP2 MSTORE PUSH32 0x736CE0C14097C43F46534906DFA4C53DC3D50CED9D4CA89FAFA7EC003CFB4435 PUSH1 0x20 SWAP1 DUP2 MSTORE PUSH1 0x40 DUP1 DUP4 KECCAK256 SWAP4 SWAP1 SWAP5 AND DUP3 MSTORE SWAP2 SWAP1 SWAP2 MSTORE KECCAK256 SLOAD SWAP1 JUMP JUMPDEST PUSH1 0x0 PUSH2 0xD02 DUP5 DUP5 DUP5 PUSH2 0x1103 JUMP JUMPDEST PUSH2 0xD66 JUMPI PUSH1 0x40 MLOAD PUSH3 0x461BCD PUSH1 0xE5 SHL DUP2 MSTORE PUSH1 0x20 PUSH1 0x4 DUP3 ADD MSTORE PUSH1 0x2F PUSH1 0x24 DUP3 ADD MSTORE PUSH32 0x4F7074696D697A6564546F6B656E46616365743A205472616E73666572207661 PUSH1 0x44 DUP3 ADD MSTORE PUSH15 0x1B1A59185D1A5BDB8819985A5B1959 PUSH1 0x8A SHL PUSH1 0x64 DUP3 ADD MSTORE PUSH1 0x84 ADD PUSH2 0x2A2 JUMP JUMPDEST PUSH1 0x1 PUSH1 0x1 PUSH1 0xA0 SHL SUB DUP5 AND PUSH1 0x0 SWAP1 DUP2 MSTORE PUSH1 0x0 DUP1 MLOAD PUSH1 0x20 PUSH2 0x153E DUP4 CODECOPY DUP2 MLOAD SWAP2 MSTORE PUSH1 0x20 DUP2 SWAP1 MSTORE PUSH1 0x40 DUP3 KECCAK256 DUP1 SLOAD SWAP2 SWAP3 DUP6 SWAP3 PUSH2 0xD9E SWAP1 DUP5 SWAP1 PUSH2 0x14A0 JUMP JUMPDEST SWAP1 SWAP2 SSTORE POP POP PUSH1 0x1 PUSH1 0x1 PUSH1 0xA0 SHL SUB DUP5 AND PUSH1 0x0 SWAP1 DUP2 MSTORE PUSH1 0x20 DUP3 SWAP1 MSTORE PUSH1 0x40 DUP2 KECCAK256 DUP1 SLOAD DUP6 SWAP3 SWAP1 PUSH2 0xDCB SWAP1 DUP5 SWAP1 PUSH2 0x14B3 JUMP JUMPDEST SWAP1 SWAP2 SSTORE POP POP PUSH1 0x1 PUSH1 0x1 PUSH1 0xA0 SHL SUB DUP5 AND PUSH1 0x0 SWAP1 DUP2 MSTORE PUSH1 0x20 DUP3 SWAP1 MSTORE PUSH1 0x40 SWAP1 KECCAK256 SLOAD DUP4 SWAP1 SUB PUSH2 0xE21 JUMPI PUSH1 0x7 DUP2 ADD DUP1 SLOAD PUSH1 0x1 DUP2 ADD DUP3 SSTORE PUSH1 0x0 SWAP2 DUP3 MSTORE PUSH1 0x20 SWAP1 SWAP2 KECCAK256 ADD DUP1 SLOAD PUSH1 0x1 PUSH1 0x1 PUSH1 0xA0 SHL SUB NOT AND PUSH1 0x1 PUSH1 0x1 PUSH1 0xA0 SHL SUB DUP7 AND OR SWAP1 SSTORE JUMPDEST POP POP POP PUSH1 0x1 PUSH1 0x1 PUSH1 0xA0 SHL SUB SWAP2 DUP3 AND PUSH1 0x0 SWAP1 DUP2 MSTORE PUSH32 0x3F58A8938BEC95C6A1ED44E042C3C2E2B9C1EB2B83644B148EFDE1F9DD7788D8 PUSH1 0x20 MSTORE PUSH1 0x40 DUP1 DUP3 KECCAK256 TIMESTAMP SWAP1 DUP2 SWAP1 SSTORE SWAP3 SWAP1 SWAP4 AND DUP2 MSTORE SWAP2 SWAP1 SWAP2 KECCAK256 SSTORE PUSH1 0x1 SWAP1 JUMP JUMPDEST PUSH2 0xE7B DUP2 PUSH2 0x11D0 JUMP JUMPDEST PUSH2 0xED3 JUMPI PUSH1 0x40 MLOAD PUSH3 0x461BCD PUSH1 0xE5 SHL DUP2 MSTORE PUSH1 0x20 PUSH1 0x4 DUP3 ADD MSTORE PUSH1 0x24 DUP1 DUP3 ADD MSTORE PUSH32 0x526F6C657353746F726167654163636573736F723A204E6F7420617574686F72 PUSH1 0x44 DUP3 ADD MSTORE PUSH4 0x1A5E9959 PUSH1 0xE2 SHL PUSH1 0x64 DUP3 ADD MSTORE PUSH1 0x84 ADD PUSH2 0x2A2 JUMP JUMPDEST POP JUMP JUMPDEST PUSH1 0x0 PUSH1 0x1 PUSH1 0x1 PUSH1 0xA0 SHL SUB DUP3 AND PUSH2 0xF54 JUMPI PUSH1 0x40 MLOAD PUSH3 0x461BCD PUSH1 0xE5 SHL DUP2 MSTORE PUSH1 0x20 PUSH1 0x4 DUP3 ADD MSTORE PUSH1 0x38 PUSH1 0x24 DUP3 ADD MSTORE PUSH32 0x546F6B656E53746F726167654163636573736F723A2043616E6E6F7420676574 PUSH1 0x44 DUP3 ADD MSTORE PUSH32 0x2062616C616E6365206F66207A65726F20616464726573730000000000000000 PUSH1 0x64 DUP3 ADD MSTORE PUSH1 0x84 ADD PUSH2 0x2A2 JUMP JUMPDEST POP PUSH1 0x1 PUSH1 0x1 PUSH1 0xA0 SHL SUB AND PUSH1 0x0 SWAP1 DUP2 MSTORE PUSH1 0x0 DUP1 MLOAD PUSH1 0x20 PUSH2 0x153E DUP4 CODECOPY DUP2 MLOAD SWAP2 MSTORE PUSH1 0x20 MSTORE PUSH1 0x40 SWAP1 KECCAK256 SLOAD SWAP1 JUMP JUMPDEST PUSH32 0x3F58A8938BEC95C6A1ED44E042C3C2E2B9C1EB2B83644B148EFDE1F9DD7788D5 SLOAD PUSH1 0x0 SWAP1 PUSH32 0x3F58A8938BEC95C6A1ED44E042C3C2E2B9C1EB2B83644B148EFDE1F9DD7788D4 SWAP1 ISZERO DUP1 ISZERO SWAP1 PUSH2 0xFD5 JUMPI POP DUP1 PUSH1 0x1 ADD SLOAD DUP4 LT JUMPDEST ISZERO PUSH2 0xFE3 JUMPI POP PUSH1 0x0 SWAP3 SWAP2 POP POP JUMP JUMPDEST DUP1 SLOAD ISZERO DUP1 ISZERO SWAP1 PUSH2 0xFF3 JUMPI POP DUP1 SLOAD DUP4 GT JUMPDEST ISZERO PUSH2 0x1001 JUMPI POP PUSH1 0x0 SWAP3 SWAP2 POP POP JUMP JUMPDEST POP PUSH1 0x1 SWAP3 SWAP2 POP POP JUMP JUMPDEST PUSH32 0x3F58A8938BEC95C6A1ED44E042C3C2E2B9C1EB2B83644B148EFDE1F9DD7788D6 SLOAD PUSH1 0x0 SWAP1 PUSH32 0x3F58A8938BEC95C6A1ED44E042C3C2E2B9C1EB2B83644B148EFDE1F9DD7788D4 SWAP1 ISZERO DUP1 ISZERO SWAP1 PUSH2 0x1067 JUMPI POP DUP1 PUSH1 0x2 ADD SLOAD DUP2 PUSH1 0x3 ADD SLOAD LT ISZERO JUMPDEST ISZERO PUSH2 0x1074 JUMPI PUSH1 0x0 SWAP2 POP POP SWAP1 JUMP JUMPDEST PUSH1 0x1 SWAP2 POP POP SWAP1 JUMP JUMPDEST PUSH1 0x0 PUSH2 0x10B0 PUSH32 0xFCB11FFF5651CAF53EAF1124D25315389F7B0CEFFD704A5E999A2FFC7764FD5 SLOAD PUSH1 0x1 PUSH1 0x1 PUSH1 0xA0 SHL SUB AND ISZERO SWAP1 JUMP JUMPDEST ISZERO SWAP1 POP SWAP1 JUMP JUMPDEST PUSH32 0x3F58A8938BEC95C6A1ED44E042C3C2E2B9C1EB2B83644B148EFDE1F9DD7788D4 DUP1 SLOAD PUSH1 0x0 SWAP2 SWAP1 ISZERO ISZERO DUP1 PUSH2 0x10EE JUMPI POP PUSH1 0x0 DUP2 PUSH1 0x1 ADD SLOAD GT JUMPDEST DUP1 PUSH2 0x10FD JUMPI POP PUSH1 0x0 DUP2 PUSH1 0x2 ADD SLOAD GT JUMPDEST SWAP2 POP POP SWAP1 JUMP JUMPDEST PUSH1 0x0 PUSH1 0x1 PUSH1 0x1 PUSH1 0xA0 SHL SUB DUP5 AND ISZERO DUP1 PUSH2 0x1122 JUMPI POP PUSH1 0x1 PUSH1 0x1 PUSH1 0xA0 SHL SUB DUP4 AND ISZERO JUMPDEST ISZERO PUSH2 0x112F JUMPI POP PUSH1 0x0 PUSH2 0x4D8 JUMP JUMPDEST PUSH2 0x1138 DUP5 PUSH2 0x1244 JUMP JUMPDEST DUP1 PUSH2 0x1147 JUMPI POP PUSH2 0x1147 DUP4 PUSH2 0x1244 JUMP JUMPDEST ISZERO PUSH2 0x1154 JUMPI POP PUSH1 0x0 PUSH2 0x4D8 JUMP JUMPDEST DUP2 PUSH2 0x115E DUP6 PUSH2 0xED6 JUMP JUMPDEST LT ISZERO PUSH2 0x116C JUMPI POP PUSH1 0x0 PUSH2 0x4D8 JUMP JUMPDEST PUSH1 0x0 DUP3 PUSH2 0x1178 DUP6 PUSH2 0xED6 JUMP JUMPDEST PUSH2 0x1182 SWAP2 SWAP1 PUSH2 0x14B3 JUMP JUMPDEST SWAP1 POP PUSH2 0x118D DUP2 PUSH2 0xF7D JUMP JUMPDEST PUSH2 0x119B JUMPI PUSH1 0x0 SWAP2 POP POP PUSH2 0x4D8 JUMP JUMPDEST PUSH2 0x11A4 DUP5 PUSH2 0xED6 JUMP JUMPDEST ISZERO DUP1 ISZERO PUSH2 0x11B6 JUMPI POP PUSH2 0x11B4 PUSH2 0x100A JUMP JUMPDEST ISZERO JUMPDEST ISZERO PUSH2 0x11C5 JUMPI PUSH1 0x0 SWAP2 POP POP PUSH2 0x4D8 JUMP JUMPDEST POP PUSH1 0x1 SWAP5 SWAP4 POP POP POP POP JUMP JUMPDEST PUSH1 0x0 PUSH1 0x1 PUSH1 0x1 PUSH1 0xA0 SHL SUB DUP3 AND PUSH2 0x11E8 JUMPI POP PUSH1 0x0 SWAP2 SWAP1 POP JUMP JUMPDEST PUSH32 0xFCB11FFF5651CAF53EAF1124D25315389F7B0CEFFD704A5E999A2FFC7764FD5 DUP1 SLOAD PUSH1 0x1 PUSH1 0x1 PUSH1 0xA0 SHL SUB DUP5 DUP2 AND SWAP2 AND EQ DUP1 PUSH2 0x4D8 JUMPI POP PUSH1 0x1 PUSH1 0x1 PUSH1 0xA0 SHL SUB DUP4 AND PUSH1 0x0 SWAP1 DUP2 MSTORE PUSH1 0x1 DUP3 ADD PUSH1 0x20 MSTORE PUSH1 0x40 SWAP1 KECCAK256 SLOAD PUSH1 0xFF AND SWAP4 SWAP3 POP POP POP JUMP JUMPDEST PUSH1 0x0 PUSH1 0x1 PUSH1 0x1 PUSH1 0xA0 SHL SUB DUP3 AND PUSH2 0x125C JUMPI POP PUSH1 0x0 SWAP2 SWAP1 POP JUMP JUMPDEST POP PUSH1 0x1 PUSH1 0x1 PUSH1 0xA0 SHL SUB AND PUSH1 0x0 SWAP1 DUP2 MSTORE PUSH32 0x3F58A8938BEC95C6A1ED44E042C3C2E2B9C1EB2B83644B148EFDE1F9DD7788D9 PUSH1 0x20 MSTORE PUSH1 0x40 SWAP1 KECCAK256 SLOAD PUSH1 0xFF AND SWAP1 JUMP JUMPDEST PUSH1 0x0 PUSH1 0x20 DUP1 DUP4 MSTORE DUP4 MLOAD DUP1 DUP3 DUP6 ADD MSTORE PUSH1 0x0 JUMPDEST DUP2 DUP2 LT ISZERO PUSH2 0x12C7 JUMPI DUP6 DUP2 ADD DUP4 ADD MLOAD DUP6 DUP3 ADD PUSH1 0x40 ADD MSTORE DUP3 ADD PUSH2 0x12AB JUMP JUMPDEST POP PUSH1 0x0 PUSH1 0x40 DUP3 DUP7 ADD ADD MSTORE PUSH1 0x40 PUSH1 0x1F NOT PUSH1 0x1F DUP4 ADD AND DUP6 ADD ADD SWAP3 POP POP POP SWAP3 SWAP2 POP POP JUMP JUMPDEST DUP1 CALLDATALOAD PUSH1 0x1 PUSH1 0x1 PUSH1 0xA0 SHL SUB DUP2 AND DUP2 EQ PUSH2 0x12FF JUMPI PUSH1 0x0 DUP1 REVERT JUMPDEST SWAP2 SWAP1 POP JUMP JUMPDEST PUSH1 0x0 DUP1 PUSH1 0x40 DUP4 DUP6 SUB SLT ISZERO PUSH2 0x1317 JUMPI PUSH1 0x0 DUP1 REVERT JUMPDEST PUSH2 0x1320 DUP4 PUSH2 0x12E8 JUMP JUMPDEST SWAP5 PUSH1 0x20 SWAP4 SWAP1 SWAP4 ADD CALLDATALOAD SWAP4 POP POP POP JUMP JUMPDEST PUSH1 0x0 DUP1 PUSH1 0x0 PUSH1 0x60 DUP5 DUP7 SUB SLT ISZERO PUSH2 0x1343 JUMPI PUSH1 0x0 DUP1 REVERT JUMPDEST PUSH2 0x134C DUP5 PUSH2 0x12E8 JUMP JUMPDEST SWAP3 POP PUSH2 0x135A PUSH1 0x20 DUP6 ADD PUSH2 0x12E8 JUMP JUMPDEST SWAP2 POP PUSH1 0x40 DUP5 ADD CALLDATALOAD SWAP1 POP SWAP3 POP SWAP3 POP SWAP3 JUMP JUMPDEST PUSH1 0x20 DUP1 DUP3 MSTORE DUP3 MLOAD DUP3 DUP3 ADD DUP2 SWAP1 MSTORE PUSH1 0x0 SWAP2 SWAP1 DUP5 DUP3 ADD SWAP1 PUSH1 0x40 DUP6 ADD SWAP1 DUP5 JUMPDEST DUP2 DUP2 LT ISZERO PUSH2 0x13AC JUMPI DUP4 MLOAD PUSH1 0x1 PUSH1 0x1 PUSH1 0xE0 SHL SUB NOT AND DUP4 MSTORE SWAP3 DUP5 ADD SWAP3 SWAP2 DUP5 ADD SWAP2 PUSH1 0x1 ADD PUSH2 0x1386 JUMP JUMPDEST POP SWAP1 SWAP7 SWAP6 POP POP POP POP POP POP JUMP JUMPDEST PUSH1 0x0 PUSH1 0x20 DUP3 DUP5 SUB SLT ISZERO PUSH2 0x13CA JUMPI PUSH1 0x0 DUP1 REVERT JUMPDEST PUSH2 0x4D8 DUP3 PUSH2 0x12E8 JUMP JUMPDEST PUSH1 0x0 DUP1 PUSH1 0x40 DUP4 DUP6 SUB SLT ISZERO PUSH2 0x13E6 JUMPI PUSH1 0x0 DUP1 REVERT JUMPDEST PUSH2 0x13EF DUP4 PUSH2 0x12E8 JUMP JUMPDEST SWAP2 POP PUSH2 0x13FD PUSH1 0x20 DUP5 ADD PUSH2 0x12E8 JUMP JUMPDEST SWAP1 POP SWAP3 POP SWAP3 SWAP1 POP JUMP JUMPDEST PUSH1 0x20 DUP1 DUP3 MSTORE PUSH1 0x2A SWAP1 DUP3 ADD MSTORE PUSH32 0x4F7074696D697A6564546F6B656E46616365743A20546F6B656E206E6F742069 PUSH1 0x40 DUP3 ADD MSTORE PUSH10 0x1B9A5D1A585B1A5E9959 PUSH1 0xB2 SHL PUSH1 0x60 DUP3 ADD MSTORE PUSH1 0x80 ADD SWAP1 JUMP JUMPDEST PUSH1 0x1 DUP2 DUP2 SHR SWAP1 DUP3 AND DUP1 PUSH2 0x1464 JUMPI PUSH1 0x7F DUP3 AND SWAP2 POP JUMPDEST PUSH1 0x20 DUP3 LT DUP2 SUB PUSH2 0x1484 JUMPI PUSH4 0x4E487B71 PUSH1 0xE0 SHL PUSH1 0x0 MSTORE PUSH1 0x22 PUSH1 0x4 MSTORE PUSH1 0x24 PUSH1 0x0 REVERT JUMPDEST POP SWAP2 SWAP1 POP JUMP JUMPDEST PUSH4 0x4E487B71 PUSH1 0xE0 SHL PUSH1 0x0 MSTORE PUSH1 0x11 PUSH1 0x4 MSTORE PUSH1 0x24 PUSH1 0x0 REVERT JUMPDEST DUP2 DUP2 SUB DUP2 DUP2 GT ISZERO PUSH2 0x3C7 JUMPI PUSH2 0x3C7 PUSH2 0x148A JUMP JUMPDEST DUP1 DUP3 ADD DUP1 DUP3 GT ISZERO PUSH2 0x3C7 JUMPI PUSH2 0x3C7 PUSH2 0x148A JUMP JUMPDEST PUSH4 0x4E487B71 PUSH1 0xE0 SHL PUSH1 0x0 MSTORE PUSH1 0x32 PUSH1 0x4 MSTORE PUSH1 0x24 PUSH1 0x0 REVERT INVALID 0x4F PUSH17 0x74696D697A6564546F6B656E4661636574 GASPRICE KECCAK256 NUMBER PUSH2 0x6E6E PUSH16 0x7420617070726F7665207A65726F2061 PUSH5 0x6472657373 0x4F PUSH17 0x74696D697A6564546F6B656E4661636574 GASPRICE KECCAK256 NUMBER PUSH2 0x6E6E PUSH16 0x7420756E667265657A65207A65726F20 PUSH2 0x6464 PUSH19 0x657373736CE0C14097C43F46534906DFA4C53D 0xC3 0xD5 0xC 0xED SWAP14 0x4C 0xA8 SWAP16 0xAF 0xA7 0xEC STOP EXTCODECOPY 0xFB DIFFICULTY CALLVALUE 0x4F PUSH17 0x74696D697A6564546F6B656E4661636574 GASPRICE KECCAK256 NUMBER PUSH2 0x6E6E PUSH16 0x74206D696E7420746F207A65726F2061 PUSH5 0x6472657373 0x4F PUSH17 0x74696D697A6564546F6B656E4661636574 GASPRICE KECCAK256 NUMBER PUSH2 0x6E6E PUSH16 0x7420667265657A65207A65726F206164 PUSH5 0x72657373A2 PUSH5 0x6970667358 0x22 SLT KECCAK256 SWAP10 0xAA PUSH30 0x65F599EB92CEF0612542E32A571B02DCCB9175255C9D5DA48F87A73D2364 PUSH20 0x6F6C634300081100330000000000000000000000 "},"methodIdentifiers":{"allowance(address,address)":"dd62ed3e","approve(address,uint256)":"095ea7b3","balanceOf(address)":"70a08231","decimals()":"313ce567","freezeAccount(address)":"f26c159f","getSelectors()":"4b503f0b","getStorageNamespace()":"c3946aa8","getStorageStatus()":"545e1b52","getStorageVersion()":"79fd5e2e","mint(address,uint256)":"40c10f19","name()":"06fdde03","selectorsIntrospection()":"e3b807a0","symbol()":"95d89b41","totalSupply()":"18160ddd","transfer(address,uint256)":"a9059cbb","transferFrom(address,address,uint256)":"23b872dd","unfreezeAccount(address)":"788649ea"}},"storageLayout":{"storage":[],"types":null}}}}