{"contracts/onchain-id/factory/IdFactory.sol":{"IdFactory":{"abi":[{"inputs":[{"internalType":"address","name":"param_implementationAuthority","type":"address"}],"stateMutability":"nonpayable","type":"constructor"},{"anonymous":false,"inputs":[{"indexed":true,"internalType":"address","name":"_addr","type":"address"}],"name":"Deployed","type":"event"},{"anonymous":false,"inputs":[{"indexed":true,"internalType":"address","name":"previousOwner","type":"address"},{"indexed":true,"internalType":"address","name":"newOwner","type":"address"}],"name":"OwnershipTransferred","type":"event"},{"anonymous":false,"inputs":[{"indexed":true,"internalType":"address","name":"factory","type":"address"}],"name":"TokenFactoryAdded","type":"event"},{"anonymous":false,"inputs":[{"indexed":true,"internalType":"address","name":"factory","type":"address"}],"name":"TokenFactoryRemoved","type":"event"},{"anonymous":false,"inputs":[{"indexed":true,"internalType":"address","name":"token","type":"address"},{"indexed":true,"internalType":"address","name":"identity","type":"address"}],"name":"TokenLinked","type":"event"},{"anonymous":false,"inputs":[{"indexed":true,"internalType":"address","name":"wallet","type":"address"},{"indexed":true,"internalType":"address","name":"identity","type":"address"}],"name":"WalletLinked","type":"event"},{"anonymous":false,"inputs":[{"indexed":true,"internalType":"address","name":"wallet","type":"address"},{"indexed":true,"internalType":"address","name":"identity","type":"address"}],"name":"WalletUnlinked","type":"event"},{"inputs":[{"internalType":"address","name":"_factory","type":"address"}],"name":"addTokenFactory","outputs":[],"stateMutability":"nonpayable","type":"function"},{"inputs":[{"internalType":"address","name":"_wallet","type":"address"},{"internalType":"string","name":"_salt","type":"string"}],"name":"createIdentity","outputs":[{"internalType":"address","name":"","type":"address"}],"stateMutability":"nonpayable","type":"function"},{"inputs":[{"internalType":"address","name":"_wallet","type":"address"},{"internalType":"string","name":"_salt","type":"string"},{"internalType":"bytes32[]","name":"_managementKeys","type":"bytes32[]"}],"name":"createIdentityWithManagementKeys","outputs":[{"internalType":"address","name":"","type":"address"}],"stateMutability":"nonpayable","type":"function"},{"inputs":[{"internalType":"address","name":"_token","type":"address"},{"internalType":"address","name":"_tokenOwner","type":"address"},{"internalType":"string","name":"_salt","type":"string"}],"name":"createTokenIdentity","outputs":[{"internalType":"address","name":"","type":"address"}],"stateMutability":"nonpayable","type":"function"},{"inputs":[{"internalType":"address","name":"_wallet","type":"address"}],"name":"getIdentity","outputs":[{"internalType":"address","name":"","type":"address"}],"stateMutability":"view","type":"function"},{"inputs":[{"internalType":"address","name":"_identity","type":"address"}],"name":"getToken","outputs":[{"internalType":"address","name":"","type":"address"}],"stateMutability":"view","type":"function"},{"inputs":[{"internalType":"address","name":"_identity","type":"address"}],"name":"getWallets","outputs":[{"internalType":"address[]","name":"","type":"address[]"}],"stateMutability":"view","type":"function"},{"inputs":[],"name":"implementationAuthority","outputs":[{"internalType":"address","name":"","type":"address"}],"stateMutability":"view","type":"function"},{"inputs":[{"internalType":"string","name":"_salt","type":"string"}],"name":"isSaltTaken","outputs":[{"internalType":"bool","name":"","type":"bool"}],"stateMutability":"view","type":"function"},{"inputs":[{"internalType":"address","name":"_factory","type":"address"}],"name":"isTokenFactory","outputs":[{"internalType":"bool","name":"","type":"bool"}],"stateMutability":"view","type":"function"},{"inputs":[{"internalType":"address","name":"_newWallet","type":"address"}],"name":"linkWallet","outputs":[],"stateMutability":"nonpayable","type":"function"},{"inputs":[],"name":"owner","outputs":[{"internalType":"address","name":"","type":"address"}],"stateMutability":"view","type":"function"},{"inputs":[{"internalType":"address","name":"_factory","type":"address"}],"name":"removeTokenFactory","outputs":[],"stateMutability":"nonpayable","type":"function"},{"inputs":[],"name":"renounceOwnership","outputs":[],"stateMutability":"nonpayable","type":"function"},{"inputs":[{"internalType":"address","name":"newOwner","type":"address"}],"name":"transferOwnership","outputs":[],"stateMutability":"nonpayable","type":"function"},{"inputs":[{"internalType":"address","name":"_oldWallet","type":"address"}],"name":"unlinkWallet","outputs":[],"stateMutability":"nonpayable","type":"function"}],"evm":{"bytecode":{"linkReferences":{},"object":"60a06040523480156200001157600080fd5b5060405162002441380380620024418339810160408190526200003491620000fc565b6200003f33620000ac565b6001600160a01b0381166200009a5760405162461bcd60e51b815260206004820152601f60248201527f696e76616c696420617267756d656e74202d207a65726f206164647265737300604482015260640160405180910390fd5b6001600160a01b03166080526200012e565b600080546001600160a01b038381166001600160a01b0319831681178455604051919092169283917f8be0079c531659141344cd1fd0a4f28419497f9722a3daafe3b4186f6b6457e09190a35050565b6000602082840312156200010f57600080fd5b81516001600160a01b03811681146200012757600080fd5b9392505050565b6080516122e26200015f6000396000818161011c015281816105bc01528181610b5101526112a301526122e26000f3fe60806040523480156200001157600080fd5b5060043610620001155760003560e01c8063715018a611620000a35780639ce19365116200006e5780639ce193651462000296578063b8bb812614620002ad578063f2fde38b14620002c4578063fe5cd59a14620002db57600080fd5b8063715018a6146200024c5780638da5cb5b14620002565780638e952bfe1462000268578063937529ef146200027f57600080fd5b80633e3bc3d711620000e45780633e3bc3d714620001af578063422c29a414620001de5780635027dbe2146200020457806359770438146200021d57600080fd5b80632307f882146200011a5780632fea7b8114620001595780633a50045114620001705780633d56ff661462000198575b600080fd5b7f00000000000000000000000000000000000000000000000000000000000000005b6040516001600160a01b0390911681526020015b60405180910390f35b6200013c6200016a3660046200178d565b620002f2565b6200018762000181366004620017b2565b62000358565b604051901515815260200162000150565b6200013c620001a9366004620018ea565b6200038a565b62000187620001c03660046200178d565b6001600160a01b031660009081526001602052604090205460ff1690565b620001f5620001ef3660046200178d565b6200068a565b60405162000150919062001950565b6200021b620002153660046200178d565b62000702565b005b6200013c6200022e3660046200178d565b6001600160a01b039081166000908152600660205260409020541690565b6200021b620009da565b6000546001600160a01b03166200013c565b6200013c620002793660046200199f565b620009f2565b6200021b620002903660046200178d565b62000c2f565b6200021b620002a73660046200178d565b62000d05565b6200021b620002be3660046200178d565b62000de6565b6200021b620002d53660046200178d565b62001064565b6200013c620002ec366004620019f3565b620010e3565b6001600160a01b03818116600090815260056020526040812054909116156200033457506001600160a01b039081166000908152600560205260409020541690565b506001600160a01b039081166000908152600360205260409020541690565b919050565b6000600283836040516200036e92919062001ae0565b9081526040519081900360200190205460ff1690505b92915050565b3360009081526001602052604081205460ff1680620003b357506000546001600160a01b031633145b620004055760405162461bcd60e51b815260206004820152601e60248201527f6f6e6c7920466163746f7279206f72206f776e65722063616e2063616c6c000060448201526064015b60405180910390fd5b6001600160a01b0384166200042e5760405162461bcd60e51b8152600401620003fc9062001af0565b6001600160a01b038316620004575760405162461bcd60e51b8152600401620003fc9062001af0565b6040516020016200047390602080825260009082015260400190565b60405160208183030381529060405280519060200120826040516020016200049c919062001b4d565b6040516020818303038152906040528051906020012003620004d25760405162461bcd60e51b8152600401620003fc9062001b82565b600082604051602001620004e7919062001bb9565b60405160208183030381529060405290506002816040516200050a919062001be8565b9081526040519081900360200190205460ff16156200053d5760405162461bcd60e51b8152600401620003fc9062001c06565b6001600160a01b038581166000908152600560205260409020541615620005b35760405162461bcd60e51b815260206004820152602360248201527f746f6b656e20616c7265616479206c696e6b656420746f20616e206964656e7460448201526269747960e81b6064820152608401620003fc565b6000620005e2827f000000000000000000000000000000000000000000000000000000000000000087620015a3565b90506001600283604051620005f8919062001be8565b9081526040805160209281900383018120805460ff1916941515949094179093556001600160a01b0389811660008181526005855283812080546001600160a01b0319908116948916948517909155838252600690955292832080549094168117909355927fa8261d398ddc63db24cc53cd0c63c9464cabad1bc478ede2107b32c1c4010b7a9190a395945050505050565b6001600160a01b038116600090815260046020908152604091829020805483518184028101840190945280845260609392830182828015620006f657602002820191906000526020600020905b81546001600160a01b03168152600190910190602001808311620006d7575b50505050509050919050565b6001600160a01b0381166200072b5760405162461bcd60e51b8152600401620003fc9062001af0565b336001600160a01b03821603620007905760405162461bcd60e51b815260206004820152602260248201527f63616e6e6f742062652063616c6c6564206f6e2073656e646572206164647265604482015261737360f01b6064820152608401620003fc565b6001600160a01b03808216600090815260036020526040808220543383529120548216911614620008045760405162461bcd60e51b815260206004820152601f60248201527f6f6e6c792061206c696e6b65642077616c6c65742063616e20756e6c696e6b006044820152606401620003fc565b6001600160a01b03808216600090815260036020908152604080832080546001600160a01b03198116909155909316808352600490915291812054905b8181101562000994576001600160a01b038381166000908152600460205260409020805491861691839081106200087c576200087c62001c32565b6000918252602090912001546001600160a01b0316036200097f576001600160a01b0383166000908152600460205260409020620008bc60018462001c5e565b81548110620008cf57620008cf62001c32565b60009182526020808320909101546001600160a01b038681168452600490925260409092208054919092169190839081106200090f576200090f62001c32565b600091825260208083209190910180546001600160a01b0319166001600160a01b03948516179055918516815260049091526040902080548062000957576200095762001c74565b600082815260209020810160001990810180546001600160a01b031916905501905562000994565b806200098b8162001c8a565b91505062000841565b50816001600160a01b0316836001600160a01b03167f35e6fc363a4bf723d53b26c1a751674aca9c3ead425f0591f84f5540ede86f1260405160405180910390a3505050565b620009e462001633565b620009f060006200168f565b565b6000620009fe62001633565b6001600160a01b03831662000a275760405162461bcd60e51b8152600401620003fc9062001af0565b60405160200162000a4390602080825260009082015260400190565b604051602081830303815290604052805190602001208260405160200162000a6c919062001b4d565b604051602081830303815290604052805190602001200362000aa25760405162461bcd60e51b8152600401620003fc9062001b82565b60008260405160200162000ab7919062001ca6565b604051602081830303815290604052905060028160405162000ada919062001be8565b9081526040519081900360200190205460ff161562000b0d5760405162461bcd60e51b8152600401620003fc9062001c06565b6001600160a01b03848116600090815260036020526040902054161562000b485760405162461bcd60e51b8152600401620003fc9062001cd3565b600062000b77827f000000000000000000000000000000000000000000000000000000000000000087620015a3565b9050600160028360405162000b8d919062001be8565b9081526040805160209281900383018120805460ff1916941515949094179093556001600160a01b0388811660008181526003855283812080546001600160a01b0319908116948916948517909155838252600486529381208054600181018255908252948120909401805490931681179092559290917f8e0c709111388f5480579514d86663489ab1f206fe6da1a0c4d03ac8c318b3c691a3949350505050565b62000c3962001633565b6001600160a01b03811662000c625760405162461bcd60e51b8152600401620003fc9062001af0565b6001600160a01b03811660009081526001602052604090205460ff1662000cbc5760405162461bcd60e51b815260206004820152600d60248201526c6e6f74206120666163746f727960981b6044820152606401620003fc565b6001600160a01b038116600081815260016020526040808220805460ff19169055517fd1fd5274f793d20291c0abfe42e1ef63213a11b34996d485f7afb8fe014248519190a250565b62000d0f62001633565b6001600160a01b03811662000d385760405162461bcd60e51b8152600401620003fc9062001af0565b6001600160a01b03811660009081526001602052604090205460ff161562000d975760405162461bcd60e51b8152602060048201526011602482015270616c7265616479206120666163746f727960781b6044820152606401620003fc565b6001600160a01b0381166000818152600160208190526040808320805460ff1916909217909155517f45eb8ac5344d2d3f306550fe6e969ca4190526313c512afed851d052bf2ab2fd9190a250565b6001600160a01b03811662000e0f5760405162461bcd60e51b8152600401620003fc9062001af0565b336000908152600360205260409020546001600160a01b031662000e885760405162461bcd60e51b815260206004820152602960248201527f77616c6c6574206e6f74206c696e6b656420746f20616e206964656e746974796044820152680818dbdb9d1c9858dd60ba1b6064820152608401620003fc565b6001600160a01b03818116600090815260036020526040902054161562000ef25760405162461bcd60e51b815260206004820152601960248201527f6e65772077616c6c657420616c7265616479206c696e6b6564000000000000006044820152606401620003fc565b6001600160a01b03818116600090815260056020526040902054161562000f5c5760405162461bcd60e51b815260206004820181905260248201527f696e76616c696420617267756d656e74202d20746f6b656e20616464726573736044820152606401620003fc565b336000908152600360209081526040808320546001600160a01b031680845260049092529091205460651162000fe35760405162461bcd60e51b815260206004820152602560248201527f6d617820616d6f756e74206f662077616c6c6574732070657220494420657863604482015264195959195960da1b6064820152608401620003fc565b6001600160a01b03808316600081815260036020908152604080832080549587166001600160a01b031996871681179091558084526004835281842080546001810182559085529284209092018054909516841790945592517f8e0c709111388f5480579514d86663489ab1f206fe6da1a0c4d03ac8c318b3c69190a35050565b6200106e62001633565b6001600160a01b038116620010d55760405162461bcd60e51b815260206004820152602660248201527f4f776e61626c653a206e6577206f776e657220697320746865207a65726f206160448201526564647265737360d01b6064820152608401620003fc565b620010e0816200168f565b50565b6000620010ef62001633565b6001600160a01b038416620011185760405162461bcd60e51b8152600401620003fc9062001af0565b6040516020016200113490602080825260009082015260400190565b60405160208183030381529060405280519060200120836040516020016200115d919062001b4d565b6040516020818303038152906040528051906020012003620011935760405162461bcd60e51b8152600401620003fc9062001b82565b600083604051602001620011a8919062001ca6565b6040516020818303038152906040529050600281604051620011cb919062001be8565b9081526040519081900360200190205460ff1615620011fe5760405162461bcd60e51b8152600401620003fc9062001c06565b6001600160a01b038581166000908152600360205260409020541615620012395760405162461bcd60e51b8152600401620003fc9062001cd3565b60008351116200129a5760405162461bcd60e51b815260206004820152602560248201527f696e76616c696420617267756d656e74202d20656d707479206c697374206f66604482015264206b65797360d81b6064820152608401620003fc565b6000620012c9827f000000000000000000000000000000000000000000000000000000000000000030620015a3565b905060005b84518110156200144f57604080516001600160a01b0389166020820152016040516020818303038152906040528051906020012085828151811062001317576200131762001c32565b602002602001015103620013945760405162461bcd60e51b815260206004820152603b60248201527f696e76616c696420617267756d656e74202d2077616c6c657420697320616c7360448201527f6f206c697374656420696e206d616e6167656d656e74206b65797300000000006064820152608401620003fc565b816001600160a01b0316631d381240868381518110620013b857620013b862001c32565b60200260200101516001806040518463ffffffff1660e01b8152600401620013f3939291909283526020830191909152604082015260600190565b6020604051808303816000875af115801562001413573d6000803e3d6000fd5b505050506040513d601f19601f8201168201806040525081019062001439919062001d17565b5080620014468162001c8a565b915050620012ce565b50604080513060208201526001600160a01b038316916353d413c5910160408051601f198184030181529082905280516020909101206001600160e01b031960e084901b1682526004820152600160248201526044016020604051808303816000875af1158015620014c5573d6000803e3d6000fd5b505050506040513d601f19601f82011682018060405250810190620014eb919062001d17565b50600160028360405162001500919062001be8565b9081526040805160209281900383018120805460ff1916941515949094179093556001600160a01b0389811660008181526003855283812080546001600160a01b0319908116948916948517909155838252600486529381208054600181018255908252948120909401805490931681179092559290917f8e0c709111388f5480579514d86663489ab1f206fe6da1a0c4d03ac8c318b3c691a395945050505050565b60008060405180602001620015b89062001767565b601f1982820381018352601f9091011660408181526001600160a01b038781166020840152861681830152805180830382018152606083019091529192506000906200160b908490849060800162001d3b565b6040516020818303038152906040529050620016288782620016df565b979650505050505050565b6000546001600160a01b03163314620009f05760405162461bcd60e51b815260206004820181905260248201527f4f776e61626c653a2063616c6c6572206973206e6f7420746865206f776e65726044820152606401620003fc565b600080546001600160a01b038381166001600160a01b0319831681178455604051919092169283917f8be0079c531659141344cd1fd0a4f28419497f9722a3daafe3b4186f6b6457e09190a35050565b60008083604051602001620016f5919062001be8565b60405160208183030381529060405280519060200120905060008360200184518381836000f592505050803b6200172b57600080fd5b6040516001600160a01b038216907ff40fcec21964ffb566044d083b4073f29f7f7929110ea19e1b3ebe375d89055e90600090a2949350505050565b61053e8062001d6f83390190565b80356001600160a01b03811681146200035357600080fd5b600060208284031215620017a057600080fd5b620017ab8262001775565b9392505050565b60008060208385031215620017c657600080fd5b823567ffffffffffffffff80821115620017df57600080fd5b818501915085601f830112620017f457600080fd5b8135818111156200180457600080fd5b8660208285010111156200181757600080fd5b60209290920196919550909350505050565b634e487b7160e01b600052604160045260246000fd5b604051601f8201601f1916810167ffffffffffffffff811182821017156200186b576200186b62001829565b604052919050565b600082601f8301126200188557600080fd5b813567ffffffffffffffff811115620018a257620018a262001829565b620018b7601f8201601f19166020016200183f565b818152846020838601011115620018cd57600080fd5b816020850160208301376000918101602001919091529392505050565b6000806000606084860312156200190057600080fd5b6200190b8462001775565b92506200191b6020850162001775565b9150604084013567ffffffffffffffff8111156200193857600080fd5b620019468682870162001873565b9150509250925092565b6020808252825182820181905260009190848201906040850190845b81811015620019935783516001600160a01b0316835292840192918401916001016200196c565b50909695505050505050565b60008060408385031215620019b357600080fd5b620019be8362001775565b9150602083013567ffffffffffffffff811115620019db57600080fd5b620019e98582860162001873565b9150509250929050565b60008060006060848603121562001a0957600080fd5b62001a148462001775565b925060208085013567ffffffffffffffff8082111562001a3357600080fd5b62001a418883890162001873565b9450604087013591508082111562001a5857600080fd5b818701915087601f83011262001a6d57600080fd5b81358181111562001a825762001a8262001829565b8060051b915062001a958483016200183f565b818152918301840191848101908a84111562001ab057600080fd5b938501935b8385101562001ad05784358252938501939085019062001ab5565b8096505050505050509250925092565b8183823760009101908152919050565b6020808252601f908201527f696e76616c696420617267756d656e74202d207a65726f206164647265737300604082015260600190565b60005b8381101562001b4457818101518382015260200162001b2a565b50506000910152565b602081526000825180602084015262001b6e81604085016020870162001b27565b601f01601f19169190910160400192915050565b6020808252601f908201527f696e76616c696420617267756d656e74202d20656d70747920737472696e6700604082015260600190565b642a37b5b2b760d91b81526000825162001bdb81600585016020870162001b27565b9190910160050192915050565b6000825162001bfc81846020870162001b27565b9190910192915050565b60208082526012908201527139b0b63a1030b63932b0b23c903a30b5b2b760711b604082015260600190565b634e487b7160e01b600052603260045260246000fd5b634e487b7160e01b600052601160045260246000fd5b8181038181111562000384576200038462001c48565b634e487b7160e01b600052603160045260246000fd5b60006001820162001c9f5762001c9f62001c48565b5060010190565b6213d25160ea1b81526000825162001cc681600385016020870162001b27565b9190910160030192915050565b60208082526024908201527f77616c6c657420616c7265616479206c696e6b656420746f20616e206964656e6040820152637469747960e01b606082015260800190565b60006020828403121562001d2a57600080fd5b81518015158114620017ab57600080fd5b6000835162001d4f81846020880162001b27565b83519083019062001d6581836020880162001b27565b0194935050505056fe608060405234801561001057600080fd5b5060405161053e38038061053e83398101604081905261002f91610271565b6001600160a01b03821661008a5760405162461bcd60e51b815260206004820152601f60248201527f696e76616c696420617267756d656e74202d207a65726f20616464726573730060448201526064015b60405180910390fd5b6001600160a01b0381166100e05760405162461bcd60e51b815260206004820152601f60248201527f696e76616c696420617267756d656e74202d207a65726f2061646472657373006044820152606401610081565b817f821f3e4d3d679f19eacc940c87acf846ea6eae24a63058ea750304437a62aafc556000826001600160a01b031663aaf10f426040518163ffffffff1660e01b8152600401602060405180830381865afa158015610143573d6000803e3d6000fd5b505050506040513d601f19601f8201168201806040525081019061016791906102a4565b6040516001600160a01b03848116602483015291925060009183169060440160408051601f198184030181529181526020820180516001600160e01b031663189acdbd60e31b179052516101bb91906102c6565b600060405180830381855af49150503d80600081146101f6576040519150601f19603f3d011682016040523d82523d6000602084013e6101fb565b606091505b505090508061024c5760405162461bcd60e51b815260206004820152601660248201527f496e697469616c697a6174696f6e206661696c65642e000000000000000000006044820152606401610081565b505050506102f5565b80516001600160a01b038116811461026c57600080fd5b919050565b6000806040838503121561028457600080fd5b61028d83610255565b915061029b60208401610255565b90509250929050565b6000602082840312156102b657600080fd5b6102bf82610255565b9392505050565b6000825160005b818110156102e757602081860181015185830152016102cd565b506000920191825250919050565b61023a806103046000396000f3fe6080604052600436106100225760003560e01c80632307f88214610189576100d8565b366100d85760006100517f821f3e4d3d679f19eacc940c87acf846ea6eae24a63058ea750304437a62aafc5490565b6001600160a01b031663aaf10f426040518163ffffffff1660e01b8152600401602060405180830381865afa15801561008e573d6000803e3d6000fd5b505050506040513d601f19601f820116820180604052508101906100b291906101d4565b9050600080600080846127105a03f43d806000803e8180156100d357816000f35b816000fd5b60006101027f821f3e4d3d679f19eacc940c87acf846ea6eae24a63058ea750304437a62aafc5490565b6001600160a01b031663aaf10f426040518163ffffffff1660e01b8152600401602060405180830381865afa15801561013f573d6000803e3d6000fd5b505050506040513d601f19601f8201168201806040525081019061016391906101d4565b90503660008037600080366000846127105a03f43d806000803e8180156100d357816000f35b34801561019557600080fd5b507f821f3e4d3d679f19eacc940c87acf846ea6eae24a63058ea750304437a62aafc546040516001600160a01b03909116815260200160405180910390f35b6000602082840312156101e657600080fd5b81516001600160a01b03811681146101fd57600080fd5b939250505056fea2646970667358221220f35182fff1afa9c557be45a8e58720ba851231c098071c573c28f043549a57f864736f6c63430008110033a264697066735822122039cc2d9d7ffc630e91704ab4bc3ed0a6be944010d197ab015198fc2f3303d28a64736f6c63430008110033","opcodes":"PUSH1 0xA0 PUSH1 0x40 MSTORE CALLVALUE DUP1 ISZERO PUSH3 0x11 JUMPI PUSH1 0x0 DUP1 REVERT JUMPDEST POP PUSH1 0x40 MLOAD PUSH3 0x2441 CODESIZE SUB DUP1 PUSH3 0x2441 DUP4 CODECOPY DUP2 ADD PUSH1 0x40 DUP2 SWAP1 MSTORE PUSH3 0x34 SWAP2 PUSH3 0xFC JUMP JUMPDEST PUSH3 0x3F CALLER PUSH3 0xAC JUMP JUMPDEST PUSH1 0x1 PUSH1 0x1 PUSH1 0xA0 SHL SUB DUP2 AND PUSH3 0x9A JUMPI PUSH1 0x40 MLOAD PUSH3 0x461BCD PUSH1 0xE5 SHL DUP2 MSTORE PUSH1 0x20 PUSH1 0x4 DUP3 ADD MSTORE PUSH1 0x1F PUSH1 0x24 DUP3 ADD MSTORE PUSH32 0x696E76616C696420617267756D656E74202D207A65726F206164647265737300 PUSH1 0x44 DUP3 ADD MSTORE PUSH1 0x64 ADD PUSH1 0x40 MLOAD DUP1 SWAP2 SUB SWAP1 REVERT JUMPDEST PUSH1 0x1 PUSH1 0x1 PUSH1 0xA0 SHL SUB AND PUSH1 0x80 MSTORE PUSH3 0x12E JUMP JUMPDEST PUSH1 0x0 DUP1 SLOAD PUSH1 0x1 PUSH1 0x1 PUSH1 0xA0 SHL SUB DUP4 DUP2 AND PUSH1 0x1 PUSH1 0x1 PUSH1 0xA0 SHL SUB NOT DUP4 AND DUP2 OR DUP5 SSTORE PUSH1 0x40 MLOAD SWAP2 SWAP1 SWAP3 AND SWAP3 DUP4 SWAP2 PUSH32 0x8BE0079C531659141344CD1FD0A4F28419497F9722A3DAAFE3B4186F6B6457E0 SWAP2 SWAP1 LOG3 POP POP JUMP JUMPDEST PUSH1 0x0 PUSH1 0x20 DUP3 DUP5 SUB SLT ISZERO PUSH3 0x10F JUMPI PUSH1 0x0 DUP1 REVERT JUMPDEST DUP2 MLOAD PUSH1 0x1 PUSH1 0x1 PUSH1 0xA0 SHL SUB DUP2 AND DUP2 EQ PUSH3 0x127 JUMPI PUSH1 0x0 DUP1 REVERT JUMPDEST SWAP4 SWAP3 POP POP POP JUMP JUMPDEST PUSH1 0x80 MLOAD PUSH2 0x22E2 PUSH3 0x15F PUSH1 0x0 CODECOPY PUSH1 0x0 DUP2 DUP2 PUSH2 0x11C ADD MSTORE DUP2 DUP2 PUSH2 0x5BC ADD MSTORE DUP2 DUP2 PUSH2 0xB51 ADD MSTORE PUSH2 0x12A3 ADD MSTORE PUSH2 0x22E2 PUSH1 0x0 RETURN INVALID PUSH1 0x80 PUSH1 0x40 MSTORE CALLVALUE DUP1 ISZERO PUSH3 0x11 JUMPI PUSH1 0x0 DUP1 REVERT JUMPDEST POP PUSH1 0x4 CALLDATASIZE LT PUSH3 0x115 JUMPI PUSH1 0x0 CALLDATALOAD PUSH1 0xE0 SHR DUP1 PUSH4 0x715018A6 GT PUSH3 0xA3 JUMPI DUP1 PUSH4 0x9CE19365 GT PUSH3 0x6E JUMPI DUP1 PUSH4 0x9CE19365 EQ PUSH3 0x296 JUMPI DUP1 PUSH4 0xB8BB8126 EQ PUSH3 0x2AD JUMPI DUP1 PUSH4 0xF2FDE38B EQ PUSH3 0x2C4 JUMPI DUP1 PUSH4 0xFE5CD59A EQ PUSH3 0x2DB JUMPI PUSH1 0x0 DUP1 REVERT JUMPDEST DUP1 PUSH4 0x715018A6 EQ PUSH3 0x24C JUMPI DUP1 PUSH4 0x8DA5CB5B EQ PUSH3 0x256 JUMPI DUP1 PUSH4 0x8E952BFE EQ PUSH3 0x268 JUMPI DUP1 PUSH4 0x937529EF EQ PUSH3 0x27F JUMPI PUSH1 0x0 DUP1 REVERT JUMPDEST DUP1 PUSH4 0x3E3BC3D7 GT PUSH3 0xE4 JUMPI DUP1 PUSH4 0x3E3BC3D7 EQ PUSH3 0x1AF JUMPI DUP1 PUSH4 0x422C29A4 EQ PUSH3 0x1DE JUMPI DUP1 PUSH4 0x5027DBE2 EQ PUSH3 0x204 JUMPI DUP1 PUSH4 0x59770438 EQ PUSH3 0x21D JUMPI PUSH1 0x0 DUP1 REVERT JUMPDEST DUP1 PUSH4 0x2307F882 EQ PUSH3 0x11A JUMPI DUP1 PUSH4 0x2FEA7B81 EQ PUSH3 0x159 JUMPI DUP1 PUSH4 0x3A500451 EQ PUSH3 0x170 JUMPI DUP1 PUSH4 0x3D56FF66 EQ PUSH3 0x198 JUMPI JUMPDEST PUSH1 0x0 DUP1 REVERT JUMPDEST PUSH32 0x0 JUMPDEST PUSH1 0x40 MLOAD PUSH1 0x1 PUSH1 0x1 PUSH1 0xA0 SHL SUB SWAP1 SWAP2 AND DUP2 MSTORE PUSH1 0x20 ADD JUMPDEST PUSH1 0x40 MLOAD DUP1 SWAP2 SUB SWAP1 RETURN JUMPDEST PUSH3 0x13C PUSH3 0x16A CALLDATASIZE PUSH1 0x4 PUSH3 0x178D JUMP JUMPDEST PUSH3 0x2F2 JUMP JUMPDEST PUSH3 0x187 PUSH3 0x181 CALLDATASIZE PUSH1 0x4 PUSH3 0x17B2 JUMP JUMPDEST PUSH3 0x358 JUMP JUMPDEST PUSH1 0x40 MLOAD SWAP1 ISZERO ISZERO DUP2 MSTORE PUSH1 0x20 ADD PUSH3 0x150 JUMP JUMPDEST PUSH3 0x13C PUSH3 0x1A9 CALLDATASIZE PUSH1 0x4 PUSH3 0x18EA JUMP JUMPDEST PUSH3 0x38A JUMP JUMPDEST PUSH3 0x187 PUSH3 0x1C0 CALLDATASIZE PUSH1 0x4 PUSH3 0x178D JUMP JUMPDEST PUSH1 0x1 PUSH1 0x1 PUSH1 0xA0 SHL SUB AND PUSH1 0x0 SWAP1 DUP2 MSTORE PUSH1 0x1 PUSH1 0x20 MSTORE PUSH1 0x40 SWAP1 KECCAK256 SLOAD PUSH1 0xFF AND SWAP1 JUMP JUMPDEST PUSH3 0x1F5 PUSH3 0x1EF CALLDATASIZE PUSH1 0x4 PUSH3 0x178D JUMP JUMPDEST PUSH3 0x68A JUMP JUMPDEST PUSH1 0x40 MLOAD PUSH3 0x150 SWAP2 SWAP1 PUSH3 0x1950 JUMP JUMPDEST PUSH3 0x21B PUSH3 0x215 CALLDATASIZE PUSH1 0x4 PUSH3 0x178D JUMP JUMPDEST PUSH3 0x702 JUMP JUMPDEST STOP JUMPDEST PUSH3 0x13C PUSH3 0x22E CALLDATASIZE PUSH1 0x4 PUSH3 0x178D JUMP JUMPDEST PUSH1 0x1 PUSH1 0x1 PUSH1 0xA0 SHL SUB SWAP1 DUP2 AND PUSH1 0x0 SWAP1 DUP2 MSTORE PUSH1 0x6 PUSH1 0x20 MSTORE PUSH1 0x40 SWAP1 KECCAK256 SLOAD AND SWAP1 JUMP JUMPDEST PUSH3 0x21B PUSH3 0x9DA JUMP JUMPDEST PUSH1 0x0 SLOAD PUSH1 0x1 PUSH1 0x1 PUSH1 0xA0 SHL SUB AND PUSH3 0x13C JUMP JUMPDEST PUSH3 0x13C PUSH3 0x279 CALLDATASIZE PUSH1 0x4 PUSH3 0x199F JUMP JUMPDEST PUSH3 0x9F2 JUMP JUMPDEST PUSH3 0x21B PUSH3 0x290 CALLDATASIZE PUSH1 0x4 PUSH3 0x178D JUMP JUMPDEST PUSH3 0xC2F JUMP JUMPDEST PUSH3 0x21B PUSH3 0x2A7 CALLDATASIZE PUSH1 0x4 PUSH3 0x178D JUMP JUMPDEST PUSH3 0xD05 JUMP JUMPDEST PUSH3 0x21B PUSH3 0x2BE CALLDATASIZE PUSH1 0x4 PUSH3 0x178D JUMP JUMPDEST PUSH3 0xDE6 JUMP JUMPDEST PUSH3 0x21B PUSH3 0x2D5 CALLDATASIZE PUSH1 0x4 PUSH3 0x178D JUMP JUMPDEST PUSH3 0x1064 JUMP JUMPDEST PUSH3 0x13C PUSH3 0x2EC CALLDATASIZE PUSH1 0x4 PUSH3 0x19F3 JUMP JUMPDEST PUSH3 0x10E3 JUMP JUMPDEST PUSH1 0x1 PUSH1 0x1 PUSH1 0xA0 SHL SUB DUP2 DUP2 AND PUSH1 0x0 SWAP1 DUP2 MSTORE PUSH1 0x5 PUSH1 0x20 MSTORE PUSH1 0x40 DUP2 KECCAK256 SLOAD SWAP1 SWAP2 AND ISZERO PUSH3 0x334 JUMPI POP PUSH1 0x1 PUSH1 0x1 PUSH1 0xA0 SHL SUB SWAP1 DUP2 AND PUSH1 0x0 SWAP1 DUP2 MSTORE PUSH1 0x5 PUSH1 0x20 MSTORE PUSH1 0x40 SWAP1 KECCAK256 SLOAD AND SWAP1 JUMP JUMPDEST POP PUSH1 0x1 PUSH1 0x1 PUSH1 0xA0 SHL SUB SWAP1 DUP2 AND PUSH1 0x0 SWAP1 DUP2 MSTORE PUSH1 0x3 PUSH1 0x20 MSTORE PUSH1 0x40 SWAP1 KECCAK256 SLOAD AND SWAP1 JUMP JUMPDEST SWAP2 SWAP1 POP JUMP JUMPDEST PUSH1 0x0 PUSH1 0x2 DUP4 DUP4 PUSH1 0x40 MLOAD PUSH3 0x36E SWAP3 SWAP2 SWAP1 PUSH3 0x1AE0 JUMP JUMPDEST SWAP1 DUP2 MSTORE PUSH1 0x40 MLOAD SWAP1 DUP2 SWAP1 SUB PUSH1 0x20 ADD SWAP1 KECCAK256 SLOAD PUSH1 0xFF AND SWAP1 POP JUMPDEST SWAP3 SWAP2 POP POP JUMP JUMPDEST CALLER PUSH1 0x0 SWAP1 DUP2 MSTORE PUSH1 0x1 PUSH1 0x20 MSTORE PUSH1 0x40 DUP2 KECCAK256 SLOAD PUSH1 0xFF AND DUP1 PUSH3 0x3B3 JUMPI POP PUSH1 0x0 SLOAD PUSH1 0x1 PUSH1 0x1 PUSH1 0xA0 SHL SUB AND CALLER EQ JUMPDEST PUSH3 0x405 JUMPI PUSH1 0x40 MLOAD PUSH3 0x461BCD PUSH1 0xE5 SHL DUP2 MSTORE PUSH1 0x20 PUSH1 0x4 DUP3 ADD MSTORE PUSH1 0x1E PUSH1 0x24 DUP3 ADD MSTORE PUSH32 0x6F6E6C7920466163746F7279206F72206F776E65722063616E2063616C6C0000 PUSH1 0x44 DUP3 ADD MSTORE PUSH1 0x64 ADD JUMPDEST PUSH1 0x40 MLOAD DUP1 SWAP2 SUB SWAP1 REVERT JUMPDEST PUSH1 0x1 PUSH1 0x1 PUSH1 0xA0 SHL SUB DUP5 AND PUSH3 0x42E JUMPI PUSH1 0x40 MLOAD PUSH3 0x461BCD PUSH1 0xE5 SHL DUP2 MSTORE PUSH1 0x4 ADD PUSH3 0x3FC SWAP1 PUSH3 0x1AF0 JUMP JUMPDEST PUSH1 0x1 PUSH1 0x1 PUSH1 0xA0 SHL SUB DUP4 AND PUSH3 0x457 JUMPI PUSH1 0x40 MLOAD PUSH3 0x461BCD PUSH1 0xE5 SHL DUP2 MSTORE PUSH1 0x4 ADD PUSH3 0x3FC SWAP1 PUSH3 0x1AF0 JUMP JUMPDEST PUSH1 0x40 MLOAD PUSH1 0x20 ADD PUSH3 0x473 SWAP1 PUSH1 0x20 DUP1 DUP3 MSTORE PUSH1 0x0 SWAP1 DUP3 ADD MSTORE PUSH1 0x40 ADD SWAP1 JUMP JUMPDEST PUSH1 0x40 MLOAD PUSH1 0x20 DUP2 DUP4 SUB SUB DUP2 MSTORE SWAP1 PUSH1 0x40 MSTORE DUP1 MLOAD SWAP1 PUSH1 0x20 ADD KECCAK256 DUP3 PUSH1 0x40 MLOAD PUSH1 0x20 ADD PUSH3 0x49C SWAP2 SWAP1 PUSH3 0x1B4D JUMP JUMPDEST PUSH1 0x40 MLOAD PUSH1 0x20 DUP2 DUP4 SUB SUB DUP2 MSTORE SWAP1 PUSH1 0x40 MSTORE DUP1 MLOAD SWAP1 PUSH1 0x20 ADD KECCAK256 SUB PUSH3 0x4D2 JUMPI PUSH1 0x40 MLOAD PUSH3 0x461BCD PUSH1 0xE5 SHL DUP2 MSTORE PUSH1 0x4 ADD PUSH3 0x3FC SWAP1 PUSH3 0x1B82 JUMP JUMPDEST PUSH1 0x0 DUP3 PUSH1 0x40 MLOAD PUSH1 0x20 ADD PUSH3 0x4E7 SWAP2 SWAP1 PUSH3 0x1BB9 JUMP JUMPDEST PUSH1 0x40 MLOAD PUSH1 0x20 DUP2 DUP4 SUB SUB DUP2 MSTORE SWAP1 PUSH1 0x40 MSTORE SWAP1 POP PUSH1 0x2 DUP2 PUSH1 0x40 MLOAD PUSH3 0x50A SWAP2 SWAP1 PUSH3 0x1BE8 JUMP JUMPDEST SWAP1 DUP2 MSTORE PUSH1 0x40 MLOAD SWAP1 DUP2 SWAP1 SUB PUSH1 0x20 ADD SWAP1 KECCAK256 SLOAD PUSH1 0xFF AND ISZERO PUSH3 0x53D JUMPI PUSH1 0x40 MLOAD PUSH3 0x461BCD PUSH1 0xE5 SHL DUP2 MSTORE PUSH1 0x4 ADD PUSH3 0x3FC SWAP1 PUSH3 0x1C06 JUMP JUMPDEST PUSH1 0x1 PUSH1 0x1 PUSH1 0xA0 SHL SUB DUP6 DUP2 AND PUSH1 0x0 SWAP1 DUP2 MSTORE PUSH1 0x5 PUSH1 0x20 MSTORE PUSH1 0x40 SWAP1 KECCAK256 SLOAD AND ISZERO PUSH3 0x5B3 JUMPI PUSH1 0x40 MLOAD PUSH3 0x461BCD PUSH1 0xE5 SHL DUP2 MSTORE PUSH1 0x20 PUSH1 0x4 DUP3 ADD MSTORE PUSH1 0x23 PUSH1 0x24 DUP3 ADD MSTORE PUSH32 0x746F6B656E20616C7265616479206C696E6B656420746F20616E206964656E74 PUSH1 0x44 DUP3 ADD MSTORE PUSH3 0x697479 PUSH1 0xE8 SHL PUSH1 0x64 DUP3 ADD MSTORE PUSH1 0x84 ADD PUSH3 0x3FC JUMP JUMPDEST PUSH1 0x0 PUSH3 0x5E2 DUP3 PUSH32 0x0 DUP8 PUSH3 0x15A3 JUMP JUMPDEST SWAP1 POP PUSH1 0x1 PUSH1 0x2 DUP4 PUSH1 0x40 MLOAD PUSH3 0x5F8 SWAP2 SWAP1 PUSH3 0x1BE8 JUMP JUMPDEST SWAP1 DUP2 MSTORE PUSH1 0x40 DUP1 MLOAD PUSH1 0x20 SWAP3 DUP2 SWAP1 SUB DUP4 ADD DUP2 KECCAK256 DUP1 SLOAD PUSH1 0xFF NOT AND SWAP5 ISZERO ISZERO SWAP5 SWAP1 SWAP5 OR SWAP1 SWAP4 SSTORE PUSH1 0x1 PUSH1 0x1 PUSH1 0xA0 SHL SUB DUP10 DUP2 AND PUSH1 0x0 DUP2 DUP2 MSTORE PUSH1 0x5 DUP6 MSTORE DUP4 DUP2 KECCAK256 DUP1 SLOAD PUSH1 0x1 PUSH1 0x1 PUSH1 0xA0 SHL SUB NOT SWAP1 DUP2 AND SWAP5 DUP10 AND SWAP5 DUP6 OR SWAP1 SWAP2 SSTORE DUP4 DUP3 MSTORE PUSH1 0x6 SWAP1 SWAP6 MSTORE SWAP3 DUP4 KECCAK256 DUP1 SLOAD SWAP1 SWAP5 AND DUP2 OR SWAP1 SWAP4 SSTORE SWAP3 PUSH32 0xA8261D398DDC63DB24CC53CD0C63C9464CABAD1BC478EDE2107B32C1C4010B7A SWAP2 SWAP1 LOG3 SWAP6 SWAP5 POP POP POP POP POP JUMP JUMPDEST PUSH1 0x1 PUSH1 0x1 PUSH1 0xA0 SHL SUB DUP2 AND PUSH1 0x0 SWAP1 DUP2 MSTORE PUSH1 0x4 PUSH1 0x20 SWAP1 DUP2 MSTORE PUSH1 0x40 SWAP2 DUP3 SWAP1 KECCAK256 DUP1 SLOAD DUP4 MLOAD DUP2 DUP5 MUL DUP2 ADD DUP5 ADD SWAP1 SWAP5 MSTORE DUP1 DUP5 MSTORE PUSH1 0x60 SWAP4 SWAP3 DUP4 ADD DUP3 DUP3 DUP1 ISZERO PUSH3 0x6F6 JUMPI PUSH1 0x20 MUL DUP3 ADD SWAP2 SWAP1 PUSH1 0x0 MSTORE PUSH1 0x20 PUSH1 0x0 KECCAK256 SWAP1 JUMPDEST DUP2 SLOAD PUSH1 0x1 PUSH1 0x1 PUSH1 0xA0 SHL SUB AND DUP2 MSTORE PUSH1 0x1 SWAP1 SWAP2 ADD SWAP1 PUSH1 0x20 ADD DUP1 DUP4 GT PUSH3 0x6D7 JUMPI JUMPDEST POP POP POP POP POP SWAP1 POP SWAP2 SWAP1 POP JUMP JUMPDEST PUSH1 0x1 PUSH1 0x1 PUSH1 0xA0 SHL SUB DUP2 AND PUSH3 0x72B JUMPI PUSH1 0x40 MLOAD PUSH3 0x461BCD PUSH1 0xE5 SHL DUP2 MSTORE PUSH1 0x4 ADD PUSH3 0x3FC SWAP1 PUSH3 0x1AF0 JUMP JUMPDEST CALLER PUSH1 0x1 PUSH1 0x1 PUSH1 0xA0 SHL SUB DUP3 AND SUB PUSH3 0x790 JUMPI PUSH1 0x40 MLOAD PUSH3 0x461BCD PUSH1 0xE5 SHL DUP2 MSTORE PUSH1 0x20 PUSH1 0x4 DUP3 ADD MSTORE PUSH1 0x22 PUSH1 0x24 DUP3 ADD MSTORE PUSH32 0x63616E6E6F742062652063616C6C6564206F6E2073656E646572206164647265 PUSH1 0x44 DUP3 ADD MSTORE PUSH2 0x7373 PUSH1 0xF0 SHL PUSH1 0x64 DUP3 ADD MSTORE PUSH1 0x84 ADD PUSH3 0x3FC JUMP JUMPDEST PUSH1 0x1 PUSH1 0x1 PUSH1 0xA0 SHL SUB DUP1 DUP3 AND PUSH1 0x0 SWAP1 DUP2 MSTORE PUSH1 0x3 PUSH1 0x20 MSTORE PUSH1 0x40 DUP1 DUP3 KECCAK256 SLOAD CALLER DUP4 MSTORE SWAP2 KECCAK256 SLOAD DUP3 AND SWAP2 AND EQ PUSH3 0x804 JUMPI PUSH1 0x40 MLOAD PUSH3 0x461BCD PUSH1 0xE5 SHL DUP2 MSTORE PUSH1 0x20 PUSH1 0x4 DUP3 ADD MSTORE PUSH1 0x1F PUSH1 0x24 DUP3 ADD MSTORE PUSH32 0x6F6E6C792061206C696E6B65642077616C6C65742063616E20756E6C696E6B00 PUSH1 0x44 DUP3 ADD MSTORE PUSH1 0x64 ADD PUSH3 0x3FC JUMP JUMPDEST PUSH1 0x1 PUSH1 0x1 PUSH1 0xA0 SHL SUB DUP1 DUP3 AND PUSH1 0x0 SWAP1 DUP2 MSTORE PUSH1 0x3 PUSH1 0x20 SWAP1 DUP2 MSTORE PUSH1 0x40 DUP1 DUP4 KECCAK256 DUP1 SLOAD PUSH1 0x1 PUSH1 0x1 PUSH1 0xA0 SHL SUB NOT DUP2 AND SWAP1 SWAP2 SSTORE SWAP1 SWAP4 AND DUP1 DUP4 MSTORE PUSH1 0x4 SWAP1 SWAP2 MSTORE SWAP2 DUP2 KECCAK256 SLOAD SWAP1 JUMPDEST DUP2 DUP2 LT ISZERO PUSH3 0x994 JUMPI PUSH1 0x1 PUSH1 0x1 PUSH1 0xA0 SHL SUB DUP4 DUP2 AND PUSH1 0x0 SWAP1 DUP2 MSTORE PUSH1 0x4 PUSH1 0x20 MSTORE PUSH1 0x40 SWAP1 KECCAK256 DUP1 SLOAD SWAP2 DUP7 AND SWAP2 DUP4 SWAP1 DUP2 LT PUSH3 0x87C JUMPI PUSH3 0x87C PUSH3 0x1C32 JUMP JUMPDEST PUSH1 0x0 SWAP2 DUP3 MSTORE PUSH1 0x20 SWAP1 SWAP2 KECCAK256 ADD SLOAD PUSH1 0x1 PUSH1 0x1 PUSH1 0xA0 SHL SUB AND SUB PUSH3 0x97F JUMPI PUSH1 0x1 PUSH1 0x1 PUSH1 0xA0 SHL SUB DUP4 AND PUSH1 0x0 SWAP1 DUP2 MSTORE PUSH1 0x4 PUSH1 0x20 MSTORE PUSH1 0x40 SWAP1 KECCAK256 PUSH3 0x8BC PUSH1 0x1 DUP5 PUSH3 0x1C5E JUMP JUMPDEST DUP2 SLOAD DUP2 LT PUSH3 0x8CF JUMPI PUSH3 0x8CF PUSH3 0x1C32 JUMP JUMPDEST PUSH1 0x0 SWAP2 DUP3 MSTORE PUSH1 0x20 DUP1 DUP4 KECCAK256 SWAP1 SWAP2 ADD SLOAD PUSH1 0x1 PUSH1 0x1 PUSH1 0xA0 SHL SUB DUP7 DUP2 AND DUP5 MSTORE PUSH1 0x4 SWAP1 SWAP3 MSTORE PUSH1 0x40 SWAP1 SWAP3 KECCAK256 DUP1 SLOAD SWAP2 SWAP1 SWAP3 AND SWAP2 SWAP1 DUP4 SWAP1 DUP2 LT PUSH3 0x90F JUMPI PUSH3 0x90F PUSH3 0x1C32 JUMP JUMPDEST PUSH1 0x0 SWAP2 DUP3 MSTORE PUSH1 0x20 DUP1 DUP4 KECCAK256 SWAP2 SWAP1 SWAP2 ADD DUP1 SLOAD PUSH1 0x1 PUSH1 0x1 PUSH1 0xA0 SHL SUB NOT AND PUSH1 0x1 PUSH1 0x1 PUSH1 0xA0 SHL SUB SWAP5 DUP6 AND OR SWAP1 SSTORE SWAP2 DUP6 AND DUP2 MSTORE PUSH1 0x4 SWAP1 SWAP2 MSTORE PUSH1 0x40 SWAP1 KECCAK256 DUP1 SLOAD DUP1 PUSH3 0x957 JUMPI PUSH3 0x957 PUSH3 0x1C74 JUMP JUMPDEST PUSH1 0x0 DUP3 DUP2 MSTORE PUSH1 0x20 SWAP1 KECCAK256 DUP2 ADD PUSH1 0x0 NOT SWAP1 DUP2 ADD DUP1 SLOAD PUSH1 0x1 PUSH1 0x1 PUSH1 0xA0 SHL SUB NOT AND SWAP1 SSTORE ADD SWAP1 SSTORE PUSH3 0x994 JUMP JUMPDEST DUP1 PUSH3 0x98B DUP2 PUSH3 0x1C8A JUMP JUMPDEST SWAP2 POP POP PUSH3 0x841 JUMP JUMPDEST POP DUP2 PUSH1 0x1 PUSH1 0x1 PUSH1 0xA0 SHL SUB AND DUP4 PUSH1 0x1 PUSH1 0x1 PUSH1 0xA0 SHL SUB AND PUSH32 0x35E6FC363A4BF723D53B26C1A751674ACA9C3EAD425F0591F84F5540EDE86F12 PUSH1 0x40 MLOAD PUSH1 0x40 MLOAD DUP1 SWAP2 SUB SWAP1 LOG3 POP POP POP JUMP JUMPDEST PUSH3 0x9E4 PUSH3 0x1633 JUMP JUMPDEST PUSH3 0x9F0 PUSH1 0x0 PUSH3 0x168F JUMP JUMPDEST JUMP JUMPDEST PUSH1 0x0 PUSH3 0x9FE PUSH3 0x1633 JUMP JUMPDEST PUSH1 0x1 PUSH1 0x1 PUSH1 0xA0 SHL SUB DUP4 AND PUSH3 0xA27 JUMPI PUSH1 0x40 MLOAD PUSH3 0x461BCD PUSH1 0xE5 SHL DUP2 MSTORE PUSH1 0x4 ADD PUSH3 0x3FC SWAP1 PUSH3 0x1AF0 JUMP JUMPDEST PUSH1 0x40 MLOAD PUSH1 0x20 ADD PUSH3 0xA43 SWAP1 PUSH1 0x20 DUP1 DUP3 MSTORE PUSH1 0x0 SWAP1 DUP3 ADD MSTORE PUSH1 0x40 ADD SWAP1 JUMP JUMPDEST PUSH1 0x40 MLOAD PUSH1 0x20 DUP2 DUP4 SUB SUB DUP2 MSTORE SWAP1 PUSH1 0x40 MSTORE DUP1 MLOAD SWAP1 PUSH1 0x20 ADD KECCAK256 DUP3 PUSH1 0x40 MLOAD PUSH1 0x20 ADD PUSH3 0xA6C SWAP2 SWAP1 PUSH3 0x1B4D JUMP JUMPDEST PUSH1 0x40 MLOAD PUSH1 0x20 DUP2 DUP4 SUB SUB DUP2 MSTORE SWAP1 PUSH1 0x40 MSTORE DUP1 MLOAD SWAP1 PUSH1 0x20 ADD KECCAK256 SUB PUSH3 0xAA2 JUMPI PUSH1 0x40 MLOAD PUSH3 0x461BCD PUSH1 0xE5 SHL DUP2 MSTORE PUSH1 0x4 ADD PUSH3 0x3FC SWAP1 PUSH3 0x1B82 JUMP JUMPDEST PUSH1 0x0 DUP3 PUSH1 0x40 MLOAD PUSH1 0x20 ADD PUSH3 0xAB7 SWAP2 SWAP1 PUSH3 0x1CA6 JUMP JUMPDEST PUSH1 0x40 MLOAD PUSH1 0x20 DUP2 DUP4 SUB SUB DUP2 MSTORE SWAP1 PUSH1 0x40 MSTORE SWAP1 POP PUSH1 0x2 DUP2 PUSH1 0x40 MLOAD PUSH3 0xADA SWAP2 SWAP1 PUSH3 0x1BE8 JUMP JUMPDEST SWAP1 DUP2 MSTORE PUSH1 0x40 MLOAD SWAP1 DUP2 SWAP1 SUB PUSH1 0x20 ADD SWAP1 KECCAK256 SLOAD PUSH1 0xFF AND ISZERO PUSH3 0xB0D JUMPI PUSH1 0x40 MLOAD PUSH3 0x461BCD PUSH1 0xE5 SHL DUP2 MSTORE PUSH1 0x4 ADD PUSH3 0x3FC SWAP1 PUSH3 0x1C06 JUMP JUMPDEST PUSH1 0x1 PUSH1 0x1 PUSH1 0xA0 SHL SUB DUP5 DUP2 AND PUSH1 0x0 SWAP1 DUP2 MSTORE PUSH1 0x3 PUSH1 0x20 MSTORE PUSH1 0x40 SWAP1 KECCAK256 SLOAD AND ISZERO PUSH3 0xB48 JUMPI PUSH1 0x40 MLOAD PUSH3 0x461BCD PUSH1 0xE5 SHL DUP2 MSTORE PUSH1 0x4 ADD PUSH3 0x3FC SWAP1 PUSH3 0x1CD3 JUMP JUMPDEST PUSH1 0x0 PUSH3 0xB77 DUP3 PUSH32 0x0 DUP8 PUSH3 0x15A3 JUMP JUMPDEST SWAP1 POP PUSH1 0x1 PUSH1 0x2 DUP4 PUSH1 0x40 MLOAD PUSH3 0xB8D SWAP2 SWAP1 PUSH3 0x1BE8 JUMP JUMPDEST SWAP1 DUP2 MSTORE PUSH1 0x40 DUP1 MLOAD PUSH1 0x20 SWAP3 DUP2 SWAP1 SUB DUP4 ADD DUP2 KECCAK256 DUP1 SLOAD PUSH1 0xFF NOT AND SWAP5 ISZERO ISZERO SWAP5 SWAP1 SWAP5 OR SWAP1 SWAP4 SSTORE PUSH1 0x1 PUSH1 0x1 PUSH1 0xA0 SHL SUB DUP9 DUP2 AND PUSH1 0x0 DUP2 DUP2 MSTORE PUSH1 0x3 DUP6 MSTORE DUP4 DUP2 KECCAK256 DUP1 SLOAD PUSH1 0x1 PUSH1 0x1 PUSH1 0xA0 SHL SUB NOT SWAP1 DUP2 AND SWAP5 DUP10 AND SWAP5 DUP6 OR SWAP1 SWAP2 SSTORE DUP4 DUP3 MSTORE PUSH1 0x4 DUP7 MSTORE SWAP4 DUP2 KECCAK256 DUP1 SLOAD PUSH1 0x1 DUP2 ADD DUP3 SSTORE SWAP1 DUP3 MSTORE SWAP5 DUP2 KECCAK256 SWAP1 SWAP5 ADD DUP1 SLOAD SWAP1 SWAP4 AND DUP2 OR SWAP1 SWAP3 SSTORE SWAP3 SWAP1 SWAP2 PUSH32 0x8E0C709111388F5480579514D86663489AB1F206FE6DA1A0C4D03AC8C318B3C6 SWAP2 LOG3 SWAP5 SWAP4 POP POP POP POP JUMP JUMPDEST PUSH3 0xC39 PUSH3 0x1633 JUMP JUMPDEST PUSH1 0x1 PUSH1 0x1 PUSH1 0xA0 SHL SUB DUP2 AND PUSH3 0xC62 JUMPI PUSH1 0x40 MLOAD PUSH3 0x461BCD PUSH1 0xE5 SHL DUP2 MSTORE PUSH1 0x4 ADD PUSH3 0x3FC SWAP1 PUSH3 0x1AF0 JUMP JUMPDEST PUSH1 0x1 PUSH1 0x1 PUSH1 0xA0 SHL SUB DUP2 AND PUSH1 0x0 SWAP1 DUP2 MSTORE PUSH1 0x1 PUSH1 0x20 MSTORE PUSH1 0x40 SWAP1 KECCAK256 SLOAD PUSH1 0xFF AND PUSH3 0xCBC JUMPI PUSH1 0x40 MLOAD PUSH3 0x461BCD PUSH1 0xE5 SHL DUP2 MSTORE PUSH1 0x20 PUSH1 0x4 DUP3 ADD MSTORE PUSH1 0xD PUSH1 0x24 DUP3 ADD MSTORE PUSH13 0x6E6F74206120666163746F7279 PUSH1 0x98 SHL PUSH1 0x44 DUP3 ADD MSTORE PUSH1 0x64 ADD PUSH3 0x3FC JUMP JUMPDEST PUSH1 0x1 PUSH1 0x1 PUSH1 0xA0 SHL SUB DUP2 AND PUSH1 0x0 DUP2 DUP2 MSTORE PUSH1 0x1 PUSH1 0x20 MSTORE PUSH1 0x40 DUP1 DUP3 KECCAK256 DUP1 SLOAD PUSH1 0xFF NOT AND SWAP1 SSTORE MLOAD PUSH32 0xD1FD5274F793D20291C0ABFE42E1EF63213A11B34996D485F7AFB8FE01424851 SWAP2 SWAP1 LOG2 POP JUMP JUMPDEST PUSH3 0xD0F PUSH3 0x1633 JUMP JUMPDEST PUSH1 0x1 PUSH1 0x1 PUSH1 0xA0 SHL SUB DUP2 AND PUSH3 0xD38 JUMPI PUSH1 0x40 MLOAD PUSH3 0x461BCD PUSH1 0xE5 SHL DUP2 MSTORE PUSH1 0x4 ADD PUSH3 0x3FC SWAP1 PUSH3 0x1AF0 JUMP JUMPDEST PUSH1 0x1 PUSH1 0x1 PUSH1 0xA0 SHL SUB DUP2 AND PUSH1 0x0 SWAP1 DUP2 MSTORE PUSH1 0x1 PUSH1 0x20 MSTORE PUSH1 0x40 SWAP1 KECCAK256 SLOAD PUSH1 0xFF AND ISZERO PUSH3 0xD97 JUMPI PUSH1 0x40 MLOAD PUSH3 0x461BCD PUSH1 0xE5 SHL DUP2 MSTORE PUSH1 0x20 PUSH1 0x4 DUP3 ADD MSTORE PUSH1 0x11 PUSH1 0x24 DUP3 ADD MSTORE PUSH17 0x616C7265616479206120666163746F7279 PUSH1 0x78 SHL PUSH1 0x44 DUP3 ADD MSTORE PUSH1 0x64 ADD PUSH3 0x3FC JUMP JUMPDEST PUSH1 0x1 PUSH1 0x1 PUSH1 0xA0 SHL SUB DUP2 AND PUSH1 0x0 DUP2 DUP2 MSTORE PUSH1 0x1 PUSH1 0x20 DUP2 SWAP1 MSTORE PUSH1 0x40 DUP1 DUP4 KECCAK256 DUP1 SLOAD PUSH1 0xFF NOT AND SWAP1 SWAP3 OR SWAP1 SWAP2 SSTORE MLOAD PUSH32 0x45EB8AC5344D2D3F306550FE6E969CA4190526313C512AFED851D052BF2AB2FD SWAP2 SWAP1 LOG2 POP JUMP JUMPDEST PUSH1 0x1 PUSH1 0x1 PUSH1 0xA0 SHL SUB DUP2 AND PUSH3 0xE0F JUMPI PUSH1 0x40 MLOAD PUSH3 0x461BCD PUSH1 0xE5 SHL DUP2 MSTORE PUSH1 0x4 ADD PUSH3 0x3FC SWAP1 PUSH3 0x1AF0 JUMP JUMPDEST CALLER PUSH1 0x0 SWAP1 DUP2 MSTORE PUSH1 0x3 PUSH1 0x20 MSTORE PUSH1 0x40 SWAP1 KECCAK256 SLOAD PUSH1 0x1 PUSH1 0x1 PUSH1 0xA0 SHL SUB AND PUSH3 0xE88 JUMPI PUSH1 0x40 MLOAD PUSH3 0x461BCD PUSH1 0xE5 SHL DUP2 MSTORE PUSH1 0x20 PUSH1 0x4 DUP3 ADD MSTORE PUSH1 0x29 PUSH1 0x24 DUP3 ADD MSTORE PUSH32 0x77616C6C6574206E6F74206C696E6B656420746F20616E206964656E74697479 PUSH1 0x44 DUP3 ADD MSTORE PUSH9 0x818DBDB9D1C9858DD PUSH1 0xBA SHL PUSH1 0x64 DUP3 ADD MSTORE PUSH1 0x84 ADD PUSH3 0x3FC JUMP JUMPDEST PUSH1 0x1 PUSH1 0x1 PUSH1 0xA0 SHL SUB DUP2 DUP2 AND PUSH1 0x0 SWAP1 DUP2 MSTORE PUSH1 0x3 PUSH1 0x20 MSTORE PUSH1 0x40 SWAP1 KECCAK256 SLOAD AND ISZERO PUSH3 0xEF2 JUMPI PUSH1 0x40 MLOAD PUSH3 0x461BCD PUSH1 0xE5 SHL DUP2 MSTORE PUSH1 0x20 PUSH1 0x4 DUP3 ADD MSTORE PUSH1 0x19 PUSH1 0x24 DUP3 ADD MSTORE PUSH32 0x6E65772077616C6C657420616C7265616479206C696E6B656400000000000000 PUSH1 0x44 DUP3 ADD MSTORE PUSH1 0x64 ADD PUSH3 0x3FC JUMP JUMPDEST PUSH1 0x1 PUSH1 0x1 PUSH1 0xA0 SHL SUB DUP2 DUP2 AND PUSH1 0x0 SWAP1 DUP2 MSTORE PUSH1 0x5 PUSH1 0x20 MSTORE PUSH1 0x40 SWAP1 KECCAK256 SLOAD AND ISZERO PUSH3 0xF5C JUMPI PUSH1 0x40 MLOAD PUSH3 0x461BCD PUSH1 0xE5 SHL DUP2 MSTORE PUSH1 0x20 PUSH1 0x4 DUP3 ADD DUP2 SWAP1 MSTORE PUSH1 0x24 DUP3 ADD MSTORE PUSH32 0x696E76616C696420617267756D656E74202D20746F6B656E2061646472657373 PUSH1 0x44 DUP3 ADD MSTORE PUSH1 0x64 ADD PUSH3 0x3FC JUMP JUMPDEST CALLER PUSH1 0x0 SWAP1 DUP2 MSTORE PUSH1 0x3 PUSH1 0x20 SWAP1 DUP2 MSTORE PUSH1 0x40 DUP1 DUP4 KECCAK256 SLOAD PUSH1 0x1 PUSH1 0x1 PUSH1 0xA0 SHL SUB AND DUP1 DUP5 MSTORE PUSH1 0x4 SWAP1 SWAP3 MSTORE SWAP1 SWAP2 KECCAK256 SLOAD PUSH1 0x65 GT PUSH3 0xFE3 JUMPI PUSH1 0x40 MLOAD PUSH3 0x461BCD PUSH1 0xE5 SHL DUP2 MSTORE PUSH1 0x20 PUSH1 0x4 DUP3 ADD MSTORE PUSH1 0x25 PUSH1 0x24 DUP3 ADD MSTORE PUSH32 0x6D617820616D6F756E74206F662077616C6C6574732070657220494420657863 PUSH1 0x44 DUP3 ADD MSTORE PUSH5 0x1959591959 PUSH1 0xDA SHL PUSH1 0x64 DUP3 ADD MSTORE PUSH1 0x84 ADD PUSH3 0x3FC JUMP JUMPDEST PUSH1 0x1 PUSH1 0x1 PUSH1 0xA0 SHL SUB DUP1 DUP4 AND PUSH1 0x0 DUP2 DUP2 MSTORE PUSH1 0x3 PUSH1 0x20 SWAP1 DUP2 MSTORE PUSH1 0x40 DUP1 DUP4 KECCAK256 DUP1 SLOAD SWAP6 DUP8 AND PUSH1 0x1 PUSH1 0x1 PUSH1 0xA0 SHL SUB NOT SWAP7 DUP8 AND DUP2 OR SWAP1 SWAP2 SSTORE DUP1 DUP5 MSTORE PUSH1 0x4 DUP4 MSTORE DUP2 DUP5 KECCAK256 DUP1 SLOAD PUSH1 0x1 DUP2 ADD DUP3 SSTORE SWAP1 DUP6 MSTORE SWAP3 DUP5 KECCAK256 SWAP1 SWAP3 ADD DUP1 SLOAD SWAP1 SWAP6 AND DUP5 OR SWAP1 SWAP5 SSTORE SWAP3 MLOAD PUSH32 0x8E0C709111388F5480579514D86663489AB1F206FE6DA1A0C4D03AC8C318B3C6 SWAP2 SWAP1 LOG3 POP POP JUMP JUMPDEST PUSH3 0x106E PUSH3 0x1633 JUMP JUMPDEST PUSH1 0x1 PUSH1 0x1 PUSH1 0xA0 SHL SUB DUP2 AND PUSH3 0x10D5 JUMPI PUSH1 0x40 MLOAD PUSH3 0x461BCD PUSH1 0xE5 SHL DUP2 MSTORE PUSH1 0x20 PUSH1 0x4 DUP3 ADD MSTORE PUSH1 0x26 PUSH1 0x24 DUP3 ADD MSTORE PUSH32 0x4F776E61626C653A206E6577206F776E657220697320746865207A65726F2061 PUSH1 0x44 DUP3 ADD MSTORE PUSH6 0x646472657373 PUSH1 0xD0 SHL PUSH1 0x64 DUP3 ADD MSTORE PUSH1 0x84 ADD PUSH3 0x3FC JUMP JUMPDEST PUSH3 0x10E0 DUP2 PUSH3 0x168F JUMP JUMPDEST POP JUMP JUMPDEST PUSH1 0x0 PUSH3 0x10EF PUSH3 0x1633 JUMP JUMPDEST PUSH1 0x1 PUSH1 0x1 PUSH1 0xA0 SHL SUB DUP5 AND PUSH3 0x1118 JUMPI PUSH1 0x40 MLOAD PUSH3 0x461BCD PUSH1 0xE5 SHL DUP2 MSTORE PUSH1 0x4 ADD PUSH3 0x3FC SWAP1 PUSH3 0x1AF0 JUMP JUMPDEST PUSH1 0x40 MLOAD PUSH1 0x20 ADD PUSH3 0x1134 SWAP1 PUSH1 0x20 DUP1 DUP3 MSTORE PUSH1 0x0 SWAP1 DUP3 ADD MSTORE PUSH1 0x40 ADD SWAP1 JUMP JUMPDEST PUSH1 0x40 MLOAD PUSH1 0x20 DUP2 DUP4 SUB SUB DUP2 MSTORE SWAP1 PUSH1 0x40 MSTORE DUP1 MLOAD SWAP1 PUSH1 0x20 ADD KECCAK256 DUP4 PUSH1 0x40 MLOAD PUSH1 0x20 ADD PUSH3 0x115D SWAP2 SWAP1 PUSH3 0x1B4D JUMP JUMPDEST PUSH1 0x40 MLOAD PUSH1 0x20 DUP2 DUP4 SUB SUB DUP2 MSTORE SWAP1 PUSH1 0x40 MSTORE DUP1 MLOAD SWAP1 PUSH1 0x20 ADD KECCAK256 SUB PUSH3 0x1193 JUMPI PUSH1 0x40 MLOAD PUSH3 0x461BCD PUSH1 0xE5 SHL DUP2 MSTORE PUSH1 0x4 ADD PUSH3 0x3FC SWAP1 PUSH3 0x1B82 JUMP JUMPDEST PUSH1 0x0 DUP4 PUSH1 0x40 MLOAD PUSH1 0x20 ADD PUSH3 0x11A8 SWAP2 SWAP1 PUSH3 0x1CA6 JUMP JUMPDEST PUSH1 0x40 MLOAD PUSH1 0x20 DUP2 DUP4 SUB SUB DUP2 MSTORE SWAP1 PUSH1 0x40 MSTORE SWAP1 POP PUSH1 0x2 DUP2 PUSH1 0x40 MLOAD PUSH3 0x11CB SWAP2 SWAP1 PUSH3 0x1BE8 JUMP JUMPDEST SWAP1 DUP2 MSTORE PUSH1 0x40 MLOAD SWAP1 DUP2 SWAP1 SUB PUSH1 0x20 ADD SWAP1 KECCAK256 SLOAD PUSH1 0xFF AND ISZERO PUSH3 0x11FE JUMPI PUSH1 0x40 MLOAD PUSH3 0x461BCD PUSH1 0xE5 SHL DUP2 MSTORE PUSH1 0x4 ADD PUSH3 0x3FC SWAP1 PUSH3 0x1C06 JUMP JUMPDEST PUSH1 0x1 PUSH1 0x1 PUSH1 0xA0 SHL SUB DUP6 DUP2 AND PUSH1 0x0 SWAP1 DUP2 MSTORE PUSH1 0x3 PUSH1 0x20 MSTORE PUSH1 0x40 SWAP1 KECCAK256 SLOAD AND ISZERO PUSH3 0x1239 JUMPI PUSH1 0x40 MLOAD PUSH3 0x461BCD PUSH1 0xE5 SHL DUP2 MSTORE PUSH1 0x4 ADD PUSH3 0x3FC SWAP1 PUSH3 0x1CD3 JUMP JUMPDEST PUSH1 0x0 DUP4 MLOAD GT PUSH3 0x129A JUMPI PUSH1 0x40 MLOAD PUSH3 0x461BCD PUSH1 0xE5 SHL DUP2 MSTORE PUSH1 0x20 PUSH1 0x4 DUP3 ADD MSTORE PUSH1 0x25 PUSH1 0x24 DUP3 ADD MSTORE PUSH32 0x696E76616C696420617267756D656E74202D20656D707479206C697374206F66 PUSH1 0x44 DUP3 ADD MSTORE PUSH5 0x206B657973 PUSH1 0xD8 SHL PUSH1 0x64 DUP3 ADD MSTORE PUSH1 0x84 ADD PUSH3 0x3FC JUMP JUMPDEST PUSH1 0x0 PUSH3 0x12C9 DUP3 PUSH32 0x0 ADDRESS PUSH3 0x15A3 JUMP JUMPDEST SWAP1 POP PUSH1 0x0 JUMPDEST DUP5 MLOAD DUP2 LT ISZERO PUSH3 0x144F JUMPI PUSH1 0x40 DUP1 MLOAD PUSH1 0x1 PUSH1 0x1 PUSH1 0xA0 SHL SUB DUP10 AND PUSH1 0x20 DUP3 ADD MSTORE ADD PUSH1 0x40 MLOAD PUSH1 0x20 DUP2 DUP4 SUB SUB DUP2 MSTORE SWAP1 PUSH1 0x40 MSTORE DUP1 MLOAD SWAP1 PUSH1 0x20 ADD KECCAK256 DUP6 DUP3 DUP2 MLOAD DUP2 LT PUSH3 0x1317 JUMPI PUSH3 0x1317 PUSH3 0x1C32 JUMP JUMPDEST PUSH1 0x20 MUL PUSH1 0x20 ADD ADD MLOAD SUB PUSH3 0x1394 JUMPI PUSH1 0x40 MLOAD PUSH3 0x461BCD PUSH1 0xE5 SHL DUP2 MSTORE PUSH1 0x20 PUSH1 0x4 DUP3 ADD MSTORE PUSH1 0x3B PUSH1 0x24 DUP3 ADD MSTORE PUSH32 0x696E76616C696420617267756D656E74202D2077616C6C657420697320616C73 PUSH1 0x44 DUP3 ADD MSTORE PUSH32 0x6F206C697374656420696E206D616E6167656D656E74206B6579730000000000 PUSH1 0x64 DUP3 ADD MSTORE PUSH1 0x84 ADD PUSH3 0x3FC JUMP JUMPDEST DUP2 PUSH1 0x1 PUSH1 0x1 PUSH1 0xA0 SHL SUB AND PUSH4 0x1D381240 DUP7 DUP4 DUP2 MLOAD DUP2 LT PUSH3 0x13B8 JUMPI PUSH3 0x13B8 PUSH3 0x1C32 JUMP JUMPDEST PUSH1 0x20 MUL PUSH1 0x20 ADD ADD MLOAD PUSH1 0x1 DUP1 PUSH1 0x40 MLOAD DUP5 PUSH4 0xFFFFFFFF AND PUSH1 0xE0 SHL DUP2 MSTORE PUSH1 0x4 ADD PUSH3 0x13F3 SWAP4 SWAP3 SWAP2 SWAP1 SWAP3 DUP4 MSTORE PUSH1 0x20 DUP4 ADD SWAP2 SWAP1 SWAP2 MSTORE PUSH1 0x40 DUP3 ADD MSTORE PUSH1 0x60 ADD SWAP1 JUMP JUMPDEST PUSH1 0x20 PUSH1 0x40 MLOAD DUP1 DUP4 SUB DUP2 PUSH1 0x0 DUP8 GAS CALL ISZERO DUP1 ISZERO PUSH3 0x1413 JUMPI RETURNDATASIZE PUSH1 0x0 DUP1 RETURNDATACOPY RETURNDATASIZE PUSH1 0x0 REVERT JUMPDEST POP POP POP POP PUSH1 0x40 MLOAD RETURNDATASIZE PUSH1 0x1F NOT PUSH1 0x1F DUP3 ADD AND DUP3 ADD DUP1 PUSH1 0x40 MSTORE POP DUP2 ADD SWAP1 PUSH3 0x1439 SWAP2 SWAP1 PUSH3 0x1D17 JUMP JUMPDEST POP DUP1 PUSH3 0x1446 DUP2 PUSH3 0x1C8A JUMP JUMPDEST SWAP2 POP POP PUSH3 0x12CE JUMP JUMPDEST POP PUSH1 0x40 DUP1 MLOAD ADDRESS PUSH1 0x20 DUP3 ADD MSTORE PUSH1 0x1 PUSH1 0x1 PUSH1 0xA0 SHL SUB DUP4 AND SWAP2 PUSH4 0x53D413C5 SWAP2 ADD PUSH1 0x40 DUP1 MLOAD PUSH1 0x1F NOT DUP2 DUP5 SUB ADD DUP2 MSTORE SWAP1 DUP3 SWAP1 MSTORE DUP1 MLOAD PUSH1 0x20 SWAP1 SWAP2 ADD KECCAK256 PUSH1 0x1 PUSH1 0x1 PUSH1 0xE0 SHL SUB NOT PUSH1 0xE0 DUP5 SWAP1 SHL AND DUP3 MSTORE PUSH1 0x4 DUP3 ADD MSTORE PUSH1 0x1 PUSH1 0x24 DUP3 ADD MSTORE PUSH1 0x44 ADD PUSH1 0x20 PUSH1 0x40 MLOAD DUP1 DUP4 SUB DUP2 PUSH1 0x0 DUP8 GAS CALL ISZERO DUP1 ISZERO PUSH3 0x14C5 JUMPI RETURNDATASIZE PUSH1 0x0 DUP1 RETURNDATACOPY RETURNDATASIZE PUSH1 0x0 REVERT JUMPDEST POP POP POP POP PUSH1 0x40 MLOAD RETURNDATASIZE PUSH1 0x1F NOT PUSH1 0x1F DUP3 ADD AND DUP3 ADD DUP1 PUSH1 0x40 MSTORE POP DUP2 ADD SWAP1 PUSH3 0x14EB SWAP2 SWAP1 PUSH3 0x1D17 JUMP JUMPDEST POP PUSH1 0x1 PUSH1 0x2 DUP4 PUSH1 0x40 MLOAD PUSH3 0x1500 SWAP2 SWAP1 PUSH3 0x1BE8 JUMP JUMPDEST SWAP1 DUP2 MSTORE PUSH1 0x40 DUP1 MLOAD PUSH1 0x20 SWAP3 DUP2 SWAP1 SUB DUP4 ADD DUP2 KECCAK256 DUP1 SLOAD PUSH1 0xFF NOT AND SWAP5 ISZERO ISZERO SWAP5 SWAP1 SWAP5 OR SWAP1 SWAP4 SSTORE PUSH1 0x1 PUSH1 0x1 PUSH1 0xA0 SHL SUB DUP10 DUP2 AND PUSH1 0x0 DUP2 DUP2 MSTORE PUSH1 0x3 DUP6 MSTORE DUP4 DUP2 KECCAK256 DUP1 SLOAD PUSH1 0x1 PUSH1 0x1 PUSH1 0xA0 SHL SUB NOT SWAP1 DUP2 AND SWAP5 DUP10 AND SWAP5 DUP6 OR SWAP1 SWAP2 SSTORE DUP4 DUP3 MSTORE PUSH1 0x4 DUP7 MSTORE SWAP4 DUP2 KECCAK256 DUP1 SLOAD PUSH1 0x1 DUP2 ADD DUP3 SSTORE SWAP1 DUP3 MSTORE SWAP5 DUP2 KECCAK256 SWAP1 SWAP5 ADD DUP1 SLOAD SWAP1 SWAP4 AND DUP2 OR SWAP1 SWAP3 SSTORE SWAP3 SWAP1 SWAP2 PUSH32 0x8E0C709111388F5480579514D86663489AB1F206FE6DA1A0C4D03AC8C318B3C6 SWAP2 LOG3 SWAP6 SWAP5 POP POP POP POP POP JUMP JUMPDEST PUSH1 0x0 DUP1 PUSH1 0x40 MLOAD DUP1 PUSH1 0x20 ADD PUSH3 0x15B8 SWAP1 PUSH3 0x1767 JUMP JUMPDEST PUSH1 0x1F NOT DUP3 DUP3 SUB DUP2 ADD DUP4 MSTORE PUSH1 0x1F SWAP1 SWAP2 ADD AND PUSH1 0x40 DUP2 DUP2 MSTORE PUSH1 0x1 PUSH1 0x1 PUSH1 0xA0 SHL SUB DUP8 DUP2 AND PUSH1 0x20 DUP5 ADD MSTORE DUP7 AND DUP2 DUP4 ADD MSTORE DUP1 MLOAD DUP1 DUP4 SUB DUP3 ADD DUP2 MSTORE PUSH1 0x60 DUP4 ADD SWAP1 SWAP2 MSTORE SWAP2 SWAP3 POP PUSH1 0x0 SWAP1 PUSH3 0x160B SWAP1 DUP5 SWAP1 DUP5 SWAP1 PUSH1 0x80 ADD PUSH3 0x1D3B JUMP JUMPDEST PUSH1 0x40 MLOAD PUSH1 0x20 DUP2 DUP4 SUB SUB DUP2 MSTORE SWAP1 PUSH1 0x40 MSTORE SWAP1 POP PUSH3 0x1628 DUP8 DUP3 PUSH3 0x16DF JUMP JUMPDEST SWAP8 SWAP7 POP POP POP POP POP POP POP JUMP JUMPDEST PUSH1 0x0 SLOAD PUSH1 0x1 PUSH1 0x1 PUSH1 0xA0 SHL SUB AND CALLER EQ PUSH3 0x9F0 JUMPI PUSH1 0x40 MLOAD PUSH3 0x461BCD PUSH1 0xE5 SHL DUP2 MSTORE PUSH1 0x20 PUSH1 0x4 DUP3 ADD DUP2 SWAP1 MSTORE PUSH1 0x24 DUP3 ADD MSTORE PUSH32 0x4F776E61626C653A2063616C6C6572206973206E6F7420746865206F776E6572 PUSH1 0x44 DUP3 ADD MSTORE PUSH1 0x64 ADD PUSH3 0x3FC JUMP JUMPDEST PUSH1 0x0 DUP1 SLOAD PUSH1 0x1 PUSH1 0x1 PUSH1 0xA0 SHL SUB DUP4 DUP2 AND PUSH1 0x1 PUSH1 0x1 PUSH1 0xA0 SHL SUB NOT DUP4 AND DUP2 OR DUP5 SSTORE PUSH1 0x40 MLOAD SWAP2 SWAP1 SWAP3 AND SWAP3 DUP4 SWAP2 PUSH32 0x8BE0079C531659141344CD1FD0A4F28419497F9722A3DAAFE3B4186F6B6457E0 SWAP2 SWAP1 LOG3 POP POP JUMP JUMPDEST PUSH1 0x0 DUP1 DUP4 PUSH1 0x40 MLOAD PUSH1 0x20 ADD PUSH3 0x16F5 SWAP2 SWAP1 PUSH3 0x1BE8 JUMP JUMPDEST PUSH1 0x40 MLOAD PUSH1 0x20 DUP2 DUP4 SUB SUB DUP2 MSTORE SWAP1 PUSH1 0x40 MSTORE DUP1 MLOAD SWAP1 PUSH1 0x20 ADD KECCAK256 SWAP1 POP PUSH1 0x0 DUP4 PUSH1 0x20 ADD DUP5 MLOAD DUP4 DUP2 DUP4 PUSH1 0x0 CREATE2 SWAP3 POP POP POP DUP1 EXTCODESIZE PUSH3 0x172B JUMPI PUSH1 0x0 DUP1 REVERT JUMPDEST PUSH1 0x40 MLOAD PUSH1 0x1 PUSH1 0x1 PUSH1 0xA0 SHL SUB DUP3 AND SWAP1 PUSH32 0xF40FCEC21964FFB566044D083B4073F29F7F7929110EA19E1B3EBE375D89055E SWAP1 PUSH1 0x0 SWAP1 LOG2 SWAP5 SWAP4 POP POP POP POP JUMP JUMPDEST PUSH2 0x53E DUP1 PUSH3 0x1D6F DUP4 CODECOPY ADD SWAP1 JUMP JUMPDEST DUP1 CALLDATALOAD PUSH1 0x1 PUSH1 0x1 PUSH1 0xA0 SHL SUB DUP2 AND DUP2 EQ PUSH3 0x353 JUMPI PUSH1 0x0 DUP1 REVERT JUMPDEST PUSH1 0x0 PUSH1 0x20 DUP3 DUP5 SUB SLT ISZERO PUSH3 0x17A0 JUMPI PUSH1 0x0 DUP1 REVERT JUMPDEST PUSH3 0x17AB DUP3 PUSH3 0x1775 JUMP JUMPDEST SWAP4 SWAP3 POP POP POP JUMP JUMPDEST PUSH1 0x0 DUP1 PUSH1 0x20 DUP4 DUP6 SUB SLT ISZERO PUSH3 0x17C6 JUMPI PUSH1 0x0 DUP1 REVERT JUMPDEST DUP3 CALLDATALOAD PUSH8 0xFFFFFFFFFFFFFFFF DUP1 DUP3 GT ISZERO PUSH3 0x17DF JUMPI PUSH1 0x0 DUP1 REVERT JUMPDEST DUP2 DUP6 ADD SWAP2 POP DUP6 PUSH1 0x1F DUP4 ADD SLT PUSH3 0x17F4 JUMPI PUSH1 0x0 DUP1 REVERT JUMPDEST DUP2 CALLDATALOAD DUP2 DUP2 GT ISZERO PUSH3 0x1804 JUMPI PUSH1 0x0 DUP1 REVERT JUMPDEST DUP7 PUSH1 0x20 DUP3 DUP6 ADD ADD GT ISZERO PUSH3 0x1817 JUMPI PUSH1 0x0 DUP1 REVERT JUMPDEST PUSH1 0x20 SWAP3 SWAP1 SWAP3 ADD SWAP7 SWAP2 SWAP6 POP SWAP1 SWAP4 POP POP POP POP JUMP JUMPDEST PUSH4 0x4E487B71 PUSH1 0xE0 SHL PUSH1 0x0 MSTORE PUSH1 0x41 PUSH1 0x4 MSTORE PUSH1 0x24 PUSH1 0x0 REVERT JUMPDEST PUSH1 0x40 MLOAD PUSH1 0x1F DUP3 ADD PUSH1 0x1F NOT AND DUP2 ADD PUSH8 0xFFFFFFFFFFFFFFFF DUP2 GT DUP3 DUP3 LT OR ISZERO PUSH3 0x186B JUMPI PUSH3 0x186B PUSH3 0x1829 JUMP JUMPDEST PUSH1 0x40 MSTORE SWAP2 SWAP1 POP JUMP JUMPDEST PUSH1 0x0 DUP3 PUSH1 0x1F DUP4 ADD SLT PUSH3 0x1885 JUMPI PUSH1 0x0 DUP1 REVERT JUMPDEST DUP2 CALLDATALOAD PUSH8 0xFFFFFFFFFFFFFFFF DUP2 GT ISZERO PUSH3 0x18A2 JUMPI PUSH3 0x18A2 PUSH3 0x1829 JUMP JUMPDEST PUSH3 0x18B7 PUSH1 0x1F DUP3 ADD PUSH1 0x1F NOT AND PUSH1 0x20 ADD PUSH3 0x183F JUMP JUMPDEST DUP2 DUP2 MSTORE DUP5 PUSH1 0x20 DUP4 DUP7 ADD ADD GT ISZERO PUSH3 0x18CD JUMPI PUSH1 0x0 DUP1 REVERT JUMPDEST DUP2 PUSH1 0x20 DUP6 ADD PUSH1 0x20 DUP4 ADD CALLDATACOPY PUSH1 0x0 SWAP2 DUP2 ADD PUSH1 0x20 ADD SWAP2 SWAP1 SWAP2 MSTORE SWAP4 SWAP3 POP POP POP JUMP JUMPDEST PUSH1 0x0 DUP1 PUSH1 0x0 PUSH1 0x60 DUP5 DUP7 SUB SLT ISZERO PUSH3 0x1900 JUMPI PUSH1 0x0 DUP1 REVERT JUMPDEST PUSH3 0x190B DUP5 PUSH3 0x1775 JUMP JUMPDEST SWAP3 POP PUSH3 0x191B PUSH1 0x20 DUP6 ADD PUSH3 0x1775 JUMP JUMPDEST SWAP2 POP PUSH1 0x40 DUP5 ADD CALLDATALOAD PUSH8 0xFFFFFFFFFFFFFFFF DUP2 GT ISZERO PUSH3 0x1938 JUMPI PUSH1 0x0 DUP1 REVERT JUMPDEST PUSH3 0x1946 DUP7 DUP3 DUP8 ADD PUSH3 0x1873 JUMP JUMPDEST SWAP2 POP POP SWAP3 POP SWAP3 POP SWAP3 JUMP JUMPDEST PUSH1 0x20 DUP1 DUP3 MSTORE DUP3 MLOAD DUP3 DUP3 ADD DUP2 SWAP1 MSTORE PUSH1 0x0 SWAP2 SWAP1 DUP5 DUP3 ADD SWAP1 PUSH1 0x40 DUP6 ADD SWAP1 DUP5 JUMPDEST DUP2 DUP2 LT ISZERO PUSH3 0x1993 JUMPI DUP4 MLOAD PUSH1 0x1 PUSH1 0x1 PUSH1 0xA0 SHL SUB AND DUP4 MSTORE SWAP3 DUP5 ADD SWAP3 SWAP2 DUP5 ADD SWAP2 PUSH1 0x1 ADD PUSH3 0x196C JUMP JUMPDEST POP SWAP1 SWAP7 SWAP6 POP POP POP POP POP POP JUMP JUMPDEST PUSH1 0x0 DUP1 PUSH1 0x40 DUP4 DUP6 SUB SLT ISZERO PUSH3 0x19B3 JUMPI PUSH1 0x0 DUP1 REVERT JUMPDEST PUSH3 0x19BE DUP4 PUSH3 0x1775 JUMP JUMPDEST SWAP2 POP PUSH1 0x20 DUP4 ADD CALLDATALOAD PUSH8 0xFFFFFFFFFFFFFFFF DUP2 GT ISZERO PUSH3 0x19DB JUMPI PUSH1 0x0 DUP1 REVERT JUMPDEST PUSH3 0x19E9 DUP6 DUP3 DUP7 ADD PUSH3 0x1873 JUMP JUMPDEST SWAP2 POP POP SWAP3 POP SWAP3 SWAP1 POP JUMP JUMPDEST PUSH1 0x0 DUP1 PUSH1 0x0 PUSH1 0x60 DUP5 DUP7 SUB SLT ISZERO PUSH3 0x1A09 JUMPI PUSH1 0x0 DUP1 REVERT JUMPDEST PUSH3 0x1A14 DUP5 PUSH3 0x1775 JUMP JUMPDEST SWAP3 POP PUSH1 0x20 DUP1 DUP6 ADD CALLDATALOAD PUSH8 0xFFFFFFFFFFFFFFFF DUP1 DUP3 GT ISZERO PUSH3 0x1A33 JUMPI PUSH1 0x0 DUP1 REVERT JUMPDEST PUSH3 0x1A41 DUP9 DUP4 DUP10 ADD PUSH3 0x1873 JUMP JUMPDEST SWAP5 POP PUSH1 0x40 DUP8 ADD CALLDATALOAD SWAP2 POP DUP1 DUP3 GT ISZERO PUSH3 0x1A58 JUMPI PUSH1 0x0 DUP1 REVERT JUMPDEST DUP2 DUP8 ADD SWAP2 POP DUP8 PUSH1 0x1F DUP4 ADD SLT PUSH3 0x1A6D JUMPI PUSH1 0x0 DUP1 REVERT JUMPDEST DUP2 CALLDATALOAD DUP2 DUP2 GT ISZERO PUSH3 0x1A82 JUMPI PUSH3 0x1A82 PUSH3 0x1829 JUMP JUMPDEST DUP1 PUSH1 0x5 SHL SWAP2 POP PUSH3 0x1A95 DUP5 DUP4 ADD PUSH3 0x183F JUMP JUMPDEST DUP2 DUP2 MSTORE SWAP2 DUP4 ADD DUP5 ADD SWAP2 DUP5 DUP2 ADD SWAP1 DUP11 DUP5 GT ISZERO PUSH3 0x1AB0 JUMPI PUSH1 0x0 DUP1 REVERT JUMPDEST SWAP4 DUP6 ADD SWAP4 JUMPDEST DUP4 DUP6 LT ISZERO PUSH3 0x1AD0 JUMPI DUP5 CALLDATALOAD DUP3 MSTORE SWAP4 DUP6 ADD SWAP4 SWAP1 DUP6 ADD SWAP1 PUSH3 0x1AB5 JUMP JUMPDEST DUP1 SWAP7 POP POP POP POP POP POP POP SWAP3 POP SWAP3 POP SWAP3 JUMP JUMPDEST DUP2 DUP4 DUP3 CALLDATACOPY PUSH1 0x0 SWAP2 ADD SWAP1 DUP2 MSTORE SWAP2 SWAP1 POP JUMP JUMPDEST PUSH1 0x20 DUP1 DUP3 MSTORE PUSH1 0x1F SWAP1 DUP3 ADD MSTORE PUSH32 0x696E76616C696420617267756D656E74202D207A65726F206164647265737300 PUSH1 0x40 DUP3 ADD MSTORE PUSH1 0x60 ADD SWAP1 JUMP JUMPDEST PUSH1 0x0 JUMPDEST DUP4 DUP2 LT ISZERO PUSH3 0x1B44 JUMPI DUP2 DUP2 ADD MLOAD DUP4 DUP3 ADD MSTORE PUSH1 0x20 ADD PUSH3 0x1B2A JUMP JUMPDEST POP POP PUSH1 0x0 SWAP2 ADD MSTORE JUMP JUMPDEST PUSH1 0x20 DUP2 MSTORE PUSH1 0x0 DUP3 MLOAD DUP1 PUSH1 0x20 DUP5 ADD MSTORE PUSH3 0x1B6E DUP2 PUSH1 0x40 DUP6 ADD PUSH1 0x20 DUP8 ADD PUSH3 0x1B27 JUMP JUMPDEST PUSH1 0x1F ADD PUSH1 0x1F NOT AND SWAP2 SWAP1 SWAP2 ADD PUSH1 0x40 ADD SWAP3 SWAP2 POP POP JUMP JUMPDEST PUSH1 0x20 DUP1 DUP3 MSTORE PUSH1 0x1F SWAP1 DUP3 ADD MSTORE PUSH32 0x696E76616C696420617267756D656E74202D20656D70747920737472696E6700 PUSH1 0x40 DUP3 ADD MSTORE PUSH1 0x60 ADD SWAP1 JUMP JUMPDEST PUSH5 0x2A37B5B2B7 PUSH1 0xD9 SHL DUP2 MSTORE PUSH1 0x0 DUP3 MLOAD PUSH3 0x1BDB DUP2 PUSH1 0x5 DUP6 ADD PUSH1 0x20 DUP8 ADD PUSH3 0x1B27 JUMP JUMPDEST SWAP2 SWAP1 SWAP2 ADD PUSH1 0x5 ADD SWAP3 SWAP2 POP POP JUMP JUMPDEST PUSH1 0x0 DUP3 MLOAD PUSH3 0x1BFC DUP2 DUP5 PUSH1 0x20 DUP8 ADD PUSH3 0x1B27 JUMP JUMPDEST SWAP2 SWAP1 SWAP2 ADD SWAP3 SWAP2 POP POP JUMP JUMPDEST PUSH1 0x20 DUP1 DUP3 MSTORE PUSH1 0x12 SWAP1 DUP3 ADD MSTORE PUSH18 0x39B0B63A1030B63932B0B23C903A30B5B2B7 PUSH1 0x71 SHL PUSH1 0x40 DUP3 ADD MSTORE PUSH1 0x60 ADD SWAP1 JUMP JUMPDEST PUSH4 0x4E487B71 PUSH1 0xE0 SHL PUSH1 0x0 MSTORE PUSH1 0x32 PUSH1 0x4 MSTORE PUSH1 0x24 PUSH1 0x0 REVERT JUMPDEST PUSH4 0x4E487B71 PUSH1 0xE0 SHL PUSH1 0x0 MSTORE PUSH1 0x11 PUSH1 0x4 MSTORE PUSH1 0x24 PUSH1 0x0 REVERT JUMPDEST DUP2 DUP2 SUB DUP2 DUP2 GT ISZERO PUSH3 0x384 JUMPI PUSH3 0x384 PUSH3 0x1C48 JUMP JUMPDEST PUSH4 0x4E487B71 PUSH1 0xE0 SHL PUSH1 0x0 MSTORE PUSH1 0x31 PUSH1 0x4 MSTORE PUSH1 0x24 PUSH1 0x0 REVERT JUMPDEST PUSH1 0x0 PUSH1 0x1 DUP3 ADD PUSH3 0x1C9F JUMPI PUSH3 0x1C9F PUSH3 0x1C48 JUMP JUMPDEST POP PUSH1 0x1 ADD SWAP1 JUMP JUMPDEST PUSH3 0x13D251 PUSH1 0xEA SHL DUP2 MSTORE PUSH1 0x0 DUP3 MLOAD PUSH3 0x1CC6 DUP2 PUSH1 0x3 DUP6 ADD PUSH1 0x20 DUP8 ADD PUSH3 0x1B27 JUMP JUMPDEST SWAP2 SWAP1 SWAP2 ADD PUSH1 0x3 ADD SWAP3 SWAP2 POP POP JUMP JUMPDEST PUSH1 0x20 DUP1 DUP3 MSTORE PUSH1 0x24 SWAP1 DUP3 ADD MSTORE PUSH32 0x77616C6C657420616C7265616479206C696E6B656420746F20616E206964656E PUSH1 0x40 DUP3 ADD MSTORE PUSH4 0x74697479 PUSH1 0xE0 SHL PUSH1 0x60 DUP3 ADD MSTORE PUSH1 0x80 ADD SWAP1 JUMP JUMPDEST PUSH1 0x0 PUSH1 0x20 DUP3 DUP5 SUB SLT ISZERO PUSH3 0x1D2A JUMPI PUSH1 0x0 DUP1 REVERT JUMPDEST DUP2 MLOAD DUP1 ISZERO ISZERO DUP2 EQ PUSH3 0x17AB JUMPI PUSH1 0x0 DUP1 REVERT JUMPDEST PUSH1 0x0 DUP4 MLOAD PUSH3 0x1D4F DUP2 DUP5 PUSH1 0x20 DUP9 ADD PUSH3 0x1B27 JUMP JUMPDEST DUP4 MLOAD SWAP1 DUP4 ADD SWAP1 PUSH3 0x1D65 DUP2 DUP4 PUSH1 0x20 DUP9 ADD PUSH3 0x1B27 JUMP JUMPDEST ADD SWAP5 SWAP4 POP POP POP POP JUMP INVALID PUSH1 0x80 PUSH1 0x40 MSTORE CALLVALUE DUP1 ISZERO PUSH2 0x10 JUMPI PUSH1 0x0 DUP1 REVERT JUMPDEST POP PUSH1 0x40 MLOAD PUSH2 0x53E CODESIZE SUB DUP1 PUSH2 0x53E DUP4 CODECOPY DUP2 ADD PUSH1 0x40 DUP2 SWAP1 MSTORE PUSH2 0x2F SWAP2 PUSH2 0x271 JUMP JUMPDEST PUSH1 0x1 PUSH1 0x1 PUSH1 0xA0 SHL SUB DUP3 AND PUSH2 0x8A JUMPI PUSH1 0x40 MLOAD PUSH3 0x461BCD PUSH1 0xE5 SHL DUP2 MSTORE PUSH1 0x20 PUSH1 0x4 DUP3 ADD MSTORE PUSH1 0x1F PUSH1 0x24 DUP3 ADD MSTORE PUSH32 0x696E76616C696420617267756D656E74202D207A65726F206164647265737300 PUSH1 0x44 DUP3 ADD MSTORE PUSH1 0x64 ADD JUMPDEST PUSH1 0x40 MLOAD DUP1 SWAP2 SUB SWAP1 REVERT JUMPDEST PUSH1 0x1 PUSH1 0x1 PUSH1 0xA0 SHL SUB DUP2 AND PUSH2 0xE0 JUMPI PUSH1 0x40 MLOAD PUSH3 0x461BCD PUSH1 0xE5 SHL DUP2 MSTORE PUSH1 0x20 PUSH1 0x4 DUP3 ADD MSTORE PUSH1 0x1F PUSH1 0x24 DUP3 ADD MSTORE PUSH32 0x696E76616C696420617267756D656E74202D207A65726F206164647265737300 PUSH1 0x44 DUP3 ADD MSTORE PUSH1 0x64 ADD PUSH2 0x81 JUMP JUMPDEST DUP2 PUSH32 0x821F3E4D3D679F19EACC940C87ACF846EA6EAE24A63058EA750304437A62AAFC SSTORE PUSH1 0x0 DUP3 PUSH1 0x1 PUSH1 0x1 PUSH1 0xA0 SHL SUB AND PUSH4 0xAAF10F42 PUSH1 0x40 MLOAD DUP2 PUSH4 0xFFFFFFFF AND PUSH1 0xE0 SHL DUP2 MSTORE PUSH1 0x4 ADD PUSH1 0x20 PUSH1 0x40 MLOAD DUP1 DUP4 SUB DUP2 DUP7 GAS STATICCALL ISZERO DUP1 ISZERO PUSH2 0x143 JUMPI RETURNDATASIZE PUSH1 0x0 DUP1 RETURNDATACOPY RETURNDATASIZE PUSH1 0x0 REVERT JUMPDEST POP POP POP POP PUSH1 0x40 MLOAD RETURNDATASIZE PUSH1 0x1F NOT PUSH1 0x1F DUP3 ADD AND DUP3 ADD DUP1 PUSH1 0x40 MSTORE POP DUP2 ADD SWAP1 PUSH2 0x167 SWAP2 SWAP1 PUSH2 0x2A4 JUMP JUMPDEST PUSH1 0x40 MLOAD PUSH1 0x1 PUSH1 0x1 PUSH1 0xA0 SHL SUB DUP5 DUP2 AND PUSH1 0x24 DUP4 ADD MSTORE SWAP2 SWAP3 POP PUSH1 0x0 SWAP2 DUP4 AND SWAP1 PUSH1 0x44 ADD PUSH1 0x40 DUP1 MLOAD PUSH1 0x1F NOT DUP2 DUP5 SUB ADD DUP2 MSTORE SWAP2 DUP2 MSTORE PUSH1 0x20 DUP3 ADD DUP1 MLOAD PUSH1 0x1 PUSH1 0x1 PUSH1 0xE0 SHL SUB AND PUSH4 0x189ACDBD PUSH1 0xE3 SHL OR SWAP1 MSTORE MLOAD PUSH2 0x1BB SWAP2 SWAP1 PUSH2 0x2C6 JUMP JUMPDEST PUSH1 0x0 PUSH1 0x40 MLOAD DUP1 DUP4 SUB DUP2 DUP6 GAS DELEGATECALL SWAP2 POP POP RETURNDATASIZE DUP1 PUSH1 0x0 DUP2 EQ PUSH2 0x1F6 JUMPI PUSH1 0x40 MLOAD SWAP2 POP PUSH1 0x1F NOT PUSH1 0x3F RETURNDATASIZE ADD AND DUP3 ADD PUSH1 0x40 MSTORE RETURNDATASIZE DUP3 MSTORE RETURNDATASIZE PUSH1 0x0 PUSH1 0x20 DUP5 ADD RETURNDATACOPY PUSH2 0x1FB JUMP JUMPDEST PUSH1 0x60 SWAP2 POP JUMPDEST POP POP SWAP1 POP DUP1 PUSH2 0x24C JUMPI PUSH1 0x40 MLOAD PUSH3 0x461BCD PUSH1 0xE5 SHL DUP2 MSTORE PUSH1 0x20 PUSH1 0x4 DUP3 ADD MSTORE PUSH1 0x16 PUSH1 0x24 DUP3 ADD MSTORE PUSH32 0x496E697469616C697A6174696F6E206661696C65642E00000000000000000000 PUSH1 0x44 DUP3 ADD MSTORE PUSH1 0x64 ADD PUSH2 0x81 JUMP JUMPDEST POP POP POP POP PUSH2 0x2F5 JUMP JUMPDEST DUP1 MLOAD PUSH1 0x1 PUSH1 0x1 PUSH1 0xA0 SHL SUB DUP2 AND DUP2 EQ PUSH2 0x26C JUMPI PUSH1 0x0 DUP1 REVERT JUMPDEST SWAP2 SWAP1 POP JUMP JUMPDEST PUSH1 0x0 DUP1 PUSH1 0x40 DUP4 DUP6 SUB SLT ISZERO PUSH2 0x284 JUMPI PUSH1 0x0 DUP1 REVERT JUMPDEST PUSH2 0x28D DUP4 PUSH2 0x255 JUMP JUMPDEST SWAP2 POP PUSH2 0x29B PUSH1 0x20 DUP5 ADD PUSH2 0x255 JUMP JUMPDEST SWAP1 POP SWAP3 POP SWAP3 SWAP1 POP JUMP JUMPDEST PUSH1 0x0 PUSH1 0x20 DUP3 DUP5 SUB SLT ISZERO PUSH2 0x2B6 JUMPI PUSH1 0x0 DUP1 REVERT JUMPDEST PUSH2 0x2BF DUP3 PUSH2 0x255 JUMP JUMPDEST SWAP4 SWAP3 POP POP POP JUMP JUMPDEST PUSH1 0x0 DUP3 MLOAD PUSH1 0x0 JUMPDEST DUP2 DUP2 LT ISZERO PUSH2 0x2E7 JUMPI PUSH1 0x20 DUP2 DUP7 ADD DUP2 ADD MLOAD DUP6 DUP4 ADD MSTORE ADD PUSH2 0x2CD JUMP JUMPDEST POP PUSH1 0x0 SWAP3 ADD SWAP2 DUP3 MSTORE POP SWAP2 SWAP1 POP JUMP JUMPDEST PUSH2 0x23A DUP1 PUSH2 0x304 PUSH1 0x0 CODECOPY PUSH1 0x0 RETURN INVALID PUSH1 0x80 PUSH1 0x40 MSTORE PUSH1 0x4 CALLDATASIZE LT PUSH2 0x22 JUMPI PUSH1 0x0 CALLDATALOAD PUSH1 0xE0 SHR DUP1 PUSH4 0x2307F882 EQ PUSH2 0x189 JUMPI PUSH2 0xD8 JUMP JUMPDEST CALLDATASIZE PUSH2 0xD8 JUMPI PUSH1 0x0 PUSH2 0x51 PUSH32 0x821F3E4D3D679F19EACC940C87ACF846EA6EAE24A63058EA750304437A62AAFC SLOAD SWAP1 JUMP JUMPDEST PUSH1 0x1 PUSH1 0x1 PUSH1 0xA0 SHL SUB AND PUSH4 0xAAF10F42 PUSH1 0x40 MLOAD DUP2 PUSH4 0xFFFFFFFF AND PUSH1 0xE0 SHL DUP2 MSTORE PUSH1 0x4 ADD PUSH1 0x20 PUSH1 0x40 MLOAD DUP1 DUP4 SUB DUP2 DUP7 GAS STATICCALL ISZERO DUP1 ISZERO PUSH2 0x8E JUMPI RETURNDATASIZE PUSH1 0x0 DUP1 RETURNDATACOPY RETURNDATASIZE PUSH1 0x0 REVERT JUMPDEST POP POP POP POP PUSH1 0x40 MLOAD RETURNDATASIZE PUSH1 0x1F NOT PUSH1 0x1F DUP3 ADD AND DUP3 ADD DUP1 PUSH1 0x40 MSTORE POP DUP2 ADD SWAP1 PUSH2 0xB2 SWAP2 SWAP1 PUSH2 0x1D4 JUMP JUMPDEST SWAP1 POP PUSH1 0x0 DUP1 PUSH1 0x0 DUP1 DUP5 PUSH2 0x2710 GAS SUB DELEGATECALL RETURNDATASIZE DUP1 PUSH1 0x0 DUP1 RETURNDATACOPY DUP2 DUP1 ISZERO PUSH2 0xD3 JUMPI DUP2 PUSH1 0x0 RETURN JUMPDEST DUP2 PUSH1 0x0 REVERT JUMPDEST PUSH1 0x0 PUSH2 0x102 PUSH32 0x821F3E4D3D679F19EACC940C87ACF846EA6EAE24A63058EA750304437A62AAFC SLOAD SWAP1 JUMP JUMPDEST PUSH1 0x1 PUSH1 0x1 PUSH1 0xA0 SHL SUB AND PUSH4 0xAAF10F42 PUSH1 0x40 MLOAD DUP2 PUSH4 0xFFFFFFFF AND PUSH1 0xE0 SHL DUP2 MSTORE PUSH1 0x4 ADD PUSH1 0x20 PUSH1 0x40 MLOAD DUP1 DUP4 SUB DUP2 DUP7 GAS STATICCALL ISZERO DUP1 ISZERO PUSH2 0x13F JUMPI RETURNDATASIZE PUSH1 0x0 DUP1 RETURNDATACOPY RETURNDATASIZE PUSH1 0x0 REVERT JUMPDEST POP POP POP POP PUSH1 0x40 MLOAD RETURNDATASIZE PUSH1 0x1F NOT PUSH1 0x1F DUP3 ADD AND DUP3 ADD DUP1 PUSH1 0x40 MSTORE POP DUP2 ADD SWAP1 PUSH2 0x163 SWAP2 SWAP1 PUSH2 0x1D4 JUMP JUMPDEST SWAP1 POP CALLDATASIZE PUSH1 0x0 DUP1 CALLDATACOPY PUSH1 0x0 DUP1 CALLDATASIZE PUSH1 0x0 DUP5 PUSH2 0x2710 GAS SUB DELEGATECALL RETURNDATASIZE DUP1 PUSH1 0x0 DUP1 RETURNDATACOPY DUP2 DUP1 ISZERO PUSH2 0xD3 JUMPI DUP2 PUSH1 0x0 RETURN JUMPDEST CALLVALUE DUP1 ISZERO PUSH2 0x195 JUMPI PUSH1 0x0 DUP1 REVERT JUMPDEST POP PUSH32 0x821F3E4D3D679F19EACC940C87ACF846EA6EAE24A63058EA750304437A62AAFC SLOAD PUSH1 0x40 MLOAD PUSH1 0x1 PUSH1 0x1 PUSH1 0xA0 SHL SUB SWAP1 SWAP2 AND DUP2 MSTORE PUSH1 0x20 ADD PUSH1 0x40 MLOAD DUP1 SWAP2 SUB SWAP1 RETURN JUMPDEST PUSH1 0x0 PUSH1 0x20 DUP3 DUP5 SUB SLT ISZERO PUSH2 0x1E6 JUMPI PUSH1 0x0 DUP1 REVERT JUMPDEST DUP2 MLOAD PUSH1 0x1 PUSH1 0x1 PUSH1 0xA0 SHL SUB DUP2 AND DUP2 EQ PUSH2 0x1FD JUMPI PUSH1 0x0 DUP1 REVERT JUMPDEST SWAP4 SWAP3 POP POP POP JUMP INVALID LOG2 PUSH5 0x6970667358 0x22 SLT KECCAK256 RETURN MLOAD DUP3 SELFDESTRUCT CALL 0xAF 0xA9 0xC5 JUMPI 0xBE GASLIMIT 0xA8 0xE5 DUP8 KECCAK256 0xBA DUP6 SLT BALANCE 0xC0 SWAP9 SMOD SHR JUMPI EXTCODECOPY 0x28 CREATE NUMBER SLOAD SWAP11 JUMPI 0xF8 PUSH5 0x736F6C6343 STOP ADDMOD GT STOP CALLER LOG2 PUSH5 0x6970667358 0x22 SLT KECCAK256 CODECOPY 0xCC 0x2D SWAP14 PUSH32 0xFC630E91704AB4BC3ED0A6BE944010D197AB015198FC2F3303D28A64736F6C63 NUMBER STOP ADDMOD GT STOP CALLER "},"methodIdentifiers":{"addTokenFactory(address)":"9ce19365","createIdentity(address,string)":"8e952bfe","createIdentityWithManagementKeys(address,string,bytes32[])":"fe5cd59a","createTokenIdentity(address,address,string)":"3d56ff66","getIdentity(address)":"2fea7b81","getToken(address)":"59770438","getWallets(address)":"422c29a4","implementationAuthority()":"2307f882","isSaltTaken(string)":"3a500451","isTokenFactory(address)":"3e3bc3d7","linkWallet(address)":"b8bb8126","owner()":"8da5cb5b","removeTokenFactory(address)":"937529ef","renounceOwnership()":"715018a6","transferOwnership(address)":"f2fde38b","unlinkWallet(address)":"5027dbe2"}},"storageLayout":{"storage":[{"astId":7,"contract":"contracts/onchain-id/factory/IdFactory.sol:IdFactory","label":"_owner","offset":0,"slot":"0","type":"t_address"},{"astId":1870,"contract":"contracts/onchain-id/factory/IdFactory.sol:IdFactory","label":"_tokenFactories","offset":0,"slot":"1","type":"t_mapping(t_address,t_bool)"},{"astId":1876,"contract":"contracts/onchain-id/factory/IdFactory.sol:IdFactory","label":"_saltTaken","offset":0,"slot":"2","type":"t_mapping(t_string_memory_ptr,t_bool)"},{"astId":1880,"contract":"contracts/onchain-id/factory/IdFactory.sol:IdFactory","label":"_userIdentity","offset":0,"slot":"3","type":"t_mapping(t_address,t_address)"},{"astId":1885,"contract":"contracts/onchain-id/factory/IdFactory.sol:IdFactory","label":"_wallets","offset":0,"slot":"4","type":"t_mapping(t_address,t_array(t_address)dyn_storage)"},{"astId":1889,"contract":"contracts/onchain-id/factory/IdFactory.sol:IdFactory","label":"_tokenIdentity","offset":0,"slot":"5","type":"t_mapping(t_address,t_address)"},{"astId":1893,"contract":"contracts/onchain-id/factory/IdFactory.sol:IdFactory","label":"_tokenAddress","offset":0,"slot":"6","type":"t_mapping(t_address,t_address)"}],"types":{"t_address":{"encoding":"inplace","label":"address","numberOfBytes":"20"},"t_array(t_address)dyn_storage":{"base":"t_address","encoding":"dynamic_array","label":"address[]","numberOfBytes":"32"},"t_bool":{"encoding":"inplace","label":"bool","numberOfBytes":"1"},"t_mapping(t_address,t_address)":{"encoding":"mapping","key":"t_address","label":"mapping(address => address)","numberOfBytes":"32","value":"t_address"},"t_mapping(t_address,t_array(t_address)dyn_storage)":{"encoding":"mapping","key":"t_address","label":"mapping(address => address[])","numberOfBytes":"32","value":"t_array(t_address)dyn_storage"},"t_mapping(t_address,t_bool)":{"encoding":"mapping","key":"t_address","label":"mapping(address => bool)","numberOfBytes":"32","value":"t_bool"},"t_mapping(t_string_memory_ptr,t_bool)":{"encoding":"mapping","key":"t_string_memory_ptr","label":"mapping(string => bool)","numberOfBytes":"32","value":"t_bool"},"t_string_memory_ptr":{"encoding":"bytes","label":"string","numberOfBytes":"32"}}}}}}