{"contracts/faces/IdentityFacet.sol":{"IdentityFacet":{"abi":[{"anonymous":false,"inputs":[{"indexed":true,"internalType":"address","name":"investor","type":"address"},{"indexed":false,"internalType":"uint16","name":"country","type":"uint16"}],"name":"CountryUpdated","type":"event"},{"anonymous":false,"inputs":[{"indexed":true,"internalType":"address","name":"investor","type":"address"},{"indexed":false,"internalType":"address","name":"identity","type":"address"},{"indexed":false,"internalType":"uint16","name":"country","type":"uint16"}],"name":"IdentityRegistered","type":"event"},{"anonymous":false,"inputs":[{"indexed":true,"internalType":"address","name":"investor","type":"address"}],"name":"IdentityRemoved","type":"event"},{"anonymous":false,"inputs":[{"indexed":true,"internalType":"address","name":"investor","type":"address"},{"indexed":false,"internalType":"address","name":"newIdentity","type":"address"}],"name":"IdentityUpdated","type":"event"},{"inputs":[{"internalType":"address","name":"investor","type":"address"}],"name":"deleteIdentity","outputs":[],"stateMutability":"nonpayable","type":"function"},{"inputs":[{"internalType":"address","name":"investor","type":"address"}],"name":"getIdentity","outputs":[{"internalType":"address","name":"","type":"address"}],"stateMutability":"view","type":"function"},{"inputs":[{"internalType":"address","name":"investor","type":"address"}],"name":"getInvestorCountry","outputs":[{"internalType":"uint16","name":"","type":"uint16"}],"stateMutability":"view","type":"function"},{"inputs":[{"internalType":"address","name":"user","type":"address"}],"name":"isVerified","outputs":[{"internalType":"bool","name":"","type":"bool"}],"stateMutability":"view","type":"function"},{"inputs":[{"internalType":"address","name":"investor","type":"address"},{"internalType":"address","name":"identity","type":"address"},{"internalType":"uint16","name":"country","type":"uint16"}],"name":"registerIdentity","outputs":[],"stateMutability":"nonpayable","type":"function"},{"inputs":[{"internalType":"address","name":"investor","type":"address"},{"internalType":"uint16","name":"newCountry","type":"uint16"}],"name":"updateCountry","outputs":[],"stateMutability":"nonpayable","type":"function"},{"inputs":[{"internalType":"address","name":"investor","type":"address"},{"internalType":"address","name":"newIdentity","type":"address"}],"name":"updateIdentity","outputs":[],"stateMutability":"nonpayable","type":"function"}],"evm":{"bytecode":{"linkReferences":{},"object":"608060405234801561001057600080fd5b50610e09806100206000396000f3fe608060405234801561001057600080fd5b506004361061007d5760003560e01c8063454a03e01161005b578063454a03e0146101415780638e098ca114610154578063a8d29d1d14610167578063b9209e331461017a57600080fd5b806313b1d144146100825780632fea7b81146100db5780633b239a7f1461012c575b600080fd5b6100c361009036600461096a565b6001600160a01b03166000908152600080516020610d948339815191526020526040902054600160a01b900461ffff1690565b60405161ffff90911681526020015b60405180910390f35b6101146100e936600461096a565b6001600160a01b039081166000908152600080516020610d9483398151915260205260409020541690565b6040516001600160a01b0390911681526020016100d2565b61013f61013a3660046109a5565b61019d565b005b61013f61014f3660046109da565b61028a565b61013f610162366004610a21565b610416565b61013f61017536600461096a565b610541565b61018d61018836600461096a565b610606565b60405190151581526020016100d2565b600080516020610db483398151915254600080516020610d94833981519152906001600160a01b03163314806101e45750336000908152600b8201602052604090205460ff165b6102095760405162461bcd60e51b815260040161020090610a5a565b60405180910390fd5b6001600160a01b0383166000818152600080516020610d948339815191526020818152604092839020805461ffff60a01b1916600160a01b61ffff89169081029190911790915592519283529092917f04ed3b726495c2dca1ff1215d9ca54e1a4030abb5e82b0f6ce55702416cee85391015b60405180910390a250505050565b600080516020610db483398151915254600080516020610d94833981519152906001600160a01b03163314806102d15750336000908152600b8201602052604090205460ff165b6102ed5760405162461bcd60e51b815260040161020090610a5a565b6001600160a01b038481166000908152600080516020610d9483398151915260208190526040909120549091161561035c5760405162461bcd60e51b8152602060048201526012602482015271105b1c9958591e481c9959da5cdd195c995960721b6044820152606401610200565b604080516060810182526001600160a01b0386811680835261ffff878116602080860182815260008789018181528e88168083528b8552918a902098518954935191511515600160b01b0260ff60b01b1992909716600160a01b026001600160b01b03199094169816979097179190911795909516929092179094558451918252810192909252917f74cfd0a46a2905d52ee4947cc1ac80b597bd474e7a0496263f14119e74947286910160405180910390a25050505050565b600080516020610db483398151915254600080516020610d94833981519152906001600160a01b031633148061045d5750336000908152600b8201602052604090205460ff165b6104795760405162461bcd60e51b815260040161020090610a5a565b6001600160a01b038381166000908152600080516020610d9483398151915260208190526040909120549091166104e35760405162461bcd60e51b815260206004820152600e60248201526d139bdd081c9959da5cdd195c995960921b6044820152606401610200565b6001600160a01b038481166000818152602084815260409182902080546001600160a01b0319169488169485179055905192835290917fe98082932c8056a0f514da9104e4a66bc2cbaef102ad59d90c4b24220ebf6010910161027c565b600080516020610db483398151915254600080516020610d94833981519152906001600160a01b03163314806105885750336000908152600b8201602052604090205460ff165b6105a45760405162461bcd60e51b815260040161020090610a5a565b6001600160a01b0382166000818152600080516020610d948339815191526020819052604080832080546001600160b81b0319169055519092917f374ace31388bb8ee152e1f7ad5e216944c28a32dfedb6c9353ba26bf0cdbb15a91a2505050565b6001600160a01b038181166000908152600080516020610d948339815191526020818152604080842081516060810183529054958616808252600160a01b870461ffff1693820193909352600160b01b90950460ff1615159085015291929091610674575060009392505050565b805160005b600d84015481101561094657600084600d01828154811061069c5761069c610a82565b90600052602060002001549050600085600e01600083815260200190815260200160002080548060200260200160405190810160405280929190818152602001828054801561071457602002820191906000526020600020905b81546001600160a01b031681526001909101906020018083116106f6575b505050505090506000805b825181101561091b576040516380e9e9e160e01b8152600481018590526001600160a01b038716906380e9e9e190602401600060405180830381865afa92505050801561078e57506040513d6000823e601f3d908101601f1916820160405261078b9190810190610adf565b60015b156109045760005b815181101561090157876001600160a01b031663c9100bcb8383815181106107c0576107c0610a82565b60200260200101516040518263ffffffff1660e01b81526004016107e691815260200190565b600060405180830381865afa92505050801561082457506040513d6000823e601f3d908101601f191682016040526108219190810190610c18565b60015b156108ea578a898151811061083b5761083b610a82565b60200260200101516001600160a01b0316846001600160a01b0316036108e357836001600160a01b031663c0969a6e8f8e86866040518563ffffffff1660e01b815260040161088d9493929190610d06565b602060405180830381865afa9250505080156108c6575060408051601f3d908101601f191682019092526108c391810190610d4a565b60015b156108e35780156108e15760019a5050505050505050610901565b505b5050505050505b8361090157806108f981610d6c565b915050610796565b50505b8161091b578061091381610d6c565b91505061071f565b50806109305750600098975050505050505050565b505050808061093e90610d6c565b915050610679565b50600195945050505050565b6001600160a01b038116811461096757600080fd5b50565b60006020828403121561097c57600080fd5b813561098781610952565b9392505050565b803561ffff811681146109a057600080fd5b919050565b600080604083850312156109b857600080fd5b82356109c381610952565b91506109d16020840161098e565b90509250929050565b6000806000606084860312156109ef57600080fd5b83356109fa81610952565b92506020840135610a0a81610952565b9150610a186040850161098e565b90509250925092565b60008060408385031215610a3457600080fd5b8235610a3f81610952565b91506020830135610a4f81610952565b809150509250929050565b6020808252600e908201526d139bdd08185d5d1a1bdc9a5e995960921b604082015260600190565b634e487b7160e01b600052603260045260246000fd5b634e487b7160e01b600052604160045260246000fd5b604051601f8201601f1916810167ffffffffffffffff81118282101715610ad757610ad7610a98565b604052919050565b60006020808385031215610af257600080fd5b825167ffffffffffffffff80821115610b0a57600080fd5b818501915085601f830112610b1e57600080fd5b815181811115610b3057610b30610a98565b8060051b9150610b41848301610aae565b8181529183018401918481019088841115610b5b57600080fd5b938501935b83851015610b7957845182529385019390850190610b60565b98975050505050505050565b60005b83811015610ba0578181015183820152602001610b88565b50506000910152565b600067ffffffffffffffff831115610bc357610bc3610a98565b610bd6601f8401601f1916602001610aae565b9050828152838383011115610bea57600080fd5b610987836020830184610b85565b600082601f830112610c0957600080fd5b61098783835160208501610ba9565b60008060008060008060c08789031215610c3157600080fd5b86519550602087015194506040870151610c4a81610952565b606088015190945067ffffffffffffffff80821115610c6857600080fd5b610c748a838b01610bf8565b94506080890151915080821115610c8a57600080fd5b610c968a838b01610bf8565b935060a0890151915080821115610cac57600080fd5b508701601f81018913610cbe57600080fd5b610ccd89825160208401610ba9565b9150509295509295509295565b60008151808452610cf2816020860160208601610b85565b601f01601f19169290920160200192915050565b60018060a01b0385168152836020820152608060408201526000610d2d6080830185610cda565b8281036060840152610d3f8185610cda565b979650505050505050565b600060208284031215610d5c57600080fd5b8151801515811461098757600080fd5b600060018201610d8c57634e487b7160e01b600052601160045260246000fd5b506001019056fec2b69da5e7be41c6eaba0bfa82e0e1fef8d4512d663aa63c99ede9dd1d17b00fc2b69da5e7be41c6eaba0bfa82e0e1fef8d4512d663aa63c99ede9dd1d17b019a2646970667358221220816868114461c3daa93dcba9b928f960d048ffeb124837e53c83a949b375770164736f6c63430008110033","opcodes":"PUSH1 0x80 PUSH1 0x40 MSTORE CALLVALUE DUP1 ISZERO PUSH2 0x10 JUMPI PUSH1 0x0 DUP1 REVERT JUMPDEST POP PUSH2 0xE09 DUP1 PUSH2 0x20 PUSH1 0x0 CODECOPY PUSH1 0x0 RETURN INVALID PUSH1 0x80 PUSH1 0x40 MSTORE CALLVALUE DUP1 ISZERO PUSH2 0x10 JUMPI PUSH1 0x0 DUP1 REVERT JUMPDEST POP PUSH1 0x4 CALLDATASIZE LT PUSH2 0x7D JUMPI PUSH1 0x0 CALLDATALOAD PUSH1 0xE0 SHR DUP1 PUSH4 0x454A03E0 GT PUSH2 0x5B JUMPI DUP1 PUSH4 0x454A03E0 EQ PUSH2 0x141 JUMPI DUP1 PUSH4 0x8E098CA1 EQ PUSH2 0x154 JUMPI DUP1 PUSH4 0xA8D29D1D EQ PUSH2 0x167 JUMPI DUP1 PUSH4 0xB9209E33 EQ PUSH2 0x17A JUMPI PUSH1 0x0 DUP1 REVERT JUMPDEST DUP1 PUSH4 0x13B1D144 EQ PUSH2 0x82 JUMPI DUP1 PUSH4 0x2FEA7B81 EQ PUSH2 0xDB JUMPI DUP1 PUSH4 0x3B239A7F EQ PUSH2 0x12C JUMPI JUMPDEST PUSH1 0x0 DUP1 REVERT JUMPDEST PUSH2 0xC3 PUSH2 0x90 CALLDATASIZE PUSH1 0x4 PUSH2 0x96A JUMP JUMPDEST PUSH1 0x1 PUSH1 0x1 PUSH1 0xA0 SHL SUB AND PUSH1 0x0 SWAP1 DUP2 MSTORE PUSH1 0x0 DUP1 MLOAD PUSH1 0x20 PUSH2 0xD94 DUP4 CODECOPY DUP2 MLOAD SWAP2 MSTORE PUSH1 0x20 MSTORE PUSH1 0x40 SWAP1 KECCAK256 SLOAD PUSH1 0x1 PUSH1 0xA0 SHL SWAP1 DIV PUSH2 0xFFFF AND SWAP1 JUMP JUMPDEST PUSH1 0x40 MLOAD PUSH2 0xFFFF SWAP1 SWAP2 AND DUP2 MSTORE PUSH1 0x20 ADD JUMPDEST PUSH1 0x40 MLOAD DUP1 SWAP2 SUB SWAP1 RETURN JUMPDEST PUSH2 0x114 PUSH2 0xE9 CALLDATASIZE PUSH1 0x4 PUSH2 0x96A JUMP JUMPDEST PUSH1 0x1 PUSH1 0x1 PUSH1 0xA0 SHL SUB SWAP1 DUP2 AND PUSH1 0x0 SWAP1 DUP2 MSTORE PUSH1 0x0 DUP1 MLOAD PUSH1 0x20 PUSH2 0xD94 DUP4 CODECOPY DUP2 MLOAD SWAP2 MSTORE PUSH1 0x20 MSTORE PUSH1 0x40 SWAP1 KECCAK256 SLOAD AND SWAP1 JUMP JUMPDEST PUSH1 0x40 MLOAD PUSH1 0x1 PUSH1 0x1 PUSH1 0xA0 SHL SUB SWAP1 SWAP2 AND DUP2 MSTORE PUSH1 0x20 ADD PUSH2 0xD2 JUMP JUMPDEST PUSH2 0x13F PUSH2 0x13A CALLDATASIZE PUSH1 0x4 PUSH2 0x9A5 JUMP JUMPDEST PUSH2 0x19D JUMP JUMPDEST STOP JUMPDEST PUSH2 0x13F PUSH2 0x14F CALLDATASIZE PUSH1 0x4 PUSH2 0x9DA JUMP JUMPDEST PUSH2 0x28A JUMP JUMPDEST PUSH2 0x13F PUSH2 0x162 CALLDATASIZE PUSH1 0x4 PUSH2 0xA21 JUMP JUMPDEST PUSH2 0x416 JUMP JUMPDEST PUSH2 0x13F PUSH2 0x175 CALLDATASIZE PUSH1 0x4 PUSH2 0x96A JUMP JUMPDEST PUSH2 0x541 JUMP JUMPDEST PUSH2 0x18D PUSH2 0x188 CALLDATASIZE PUSH1 0x4 PUSH2 0x96A JUMP JUMPDEST PUSH2 0x606 JUMP JUMPDEST PUSH1 0x40 MLOAD SWAP1 ISZERO ISZERO DUP2 MSTORE PUSH1 0x20 ADD PUSH2 0xD2 JUMP JUMPDEST PUSH1 0x0 DUP1 MLOAD PUSH1 0x20 PUSH2 0xDB4 DUP4 CODECOPY DUP2 MLOAD SWAP2 MSTORE SLOAD PUSH1 0x0 DUP1 MLOAD PUSH1 0x20 PUSH2 0xD94 DUP4 CODECOPY DUP2 MLOAD SWAP2 MSTORE SWAP1 PUSH1 0x1 PUSH1 0x1 PUSH1 0xA0 SHL SUB AND CALLER EQ DUP1 PUSH2 0x1E4 JUMPI POP CALLER PUSH1 0x0 SWAP1 DUP2 MSTORE PUSH1 0xB DUP3 ADD PUSH1 0x20 MSTORE PUSH1 0x40 SWAP1 KECCAK256 SLOAD PUSH1 0xFF AND JUMPDEST PUSH2 0x209 JUMPI PUSH1 0x40 MLOAD PUSH3 0x461BCD PUSH1 0xE5 SHL DUP2 MSTORE PUSH1 0x4 ADD PUSH2 0x200 SWAP1 PUSH2 0xA5A JUMP JUMPDEST PUSH1 0x40 MLOAD DUP1 SWAP2 SUB SWAP1 REVERT JUMPDEST PUSH1 0x1 PUSH1 0x1 PUSH1 0xA0 SHL SUB DUP4 AND PUSH1 0x0 DUP2 DUP2 MSTORE PUSH1 0x0 DUP1 MLOAD PUSH1 0x20 PUSH2 0xD94 DUP4 CODECOPY DUP2 MLOAD SWAP2 MSTORE PUSH1 0x20 DUP2 DUP2 MSTORE PUSH1 0x40 SWAP3 DUP4 SWAP1 KECCAK256 DUP1 SLOAD PUSH2 0xFFFF PUSH1 0xA0 SHL NOT AND PUSH1 0x1 PUSH1 0xA0 SHL PUSH2 0xFFFF DUP10 AND SWAP1 DUP2 MUL SWAP2 SWAP1 SWAP2 OR SWAP1 SWAP2 SSTORE SWAP3 MLOAD SWAP3 DUP4 MSTORE SWAP1 SWAP3 SWAP2 PUSH32 0x4ED3B726495C2DCA1FF1215D9CA54E1A4030ABB5E82B0F6CE55702416CEE853 SWAP2 ADD JUMPDEST PUSH1 0x40 MLOAD DUP1 SWAP2 SUB SWAP1 LOG2 POP POP POP POP JUMP JUMPDEST PUSH1 0x0 DUP1 MLOAD PUSH1 0x20 PUSH2 0xDB4 DUP4 CODECOPY DUP2 MLOAD SWAP2 MSTORE SLOAD PUSH1 0x0 DUP1 MLOAD PUSH1 0x20 PUSH2 0xD94 DUP4 CODECOPY DUP2 MLOAD SWAP2 MSTORE SWAP1 PUSH1 0x1 PUSH1 0x1 PUSH1 0xA0 SHL SUB AND CALLER EQ DUP1 PUSH2 0x2D1 JUMPI POP CALLER PUSH1 0x0 SWAP1 DUP2 MSTORE PUSH1 0xB DUP3 ADD PUSH1 0x20 MSTORE PUSH1 0x40 SWAP1 KECCAK256 SLOAD PUSH1 0xFF AND JUMPDEST PUSH2 0x2ED JUMPI PUSH1 0x40 MLOAD PUSH3 0x461BCD PUSH1 0xE5 SHL DUP2 MSTORE PUSH1 0x4 ADD PUSH2 0x200 SWAP1 PUSH2 0xA5A JUMP JUMPDEST PUSH1 0x1 PUSH1 0x1 PUSH1 0xA0 SHL SUB DUP5 DUP2 AND PUSH1 0x0 SWAP1 DUP2 MSTORE PUSH1 0x0 DUP1 MLOAD PUSH1 0x20 PUSH2 0xD94 DUP4 CODECOPY DUP2 MLOAD SWAP2 MSTORE PUSH1 0x20 DUP2 SWAP1 MSTORE PUSH1 0x40 SWAP1 SWAP2 KECCAK256 SLOAD SWAP1 SWAP2 AND ISZERO PUSH2 0x35C JUMPI PUSH1 0x40 MLOAD PUSH3 0x461BCD PUSH1 0xE5 SHL DUP2 MSTORE PUSH1 0x20 PUSH1 0x4 DUP3 ADD MSTORE PUSH1 0x12 PUSH1 0x24 DUP3 ADD MSTORE PUSH18 0x105B1C9958591E481C9959DA5CDD195C9959 PUSH1 0x72 SHL PUSH1 0x44 DUP3 ADD MSTORE PUSH1 0x64 ADD PUSH2 0x200 JUMP JUMPDEST PUSH1 0x40 DUP1 MLOAD PUSH1 0x60 DUP2 ADD DUP3 MSTORE PUSH1 0x1 PUSH1 0x1 PUSH1 0xA0 SHL SUB DUP7 DUP2 AND DUP1 DUP4 MSTORE PUSH2 0xFFFF DUP8 DUP2 AND PUSH1 0x20 DUP1 DUP7 ADD DUP3 DUP2 MSTORE PUSH1 0x0 DUP8 DUP10 ADD DUP2 DUP2 MSTORE DUP15 DUP9 AND DUP1 DUP4 MSTORE DUP12 DUP6 MSTORE SWAP2 DUP11 SWAP1 KECCAK256 SWAP9 MLOAD DUP10 SLOAD SWAP4 MLOAD SWAP2 MLOAD ISZERO ISZERO PUSH1 0x1 PUSH1 0xB0 SHL MUL PUSH1 0xFF PUSH1 0xB0 SHL NOT SWAP3 SWAP1 SWAP8 AND PUSH1 0x1 PUSH1 0xA0 SHL MUL PUSH1 0x1 PUSH1 0x1 PUSH1 0xB0 SHL SUB NOT SWAP1 SWAP5 AND SWAP9 AND SWAP8 SWAP1 SWAP8 OR SWAP2 SWAP1 SWAP2 OR SWAP6 SWAP1 SWAP6 AND SWAP3 SWAP1 SWAP3 OR SWAP1 SWAP5 SSTORE DUP5 MLOAD SWAP2 DUP3 MSTORE DUP2 ADD SWAP3 SWAP1 SWAP3 MSTORE SWAP2 PUSH32 0x74CFD0A46A2905D52EE4947CC1AC80B597BD474E7A0496263F14119E74947286 SWAP2 ADD PUSH1 0x40 MLOAD DUP1 SWAP2 SUB SWAP1 LOG2 POP POP POP POP POP JUMP JUMPDEST PUSH1 0x0 DUP1 MLOAD PUSH1 0x20 PUSH2 0xDB4 DUP4 CODECOPY DUP2 MLOAD SWAP2 MSTORE SLOAD PUSH1 0x0 DUP1 MLOAD PUSH1 0x20 PUSH2 0xD94 DUP4 CODECOPY DUP2 MLOAD SWAP2 MSTORE SWAP1 PUSH1 0x1 PUSH1 0x1 PUSH1 0xA0 SHL SUB AND CALLER EQ DUP1 PUSH2 0x45D JUMPI POP CALLER PUSH1 0x0 SWAP1 DUP2 MSTORE PUSH1 0xB DUP3 ADD PUSH1 0x20 MSTORE PUSH1 0x40 SWAP1 KECCAK256 SLOAD PUSH1 0xFF AND JUMPDEST PUSH2 0x479 JUMPI PUSH1 0x40 MLOAD PUSH3 0x461BCD PUSH1 0xE5 SHL DUP2 MSTORE PUSH1 0x4 ADD PUSH2 0x200 SWAP1 PUSH2 0xA5A JUMP JUMPDEST PUSH1 0x1 PUSH1 0x1 PUSH1 0xA0 SHL SUB DUP4 DUP2 AND PUSH1 0x0 SWAP1 DUP2 MSTORE PUSH1 0x0 DUP1 MLOAD PUSH1 0x20 PUSH2 0xD94 DUP4 CODECOPY DUP2 MLOAD SWAP2 MSTORE PUSH1 0x20 DUP2 SWAP1 MSTORE PUSH1 0x40 SWAP1 SWAP2 KECCAK256 SLOAD SWAP1 SWAP2 AND PUSH2 0x4E3 JUMPI PUSH1 0x40 MLOAD PUSH3 0x461BCD PUSH1 0xE5 SHL DUP2 MSTORE PUSH1 0x20 PUSH1 0x4 DUP3 ADD MSTORE PUSH1 0xE PUSH1 0x24 DUP3 ADD MSTORE PUSH14 0x139BDD081C9959DA5CDD195C9959 PUSH1 0x92 SHL PUSH1 0x44 DUP3 ADD MSTORE PUSH1 0x64 ADD PUSH2 0x200 JUMP JUMPDEST PUSH1 0x1 PUSH1 0x1 PUSH1 0xA0 SHL SUB DUP5 DUP2 AND PUSH1 0x0 DUP2 DUP2 MSTORE PUSH1 0x20 DUP5 DUP2 MSTORE PUSH1 0x40 SWAP2 DUP3 SWAP1 KECCAK256 DUP1 SLOAD PUSH1 0x1 PUSH1 0x1 PUSH1 0xA0 SHL SUB NOT AND SWAP5 DUP9 AND SWAP5 DUP6 OR SWAP1 SSTORE SWAP1 MLOAD SWAP3 DUP4 MSTORE SWAP1 SWAP2 PUSH32 0xE98082932C8056A0F514DA9104E4A66BC2CBAEF102AD59D90C4B24220EBF6010 SWAP2 ADD PUSH2 0x27C JUMP JUMPDEST PUSH1 0x0 DUP1 MLOAD PUSH1 0x20 PUSH2 0xDB4 DUP4 CODECOPY DUP2 MLOAD SWAP2 MSTORE SLOAD PUSH1 0x0 DUP1 MLOAD PUSH1 0x20 PUSH2 0xD94 DUP4 CODECOPY DUP2 MLOAD SWAP2 MSTORE SWAP1 PUSH1 0x1 PUSH1 0x1 PUSH1 0xA0 SHL SUB AND CALLER EQ DUP1 PUSH2 0x588 JUMPI POP CALLER PUSH1 0x0 SWAP1 DUP2 MSTORE PUSH1 0xB DUP3 ADD PUSH1 0x20 MSTORE PUSH1 0x40 SWAP1 KECCAK256 SLOAD PUSH1 0xFF AND JUMPDEST PUSH2 0x5A4 JUMPI PUSH1 0x40 MLOAD PUSH3 0x461BCD PUSH1 0xE5 SHL DUP2 MSTORE PUSH1 0x4 ADD PUSH2 0x200 SWAP1 PUSH2 0xA5A JUMP JUMPDEST PUSH1 0x1 PUSH1 0x1 PUSH1 0xA0 SHL SUB DUP3 AND PUSH1 0x0 DUP2 DUP2 MSTORE PUSH1 0x0 DUP1 MLOAD PUSH1 0x20 PUSH2 0xD94 DUP4 CODECOPY DUP2 MLOAD SWAP2 MSTORE PUSH1 0x20 DUP2 SWAP1 MSTORE PUSH1 0x40 DUP1 DUP4 KECCAK256 DUP1 SLOAD PUSH1 0x1 PUSH1 0x1 PUSH1 0xB8 SHL SUB NOT AND SWAP1 SSTORE MLOAD SWAP1 SWAP3 SWAP2 PUSH32 0x374ACE31388BB8EE152E1F7AD5E216944C28A32DFEDB6C9353BA26BF0CDBB15A SWAP2 LOG2 POP POP POP JUMP JUMPDEST PUSH1 0x1 PUSH1 0x1 PUSH1 0xA0 SHL SUB DUP2 DUP2 AND PUSH1 0x0 SWAP1 DUP2 MSTORE PUSH1 0x0 DUP1 MLOAD PUSH1 0x20 PUSH2 0xD94 DUP4 CODECOPY DUP2 MLOAD SWAP2 MSTORE PUSH1 0x20 DUP2 DUP2 MSTORE PUSH1 0x40 DUP1 DUP5 KECCAK256 DUP2 MLOAD PUSH1 0x60 DUP2 ADD DUP4 MSTORE SWAP1 SLOAD SWAP6 DUP7 AND DUP1 DUP3 MSTORE PUSH1 0x1 PUSH1 0xA0 SHL DUP8 DIV PUSH2 0xFFFF AND SWAP4 DUP3 ADD SWAP4 SWAP1 SWAP4 MSTORE PUSH1 0x1 PUSH1 0xB0 SHL SWAP1 SWAP6 DIV PUSH1 0xFF AND ISZERO ISZERO SWAP1 DUP6 ADD MSTORE SWAP2 SWAP3 SWAP1 SWAP2 PUSH2 0x674 JUMPI POP PUSH1 0x0 SWAP4 SWAP3 POP POP POP JUMP JUMPDEST DUP1 MLOAD PUSH1 0x0 JUMPDEST PUSH1 0xD DUP5 ADD SLOAD DUP2 LT ISZERO PUSH2 0x946 JUMPI PUSH1 0x0 DUP5 PUSH1 0xD ADD DUP3 DUP2 SLOAD DUP2 LT PUSH2 0x69C JUMPI PUSH2 0x69C PUSH2 0xA82 JUMP JUMPDEST SWAP1 PUSH1 0x0 MSTORE PUSH1 0x20 PUSH1 0x0 KECCAK256 ADD SLOAD SWAP1 POP PUSH1 0x0 DUP6 PUSH1 0xE ADD PUSH1 0x0 DUP4 DUP2 MSTORE PUSH1 0x20 ADD SWAP1 DUP2 MSTORE PUSH1 0x20 ADD PUSH1 0x0 KECCAK256 DUP1 SLOAD DUP1 PUSH1 0x20 MUL PUSH1 0x20 ADD PUSH1 0x40 MLOAD SWAP1 DUP2 ADD PUSH1 0x40 MSTORE DUP1 SWAP3 SWAP2 SWAP1 DUP2 DUP2 MSTORE PUSH1 0x20 ADD DUP3 DUP1 SLOAD DUP1 ISZERO PUSH2 0x714 JUMPI PUSH1 0x20 MUL DUP3 ADD SWAP2 SWAP1 PUSH1 0x0 MSTORE PUSH1 0x20 PUSH1 0x0 KECCAK256 SWAP1 JUMPDEST DUP2 SLOAD PUSH1 0x1 PUSH1 0x1 PUSH1 0xA0 SHL SUB AND DUP2 MSTORE PUSH1 0x1 SWAP1 SWAP2 ADD SWAP1 PUSH1 0x20 ADD DUP1 DUP4 GT PUSH2 0x6F6 JUMPI JUMPDEST POP POP POP POP POP SWAP1 POP PUSH1 0x0 DUP1 JUMPDEST DUP3 MLOAD DUP2 LT ISZERO PUSH2 0x91B JUMPI PUSH1 0x40 MLOAD PUSH4 0x80E9E9E1 PUSH1 0xE0 SHL DUP2 MSTORE PUSH1 0x4 DUP2 ADD DUP6 SWAP1 MSTORE PUSH1 0x1 PUSH1 0x1 PUSH1 0xA0 SHL SUB DUP8 AND SWAP1 PUSH4 0x80E9E9E1 SWAP1 PUSH1 0x24 ADD PUSH1 0x0 PUSH1 0x40 MLOAD DUP1 DUP4 SUB DUP2 DUP7 GAS STATICCALL SWAP3 POP POP POP DUP1 ISZERO PUSH2 0x78E JUMPI POP PUSH1 0x40 MLOAD RETURNDATASIZE PUSH1 0x0 DUP3 RETURNDATACOPY PUSH1 0x1F RETURNDATASIZE SWAP1 DUP2 ADD PUSH1 0x1F NOT AND DUP3 ADD PUSH1 0x40 MSTORE PUSH2 0x78B SWAP2 SWAP1 DUP2 ADD SWAP1 PUSH2 0xADF JUMP JUMPDEST PUSH1 0x1 JUMPDEST ISZERO PUSH2 0x904 JUMPI PUSH1 0x0 JUMPDEST DUP2 MLOAD DUP2 LT ISZERO PUSH2 0x901 JUMPI DUP8 PUSH1 0x1 PUSH1 0x1 PUSH1 0xA0 SHL SUB AND PUSH4 0xC9100BCB DUP4 DUP4 DUP2 MLOAD DUP2 LT PUSH2 0x7C0 JUMPI PUSH2 0x7C0 PUSH2 0xA82 JUMP JUMPDEST PUSH1 0x20 MUL PUSH1 0x20 ADD ADD MLOAD PUSH1 0x40 MLOAD DUP3 PUSH4 0xFFFFFFFF AND PUSH1 0xE0 SHL DUP2 MSTORE PUSH1 0x4 ADD PUSH2 0x7E6 SWAP2 DUP2 MSTORE PUSH1 0x20 ADD SWAP1 JUMP JUMPDEST PUSH1 0x0 PUSH1 0x40 MLOAD DUP1 DUP4 SUB DUP2 DUP7 GAS STATICCALL SWAP3 POP POP POP DUP1 ISZERO PUSH2 0x824 JUMPI POP PUSH1 0x40 MLOAD RETURNDATASIZE PUSH1 0x0 DUP3 RETURNDATACOPY PUSH1 0x1F RETURNDATASIZE SWAP1 DUP2 ADD PUSH1 0x1F NOT AND DUP3 ADD PUSH1 0x40 MSTORE PUSH2 0x821 SWAP2 SWAP1 DUP2 ADD SWAP1 PUSH2 0xC18 JUMP JUMPDEST PUSH1 0x1 JUMPDEST ISZERO PUSH2 0x8EA JUMPI DUP11 DUP10 DUP2 MLOAD DUP2 LT PUSH2 0x83B JUMPI PUSH2 0x83B PUSH2 0xA82 JUMP JUMPDEST PUSH1 0x20 MUL PUSH1 0x20 ADD ADD MLOAD PUSH1 0x1 PUSH1 0x1 PUSH1 0xA0 SHL SUB AND DUP5 PUSH1 0x1 PUSH1 0x1 PUSH1 0xA0 SHL SUB AND SUB PUSH2 0x8E3 JUMPI DUP4 PUSH1 0x1 PUSH1 0x1 PUSH1 0xA0 SHL SUB AND PUSH4 0xC0969A6E DUP16 DUP15 DUP7 DUP7 PUSH1 0x40 MLOAD DUP6 PUSH4 0xFFFFFFFF AND PUSH1 0xE0 SHL DUP2 MSTORE PUSH1 0x4 ADD PUSH2 0x88D SWAP5 SWAP4 SWAP3 SWAP2 SWAP1 PUSH2 0xD06 JUMP JUMPDEST PUSH1 0x20 PUSH1 0x40 MLOAD DUP1 DUP4 SUB DUP2 DUP7 GAS STATICCALL SWAP3 POP POP POP DUP1 ISZERO PUSH2 0x8C6 JUMPI POP PUSH1 0x40 DUP1 MLOAD PUSH1 0x1F RETURNDATASIZE SWAP1 DUP2 ADD PUSH1 0x1F NOT AND DUP3 ADD SWAP1 SWAP3 MSTORE PUSH2 0x8C3 SWAP2 DUP2 ADD SWAP1 PUSH2 0xD4A JUMP JUMPDEST PUSH1 0x1 JUMPDEST ISZERO PUSH2 0x8E3 JUMPI DUP1 ISZERO PUSH2 0x8E1 JUMPI PUSH1 0x1 SWAP11 POP POP POP POP POP POP POP POP PUSH2 0x901 JUMP JUMPDEST POP JUMPDEST POP POP POP POP POP POP JUMPDEST DUP4 PUSH2 0x901 JUMPI DUP1 PUSH2 0x8F9 DUP2 PUSH2 0xD6C JUMP JUMPDEST SWAP2 POP POP PUSH2 0x796 JUMP JUMPDEST POP POP JUMPDEST DUP2 PUSH2 0x91B JUMPI DUP1 PUSH2 0x913 DUP2 PUSH2 0xD6C JUMP JUMPDEST SWAP2 POP POP PUSH2 0x71F JUMP JUMPDEST POP DUP1 PUSH2 0x930 JUMPI POP PUSH1 0x0 SWAP9 SWAP8 POP POP POP POP POP POP POP POP JUMP JUMPDEST POP POP POP DUP1 DUP1 PUSH2 0x93E SWAP1 PUSH2 0xD6C JUMP JUMPDEST SWAP2 POP POP PUSH2 0x679 JUMP JUMPDEST POP PUSH1 0x1 SWAP6 SWAP5 POP POP POP POP POP JUMP JUMPDEST PUSH1 0x1 PUSH1 0x1 PUSH1 0xA0 SHL SUB DUP2 AND DUP2 EQ PUSH2 0x967 JUMPI PUSH1 0x0 DUP1 REVERT JUMPDEST POP JUMP JUMPDEST PUSH1 0x0 PUSH1 0x20 DUP3 DUP5 SUB SLT ISZERO PUSH2 0x97C JUMPI PUSH1 0x0 DUP1 REVERT JUMPDEST DUP2 CALLDATALOAD PUSH2 0x987 DUP2 PUSH2 0x952 JUMP JUMPDEST SWAP4 SWAP3 POP POP POP JUMP JUMPDEST DUP1 CALLDATALOAD PUSH2 0xFFFF DUP2 AND DUP2 EQ PUSH2 0x9A0 JUMPI PUSH1 0x0 DUP1 REVERT JUMPDEST SWAP2 SWAP1 POP JUMP JUMPDEST PUSH1 0x0 DUP1 PUSH1 0x40 DUP4 DUP6 SUB SLT ISZERO PUSH2 0x9B8 JUMPI PUSH1 0x0 DUP1 REVERT JUMPDEST DUP3 CALLDATALOAD PUSH2 0x9C3 DUP2 PUSH2 0x952 JUMP JUMPDEST SWAP2 POP PUSH2 0x9D1 PUSH1 0x20 DUP5 ADD PUSH2 0x98E JUMP JUMPDEST SWAP1 POP SWAP3 POP SWAP3 SWAP1 POP JUMP JUMPDEST PUSH1 0x0 DUP1 PUSH1 0x0 PUSH1 0x60 DUP5 DUP7 SUB SLT ISZERO PUSH2 0x9EF JUMPI PUSH1 0x0 DUP1 REVERT JUMPDEST DUP4 CALLDATALOAD PUSH2 0x9FA DUP2 PUSH2 0x952 JUMP JUMPDEST SWAP3 POP PUSH1 0x20 DUP5 ADD CALLDATALOAD PUSH2 0xA0A DUP2 PUSH2 0x952 JUMP JUMPDEST SWAP2 POP PUSH2 0xA18 PUSH1 0x40 DUP6 ADD PUSH2 0x98E JUMP JUMPDEST SWAP1 POP SWAP3 POP SWAP3 POP SWAP3 JUMP JUMPDEST PUSH1 0x0 DUP1 PUSH1 0x40 DUP4 DUP6 SUB SLT ISZERO PUSH2 0xA34 JUMPI PUSH1 0x0 DUP1 REVERT JUMPDEST DUP3 CALLDATALOAD PUSH2 0xA3F DUP2 PUSH2 0x952 JUMP JUMPDEST SWAP2 POP PUSH1 0x20 DUP4 ADD CALLDATALOAD PUSH2 0xA4F DUP2 PUSH2 0x952 JUMP JUMPDEST DUP1 SWAP2 POP POP SWAP3 POP SWAP3 SWAP1 POP JUMP JUMPDEST PUSH1 0x20 DUP1 DUP3 MSTORE PUSH1 0xE SWAP1 DUP3 ADD MSTORE PUSH14 0x139BDD08185D5D1A1BDC9A5E9959 PUSH1 0x92 SHL PUSH1 0x40 DUP3 ADD MSTORE PUSH1 0x60 ADD SWAP1 JUMP JUMPDEST PUSH4 0x4E487B71 PUSH1 0xE0 SHL PUSH1 0x0 MSTORE PUSH1 0x32 PUSH1 0x4 MSTORE PUSH1 0x24 PUSH1 0x0 REVERT JUMPDEST PUSH4 0x4E487B71 PUSH1 0xE0 SHL PUSH1 0x0 MSTORE PUSH1 0x41 PUSH1 0x4 MSTORE PUSH1 0x24 PUSH1 0x0 REVERT JUMPDEST PUSH1 0x40 MLOAD PUSH1 0x1F DUP3 ADD PUSH1 0x1F NOT AND DUP2 ADD PUSH8 0xFFFFFFFFFFFFFFFF DUP2 GT DUP3 DUP3 LT OR ISZERO PUSH2 0xAD7 JUMPI PUSH2 0xAD7 PUSH2 0xA98 JUMP JUMPDEST PUSH1 0x40 MSTORE SWAP2 SWAP1 POP JUMP JUMPDEST PUSH1 0x0 PUSH1 0x20 DUP1 DUP4 DUP6 SUB SLT ISZERO PUSH2 0xAF2 JUMPI PUSH1 0x0 DUP1 REVERT JUMPDEST DUP3 MLOAD PUSH8 0xFFFFFFFFFFFFFFFF DUP1 DUP3 GT ISZERO PUSH2 0xB0A JUMPI PUSH1 0x0 DUP1 REVERT JUMPDEST DUP2 DUP6 ADD SWAP2 POP DUP6 PUSH1 0x1F DUP4 ADD SLT PUSH2 0xB1E JUMPI PUSH1 0x0 DUP1 REVERT JUMPDEST DUP2 MLOAD DUP2 DUP2 GT ISZERO PUSH2 0xB30 JUMPI PUSH2 0xB30 PUSH2 0xA98 JUMP JUMPDEST DUP1 PUSH1 0x5 SHL SWAP2 POP PUSH2 0xB41 DUP5 DUP4 ADD PUSH2 0xAAE JUMP JUMPDEST DUP2 DUP2 MSTORE SWAP2 DUP4 ADD DUP5 ADD SWAP2 DUP5 DUP2 ADD SWAP1 DUP9 DUP5 GT ISZERO PUSH2 0xB5B JUMPI PUSH1 0x0 DUP1 REVERT JUMPDEST SWAP4 DUP6 ADD SWAP4 JUMPDEST DUP4 DUP6 LT ISZERO PUSH2 0xB79 JUMPI DUP5 MLOAD DUP3 MSTORE SWAP4 DUP6 ADD SWAP4 SWAP1 DUP6 ADD SWAP1 PUSH2 0xB60 JUMP JUMPDEST SWAP9 SWAP8 POP POP POP POP POP POP POP POP JUMP JUMPDEST PUSH1 0x0 JUMPDEST DUP4 DUP2 LT ISZERO PUSH2 0xBA0 JUMPI DUP2 DUP2 ADD MLOAD DUP4 DUP3 ADD MSTORE PUSH1 0x20 ADD PUSH2 0xB88 JUMP JUMPDEST POP POP PUSH1 0x0 SWAP2 ADD MSTORE JUMP JUMPDEST PUSH1 0x0 PUSH8 0xFFFFFFFFFFFFFFFF DUP4 GT ISZERO PUSH2 0xBC3 JUMPI PUSH2 0xBC3 PUSH2 0xA98 JUMP JUMPDEST PUSH2 0xBD6 PUSH1 0x1F DUP5 ADD PUSH1 0x1F NOT AND PUSH1 0x20 ADD PUSH2 0xAAE JUMP JUMPDEST SWAP1 POP DUP3 DUP2 MSTORE DUP4 DUP4 DUP4 ADD GT ISZERO PUSH2 0xBEA JUMPI PUSH1 0x0 DUP1 REVERT JUMPDEST PUSH2 0x987 DUP4 PUSH1 0x20 DUP4 ADD DUP5 PUSH2 0xB85 JUMP JUMPDEST PUSH1 0x0 DUP3 PUSH1 0x1F DUP4 ADD SLT PUSH2 0xC09 JUMPI PUSH1 0x0 DUP1 REVERT JUMPDEST PUSH2 0x987 DUP4 DUP4 MLOAD PUSH1 0x20 DUP6 ADD PUSH2 0xBA9 JUMP JUMPDEST PUSH1 0x0 DUP1 PUSH1 0x0 DUP1 PUSH1 0x0 DUP1 PUSH1 0xC0 DUP8 DUP10 SUB SLT ISZERO PUSH2 0xC31 JUMPI PUSH1 0x0 DUP1 REVERT JUMPDEST DUP7 MLOAD SWAP6 POP PUSH1 0x20 DUP8 ADD MLOAD SWAP5 POP PUSH1 0x40 DUP8 ADD MLOAD PUSH2 0xC4A DUP2 PUSH2 0x952 JUMP JUMPDEST PUSH1 0x60 DUP9 ADD MLOAD SWAP1 SWAP5 POP PUSH8 0xFFFFFFFFFFFFFFFF DUP1 DUP3 GT ISZERO PUSH2 0xC68 JUMPI PUSH1 0x0 DUP1 REVERT JUMPDEST PUSH2 0xC74 DUP11 DUP4 DUP12 ADD PUSH2 0xBF8 JUMP JUMPDEST SWAP5 POP PUSH1 0x80 DUP10 ADD MLOAD SWAP2 POP DUP1 DUP3 GT ISZERO PUSH2 0xC8A JUMPI PUSH1 0x0 DUP1 REVERT JUMPDEST PUSH2 0xC96 DUP11 DUP4 DUP12 ADD PUSH2 0xBF8 JUMP JUMPDEST SWAP4 POP PUSH1 0xA0 DUP10 ADD MLOAD SWAP2 POP DUP1 DUP3 GT ISZERO PUSH2 0xCAC JUMPI PUSH1 0x0 DUP1 REVERT JUMPDEST POP DUP8 ADD PUSH1 0x1F DUP2 ADD DUP10 SGT PUSH2 0xCBE JUMPI PUSH1 0x0 DUP1 REVERT JUMPDEST PUSH2 0xCCD DUP10 DUP3 MLOAD PUSH1 0x20 DUP5 ADD PUSH2 0xBA9 JUMP JUMPDEST SWAP2 POP POP SWAP3 SWAP6 POP SWAP3 SWAP6 POP SWAP3 SWAP6 JUMP JUMPDEST PUSH1 0x0 DUP2 MLOAD DUP1 DUP5 MSTORE PUSH2 0xCF2 DUP2 PUSH1 0x20 DUP7 ADD PUSH1 0x20 DUP7 ADD PUSH2 0xB85 JUMP JUMPDEST PUSH1 0x1F ADD PUSH1 0x1F NOT AND SWAP3 SWAP1 SWAP3 ADD PUSH1 0x20 ADD SWAP3 SWAP2 POP POP JUMP JUMPDEST PUSH1 0x1 DUP1 PUSH1 0xA0 SHL SUB DUP6 AND DUP2 MSTORE DUP4 PUSH1 0x20 DUP3 ADD MSTORE PUSH1 0x80 PUSH1 0x40 DUP3 ADD MSTORE PUSH1 0x0 PUSH2 0xD2D PUSH1 0x80 DUP4 ADD DUP6 PUSH2 0xCDA JUMP JUMPDEST DUP3 DUP2 SUB PUSH1 0x60 DUP5 ADD MSTORE PUSH2 0xD3F DUP2 DUP6 PUSH2 0xCDA JUMP JUMPDEST SWAP8 SWAP7 POP POP POP POP POP POP POP JUMP JUMPDEST PUSH1 0x0 PUSH1 0x20 DUP3 DUP5 SUB SLT ISZERO PUSH2 0xD5C JUMPI PUSH1 0x0 DUP1 REVERT JUMPDEST DUP2 MLOAD DUP1 ISZERO ISZERO DUP2 EQ PUSH2 0x987 JUMPI PUSH1 0x0 DUP1 REVERT JUMPDEST PUSH1 0x0 PUSH1 0x1 DUP3 ADD PUSH2 0xD8C JUMPI PUSH4 0x4E487B71 PUSH1 0xE0 SHL PUSH1 0x0 MSTORE PUSH1 0x11 PUSH1 0x4 MSTORE PUSH1 0x24 PUSH1 0x0 REVERT JUMPDEST POP PUSH1 0x1 ADD SWAP1 JUMP INVALID 0xC2 0xB6 SWAP14 0xA5 0xE7 0xBE COINBASE 0xC6 0xEA 0xBA SIGNEXTEND STATICCALL DUP3 0xE0 0xE1 INVALID 0xF8 0xD4 MLOAD 0x2D PUSH7 0x3AA63C99EDE9DD SAR OR 0xB0 0xF 0xC2 0xB6 SWAP14 0xA5 0xE7 0xBE COINBASE 0xC6 0xEA 0xBA SIGNEXTEND STATICCALL DUP3 0xE0 0xE1 INVALID 0xF8 0xD4 MLOAD 0x2D PUSH7 0x3AA63C99EDE9DD SAR OR 0xB0 NOT LOG2 PUSH5 0x6970667358 0x22 SLT KECCAK256 DUP2 PUSH9 0x68114461C3DAA93DCB 0xA9 0xB9 0x28 0xF9 PUSH1 0xD0 BASEFEE SELFDESTRUCT 0xEB SLT BASEFEE CALLDATACOPY 0xE5 EXTCODECOPY DUP4 0xA9 0x49 0xB3 PUSH22 0x770164736F6C63430008110033000000000000000000 "},"methodIdentifiers":{"deleteIdentity(address)":"a8d29d1d","getIdentity(address)":"2fea7b81","getInvestorCountry(address)":"13b1d144","isVerified(address)":"b9209e33","registerIdentity(address,address,uint16)":"454a03e0","updateCountry(address,uint16)":"3b239a7f","updateIdentity(address,address)":"8e098ca1"}},"storageLayout":{"storage":[],"types":null}}}}