{
  "_format": "hh-sol-artifact-1",
  "contractName": "TrustedIssuersFacet",
  "sourceName": "contracts/facets/TrustedIssuersFacet.sol",
  "abi": [
    {
      "anonymous": false,
      "inputs": [
        {
          "indexed": true,
          "internalType": "address",
          "name": "issuer",
          "type": "address"
        },
        {
          "indexed": false,
          "internalType": "uint256[]",
          "name": "claimTopics",
          "type": "uint256[]"
        }
      ],
      "name": "TrustedIssuerAdded",
      "type": "event"
    },
    {
      "anonymous": false,
      "inputs": [
        {
          "indexed": true,
          "internalType": "address",
          "name": "issuer",
          "type": "address"
        }
      ],
      "name": "TrustedIssuerRemoved",
      "type": "event"
    },
    {
      "inputs": [
        {
          "internalType": "address",
          "name": "issuer",
          "type": "address"
        },
        {
          "internalType": "uint256[]",
          "name": "topics",
          "type": "uint256[]"
        }
      ],
      "name": "addTrustedIssuer",
      "outputs": [],
      "stateMutability": "nonpayable",
      "type": "function"
    },
    {
      "inputs": [
        {
          "internalType": "uint256",
          "name": "topic",
          "type": "uint256"
        }
      ],
      "name": "getTrustedIssuers",
      "outputs": [
        {
          "internalType": "address[]",
          "name": "",
          "type": "address[]"
        }
      ],
      "stateMutability": "view",
      "type": "function"
    },
    {
      "inputs": [
        {
          "internalType": "address",
          "name": "issuer",
          "type": "address"
        },
        {
          "internalType": "uint256",
          "name": "topic",
          "type": "uint256"
        }
      ],
      "name": "removeTrustedIssuer",
      "outputs": [],
      "stateMutability": "nonpayable",
      "type": "function"
    }
  ],
  "bytecode": "0x608060405234801561001057600080fd5b5061065d806100206000396000f3fe608060405234801561001057600080fd5b50600436106100415760003560e01c80639f63ea9814610046578063b49985031461005b578063d309883014610084575b600080fd5b610059610054366004610444565b610097565b005b61006e6100693660046104ca565b6101c3565b60405161007b91906104e3565b60405180910390f35b610059610092366004610530565b61024e565b6000805160206106088339815191526008015461010090046001600160a01b031633146100f75760405162461bcd60e51b81526020600482015260096024820152682737ba1037bbb732b960b91b60448201526064015b60405180910390fd5b6000805160206106088339815191527fc2b69da5e7be41c6eaba0bfa82e0e1fef8d4512d663aa63c99ede9dd1d17b01e6000848482816101395761013961055a565b602090810292909201358352508181019290925260409081016000908120805460018101825590825292902090910180546001600160a01b0319166001600160a01b03871690811790915590517ffedc33fd34859594822c0ff6f3f4f9fc279cc6d5cae53068f706a088e4500872906101b59086908690610570565b60405180910390a250505050565b60008181527fc2b69da5e7be41c6eaba0bfa82e0e1fef8d4512d663aa63c99ede9dd1d17b01e602090815260409182902080548351818402810184019094528084526060939283018282801561024257602002820191906000526020600020905b81546001600160a01b03168152600190910190602001808311610224575b50505050509050919050565b6000805160206106088339815191526008015461010090046001600160a01b031633146102a95760405162461bcd60e51b81526020600482015260096024820152682737ba1037bbb732b960b91b60448201526064016100ee565b60008181527fc2b69da5e7be41c6eaba0bfa82e0e1fef8d4512d663aa63c99ede9dd1d17b01e60205260408120600080516020610608833981519152915b815481101561042157846001600160a01b031682828154811061030c5761030c61055a565b6000918252602090912001546001600160a01b03160361040f5781548290610336906001906105bf565b815481106103465761034661055a565b9060005260206000200160009054906101000a90046001600160a01b03168282815481106103765761037661055a565b9060005260206000200160006101000a8154816001600160a01b0302191690836001600160a01b03160217905550818054806103b4576103b46105d8565b600082815260208120820160001990810180546001600160a01b03191690559091019091556040516001600160a01b038716917f2214ded40113cc3fb63fc206cafee88270b0a903dac7245d54efdde30ebb032191a2610421565b80610419816105ee565b9150506102e7565b5050505050565b80356001600160a01b038116811461043f57600080fd5b919050565b60008060006040848603121561045957600080fd5b61046284610428565b9250602084013567ffffffffffffffff8082111561047f57600080fd5b818601915086601f83011261049357600080fd5b8135818111156104a257600080fd5b8760208260051b85010111156104b757600080fd5b6020830194508093505050509250925092565b6000602082840312156104dc57600080fd5b5035919050565b6020808252825182820181905260009190848201906040850190845b818110156105245783516001600160a01b0316835292840192918401916001016104ff565b50909695505050505050565b6000806040838503121561054357600080fd5b61054c83610428565b946020939093013593505050565b634e487b7160e01b600052603260045260246000fd5b6020808252810182905260006001600160fb1b0383111561059057600080fd5b8260051b80856040850137919091016040019392505050565b634e487b7160e01b600052601160045260246000fd5b818103818111156105d2576105d26105a9565b92915050565b634e487b7160e01b600052603160045260246000fd5b600060018201610600576106006105a9565b506001019056fec2b69da5e7be41c6eaba0bfa82e0e1fef8d4512d663aa63c99ede9dd1d17b00fa2646970667358221220ef34ffe3bdc2eb643b3a644d5fbbd813fdde5c4622f28ce69039fcd4beb6c3cc64736f6c63430008110033",
  "linkReferences": {},
  "deployedLinkReferences": {}
}