{
  "_format": "hh-sol-artifact-1",
  "contractName": "IdentityFacet",
  "sourceName": "contracts/facets/IdentityFacet.sol",
  "abi": [
    {
      "anonymous": false,
      "inputs": [
        {
          "indexed": true,
          "internalType": "address",
          "name": "investor",
          "type": "address"
        },
        {
          "indexed": false,
          "internalType": "uint16",
          "name": "country",
          "type": "uint16"
        }
      ],
      "name": "CountryUpdated",
      "type": "event"
    },
    {
      "anonymous": false,
      "inputs": [
        {
          "indexed": true,
          "internalType": "address",
          "name": "investor",
          "type": "address"
        },
        {
          "indexed": false,
          "internalType": "address",
          "name": "identity",
          "type": "address"
        },
        {
          "indexed": false,
          "internalType": "uint16",
          "name": "country",
          "type": "uint16"
        }
      ],
      "name": "IdentityRegistered",
      "type": "event"
    },
    {
      "anonymous": false,
      "inputs": [
        {
          "indexed": true,
          "internalType": "address",
          "name": "investor",
          "type": "address"
        }
      ],
      "name": "IdentityRemoved",
      "type": "event"
    },
    {
      "anonymous": false,
      "inputs": [
        {
          "indexed": true,
          "internalType": "address",
          "name": "investor",
          "type": "address"
        },
        {
          "indexed": false,
          "internalType": "address",
          "name": "newIdentity",
          "type": "address"
        }
      ],
      "name": "IdentityUpdated",
      "type": "event"
    },
    {
      "inputs": [
        {
          "internalType": "address",
          "name": "investor",
          "type": "address"
        }
      ],
      "name": "deleteIdentity",
      "outputs": [],
      "stateMutability": "nonpayable",
      "type": "function"
    },
    {
      "inputs": [
        {
          "internalType": "address",
          "name": "investor",
          "type": "address"
        }
      ],
      "name": "getIdentity",
      "outputs": [
        {
          "internalType": "address",
          "name": "",
          "type": "address"
        }
      ],
      "stateMutability": "view",
      "type": "function"
    },
    {
      "inputs": [
        {
          "internalType": "address",
          "name": "investor",
          "type": "address"
        }
      ],
      "name": "getInvestorCountry",
      "outputs": [
        {
          "internalType": "uint16",
          "name": "",
          "type": "uint16"
        }
      ],
      "stateMutability": "view",
      "type": "function"
    },
    {
      "inputs": [
        {
          "internalType": "address",
          "name": "user",
          "type": "address"
        }
      ],
      "name": "isVerified",
      "outputs": [
        {
          "internalType": "bool",
          "name": "",
          "type": "bool"
        }
      ],
      "stateMutability": "view",
      "type": "function"
    },
    {
      "inputs": [
        {
          "internalType": "address",
          "name": "investor",
          "type": "address"
        },
        {
          "internalType": "address",
          "name": "identity",
          "type": "address"
        },
        {
          "internalType": "uint16",
          "name": "country",
          "type": "uint16"
        }
      ],
      "name": "registerIdentity",
      "outputs": [],
      "stateMutability": "nonpayable",
      "type": "function"
    },
    {
      "inputs": [],
      "name": "selectorsIntrospection",
      "outputs": [
        {
          "internalType": "bytes4[]",
          "name": "selectors_",
          "type": "bytes4[]"
        }
      ],
      "stateMutability": "pure",
      "type": "function"
    },
    {
      "inputs": [
        {
          "internalType": "address",
          "name": "investor",
          "type": "address"
        },
        {
          "internalType": "uint16",
          "name": "newCountry",
          "type": "uint16"
        }
      ],
      "name": "updateCountry",
      "outputs": [],
      "stateMutability": "nonpayable",
      "type": "function"
    },
    {
      "inputs": [
        {
          "internalType": "address",
          "name": "investor",
          "type": "address"
        },
        {
          "internalType": "address",
          "name": "newIdentity",
          "type": "address"
        }
      ],
      "name": "updateIdentity",
      "outputs": [],
      "stateMutability": "nonpayable",
      "type": "function"
    }
  ],
  "bytecode": "0x608060405234801561001057600080fd5b5061118a806100206000396000f3fe608060405234801561001057600080fd5b50600436106100885760003560e01c80638e098ca11161005b5780638e098ca11461010b578063a8d29d1d1461011e578063b9209e3314610131578063e3b807a01461015457600080fd5b806313b1d1441461008d5780632fea7b81146100b85780633b239a7f146100e3578063454a03e0146100f8575b600080fd5b6100a061009b366004610c83565b610169565b60405161ffff90911681526020015b60405180910390f35b6100cb6100c6366004610c83565b6101ac565b6040516001600160a01b0390911681526020016100af565b6100f66100f1366004610cb7565b6101db565b005b6100f6610106366004610cec565b6101f2565b6100f6610119366004610d33565b61020b565b6100f661012c366004610c83565b61021e565b61014461013f366004610c83565b610233565b60405190151581526020016100af565b61015c61023e565b6040516100af9190610d6c565b6001600160a01b03811660009081527f8250f062390633740b58dd505171a2b7207c6c4b65557d3f50ba32fe928e9da6602052604081205461ffff165b92915050565b6001600160a01b03808216600090815260008051602061113583398151915260205260408120549091166101a6565b6101e43361041a565b6101ee82826104dd565b5050565b6101fb3361041a565b610206838383610571565b505050565b6102143361041a565b6101ee828261070c565b6102273361041a565b61023081610809565b50565b60006101a68261089a565b604080516007808252610100820190925260609190816020820160e08036833701905050915063022a501f60e51b8261027683610de6565b9250828151811061028957610289610dfd565b6001600160e01b031990921660209283029190910190910152638e098ca160e01b826102b483610de6565b925082815181106102c7576102c7610dfd565b6001600160e01b031990921660209283029190910190910152633b239a7f60e01b826102f283610de6565b9250828151811061030557610305610dfd565b6001600160e01b03199092166020928302919091019091015263a8d29d1d60e01b8261033083610de6565b9250828151811061034357610343610dfd565b6001600160e01b03199092166020928302919091019091015263b9209e3360e01b8261036e83610de6565b9250828151811061038157610381610dfd565b6001600160e01b0319909216602092830291909101909101526304ec745160e21b826103ac83610de6565b925082815181106103bf576103bf610dfd565b6001600160e01b031990921660209283029190910190910152632fea7b8160e01b826103ea83610de6565b925082815181106103fd576103fd610dfd565b6001600160e01b0319909216602092830291909101909101525090565b7f0fcb11fff5651caf53eaf1124d25315389f7b0ceffd704a5e999a2ffc7764fd5546001600160a01b038281169116148061048c57506001600160a01b03811660009081527f0fcb11fff5651caf53eaf1124d25315389f7b0ceffd704a5e999a2ffc7764fd6602052604090205460ff165b6102305760405162461bcd60e51b815260206004820181905260248201527f4964656e74697479496e7465726e616c3a204e6f7420617574686f72697a656460448201526064015b60405180910390fd5b6001600160a01b03821660008181527f8250f062390633740b58dd505171a2b7207c6c4b65557d3f50ba32fe928e9da66020908152604091829020805461ffff191661ffff8616908117909155915191825260008051602061113583398151915292917f04ed3b726495c2dca1ff1215d9ca54e1a4030abb5e82b0f6ce55702416cee85391015b60405180910390a2505050565b6001600160a01b0383166105da5760405162461bcd60e51b815260206004820152602a60248201527f4964656e74697479496e7465726e616c3a20696e766573746f72206973207a65604482015269726f206164647265737360b01b60648201526084016104d4565b6001600160a01b0382166106005760405162461bcd60e51b81526004016104d490610e13565b6001600160a01b0383811660009081526000805160206111358339815191526020819052604090912054909116156106865760405162461bcd60e51b8152602060048201526024808201527f4964656e74697479496e7465726e616c3a20416c726561647920726567697374604482015263195c995960e21b60648201526084016104d4565b6001600160a01b0384811660008181526020848152604080832080546001600160a01b031916958916958617905560018601825291829020805461ffff191661ffff881690811790915582519485529084015290917f74cfd0a46a2905d52ee4947cc1ac80b597bd474e7a0496263f14119e74947286910160405180910390a250505050565b6001600160a01b0381166107325760405162461bcd60e51b81526004016104d490610e13565b6001600160a01b03828116600090815260008051602061113583398151915260208190526040909120549091166107ab5760405162461bcd60e51b815260206004820181905260248201527f4964656e74697479496e7465726e616c3a204e6f74207265676973746572656460448201526064016104d4565b6001600160a01b038381166000818152602084815260409182902080546001600160a01b0319169487169485179055905192835290917fe98082932c8056a0f514da9104e4a66bc2cbaef102ad59d90c4b24220ebf60109101610564565b6001600160a01b03811660008181526000805160206111358339815191526020818152604080842080546001600160a01b03191690557f8250f062390633740b58dd505171a2b7207c6c4b65557d3f50ba32fe928e9da6909152808320805461ffff19169055519092917f374ace31388bb8ee152e1f7ad5e216944c28a32dfedb6c9353ba26bf0cdbb15a91a25050565b6001600160a01b038181166000908152600080516020611135833981519152602081905260408220549192909116806108d7575060009392505050565b8060007f122b1d6208c9f06f38eea9775d610d6447ef9c6bf9da7e813570b22bcd54b77680546040805160208084028201810190925282815292919083018282801561094257602002820191906000526020600020905b81548152602001906001019080831161092e575b5050505050905060005b815181101561099b576109788383838151811061096b5761096b610dfd565b60200260200101516109a8565b610989575060009695505050505050565b8061099381610e5d565b91505061094c565b5060019695505050505050565b60008181527f28d6a9f6581d908cc2f13822881616b1781b3a80e4b3f5e5b577fa5f2f74ddc36020908152604080832080548251818502810185019093528083528493830182828015610a2457602002820191906000526020600020905b81546001600160a01b03168152600190910190602001808311610a06575b5050505050905060005b8151811015610a7d57610a5b8585848481518110610a4e57610a4e610dfd565b6020026020010151610a88565b15610a6b576001925050506101a6565b80610a7581610e5d565b915050610a2e565b506000949350505050565b6040516380e9e9e160e01b8152600481018390526000906001600160a01b038516906380e9e9e190602401600060405180830381865afa925050508015610af157506040513d6000823e601f3d908101601f19168201604052610aee9190810190610ea7565b60015b15610b4c5760005b8151811015610b4957610b2786838381518110610b1857610b18610dfd565b60200260200101518787610b57565b15610b3757600192505050610b50565b80610b4181610e5d565b915050610af9565b50505b5060005b9392505050565b60405163c9100bcb60e01b8152600481018490526000906001600160a01b0386169063c9100bcb90602401600060405180830381865afa925050508015610bc057506040513d6000823e601f3d908101601f19168201604052610bbd9190810190610fe0565b60015b15610a7d57876001600160a01b0316846001600160a01b031603610c5c5760405163604b4d3760e11b81526001600160a01b0385169063c0969a6e90610c10908e908d90889088906004016110ce565b602060405180830381865afa925050508015610c49575060408051601f3d908101601f19168201909252610c4691810190611112565b60015b15610c5c579650610c6695505050505050565b5050505050505060005b949350505050565b6001600160a01b038116811461023057600080fd5b600060208284031215610c9557600080fd5b8135610b5081610c6e565b803561ffff81168114610cb257600080fd5b919050565b60008060408385031215610cca57600080fd5b8235610cd581610c6e565b9150610ce360208401610ca0565b90509250929050565b600080600060608486031215610d0157600080fd5b8335610d0c81610c6e565b92506020840135610d1c81610c6e565b9150610d2a60408501610ca0565b90509250925092565b60008060408385031215610d4657600080fd5b8235610d5181610c6e565b91506020830135610d6181610c6e565b809150509250929050565b6020808252825182820181905260009190848201906040850190845b81811015610dae5783516001600160e01b03191683529284019291840191600101610d88565b50909695505050505050565b634e487b7160e01b600052604160045260246000fd5b634e487b7160e01b600052601160045260246000fd5b600081610df557610df5610dd0565b506000190190565b634e487b7160e01b600052603260045260246000fd5b6020808252602a908201527f4964656e74697479496e7465726e616c3a206964656e74697479206973207a65604082015269726f206164647265737360b01b606082015260800190565b600060018201610e6f57610e6f610dd0565b5060010190565b604051601f8201601f1916810167ffffffffffffffff81118282101715610e9f57610e9f610dba565b604052919050565b60006020808385031215610eba57600080fd5b825167ffffffffffffffff80821115610ed257600080fd5b818501915085601f830112610ee657600080fd5b815181811115610ef857610ef8610dba565b8060051b9150610f09848301610e76565b8181529183018401918481019088841115610f2357600080fd5b938501935b83851015610f4157845182529385019390850190610f28565b98975050505050505050565b60005b83811015610f68578181015183820152602001610f50565b50506000910152565b600067ffffffffffffffff831115610f8b57610f8b610dba565b610f9e601f8401601f1916602001610e76565b9050828152838383011115610fb257600080fd5b610b50836020830184610f4d565b600082601f830112610fd157600080fd5b610b5083835160208501610f71565b60008060008060008060c08789031215610ff957600080fd5b8651955060208701519450604087015161101281610c6e565b606088015190945067ffffffffffffffff8082111561103057600080fd5b61103c8a838b01610fc0565b9450608089015191508082111561105257600080fd5b61105e8a838b01610fc0565b935060a089015191508082111561107457600080fd5b508701601f8101891361108657600080fd5b61109589825160208401610f71565b9150509295509295509295565b600081518084526110ba816020860160208601610f4d565b601f01601f19169290920160200192915050565b60018060a01b03851681528360208201526080604082015260006110f560808301856110a2565b828103606084015261110781856110a2565b979650505050505050565b60006020828403121561112457600080fd5b81518015158114610b5057600080fdfe8250f062390633740b58dd505171a2b7207c6c4b65557d3f50ba32fe928e9da5a2646970667358221220cd573217de6d8e841a0388781472d82d0102c39ef0ca84129498e6aa6c3059da64736f6c63430008110033",
  "linkReferences": {},
  "deployedLinkReferences": {}
}