{
  "_format": "hh-sol-artifact-1",
  "contractName": "RolesFacet",
  "sourceName": "contracts/facets/RolesFacet.sol",
  "abi": [
    {
      "anonymous": false,
      "inputs": [
        {
          "indexed": true,
          "internalType": "address",
          "name": "agent",
          "type": "address"
        },
        {
          "indexed": false,
          "internalType": "bool",
          "name": "status",
          "type": "bool"
        }
      ],
      "name": "AgentSet",
      "type": "event"
    },
    {
      "anonymous": false,
      "inputs": [
        {
          "indexed": false,
          "internalType": "uint8",
          "name": "version",
          "type": "uint8"
        }
      ],
      "name": "Initialized",
      "type": "event"
    },
    {
      "anonymous": false,
      "inputs": [
        {
          "indexed": true,
          "internalType": "address",
          "name": "previousOwner",
          "type": "address"
        },
        {
          "indexed": true,
          "internalType": "address",
          "name": "newOwner",
          "type": "address"
        }
      ],
      "name": "OwnershipTransferred",
      "type": "event"
    },
    {
      "inputs": [
        {
          "internalType": "address",
          "name": "initialOwner",
          "type": "address"
        }
      ],
      "name": "initializeRoles",
      "outputs": [],
      "stateMutability": "nonpayable",
      "type": "function"
    },
    {
      "inputs": [
        {
          "internalType": "address",
          "name": "addr",
          "type": "address"
        }
      ],
      "name": "isAgent",
      "outputs": [
        {
          "internalType": "bool",
          "name": "",
          "type": "bool"
        }
      ],
      "stateMutability": "view",
      "type": "function"
    },
    {
      "inputs": [],
      "name": "owner",
      "outputs": [
        {
          "internalType": "address",
          "name": "",
          "type": "address"
        }
      ],
      "stateMutability": "view",
      "type": "function"
    },
    {
      "inputs": [],
      "name": "selectorsIntrospection",
      "outputs": [
        {
          "internalType": "bytes4[]",
          "name": "selectors_",
          "type": "bytes4[]"
        }
      ],
      "stateMutability": "pure",
      "type": "function"
    },
    {
      "inputs": [
        {
          "internalType": "address",
          "name": "agent",
          "type": "address"
        },
        {
          "internalType": "bool",
          "name": "status",
          "type": "bool"
        }
      ],
      "name": "setAgent",
      "outputs": [],
      "stateMutability": "nonpayable",
      "type": "function"
    },
    {
      "inputs": [
        {
          "internalType": "address",
          "name": "newOwner",
          "type": "address"
        }
      ],
      "name": "transferOwnership",
      "outputs": [],
      "stateMutability": "nonpayable",
      "type": "function"
    }
  ],
  "bytecode": "0x608060405234801561001057600080fd5b506108a3806100206000396000f3fe608060405234801561001057600080fd5b50600436106100625760003560e01c80631ffbb0641461006757806354208a2f146100c75780638da5cb5b146100dc57806397d8c676146100fc578063e3b807a01461010f578063f2fde38b14610124575b600080fd5b6100b2610075366004610766565b6001600160a01b031660009081527f0fcb11fff5651caf53eaf1124d25315389f7b0ceffd704a5e999a2ffc7764fd6602052604090205460ff1690565b60405190151581526020015b60405180910390f35b6100da6100d5366004610766565b610137565b005b6100e461024f565b6040516001600160a01b0390911681526020016100be565b6100da61010a366004610788565b610275565b610117610288565b6040516100be91906107c4565b6100da610132366004610766565b6103e7565b600054610100900460ff16158080156101575750600054600160ff909116105b806101715750303b158015610171575060005460ff166001145b6101d95760405162461bcd60e51b815260206004820152602e60248201527f496e697469616c697a61626c653a20636f6e747261637420697320616c72656160448201526d191e481a5b9a5d1a585b1a5e995960921b60648201526084015b60405180910390fd5b6000805460ff1916600117905580156101fc576000805461ff0019166101001790555b610205826103fc565b801561024b576000805461ff0019169055604051600181527f7f26b83ff96e1f2b6a682f133852f6798a09c465da95921460cefb38474024989060200160405180910390a15b5050565b600061027060008051602061084e833981519152546001600160a01b031690565b905090565b61027e3361051f565b61024b8282610589565b60408051600580825260c0820190925260609190816020820160a0803683370190505091506354208a2f60e01b826102bf83610812565b925082815181106102d2576102d2610837565b6001600160e01b03199092166020928302919091019091015263f2fde38b60e01b826102fd83610812565b9250828151811061031057610310610837565b6001600160e01b031990921660209283029190910190910152638da5cb5b60e01b8261033b83610812565b9250828151811061034e5761034e610837565b6001600160e01b031990921660209283029190910190910152634bec633b60e11b8261037983610812565b9250828151811061038c5761038c610837565b6001600160e01b0319909216602092830291909101909101526307feec1960e21b826103b783610812565b925082815181106103ca576103ca610837565b6001600160e01b0319909216602092830291909101909101525090565b6103f03361051f565b6103f981610680565b50565b6001600160a01b0381166104635760405162461bcd60e51b815260206004820152602860248201527f526f6c6573496e7465726e616c3a206f776e657220697320746865207a65726f604482015267206164647265737360c01b60648201526084016101d0565b60008051602061084e83398151915280546001600160a01b0316156104d55760405162461bcd60e51b815260206004820152602260248201527f526f6c6573496e7465726e616c3a20616c726561647920696e697469616c697a604482015261195960f21b60648201526084016101d0565b80546001600160a01b0319166001600160a01b03831690811782556040516000907f8be0079c531659141344cd1fd0a4f28419497f9722a3daafe3b4186f6b6457e0908290a35050565b60008051602061084e833981519152546001600160a01b038281169116146103f95760405162461bcd60e51b815260206004820152601860248201527f526f6c6573496e7465726e616c3a204e6f74206f776e6572000000000000000060448201526064016101d0565b6001600160a01b0382166105f05760405162461bcd60e51b815260206004820152602860248201527f526f6c6573496e7465726e616c3a206167656e7420697320746865207a65726f604482015267206164647265737360c01b60648201526084016101d0565b6001600160a01b03821660008181527f0fcb11fff5651caf53eaf1124d25315389f7b0ceffd704a5e999a2ffc7764fd66020908152604091829020805460ff1916851515908117909155915191825260008051602061084e83398151915292917fdfbbd189290ad6ccafc74f11e514df22fe2c990b1f70c48e80c0c152ccf16415910160405180910390a2505050565b6001600160a01b0381166106eb5760405162461bcd60e51b815260206004820152602c60248201527f526f6c6573496e7465726e616c3a206e6577206f776e6572206973207468652060448201526b7a65726f206164647265737360a01b60648201526084016101d0565b60008051602061084e83398151915280546001600160a01b031981166001600160a01b03848116918217845560405192169182907f8be0079c531659141344cd1fd0a4f28419497f9722a3daafe3b4186f6b6457e090600090a3505050565b80356001600160a01b038116811461076157600080fd5b919050565b60006020828403121561077857600080fd5b6107818261074a565b9392505050565b6000806040838503121561079b57600080fd5b6107a48361074a565b9150602083013580151581146107b957600080fd5b809150509250929050565b6020808252825182820181905260009190848201906040850190845b818110156108065783516001600160e01b031916835292840192918401916001016107e0565b50909695505050505050565b60008161082f57634e487b7160e01b600052601160045260246000fd5b506000190190565b634e487b7160e01b600052603260045260246000fdfe0fcb11fff5651caf53eaf1124d25315389f7b0ceffd704a5e999a2ffc7764fd5a2646970667358221220f4d86e5aa70c81aa156d5252073b5293f4af94e7e12defd810a65aee56a28f4964736f6c63430008110033",
  "linkReferences": {},
  "deployedLinkReferences": {}
}