{
  "_format": "hh-sol-artifact-1",
  "contractName": "ComplianceFacet",
  "sourceName": "contracts/facets/ComplianceFacet.sol",
  "abi": [
    {
      "anonymous": false,
      "inputs": [
        {
          "indexed": false,
          "internalType": "uint256",
          "name": "max",
          "type": "uint256"
        }
      ],
      "name": "MaxBalanceSet",
      "type": "event"
    },
    {
      "anonymous": false,
      "inputs": [
        {
          "indexed": false,
          "internalType": "uint256",
          "name": "max",
          "type": "uint256"
        }
      ],
      "name": "MaxInvestorsSet",
      "type": "event"
    },
    {
      "anonymous": false,
      "inputs": [
        {
          "indexed": false,
          "internalType": "uint256",
          "name": "min",
          "type": "uint256"
        }
      ],
      "name": "MinBalanceSet",
      "type": "event"
    },
    {
      "inputs": [
        {
          "internalType": "address",
          "name": "from",
          "type": "address"
        },
        {
          "internalType": "address",
          "name": "to",
          "type": "address"
        },
        {
          "internalType": "uint256",
          "name": "amount",
          "type": "uint256"
        }
      ],
      "name": "canTransfer",
      "outputs": [
        {
          "internalType": "bool",
          "name": "",
          "type": "bool"
        }
      ],
      "stateMutability": "view",
      "type": "function"
    },
    {
      "inputs": [],
      "name": "complianceRules",
      "outputs": [
        {
          "internalType": "uint256",
          "name": "maxBalance",
          "type": "uint256"
        },
        {
          "internalType": "uint256",
          "name": "minBalance",
          "type": "uint256"
        },
        {
          "internalType": "uint256",
          "name": "maxInvestors",
          "type": "uint256"
        }
      ],
      "stateMutability": "view",
      "type": "function"
    },
    {
      "inputs": [
        {
          "internalType": "uint256",
          "name": "max",
          "type": "uint256"
        }
      ],
      "name": "setMaxBalance",
      "outputs": [],
      "stateMutability": "nonpayable",
      "type": "function"
    },
    {
      "inputs": [
        {
          "internalType": "uint256",
          "name": "max",
          "type": "uint256"
        }
      ],
      "name": "setMaxInvestors",
      "outputs": [],
      "stateMutability": "nonpayable",
      "type": "function"
    },
    {
      "inputs": [
        {
          "internalType": "uint256",
          "name": "min",
          "type": "uint256"
        }
      ],
      "name": "setMinBalance",
      "outputs": [],
      "stateMutability": "nonpayable",
      "type": "function"
    }
  ],
  "bytecode": "0x608060405234801561001057600080fd5b5061061b806100206000396000f3fe608060405234801561001057600080fd5b50600436106100575760003560e01c806335e896c11461005c5780636ec58d13146100715780639d51d9b7146100f7578063c91d956c1461010a578063e46638e61461011d575b600080fd5b61006f61006a3660046104d3565b610140565b005b7fc2b69da5e7be41c6eaba0bfa82e0e1fef8d4512d663aa63c99ede9dd1d17b016547fc2b69da5e7be41c6eaba0bfa82e0e1fef8d4512d663aa63c99ede9dd1d17b017547fc2b69da5e7be41c6eaba0bfa82e0e1fef8d4512d663aa63c99ede9dd1d17b01854604080519384526020840192909252908201526060015b60405180910390f35b61006f6101053660046104d3565b6101de565b61006f6101183660046104d3565b61026c565b61013061012b366004610508565b6102fa565b60405190151581526020016100ee565b6000805160206105c6833981519152600a01546001600160a01b031633146101835760405162461bcd60e51b815260040161017a90610544565b60405180910390fd5b7fc2b69da5e7be41c6eaba0bfa82e0e1fef8d4512d663aa63c99ede9dd1d17b0188190556040518181527f0de3b656191db95f0ae3b33d959531021110a9da5b819655d9d13a57496144ad906020015b60405180910390a150565b6000805160206105c6833981519152600a01546001600160a01b031633146102185760405162461bcd60e51b815260040161017a90610544565b7fc2b69da5e7be41c6eaba0bfa82e0e1fef8d4512d663aa63c99ede9dd1d17b0168190556040518181527f82f9980487703d8db41f1ba63b2665566f7fb449fbc840a9e0c6ca932bed582c906020016101d3565b6000805160206105c6833981519152600a01546001600160a01b031633146102a65760405162461bcd60e51b815260040161017a90610544565b7fc2b69da5e7be41c6eaba0bfa82e0e1fef8d4512d663aa63c99ede9dd1d17b0178190556040518181527fc9ac0b9c6116d44b14ac8198e0802802d07cf6956054e7542f0460a4d3423b3a906020016101d3565b6001600160a01b03831660009081526000805160206105c683398151915260208190526040822054600160b01b900460ff168061035657506001600160a01b038416600090815260208290526040902054600160b01b900460ff165b156103655760009150506104cc565b6001600160a01b038481166000908152602083905260409020541661038e5760009150506104cc565b6001600160a01b03841660009081526001820160205260408120546103b490859061057d565b6007830154909150158015906103cd5750600782015481115b156103dd576000925050506104cc565b6008820154158015906103f35750600882015481105b15610403576000925050506104cc565b60098201541580159061042e57506001600160a01b0385166000908152600183016020526040902054155b156104c5576000805b600f8401548110156104ab57600084600101600086600f01848154811061046057610460610596565b60009182526020808320909101546001600160a01b0316835282019290925260400190205411156104995781610495816105ac565b9250505b806104a3816105ac565b915050610437565b50600983015481106104c357600093505050506104cc565b505b6001925050505b9392505050565b6000602082840312156104e557600080fd5b5035919050565b80356001600160a01b038116811461050357600080fd5b919050565b60008060006060848603121561051d57600080fd5b610526846104ec565b9250610534602085016104ec565b9150604084013590509250925092565b6020808252600990820152682737ba1037bbb732b960b91b604082015260600190565b634e487b7160e01b600052601160045260246000fd5b8082018082111561059057610590610567565b92915050565b634e487b7160e01b600052603260045260246000fd5b6000600182016105be576105be610567565b506001019056fec2b69da5e7be41c6eaba0bfa82e0e1fef8d4512d663aa63c99ede9dd1d17b00fa2646970667358221220ca7bb22061d573c0ba72e2485cbb4f139a29c5eab3f90b6a499281678307f80f64736f6c63430008110033",
  "linkReferences": {},
  "deployedLinkReferences": {}
}