{
  "_format": "hh-sol-artifact-1",
  "contractName": "TrustedIssuersFacet",
  "sourceName": "contracts/faces/TrustedIssuersFacet.sol",
  "abi": [
    {
      "anonymous": false,
      "inputs": [
        {
          "indexed": true,
          "internalType": "address",
          "name": "issuer",
          "type": "address"
        },
        {
          "indexed": false,
          "internalType": "uint256[]",
          "name": "claimTopics",
          "type": "uint256[]"
        }
      ],
      "name": "TrustedIssuerAdded",
      "type": "event"
    },
    {
      "anonymous": false,
      "inputs": [
        {
          "indexed": true,
          "internalType": "address",
          "name": "issuer",
          "type": "address"
        }
      ],
      "name": "TrustedIssuerRemoved",
      "type": "event"
    },
    {
      "inputs": [
        {
          "internalType": "address",
          "name": "issuer",
          "type": "address"
        },
        {
          "internalType": "uint256[]",
          "name": "topics",
          "type": "uint256[]"
        }
      ],
      "name": "addTrustedIssuer",
      "outputs": [],
      "stateMutability": "nonpayable",
      "type": "function"
    },
    {
      "inputs": [
        {
          "internalType": "uint256",
          "name": "topic",
          "type": "uint256"
        }
      ],
      "name": "getTrustedIssuers",
      "outputs": [
        {
          "internalType": "address[]",
          "name": "",
          "type": "address[]"
        }
      ],
      "stateMutability": "view",
      "type": "function"
    },
    {
      "inputs": [
        {
          "internalType": "address",
          "name": "issuer",
          "type": "address"
        },
        {
          "internalType": "uint256",
          "name": "topic",
          "type": "uint256"
        }
      ],
      "name": "removeTrustedIssuer",
      "outputs": [],
      "stateMutability": "nonpayable",
      "type": "function"
    }
  ],
  "bytecode": "0x608060405234801561001057600080fd5b50610653806100206000396000f3fe608060405234801561001057600080fd5b50600436106100415760003560e01c80639f63ea9814610046578063b49985031461005b578063d309883014610084575b600080fd5b61005961005436600461043a565b610097565b005b61006e6100693660046104c0565b6101be565b60405161007b91906104d9565b60405180910390f35b610059610092366004610526565b610249565b6000805160206105fe833981519152600a01546001600160a01b031633146100f25760405162461bcd60e51b81526020600482015260096024820152682737ba1037bbb732b960b91b60448201526064015b60405180910390fd5b6000805160206105fe8339815191527fc2b69da5e7be41c6eaba0bfa82e0e1fef8d4512d663aa63c99ede9dd1d17b01d60008484828161013457610134610550565b602090810292909201358352508181019290925260409081016000908120805460018101825590825292902090910180546001600160a01b0319166001600160a01b03871690811790915590517ffedc33fd34859594822c0ff6f3f4f9fc279cc6d5cae53068f706a088e4500872906101b09086908690610566565b60405180910390a250505050565b60008181527fc2b69da5e7be41c6eaba0bfa82e0e1fef8d4512d663aa63c99ede9dd1d17b01d602090815260409182902080548351818402810184019094528084526060939283018282801561023d57602002820191906000526020600020905b81546001600160a01b0316815260019091019060200180831161021f575b50505050509050919050565b6000805160206105fe833981519152600a01546001600160a01b0316331461029f5760405162461bcd60e51b81526020600482015260096024820152682737ba1037bbb732b960b91b60448201526064016100e9565b60008181527fc2b69da5e7be41c6eaba0bfa82e0e1fef8d4512d663aa63c99ede9dd1d17b01d602052604081206000805160206105fe833981519152915b815481101561041757846001600160a01b031682828154811061030257610302610550565b6000918252602090912001546001600160a01b031603610405578154829061032c906001906105b5565b8154811061033c5761033c610550565b9060005260206000200160009054906101000a90046001600160a01b031682828154811061036c5761036c610550565b9060005260206000200160006101000a8154816001600160a01b0302191690836001600160a01b03160217905550818054806103aa576103aa6105ce565b600082815260208120820160001990810180546001600160a01b03191690559091019091556040516001600160a01b038716917f2214ded40113cc3fb63fc206cafee88270b0a903dac7245d54efdde30ebb032191a2610417565b8061040f816105e4565b9150506102dd565b5050505050565b80356001600160a01b038116811461043557600080fd5b919050565b60008060006040848603121561044f57600080fd5b6104588461041e565b9250602084013567ffffffffffffffff8082111561047557600080fd5b818601915086601f83011261048957600080fd5b81358181111561049857600080fd5b8760208260051b85010111156104ad57600080fd5b6020830194508093505050509250925092565b6000602082840312156104d257600080fd5b5035919050565b6020808252825182820181905260009190848201906040850190845b8181101561051a5783516001600160a01b0316835292840192918401916001016104f5565b50909695505050505050565b6000806040838503121561053957600080fd5b6105428361041e565b946020939093013593505050565b634e487b7160e01b600052603260045260246000fd5b6020808252810182905260006001600160fb1b0383111561058657600080fd5b8260051b80856040850137919091016040019392505050565b634e487b7160e01b600052601160045260246000fd5b818103818111156105c8576105c861059f565b92915050565b634e487b7160e01b600052603160045260246000fd5b6000600182016105f6576105f661059f565b506001019056fec2b69da5e7be41c6eaba0bfa82e0e1fef8d4512d663aa63c99ede9dd1d17b00fa26469706673582212200e5e14371b7708e7f957756802241a2a2d44729bc27895f9bef33fd9afc6209664736f6c63430008110033",
  "linkReferences": {},
  "deployedLinkReferences": {}
}