{
  "_format": "hh-sol-artifact-1",
  "contractName": "TrustedIssuersFacet",
  "sourceName": "contracts/facets/TrustedIssuersFacet_DEPRECATED.sol",
  "abi": [
    {
      "anonymous": false,
      "inputs": [
        {
          "indexed": true,
          "internalType": "address",
          "name": "issuer",
          "type": "address"
        },
        {
          "indexed": false,
          "internalType": "uint256[]",
          "name": "claimTopics",
          "type": "uint256[]"
        }
      ],
      "name": "TrustedIssuerAdded",
      "type": "event"
    },
    {
      "anonymous": false,
      "inputs": [
        {
          "indexed": true,
          "internalType": "address",
          "name": "issuer",
          "type": "address"
        }
      ],
      "name": "TrustedIssuerRemoved",
      "type": "event"
    },
    {
      "inputs": [
        {
          "internalType": "address",
          "name": "issuer",
          "type": "address"
        },
        {
          "internalType": "uint256[]",
          "name": "topics",
          "type": "uint256[]"
        }
      ],
      "name": "addTrustedIssuer",
      "outputs": [],
      "stateMutability": "nonpayable",
      "type": "function"
    },
    {
      "inputs": [
        {
          "internalType": "uint256",
          "name": "topic",
          "type": "uint256"
        }
      ],
      "name": "getTrustedIssuers",
      "outputs": [
        {
          "internalType": "address[]",
          "name": "",
          "type": "address[]"
        }
      ],
      "stateMutability": "view",
      "type": "function"
    },
    {
      "inputs": [
        {
          "internalType": "address",
          "name": "issuer",
          "type": "address"
        },
        {
          "internalType": "uint256",
          "name": "topic",
          "type": "uint256"
        }
      ],
      "name": "removeTrustedIssuer",
      "outputs": [],
      "stateMutability": "nonpayable",
      "type": "function"
    },
    {
      "inputs": [],
      "name": "selectorsIntrospection",
      "outputs": [
        {
          "internalType": "bytes4[]",
          "name": "selectors_",
          "type": "bytes4[]"
        }
      ],
      "stateMutability": "pure",
      "type": "function"
    }
  ],
  "bytecode": "0x608060405234801561001057600080fd5b506107b8806100206000396000f3fe608060405234801561001057600080fd5b506004361061004c5760003560e01c80639f63ea9814610051578063b499850314610066578063d30988301461008f578063e3b807a0146100a2575b600080fd5b61006461005f366004610546565b6100b7565b005b6100796100743660046105cc565b6101e3565b60405161008691906105e5565b60405180910390f35b61006461009d366004610632565b61026e565b6100aa610448565b604051610086919061065c565b6000805160206107638339815191526008015461010090046001600160a01b031633146101175760405162461bcd60e51b81526020600482015260096024820152682737ba1037bbb732b960b91b60448201526064015b60405180910390fd5b6000805160206107638339815191527fc2b69da5e7be41c6eaba0bfa82e0e1fef8d4512d663aa63c99ede9dd1d17b01e6000848482816101595761015961069e565b602090810292909201358352508181019290925260409081016000908120805460018101825590825292902090910180546001600160a01b0319166001600160a01b03871690811790915590517ffedc33fd34859594822c0ff6f3f4f9fc279cc6d5cae53068f706a088e4500872906101d590869086906106b4565b60405180910390a250505050565b60008181527fc2b69da5e7be41c6eaba0bfa82e0e1fef8d4512d663aa63c99ede9dd1d17b01e602090815260409182902080548351818402810184019094528084526060939283018282801561026257602002820191906000526020600020905b81546001600160a01b03168152600190910190602001808311610244575b50505050509050919050565b6000805160206107638339815191526008015461010090046001600160a01b031633146102c95760405162461bcd60e51b81526020600482015260096024820152682737ba1037bbb732b960b91b604482015260640161010e565b60008181527fc2b69da5e7be41c6eaba0bfa82e0e1fef8d4512d663aa63c99ede9dd1d17b01e60205260408120600080516020610763833981519152915b815481101561044157846001600160a01b031682828154811061032c5761032c61069e565b6000918252602090912001546001600160a01b03160361042f578154829061035690600190610703565b815481106103665761036661069e565b9060005260206000200160009054906101000a90046001600160a01b03168282815481106103965761039661069e565b9060005260206000200160006101000a8154816001600160a01b0302191690836001600160a01b03160217905550818054806103d4576103d461071c565b600082815260208120820160001990810180546001600160a01b03191690559091019091556040516001600160a01b038716917f2214ded40113cc3fb63fc206cafee88270b0a903dac7245d54efdde30ebb032191a2610441565b8061043981610732565b915050610307565b5050505050565b6040805160038082526080820190925260609190816020820184803683370190505091506313ec7d5360e31b8261047e8361074b565b925082815181106104915761049161069e565b6001600160e01b031990921660209283029190910190910152630d30988360e41b826104bc8361074b565b925082815181106104cf576104cf61069e565b6001600160e01b03199092166020928302919091019091015263b499850360e01b826104fa8361074b565b9250828151811061050d5761050d61069e565b6001600160e01b0319909216602092830291909101909101525090565b80356001600160a01b038116811461054157600080fd5b919050565b60008060006040848603121561055b57600080fd5b6105648461052a565b9250602084013567ffffffffffffffff8082111561058157600080fd5b818601915086601f83011261059557600080fd5b8135818111156105a457600080fd5b8760208260051b85010111156105b957600080fd5b6020830194508093505050509250925092565b6000602082840312156105de57600080fd5b5035919050565b6020808252825182820181905260009190848201906040850190845b818110156106265783516001600160a01b031683529284019291840191600101610601565b50909695505050505050565b6000806040838503121561064557600080fd5b61064e8361052a565b946020939093013593505050565b6020808252825182820181905260009190848201906040850190845b818110156106265783516001600160e01b03191683529284019291840191600101610678565b634e487b7160e01b600052603260045260246000fd5b6020808252810182905260006001600160fb1b038311156106d457600080fd5b8260051b80856040850137919091016040019392505050565b634e487b7160e01b600052601160045260246000fd5b81810381811115610716576107166106ed565b92915050565b634e487b7160e01b600052603160045260246000fd5b600060018201610744576107446106ed565b5060010190565b60008161075a5761075a6106ed565b50600019019056fec2b69da5e7be41c6eaba0bfa82e0e1fef8d4512d663aa63c99ede9dd1d17b00fa2646970667358221220d1b3f0c657ebd6e31d854ff49ff04601c89bdc8d1c279b8371aa662c0bc879b764736f6c63430008110033",
  "linkReferences": {},
  "deployedLinkReferences": {}
}