{
  "_format": "hh-sol-artifact-1",
  "contractName": "OptimizedTokenFacet",
  "sourceName": "contracts/examples/OptimizedTokenFacet.sol",
  "abi": [
    {
      "inputs": [
        {
          "internalType": "address",
          "name": "owner",
          "type": "address"
        },
        {
          "internalType": "address",
          "name": "spender",
          "type": "address"
        }
      ],
      "name": "allowance",
      "outputs": [
        {
          "internalType": "uint256",
          "name": "",
          "type": "uint256"
        }
      ],
      "stateMutability": "view",
      "type": "function"
    },
    {
      "inputs": [
        {
          "internalType": "address",
          "name": "spender",
          "type": "address"
        },
        {
          "internalType": "uint256",
          "name": "amount",
          "type": "uint256"
        }
      ],
      "name": "approve",
      "outputs": [
        {
          "internalType": "bool",
          "name": "",
          "type": "bool"
        }
      ],
      "stateMutability": "nonpayable",
      "type": "function"
    },
    {
      "inputs": [
        {
          "internalType": "address",
          "name": "account",
          "type": "address"
        }
      ],
      "name": "balanceOf",
      "outputs": [
        {
          "internalType": "uint256",
          "name": "",
          "type": "uint256"
        }
      ],
      "stateMutability": "view",
      "type": "function"
    },
    {
      "inputs": [],
      "name": "decimals",
      "outputs": [
        {
          "internalType": "uint8",
          "name": "",
          "type": "uint8"
        }
      ],
      "stateMutability": "view",
      "type": "function"
    },
    {
      "inputs": [
        {
          "internalType": "address",
          "name": "account",
          "type": "address"
        }
      ],
      "name": "freezeAccount",
      "outputs": [],
      "stateMutability": "nonpayable",
      "type": "function"
    },
    {
      "inputs": [],
      "name": "getSelectors",
      "outputs": [
        {
          "internalType": "bytes4[]",
          "name": "selectors",
          "type": "bytes4[]"
        }
      ],
      "stateMutability": "pure",
      "type": "function"
    },
    {
      "inputs": [],
      "name": "getStorageNamespace",
      "outputs": [
        {
          "internalType": "string",
          "name": "",
          "type": "string"
        }
      ],
      "stateMutability": "pure",
      "type": "function"
    },
    {
      "inputs": [],
      "name": "getStorageStatus",
      "outputs": [
        {
          "internalType": "bool",
          "name": "token",
          "type": "bool"
        },
        {
          "internalType": "bool",
          "name": "roles",
          "type": "bool"
        },
        {
          "internalType": "bool",
          "name": "compliance",
          "type": "bool"
        }
      ],
      "stateMutability": "view",
      "type": "function"
    },
    {
      "inputs": [],
      "name": "getStorageVersion",
      "outputs": [
        {
          "internalType": "uint256",
          "name": "",
          "type": "uint256"
        }
      ],
      "stateMutability": "pure",
      "type": "function"
    },
    {
      "inputs": [
        {
          "internalType": "address",
          "name": "to",
          "type": "address"
        },
        {
          "internalType": "uint256",
          "name": "amount",
          "type": "uint256"
        }
      ],
      "name": "mint",
      "outputs": [],
      "stateMutability": "nonpayable",
      "type": "function"
    },
    {
      "inputs": [],
      "name": "name",
      "outputs": [
        {
          "internalType": "string",
          "name": "",
          "type": "string"
        }
      ],
      "stateMutability": "view",
      "type": "function"
    },
    {
      "inputs": [],
      "name": "selectorsIntrospection",
      "outputs": [
        {
          "internalType": "bytes4[]",
          "name": "selectors_",
          "type": "bytes4[]"
        }
      ],
      "stateMutability": "pure",
      "type": "function"
    },
    {
      "inputs": [],
      "name": "symbol",
      "outputs": [
        {
          "internalType": "string",
          "name": "",
          "type": "string"
        }
      ],
      "stateMutability": "view",
      "type": "function"
    },
    {
      "inputs": [],
      "name": "totalSupply",
      "outputs": [
        {
          "internalType": "uint256",
          "name": "",
          "type": "uint256"
        }
      ],
      "stateMutability": "view",
      "type": "function"
    },
    {
      "inputs": [
        {
          "internalType": "address",
          "name": "to",
          "type": "address"
        },
        {
          "internalType": "uint256",
          "name": "amount",
          "type": "uint256"
        }
      ],
      "name": "transfer",
      "outputs": [
        {
          "internalType": "bool",
          "name": "",
          "type": "bool"
        }
      ],
      "stateMutability": "nonpayable",
      "type": "function"
    },
    {
      "inputs": [
        {
          "internalType": "address",
          "name": "from",
          "type": "address"
        },
        {
          "internalType": "address",
          "name": "to",
          "type": "address"
        },
        {
          "internalType": "uint256",
          "name": "amount",
          "type": "uint256"
        }
      ],
      "name": "transferFrom",
      "outputs": [
        {
          "internalType": "bool",
          "name": "",
          "type": "bool"
        }
      ],
      "stateMutability": "nonpayable",
      "type": "function"
    },
    {
      "inputs": [
        {
          "internalType": "address",
          "name": "account",
          "type": "address"
        }
      ],
      "name": "unfreezeAccount",
      "outputs": [],
      "stateMutability": "nonpayable",
      "type": "function"
    }
  ],
  "bytecode": "0x608060405234801561001057600080fd5b506115f2806100206000396000f3fe608060405234801561001057600080fd5b506004361061010b5760003560e01c806370a08231116100a2578063a9059cbb11610071578063a9059cbb1461021a578063c3946aa81461022d578063dd62ed3e14610256578063e3b807a0146101a9578063f26c159f1461026957600080fd5b806370a08231146101e5578063788649ea146101f857806379fd5e2e1461020b57806395d89b411461021257600080fd5b8063313ce567116100de578063313ce5671461017a57806340c10f19146101945780634b503f0b146101a9578063545e1b52146101be57600080fd5b806306fdde0314610110578063095ea7b31461012e57806318160ddd1461015157806323b872dd14610167575b600080fd5b61011861027c565b604051610125919061129a565b60405180910390f35b61014161013c366004611304565b61035a565b6040519015158152602001610125565b6101596103cd565b604051908152602001610125565b61014161017536600461132e565b6103fc565b6101826104df565b60405160ff9091168152602001610125565b6101a76101a2366004611304565b61052e565b005b6101b16106f4565b604051610125919061136a565b6101c66109e4565b6040805193151584529115156020840152151590820152606001610125565b6101596101f33660046113b8565b610a0c565b6101a76102063660046113b8565b610a17565b6001610159565b610118610a82565b610141610228366004611304565b610ad4565b60408051808201909152600d81526c1d0b5c995e0b991a585b5bdb99609a1b6020820152610118565b6101596102643660046113d3565b610ae1565b6101a76102773660046113b8565b610aed565b6060610286610b5b565b6102ab5760405162461bcd60e51b81526004016102a290611406565b60405180910390fd5b7f736ce0c14097c43f46534906dfa4c53dc3d50ced9d4ca89fafa7ec003cfb443780546102d790611450565b80601f016020809104026020016040519081016040528092919081815260200182805461030390611450565b80156103505780601f1061032557610100808354040283529160200191610350565b820191906000526020600020905b81548152906001019060200180831161033357829003601f168201915b5050505050905090565b600061037e836040518060600160405280603081526020016114dd60309139610b83565b503360009081527f736ce0c14097c43f46534906dfa4c53dc3d50ced9d4ca89fafa7ec003cfb4435602090815260408083206001600160a01b0386168452909152902081905560015b92915050565b60006103f77f736ce0c14097c43f46534906dfa4c53dc3d50ced9d4ca89fafa7ec003cfb44365490565b905090565b6000806104098533610bb0565b90508281101561046f5760405162461bcd60e51b815260206004820152602b60248201527f4f7074696d697a6564546f6b656e46616365743a20496e73756666696369656e60448201526a7420616c6c6f77616e636560a81b60648201526084016102a2565b600061047c868686610cf5565b905080801561048d57506000198214155b156104d45760008051602061153e8339815191526104ab85846114a0565b6001600160a01b0388166000908152600190920160209081526040808420338552909152909120555b9150505b9392505050565b60006104e9610b5b565b6105055760405162461bcd60e51b81526004016102a290611406565b507f736ce0c14097c43f46534906dfa4c53dc3d50ced9d4ca89fafa7ec003cfb44395460ff1690565b61053733610e72565b6105598260405180606001604052806030815260200161155e60309139610b83565b60008161056584610ed6565b61056f91906114b3565b905061057a81610f7d565b6105e15760405162461bcd60e51b815260206004820152603260248201527f4f7074696d697a6564546f6b656e46616365743a204d696e7420776f756c642060448201527176696f6c61746520636f6d706c69616e636560701b60648201526084016102a2565b6105ea83610ed6565b60000361065e576105f961100a565b61065e5760405162461bcd60e51b815260206004820152603060248201527f4f7074696d697a6564546f6b656e46616365743a20576f756c6420657863656560448201526f19081a5b9d995cdd1bdc881b1a5b5a5d60821b60648201526084016102a2565b6001600160a01b038316600090815260008051602061153e8339815191526020819052604082208054919285926106969084906114b3565b92505081905550828160020160008282546106b191906114b3565b90915550508282036106ee57600781018054600181018255600091825260209091200180546001600160a01b0319166001600160a01b0386161790555b50505050565b60408051600d8082526101c08201909252606091602082016101a0803683370190505090506306fdde0360e01b81600081518110610734576107346114c6565b6001600160e01b03199092166020928302919091019091015280516395d89b4160e01b908290600190811061076b5761076b6114c6565b6001600160e01b031990921660209283029190910190910152805163313ce56760e01b90829060029081106107a2576107a26114c6565b6001600160e01b03199092166020928302919091019091015280516318160ddd60e01b90829060039081106107d9576107d96114c6565b6001600160e01b03199092166020928302919091019091015280516370a0823160e01b9082906004908110610810576108106114c6565b6001600160e01b0319909216602092830291909101909101528051636eb1769f60e11b9082906005908110610847576108476114c6565b6001600160e01b031990921660209283029190910190910152805163a9059cbb60e01b908290600690811061087e5761087e6114c6565b6001600160e01b03199092166020928302919091019091015280516323b872dd60e01b90829060079081106108b5576108b56114c6565b6001600160e01b031990921660209283029190910190910152805163095ea7b360e01b90829060089081106108ec576108ec6114c6565b6001600160e01b03199092166020928302919091019091015280516340c10f1960e01b9082906009908110610923576109236114c6565b6001600160e01b031990921660209283029190910190910152805163f26c159f60e01b908290600a90811061095a5761095a6114c6565b6001600160e01b0319909216602092830291909101909101528051633c4324f560e11b908290600b908110610991576109916114c6565b6001600160e01b031990921660209283029190910190910152805163071dc03d60e51b908290600c9081106109c8576109c86114c6565b6001600160e01b03199092166020928302919091019091015290565b60008060006109f1610b5b565b92506109fb61107c565b9150610a056110b6565b9050909192565b60006103c782610ed6565b610a2033610e72565b610a428160405180606001604052806031815260200161150d60319139610b83565b6001600160a01b031660009081527f3f58a8938bec95c6a1ed44e042c3c2e2b9c1eb2b83644b148efde1f9dd7788d960205260409020805460ff19169055565b6060610a8c610b5b565b610aa85760405162461bcd60e51b81526004016102a290611406565b7f736ce0c14097c43f46534906dfa4c53dc3d50ced9d4ca89fafa7ec003cfb443880546102d790611450565b60006104d8338484610cf5565b60006104d88383610bb0565b610af633610e72565b610b18816040518060600160405280602f815260200161158e602f9139610b83565b6001600160a01b031660009081527f3f58a8938bec95c6a1ed44e042c3c2e2b9c1eb2b83644b148efde1f9dd7788d960205260409020805460ff19166001179055565b60008060008051602061153e8339815191526003018054610b7b90611450565b905011905090565b806001600160a01b038316610bab5760405162461bcd60e51b81526004016102a2919061129a565b505050565b60006001600160a01b038316610c2e5760405162461bcd60e51b815260206004820152603c60248201527f546f6b656e53746f726167654163636573736f723a2043616e6e6f742067657460448201527f20616c6c6f77616e63652066726f6d207a65726f20616464726573730000000060648201526084016102a2565b6001600160a01b038216610caa5760405162461bcd60e51b815260206004820152603b60248201527f546f6b656e53746f726167654163636573736f723a2043616e6e6f742067657460448201527f20616c6c6f77616e636520666f72207a65726f2061646472657373000000000060648201526084016102a2565b506001600160a01b0391821660009081527f736ce0c14097c43f46534906dfa4c53dc3d50ced9d4ca89fafa7ec003cfb44356020908152604080832093909416825291909152205490565b6000610d02848484611103565b610d665760405162461bcd60e51b815260206004820152602f60248201527f4f7074696d697a6564546f6b656e46616365743a205472616e7366657220766160448201526e1b1a59185d1a5bdb8819985a5b1959608a1b60648201526084016102a2565b6001600160a01b038416600090815260008051602061153e833981519152602081905260408220805491928592610d9e9084906114a0565b90915550506001600160a01b03841660009081526020829052604081208054859290610dcb9084906114b3565b90915550506001600160a01b038416600090815260208290526040902054839003610e2157600781018054600181018255600091825260209091200180546001600160a01b0319166001600160a01b0386161790555b5050506001600160a01b0391821660009081527f3f58a8938bec95c6a1ed44e042c3c2e2b9c1eb2b83644b148efde1f9dd7788d8602052604080822042908190559290931681529190912055600190565b610e7b816111d0565b610ed35760405162461bcd60e51b8152602060048201526024808201527f526f6c657353746f726167654163636573736f723a204e6f7420617574686f726044820152631a5e995960e21b60648201526084016102a2565b50565b60006001600160a01b038216610f545760405162461bcd60e51b815260206004820152603860248201527f546f6b656e53746f726167654163636573736f723a2043616e6e6f742067657460448201527f2062616c616e6365206f66207a65726f2061646472657373000000000000000060648201526084016102a2565b506001600160a01b0316600090815260008051602061153e833981519152602052604090205490565b7f3f58a8938bec95c6a1ed44e042c3c2e2b9c1eb2b83644b148efde1f9dd7788d5546000907f3f58a8938bec95c6a1ed44e042c3c2e2b9c1eb2b83644b148efde1f9dd7788d49015801590610fd55750806001015483105b15610fe35750600092915050565b805415801590610ff35750805483115b156110015750600092915050565b50600192915050565b7f3f58a8938bec95c6a1ed44e042c3c2e2b9c1eb2b83644b148efde1f9dd7788d6546000907f3f58a8938bec95c6a1ed44e042c3c2e2b9c1eb2b83644b148efde1f9dd7788d4901580159061106757508060020154816003015410155b1561107457600091505090565b600191505090565b60006110b07f0fcb11fff5651caf53eaf1124d25315389f7b0ceffd704a5e999a2ffc7764fd5546001600160a01b03161590565b15905090565b7f3f58a8938bec95c6a1ed44e042c3c2e2b9c1eb2b83644b148efde1f9dd7788d48054600091901515806110ee575060008160010154115b806110fd575060008160020154115b91505090565b60006001600160a01b038416158061112257506001600160a01b038316155b1561112f575060006104d8565b61113884611244565b80611147575061114783611244565b15611154575060006104d8565b8161115e85610ed6565b101561116c575060006104d8565b60008261117885610ed6565b61118291906114b3565b905061118d81610f7d565b61119b5760009150506104d8565b6111a484610ed6565b1580156111b657506111b461100a565b155b156111c55760009150506104d8565b506001949350505050565b60006001600160a01b0382166111e857506000919050565b7f0fcb11fff5651caf53eaf1124d25315389f7b0ceffd704a5e999a2ffc7764fd580546001600160a01b03848116911614806104d857506001600160a01b038316600090815260018201602052604090205460ff169392505050565b60006001600160a01b03821661125c57506000919050565b506001600160a01b031660009081527f3f58a8938bec95c6a1ed44e042c3c2e2b9c1eb2b83644b148efde1f9dd7788d9602052604090205460ff1690565b600060208083528351808285015260005b818110156112c7578581018301518582016040015282016112ab565b506000604082860101526040601f19601f8301168501019250505092915050565b80356001600160a01b03811681146112ff57600080fd5b919050565b6000806040838503121561131757600080fd5b611320836112e8565b946020939093013593505050565b60008060006060848603121561134357600080fd5b61134c846112e8565b925061135a602085016112e8565b9150604084013590509250925092565b6020808252825182820181905260009190848201906040850190845b818110156113ac5783516001600160e01b03191683529284019291840191600101611386565b50909695505050505050565b6000602082840312156113ca57600080fd5b6104d8826112e8565b600080604083850312156113e657600080fd5b6113ef836112e8565b91506113fd602084016112e8565b90509250929050565b6020808252602a908201527f4f7074696d697a6564546f6b656e46616365743a20546f6b656e206e6f7420696040820152691b9a5d1a585b1a5e995960b21b606082015260800190565b600181811c9082168061146457607f821691505b60208210810361148457634e487b7160e01b600052602260045260246000fd5b50919050565b634e487b7160e01b600052601160045260246000fd5b818103818111156103c7576103c761148a565b808201808211156103c7576103c761148a565b634e487b7160e01b600052603260045260246000fdfe4f7074696d697a6564546f6b656e46616365743a2043616e6e6f7420617070726f7665207a65726f20616464726573734f7074696d697a6564546f6b656e46616365743a2043616e6e6f7420756e667265657a65207a65726f2061646472657373736ce0c14097c43f46534906dfa4c53dc3d50ced9d4ca89fafa7ec003cfb44344f7074696d697a6564546f6b656e46616365743a2043616e6e6f74206d696e7420746f207a65726f20616464726573734f7074696d697a6564546f6b656e46616365743a2043616e6e6f7420667265657a65207a65726f2061646472657373a264697066735822122099aa7d65f599eb92cef0612542e32a571b02dccb9175255c9d5da48f87a73d2364736f6c63430008110033",
  "linkReferences": {},
  "deployedLinkReferences": {}
}