{
  "_format": "hh-sol-artifact-1",
  "contractName": "DiamondCutFacet",
  "sourceName": "contracts/facets/DiamondCutFacet.sol",
  "abi": [
    {
      "anonymous": false,
      "inputs": [
        {
          "components": [
            {
              "internalType": "address",
              "name": "facetAddress",
              "type": "address"
            },
            {
              "internalType": "enum IDiamondCut.FacetCutAction",
              "name": "action",
              "type": "uint8"
            },
            {
              "internalType": "bytes4[]",
              "name": "functionSelectors",
              "type": "bytes4[]"
            }
          ],
          "indexed": false,
          "internalType": "struct IDiamondCut.FacetCut[]",
          "name": "_diamondCut",
          "type": "tuple[]"
        },
        {
          "indexed": false,
          "internalType": "address",
          "name": "_init",
          "type": "address"
        },
        {
          "indexed": false,
          "internalType": "bytes",
          "name": "_calldata",
          "type": "bytes"
        }
      ],
      "name": "DiamondCut",
      "type": "event"
    },
    {
      "inputs": [
        {
          "components": [
            {
              "internalType": "address",
              "name": "facetAddress",
              "type": "address"
            },
            {
              "internalType": "enum IDiamondCut.FacetCutAction",
              "name": "action",
              "type": "uint8"
            },
            {
              "internalType": "bytes4[]",
              "name": "functionSelectors",
              "type": "bytes4[]"
            }
          ],
          "internalType": "struct IDiamondCut.FacetCut[]",
          "name": "_diamondCut",
          "type": "tuple[]"
        },
        {
          "internalType": "address",
          "name": "_init",
          "type": "address"
        },
        {
          "internalType": "bytes",
          "name": "_calldata",
          "type": "bytes"
        }
      ],
      "name": "diamondCut",
      "outputs": [],
      "stateMutability": "nonpayable",
      "type": "function"
    }
  ],
  "bytecode": "0x608060405234801561001057600080fd5b506107cc806100206000396000f3fe608060405234801561001057600080fd5b506004361061002b5760003560e01c80631f931c1c14610030575b600080fd5b61004361003e366004610446565b610045565b005b61004d61009e565b61009761005a858761058c565b8484848080601f01602080910402602001604051908101604052809392919081815260200183838082843760009201919091525061012c92505050565b5050505050565b7fa90393cd488d4fd35acba53303b1d8725393befc5ff3d3a9d4c6c252ffcc24fb600401546001600160a01b0316331461012a5760405162461bcd60e51b815260206004820152602260248201527f4c69624469616d6f6e643a204d75737420626520636f6e7472616374206f776e60448201526132b960f11b60648201526084015b60405180910390fd5b565b60005b835181101561034857600084828151811061014c5761014c6106d0565b6020026020010151602001519050600085838151811061016e5761016e6106d0565b60200260200101516000015190506000868481518110610190576101906106d0565b602002602001015160400151905060008151116101f95760405162461bcd60e51b815260206004820152602160248201527f4c69624469616d6f6e643a204e6f2073656c6563746f727320696e20666163656044820152601d60fa1b6064820152608401610121565b600083600281111561020d5761020d6106e6565b036102ea5760005b81518110156102e4576000828281518110610232576102326106d0565b602002602001015190506040518060400160405280856001600160a01b03168152602001836bffffffffffffffffffffffff1681525061028f7fa90393cd488d4fd35acba53303b1d8725393befc5ff3d3a9d4c6c252ffcc24fb90565b6001600160e01b03199092166000908152602092835260409020815191909201516bffffffffffffffffffffffff16600160a01b026001600160a01b03909116179055806102dc816106fc565b915050610215565b50610332565b60405162461bcd60e51b815260206004820152601e60248201527f4c69624469616d6f6e643a20556e737570706f7274656420616374696f6e00006044820152606401610121565b5050508080610340906106fc565b91505061012f565b506001600160a01b038216156103dc57600080836001600160a01b0316836040516103739190610747565b600060405180830381855af49150503d80600081146103ae576040519150601f19603f3d011682016040523d82523d6000602084013e6103b3565b606091505b50915091508181906103d85760405162461bcd60e51b81526004016101219190610763565b5050505b505050565b80356001600160a01b03811681146103f857600080fd5b919050565b60008083601f84011261040f57600080fd5b50813567ffffffffffffffff81111561042757600080fd5b60208301915083602082850101111561043f57600080fd5b9250929050565b60008060008060006060868803121561045e57600080fd5b853567ffffffffffffffff8082111561047657600080fd5b818801915088601f83011261048a57600080fd5b81358181111561049957600080fd5b8960208260051b85010111156104ae57600080fd5b602083019750809650506104c4602089016103e1565b945060408801359150808211156104da57600080fd5b506104e7888289016103fd565b969995985093965092949392505050565b634e487b7160e01b600052604160045260246000fd5b6040516060810167ffffffffffffffff81118282101715610531576105316104f8565b60405290565b604051601f8201601f1916810167ffffffffffffffff81118282101715610560576105606104f8565b604052919050565b600067ffffffffffffffff821115610582576105826104f8565b5060051b60200190565b600061059f61059a84610568565b610537565b83815260208082019190600586811b8601368111156105bd57600080fd5b865b818110156106c357803567ffffffffffffffff808211156105e05760008081fd5b818a019150606082360312156105f65760008081fd5b6105fe61050e565b610607836103e1565b8152868301356003811061061b5760008081fd5b81880152604083810135838111156106335760008081fd5b939093019236601f85011261064a57600092508283fd5b8335925061065a61059a84610568565b83815292871b840188019288810190368511156106775760008081fd5b948901945b848610156106ac5785356001600160e01b03198116811461069d5760008081fd5b8252948901949089019061067c565b9183019190915250885250509483019483016105bf565b5092979650505050505050565b634e487b7160e01b600052603260045260246000fd5b634e487b7160e01b600052602160045260246000fd5b60006001820161071c57634e487b7160e01b600052601160045260246000fd5b5060010190565b60005b8381101561073e578181015183820152602001610726565b50506000910152565b60008251610759818460208701610723565b9190910192915050565b6020815260008251806020840152610782816040850160208701610723565b601f01601f1916919091016040019291505056fea264697066735822122091183a21bdacbc0539a9072ef3213912fde7fa481f641dd3d40574019fc4cb3364736f6c63430008110033",
  "linkReferences": {},
  "deployedLinkReferences": {}
}