{
  "_format": "hh-sol-artifact-1",
  "contractName": "ClaimTopicsFacet",
  "sourceName": "contracts/faces/ClaimTopicsFacet.sol",
  "abi": [
    {
      "anonymous": false,
      "inputs": [
        {
          "indexed": true,
          "internalType": "uint256",
          "name": "topic",
          "type": "uint256"
        }
      ],
      "name": "ClaimTopicAdded",
      "type": "event"
    },
    {
      "anonymous": false,
      "inputs": [
        {
          "indexed": true,
          "internalType": "uint256",
          "name": "topic",
          "type": "uint256"
        }
      ],
      "name": "ClaimTopicRemoved",
      "type": "event"
    },
    {
      "inputs": [
        {
          "internalType": "uint256",
          "name": "topic",
          "type": "uint256"
        }
      ],
      "name": "addClaimTopic",
      "outputs": [],
      "stateMutability": "nonpayable",
      "type": "function"
    },
    {
      "inputs": [],
      "name": "getClaimTopics",
      "outputs": [
        {
          "internalType": "uint256[]",
          "name": "",
          "type": "uint256[]"
        }
      ],
      "stateMutability": "view",
      "type": "function"
    },
    {
      "inputs": [
        {
          "internalType": "uint256",
          "name": "topic",
          "type": "uint256"
        }
      ],
      "name": "removeClaimTopic",
      "outputs": [],
      "stateMutability": "nonpayable",
      "type": "function"
    }
  ],
  "bytecode": "0x608060405234801561001057600080fd5b506104a4806100206000396000f3fe608060405234801561001057600080fd5b50600436106100415760003560e01c80630829784614610046578063c7b225511461005b578063df09d6041461006e575b600080fd5b61005961005436600461037d565b61008c565b005b61005961006936600461037d565b6101eb565b610076610315565b6040516100839190610396565b60405180910390f35b60008051602061044f833981519152600a01546001600160a01b031633146100e75760405162461bcd60e51b81526020600482015260096024820152682737ba1037bbb732b960b91b60448201526064015b60405180910390fd5b60008051602061044f83398151915260005b600d8201548110156101e6578282600d01828154811061011b5761011b6103da565b9060005260206000200154036101d457600d8201805461013d90600190610406565b8154811061014d5761014d6103da565b906000526020600020015482600d01828154811061016d5761016d6103da565b600091825260209091200155600d820180548061018c5761018c61041f565b60019003818190600052602060002001600090559055827f0b1381093c776453c1bbe54fd68be1b235c65db61d099cb50d194b2991e0eec560405160405180910390a2505050565b806101de81610435565b9150506100f9565b505050565b60008051602061044f833981519152600a01546001600160a01b031633146102415760405162461bcd60e51b81526020600482015260096024820152682737ba1037bbb732b960b91b60448201526064016100de565b60008051602061044f83398151915260005b600d8201548110156102cf578282600d018281548110610275576102756103da565b9060005260206000200154036102bd5760405162461bcd60e51b815260206004820152600d60248201526c105b1c9958591e481859191959609a1b60448201526064016100de565b806102c781610435565b915050610253565b50600d810180546001810182556000918252602082200183905560405183917f01c928b7f7ade2949e92366aa9454dbef3a416b731cf6ec786ba9595bbd814d691a25050565b606060008051602061044f833981519152600d0180548060200260200160405190810160405280929190818152602001828054801561037357602002820191906000526020600020905b81548152602001906001019080831161035f575b5050505050905090565b60006020828403121561038f57600080fd5b5035919050565b6020808252825182820181905260009190848201906040850190845b818110156103ce578351835292840192918401916001016103b2565b50909695505050505050565b634e487b7160e01b600052603260045260246000fd5b634e487b7160e01b600052601160045260246000fd5b81810381811115610419576104196103f0565b92915050565b634e487b7160e01b600052603160045260246000fd5b600060018201610447576104476103f0565b506001019056fec2b69da5e7be41c6eaba0bfa82e0e1fef8d4512d663aa63c99ede9dd1d17b00fa2646970667358221220da20b2b3e41aeb297b252e290b71364f62272fa2505a909a567223e6e69db7b164736f6c63430008110033",
  "linkReferences": {},
  "deployedLinkReferences": {}
}